{
  "_format": "hh3-artifact-1",
  "contractName": "TokenVesting",
  "sourceName": "contracts/TokenVesting.sol",
  "abi": [
    {
      "inputs": [
        {
          "internalType": "address",
          "name": "token_",
          "type": "address"
        }
      ],
      "stateMutability": "nonpayable",
      "type": "constructor"
    },
    {
      "inputs": [
        {
          "internalType": "address",
          "name": "owner",
          "type": "address"
        }
      ],
      "name": "OwnableInvalidOwner",
      "type": "error"
    },
    {
      "inputs": [
        {
          "internalType": "address",
          "name": "account",
          "type": "address"
        }
      ],
      "name": "OwnableUnauthorizedAccount",
      "type": "error"
    },
    {
      "inputs": [],
      "name": "ReentrancyGuardReentrantCall",
      "type": "error"
    },
    {
      "inputs": [
        {
          "internalType": "address",
          "name": "token",
          "type": "address"
        }
      ],
      "name": "SafeERC20FailedOperation",
      "type": "error"
    },
    {
      "anonymous": false,
      "inputs": [
        {
          "indexed": true,
          "internalType": "address",
          "name": "to",
          "type": "address"
        },
        {
          "indexed": false,
          "internalType": "uint256",
          "name": "amount",
          "type": "uint256"
        }
      ],
      "name": "EmergencyWithdrawal",
      "type": "event"
    },
    {
      "anonymous": false,
      "inputs": [
        {
          "indexed": true,
          "internalType": "address",
          "name": "previousOwner",
          "type": "address"
        },
        {
          "indexed": true,
          "internalType": "address",
          "name": "newOwner",
          "type": "address"
        }
      ],
      "name": "OwnershipTransferred",
      "type": "event"
    },
    {
      "anonymous": false,
      "inputs": [
        {
          "indexed": true,
          "internalType": "address",
          "name": "beneficiary",
          "type": "address"
        },
        {
          "indexed": false,
          "internalType": "uint256",
          "name": "amount",
          "type": "uint256"
        }
      ],
      "name": "Released",
      "type": "event"
    },
    {
      "anonymous": false,
      "inputs": [
        {
          "indexed": true,
          "internalType": "address",
          "name": "beneficiary",
          "type": "address"
        },
        {
          "indexed": false,
          "internalType": "uint256",
          "name": "amount",
          "type": "uint256"
        },
        {
          "indexed": false,
          "internalType": "uint64",
          "name": "start",
          "type": "uint64"
        },
        {
          "indexed": false,
          "internalType": "uint64",
          "name": "cliff",
          "type": "uint64"
        },
        {
          "indexed": false,
          "internalType": "uint64",
          "name": "duration",
          "type": "uint64"
        }
      ],
      "name": "VestingScheduleCreated",
      "type": "event"
    },
    {
      "anonymous": false,
      "inputs": [
        {
          "indexed": true,
          "internalType": "address",
          "name": "beneficiary",
          "type": "address"
        },
        {
          "indexed": false,
          "internalType": "uint256",
          "name": "newTotal",
          "type": "uint256"
        }
      ],
      "name": "VestingScheduleUpdated",
      "type": "event"
    },
    {
      "inputs": [
        {
          "internalType": "address",
          "name": "beneficiary_",
          "type": "address"
        },
        {
          "internalType": "uint64",
          "name": "start_",
          "type": "uint64"
        },
        {
          "internalType": "uint64",
          "name": "cliff_",
          "type": "uint64"
        },
        {
          "internalType": "uint64",
          "name": "duration_",
          "type": "uint64"
        },
        {
          "internalType": "uint256",
          "name": "totalAmount_",
          "type": "uint256"
        }
      ],
      "name": "createVestingSchedule",
      "outputs": [],
      "stateMutability": "nonpayable",
      "type": "function"
    },
    {
      "inputs": [
        {
          "internalType": "uint256",
          "name": "amount",
          "type": "uint256"
        }
      ],
      "name": "emergencyWithdraw",
      "outputs": [],
      "stateMutability": "nonpayable",
      "type": "function"
    },
    {
      "inputs": [],
      "name": "getAllBeneficiaries",
      "outputs": [
        {
          "internalType": "address[]",
          "name": "",
          "type": "address[]"
        }
      ],
      "stateMutability": "view",
      "type": "function"
    },
    {
      "inputs": [
        {
          "internalType": "address",
          "name": "beneficiary_",
          "type": "address"
        }
      ],
      "name": "getReleasableAmount",
      "outputs": [
        {
          "internalType": "uint256",
          "name": "",
          "type": "uint256"
        }
      ],
      "stateMutability": "view",
      "type": "function"
    },
    {
      "inputs": [
        {
          "internalType": "address",
          "name": "beneficiary_",
          "type": "address"
        }
      ],
      "name": "getVestingProgress",
      "outputs": [
        {
          "internalType": "uint256",
          "name": "percentVested",
          "type": "uint256"
        }
      ],
      "stateMutability": "view",
      "type": "function"
    },
    {
      "inputs": [
        {
          "internalType": "address",
          "name": "beneficiary_",
          "type": "address"
        }
      ],
      "name": "getVestingSchedule",
      "outputs": [
        {
          "components": [
            {
              "internalType": "bool",
              "name": "initialized",
              "type": "bool"
            },
            {
              "internalType": "address",
              "name": "beneficiary",
              "type": "address"
            },
            {
              "internalType": "uint64",
              "name": "cliff",
              "type": "uint64"
            },
            {
              "internalType": "uint64",
              "name": "start",
              "type": "uint64"
            },
            {
              "internalType": "uint64",
              "name": "duration",
              "type": "uint64"
            },
            {
              "internalType": "uint256",
              "name": "totalAmount",
              "type": "uint256"
            },
            {
              "internalType": "uint256",
              "name": "released",
              "type": "uint256"
            }
          ],
          "internalType": "struct TokenVesting.VestingSchedule",
          "name": "",
          "type": "tuple"
        }
      ],
      "stateMutability": "view",
      "type": "function"
    },
    {
      "inputs": [],
      "name": "owner",
      "outputs": [
        {
          "internalType": "address",
          "name": "",
          "type": "address"
        }
      ],
      "stateMutability": "view",
      "type": "function"
    },
    {
      "inputs": [
        {
          "internalType": "address",
          "name": "beneficiary_",
          "type": "address"
        }
      ],
      "name": "release",
      "outputs": [],
      "stateMutability": "nonpayable",
      "type": "function"
    },
    {
      "inputs": [],
      "name": "renounceOwnership",
      "outputs": [],
      "stateMutability": "nonpayable",
      "type": "function"
    },
    {
      "inputs": [],
      "name": "token",
      "outputs": [
        {
          "internalType": "contract IERC20",
          "name": "",
          "type": "address"
        }
      ],
      "stateMutability": "view",
      "type": "function"
    },
    {
      "inputs": [
        {
          "internalType": "address",
          "name": "newOwner",
          "type": "address"
        }
      ],
      "name": "transferOwnership",
      "outputs": [],
      "stateMutability": "nonpayable",
      "type": "function"
    }
  ],
  "bytecode": "0x60a03461012d57601f610e4738819003918201601f19168301916001600160401b038311848410176101315780849260209460405283398101031261012d57516001600160a01b0381169081900361012d57331561011a575f8054336001600160a01b03198216811783556040519290916001600160a01b0316907f8be0079c531659141344cd1fd0a4f28419497f9722a3daafe3b4186f6b6457e09080a36001805581156100d85750608052604051610d019081610146823960805181818160aa015281816102460152818161071001526108fc0152f35b62461bcd60e51b815260206004820152601c60248201527f546f6b656e20616464726573732063616e6e6f74206265207a65726f000000006044820152606490fd5b631e4fbdf760e01b5f525f60045260245ffd5b5f80fd5b634e487b7160e01b5f52604160045260245ffdfe6080806040526004361015610012575f80fd5b5f3560e01c9081631916558714610859575080632afd1a7d146108365780632f14bae81461076e5780635312ea8e146106d6578063715018a61461067f5780638da5cb5b146106585780639f8290631461054b578063a7bbebcb1461018d578063cf75cff314610162578063f2fde38b146100dd5763fc0c546a14610095575f80fd5b346100d9575f3660031901126100d9576040517f00000000000000000000000000000000000000000000000000000000000000006001600160a01b03168152602090f35b5f80fd5b346100d95760203660031901126100d9576100f66109ba565b6100fe610ca5565b6001600160a01b0316801561014f575f80546001600160a01b03198116831782556001600160a01b0316907f8be0079c531659141344cd1fd0a4f28419497f9722a3daafe3b4186f6b6457e09080a3005b631e4fbdf760e01b5f525f60045260245ffd5b346100d95760203660031901126100d95760206101856101806109ba565b610ad1565b604051908152f35b346100d95760a03660031901126100d9576101a66109ba565b6024356001600160401b038116908181036100d957604435926001600160401b038416918285036100d957606435906001600160401b0382168092036100d957608435926101f2610ca5565b6001600160a01b03165f8181526002602052604090205490969060ff166105145761021e841515610a5a565b82156104e0578285116104a8576040516370a0823160e01b81523060048201526020816024817f00000000000000000000000000000000000000000000000000000000000000006001600160a01b03165afa801561049d5785915f91610468575b501061042d5761028e91610a93565b60036040519161029d83610a1e565b60018352602083018881526001600160401b036040850192168252606084018881526080850186815260a086019288845260c08701945f86528c5f52600260205260405f20975115159160ff895491610100600160a81b03905160081b16926001600160401b0360a81b905160a81b1693169062ffffff60e81b1617171786556001600160401b03600187019251166fffffffffffffffff00000000000000008354925160401b16916fffffffffffffffffffffffffffffffff191617179055516002840155519101556003549268010000000000000000841015610419576001840180600355841015610405577f2389e17d18cc1f40c2192dafee563b712029088cff0f3c01b6ba7afc177e76ca9460809460035f527fc2575a0e9e593c00f959f8c92f12db2869c3395a3b0502d05e2516446f71f85b01876bffffffffffffffffffffffff60a01b825416179055604051938452602084015260408301526060820152a2005b634e487b7160e01b5f52603260045260245ffd5b634e487b7160e01b5f52604160045260245ffd5b60405162461bcd60e51b8152602060048201526013602482015272496e73756666696369656e7420746f6b656e7360681b6044820152606490fd5b9150506020813d602011610495575b8161048460209383610a39565b810103126100d9578490518961027f565b3d9150610477565b6040513d5f823e3d90fd5b60405162461bcd60e51b815260206004820152601060248201526f21b634b333101f10323ab930ba34b7b760811b6044820152606490fd5b60405162461bcd60e51b815260206004820152600c60248201526b04475726174696f6e203d20360a41b6044820152606490fd5b60405162461bcd60e51b815260206004820152600f60248201526e5363686564756c652065786973747360881b6044820152606490fd5b346100d95760203660031901126100d9576105646109ba565b5f60c060405161057381610a1e565b8281528260208201528260408201528260608201528260808201528260a0820152015260018060a01b03165f52600260205260e060405f206040516105b781610a1e565b8154916001600160401b0360ff8416151593848452816020850160018060a01b038360081c16815281604087019360a81c16835281600186015493606088019282861684528260808a019660401c16865260c0600360028a01549960a08c019a8b5201549901988952604051998a5260018060a01b0390511660208a01525116604088015251166060860152511660808401525160a08301525160c0820152f35b346100d9575f3660031901126100d9575f546040516001600160a01b039091168152602090f35b346100d9575f3660031901126100d957610697610ca5565b5f80546001600160a01b0319811682556001600160a01b03167f8be0079c531659141344cd1fd0a4f28419497f9722a3daafe3b4186f6b6457e08280a3005b346100d95760203660031901126100d9576004356106f2610ca5565b6106fd811515610a5a565b5f546107349082906001600160a01b03167f0000000000000000000000000000000000000000000000000000000000000000610c17565b5f546040519182526001600160a01b0316907f23d6711a1d031134a36921253c75aa59e967d38e369ac625992824315e204f2090602090a2005b346100d9575f3660031901126100d9576040518060206003549283815201809260035f527fc2575a0e9e593c00f959f8c92f12db2869c3395a3b0502d05e2516446f71f85b905f5b81811061081757505050816107cc910382610a39565b604051918291602083019060208452518091526040830191905f5b8181106107f5575050500390f35b82516001600160a01b03168452859450602093840193909201916001016107e7565b82546001600160a01b03168452602090930192600192830192016107b6565b346100d95760203660031901126100d95760206101856108546109ba565b6109dd565b346100d95760203660031901126100d9576108726109ba565b906002600154146109ab57600260015560018060a01b03821691825f52600260205260405f209160ff8354161561097b575060036108af82610b73565b9201916108be835480926109d0565b9081156109415781810180911161092d5781602093610920927fb21fb52d5749b80f3182f8c6992236b5e5576681880914484d7f4c9b062e619e96557f0000000000000000000000000000000000000000000000000000000000000000610c17565b604051908152a260018055005b634e487b7160e01b5f52601160045260245ffd5b60405162461bcd60e51b81526020600482015260126024820152714e6f7468696e6720746f2072656c6561736560701b6044820152606490fd5b62461bcd60e51b815260206004820152600b60248201526a4e6f207363686564756c6560a81b6044820152606490fd5b633ee5aeb560e01b5f5260045ffd5b600435906001600160a01b03821682036100d957565b9190820391821161092d57565b6001600160a01b0381165f908152600260205260409020805460ff1615610a18576003610a0c610a1593610b73565b910154906109d0565b90565b50505f90565b60e081019081106001600160401b0382111761041957604052565b90601f801991011681019081106001600160401b0382111761041957604052565b15610a6157565b60405162461bcd60e51b815260206004820152600a6024820152690416d6f756e74203d20360b41b6044820152606490fd5b906001600160401b03809116911601906001600160401b03821161092d57565b8115610abd570490565b634e487b7160e01b5f52601260045260245ffd5b6001600160a01b03165f908152600260205260409020805460ff811615908115610b5d575b50610b5857600101546001600160401b038082169160401c16906001600160401b03610b228383610a93565b16421015610b5157610b3490426109d0565b9060648202918083046064149015171561092d57610a1591610ab3565b5050606490565b505f90565b6001600160401b03915060a81c1642105f610af6565b6001600160a01b03165f908152600260205260409020805460ff811615908115610c01575b50610b58576001810154906001600160401b038083169260401c16906001600160401b03610bc68385610a93565b16421015610bf7576002610bdd91015492426109d0565b9182810292818404149015171561092d57610a1591610ab3565b6002015492915050565b6001600160401b03915060a81c1642105f610b98565b60405163a9059cbb60e01b60208281019182526001600160a01b03909416602483015260448083019590955293815290925f91610c55606482610a39565b519082855af11561049d575f513d610c9c57506001600160a01b0381163b155b610c7c5750565b635274afe760e01b5f9081526001600160a01b0391909116600452602490fd5b60011415610c75565b5f546001600160a01b03163303610cb857565b63118cdaa760e01b5f523360045260245ffdfea2646970667358221220e58e0246bb876ff0d0a2f40ca3850964fc5f7e90585a5245257ccf29b4e8993064736f6c634300081c0033",
  "linkReferences": {},
  "deployedLinkReferences": {},
  "immutableReferences": {
    "922": [
      {
        "length": 32,
        "start": 170
      },
      {
        "length": 32,
        "start": 582
      },
      {
        "length": 32,
        "start": 1808
      },
      {
        "length": 32,
        "start": 2300
      }
    ]
  },
  "inputSourceName": "project/contracts/TokenVesting.sol",
  "buildInfoId": "solc-0_8_28-920dc17456c23baaaf42d46ab2b5de97f136e693"
}