{
  "_format": "hh3-artifact-1",
  "contractName": "TrustScore",
  "sourceName": "contracts/TrustScore.sol",
  "abi": [
    {
      "inputs": [],
      "stateMutability": "nonpayable",
      "type": "constructor"
    },
    {
      "inputs": [
        {
          "internalType": "address",
          "name": "owner",
          "type": "address"
        }
      ],
      "name": "OwnableInvalidOwner",
      "type": "error"
    },
    {
      "inputs": [
        {
          "internalType": "address",
          "name": "account",
          "type": "address"
        }
      ],
      "name": "OwnableUnauthorizedAccount",
      "type": "error"
    },
    {
      "anonymous": false,
      "inputs": [
        {
          "indexed": true,
          "internalType": "address",
          "name": "contractAddress",
          "type": "address"
        },
        {
          "indexed": false,
          "internalType": "bool",
          "name": "isAuthorized",
          "type": "bool"
        }
      ],
      "name": "ContractAuthorized",
      "type": "event"
    },
    {
      "anonymous": false,
      "inputs": [
        {
          "indexed": true,
          "internalType": "address",
          "name": "previousOwner",
          "type": "address"
        },
        {
          "indexed": true,
          "internalType": "address",
          "name": "newOwner",
          "type": "address"
        }
      ],
      "name": "OwnershipTransferred",
      "type": "event"
    },
    {
      "anonymous": false,
      "inputs": [
        {
          "indexed": true,
          "internalType": "address",
          "name": "user",
          "type": "address"
        },
        {
          "indexed": false,
          "internalType": "uint8",
          "name": "oldScore",
          "type": "uint8"
        },
        {
          "indexed": false,
          "internalType": "uint8",
          "name": "newScore",
          "type": "uint8"
        }
      ],
      "name": "ScoreUpdated",
      "type": "event"
    },
    {
      "inputs": [],
      "name": "CREATE_BET_POINTS",
      "outputs": [
        {
          "internalType": "uint8",
          "name": "",
          "type": "uint8"
        }
      ],
      "stateMutability": "view",
      "type": "function"
    },
    {
      "inputs": [],
      "name": "PARTICIPATE_POINTS",
      "outputs": [
        {
          "internalType": "uint8",
          "name": "",
          "type": "uint8"
        }
      ],
      "stateMutability": "view",
      "type": "function"
    },
    {
      "inputs": [],
      "name": "PENALTY_POINTS",
      "outputs": [
        {
          "internalType": "uint8",
          "name": "",
          "type": "uint8"
        }
      ],
      "stateMutability": "view",
      "type": "function"
    },
    {
      "inputs": [],
      "name": "VOTE_POINTS",
      "outputs": [
        {
          "internalType": "uint8",
          "name": "",
          "type": "uint8"
        }
      ],
      "stateMutability": "view",
      "type": "function"
    },
    {
      "inputs": [
        {
          "internalType": "address",
          "name": "_user",
          "type": "address"
        }
      ],
      "name": "applyPenalty",
      "outputs": [],
      "stateMutability": "nonpayable",
      "type": "function"
    },
    {
      "inputs": [
        {
          "internalType": "address",
          "name": "_contractAddress",
          "type": "address"
        },
        {
          "internalType": "bool",
          "name": "_isAuthorized",
          "type": "bool"
        }
      ],
      "name": "authorizeContract",
      "outputs": [],
      "stateMutability": "nonpayable",
      "type": "function"
    },
    {
      "inputs": [
        {
          "internalType": "address",
          "name": "",
          "type": "address"
        }
      ],
      "name": "authorizedContracts",
      "outputs": [
        {
          "internalType": "bool",
          "name": "",
          "type": "bool"
        }
      ],
      "stateMutability": "view",
      "type": "function"
    },
    {
      "inputs": [
        {
          "internalType": "address",
          "name": "_user",
          "type": "address"
        }
      ],
      "name": "getScore",
      "outputs": [
        {
          "internalType": "uint8",
          "name": "",
          "type": "uint8"
        }
      ],
      "stateMutability": "view",
      "type": "function"
    },
    {
      "inputs": [
        {
          "internalType": "address",
          "name": "_user",
          "type": "address"
        }
      ],
      "name": "getUserTrustInfo",
      "outputs": [
        {
          "internalType": "uint8",
          "name": "score",
          "type": "uint8"
        },
        {
          "internalType": "bool",
          "name": "isAuthorized",
          "type": "bool"
        }
      ],
      "stateMutability": "view",
      "type": "function"
    },
    {
      "inputs": [
        {
          "internalType": "address",
          "name": "_creator",
          "type": "address"
        }
      ],
      "name": "logBetCreation",
      "outputs": [],
      "stateMutability": "nonpayable",
      "type": "function"
    },
    {
      "inputs": [
        {
          "internalType": "address",
          "name": "_participant",
          "type": "address"
        }
      ],
      "name": "logBetParticipation",
      "outputs": [],
      "stateMutability": "nonpayable",
      "type": "function"
    },
    {
      "inputs": [
        {
          "internalType": "address",
          "name": "_voter",
          "type": "address"
        }
      ],
      "name": "logVote",
      "outputs": [],
      "stateMutability": "nonpayable",
      "type": "function"
    },
    {
      "inputs": [],
      "name": "owner",
      "outputs": [
        {
          "internalType": "address",
          "name": "",
          "type": "address"
        }
      ],
      "stateMutability": "view",
      "type": "function"
    },
    {
      "inputs": [],
      "name": "renounceOwnership",
      "outputs": [],
      "stateMutability": "nonpayable",
      "type": "function"
    },
    {
      "inputs": [
        {
          "internalType": "address",
          "name": "_user",
          "type": "address"
        }
      ],
      "name": "resetScore",
      "outputs": [],
      "stateMutability": "nonpayable",
      "type": "function"
    },
    {
      "inputs": [
        {
          "internalType": "address",
          "name": "",
          "type": "address"
        }
      ],
      "name": "scores",
      "outputs": [
        {
          "internalType": "uint8",
          "name": "",
          "type": "uint8"
        }
      ],
      "stateMutability": "view",
      "type": "function"
    },
    {
      "inputs": [
        {
          "internalType": "address",
          "name": "newOwner",
          "type": "address"
        }
      ],
      "name": "transferOwnership",
      "outputs": [],
      "stateMutability": "nonpayable",
      "type": "function"
    }
  ],
  "bytecode": "0x6080806040523460885733156075575f8054336001600160a01b0319821681178355916001600160a01b03909116907f8be0079c531659141344cd1fd0a4f28419497f9722a3daafe3b4186f6b6457e09080a3335f52600260205260405f20600160ff19825416179055610723908161008d8239f35b631e4fbdf760e01b5f525f60045260245ffd5b5f80fdfe6080806040526004361015610012575f80fd5b5f3560e01c908163319d033c146104ea5750806332f95de2146104b157806333620eb81461044a578063393f530f1461037e5780633e852f651461022d5780635cbeb13f1461030157806370811c83146102e6578063715018a61461028f57806376dd110f146101a25780638da5cb5b14610268578063a971fb231461022d578063c27ff358146101dd578063cab9599f14610160578063d47875d0146101a2578063d5b9221b14610165578063e8e89ecc146101605763f2fde38b146100d7575f80fd5b3461015c57602036600319011261015c576100f0610503565b6100f8610626565b6001600160a01b03168015610149575f80546001600160a01b03198116831782556001600160a01b0316907f8be0079c531659141344cd1fd0a4f28419497f9722a3daafe3b4186f6b6457e09080a3005b631e4fbdf760e01b5f525f60045260245ffd5b5f80fd5b610519565b3461015c57602036600319011261015c576001600160a01b03610186610503565b165f526002602052602060ff60405f2054166040519015158152f35b3461015c57602036600319011261015c576001600160a01b036101c3610503565b165f526001602052602060ff60405f205416604051908152f35b3461015c57602036600319011261015c5760406001600160a01b03610200610503565b16805f52600160205260ff825f205416905f52600260205260ff825f205416825191825215156020820152f35b3461015c57602036600319011261015c57610266610249610503565b335f52600260205261026160ff60405f205416610534565b61064c565b005b3461015c575f36600319011261015c575f546040516001600160a01b039091168152602090f35b3461015c575f36600319011261015c576102a7610626565b5f80546001600160a01b0319811682556001600160a01b03167f8be0079c531659141344cd1fd0a4f28419497f9722a3daafe3b4186f6b6457e08280a3005b3461015c575f36600319011261015c57602060405160058152f35b3461015c57604036600319011261015c5761031a610503565b6024359081151580920361015c5760207f3213ab8ec2ed122402f038736b41878b69ae9f61f49a7edd0666bce891d29fc991610354610626565b60018060a01b031692835f526002825260405f2060ff1981541660ff8316179055604051908152a2005b3461015c57602036600319011261015c57610397610503565b335f5260026020526103af60ff60405f205416610534565b60018060a01b0316805f52600160205260ff60405f2054166002810160ff8111610436575f5160206106ce5f395f51905f5291606460ff83161161042d575b835f52600160205260405f2060ff831660ff198254161790556104286040519283928390929160ff60209181604085019616845216910152565b0390a2005b606491506103ee565b634e487b7160e01b5f52601160045260245ffd5b3461015c57602036600319011261015c57610463610503565b61046b610626565b6001600160a01b03165f818152600160209081526040808320805460ff198116909155815160ff9091168152918201929092525f5160206106ce5f395f51905f529190a2005b3461015c57602036600319011261015c576102666104cd610503565b335f5260026020526104e560ff60405f205416610534565b610580565b3461015c575f36600319011261015c5780600260209252f35b600435906001600160a01b038216820361015c57565b3461015c575f36600319011261015c57602060405160018152f35b1561053b57565b60405162461bcd60e51b815260206004820152601a60248201527f4e6f7420616e20617574686f72697a656420636f6e74726163740000000000006044820152606490fd5b5f546001600160a01b039182169116811461062357805f52600160205260ff60405f205416600581115f1461060d5760041981019060ff8211610436575f5160206106ce5f395f51905f5291905b835f52600160205260405f2060ff831660ff198254161790556106086040519283928390929160ff60209181604085019616845216910152565b0390a2565b5f5160206106ce5f395f51905f52905f906105ce565b50565b5f546001600160a01b0316330361063957565b63118cdaa760e01b5f523360045260245ffd5b60018060a01b0316805f52600160205260ff60405f2054166001810160ff8111610436575f5160206106ce5f395f51905f5291606460ff8316116106c457835f52600160205260405f2060ff831660ff198254161790556106086040519283928390929160ff60209181604085019616845216910152565b606491506105ce56fe7f7fd872ba3bc458143afb3ffe4aa312415cf687a1c870dd06bfb55ca3f33eaaa2646970667358221220b429c968051fb73f27ac249ac9da0bb95c62fee200395fc195a9d18a9c6f139e64736f6c634300081c0033",
  "linkReferences": {},
  "deployedLinkReferences": {},
  "immutableReferences": {},
  "inputSourceName": "project/contracts/TrustScore.sol",
  "buildInfoId": "solc-0_8_28-6636b21c798de832c59807e96cbc01f1be15222d"
}