{
  "_format": "hh3-artifact-1",
  "contractName": "BetFactory",
  "sourceName": "contracts/BetFactory.sol",
  "abi": [
    {
      "inputs": [
        {
          "internalType": "address",
          "name": "_trustScore",
          "type": "address"
        },
        {
          "internalType": "address",
          "name": "_usdcToken",
          "type": "address"
        },
        {
          "internalType": "address",
          "name": "_proofToken",
          "type": "address"
        },
        {
          "internalType": "address",
          "name": "_feeCollector",
          "type": "address"
        },
        {
          "internalType": "uint256",
          "name": "_creationFeeProof",
          "type": "uint256"
        },
        {
          "internalType": "uint256",
          "name": "_proofCollateralUsdc",
          "type": "uint256"
        },
        {
          "internalType": "uint256",
          "name": "_initialVoteStakeAmountProof",
          "type": "uint256"
        },
        {
          "internalType": "uint256",
          "name": "_maxActiveBets",
          "type": "uint256"
        },
        {
          "internalType": "address",
          "name": "_betImplementation",
          "type": "address"
        }
      ],
      "stateMutability": "nonpayable",
      "type": "constructor"
    },
    {
      "inputs": [],
      "name": "FailedDeployment",
      "type": "error"
    },
    {
      "inputs": [
        {
          "internalType": "uint256",
          "name": "balance",
          "type": "uint256"
        },
        {
          "internalType": "uint256",
          "name": "needed",
          "type": "uint256"
        }
      ],
      "name": "InsufficientBalance",
      "type": "error"
    },
    {
      "inputs": [
        {
          "internalType": "address",
          "name": "owner",
          "type": "address"
        }
      ],
      "name": "OwnableInvalidOwner",
      "type": "error"
    },
    {
      "inputs": [
        {
          "internalType": "address",
          "name": "account",
          "type": "address"
        }
      ],
      "name": "OwnableUnauthorizedAccount",
      "type": "error"
    },
    {
      "inputs": [],
      "name": "ReentrancyGuardReentrantCall",
      "type": "error"
    },
    {
      "anonymous": false,
      "inputs": [
        {
          "indexed": true,
          "internalType": "address",
          "name": "betAddress",
          "type": "address"
        },
        {
          "indexed": true,
          "internalType": "address",
          "name": "creator",
          "type": "address"
        },
        {
          "indexed": false,
          "internalType": "string",
          "name": "title",
          "type": "string"
        }
      ],
      "name": "BetCreated",
      "type": "event"
    },
    {
      "anonymous": false,
      "inputs": [
        {
          "indexed": false,
          "internalType": "uint8",
          "name": "oldPercentage",
          "type": "uint8"
        },
        {
          "indexed": false,
          "internalType": "uint8",
          "name": "newPercentage",
          "type": "uint8"
        }
      ],
      "name": "DefaultPlatformFeeChanged",
      "type": "event"
    },
    {
      "anonymous": false,
      "inputs": [
        {
          "indexed": false,
          "internalType": "uint8",
          "name": "oldPercentage",
          "type": "uint8"
        },
        {
          "indexed": false,
          "internalType": "uint8",
          "name": "newPercentage",
          "type": "uint8"
        }
      ],
      "name": "DefaultVoterRewardChanged",
      "type": "event"
    },
    {
      "anonymous": false,
      "inputs": [
        {
          "indexed": true,
          "internalType": "address",
          "name": "payer",
          "type": "address"
        },
        {
          "indexed": false,
          "internalType": "uint256",
          "name": "totalFee",
          "type": "uint256"
        },
        {
          "indexed": false,
          "internalType": "uint256",
          "name": "burnAmount",
          "type": "uint256"
        },
        {
          "indexed": false,
          "internalType": "uint256",
          "name": "keepAmount",
          "type": "uint256"
        }
      ],
      "name": "FeeProcessed",
      "type": "event"
    },
    {
      "anonymous": false,
      "inputs": [
        {
          "indexed": true,
          "internalType": "address",
          "name": "from",
          "type": "address"
        },
        {
          "indexed": true,
          "internalType": "address",
          "name": "to",
          "type": "address"
        },
        {
          "indexed": false,
          "internalType": "uint256",
          "name": "usdcAmount",
          "type": "uint256"
        },
        {
          "indexed": false,
          "internalType": "uint256",
          "name": "proofAmount",
          "type": "uint256"
        },
        {
          "indexed": false,
          "internalType": "string",
          "name": "reason",
          "type": "string"
        }
      ],
      "name": "InternalTransfer",
      "type": "event"
    },
    {
      "anonymous": false,
      "inputs": [
        {
          "indexed": false,
          "internalType": "uint256",
          "name": "oldLimit",
          "type": "uint256"
        },
        {
          "indexed": false,
          "internalType": "uint256",
          "name": "newLimit",
          "type": "uint256"
        }
      ],
      "name": "MaxActiveBetsChanged",
      "type": "event"
    },
    {
      "anonymous": false,
      "inputs": [
        {
          "indexed": true,
          "internalType": "address",
          "name": "previousOwner",
          "type": "address"
        },
        {
          "indexed": true,
          "internalType": "address",
          "name": "newOwner",
          "type": "address"
        }
      ],
      "name": "OwnershipTransferred",
      "type": "event"
    },
    {
      "anonymous": false,
      "inputs": [
        {
          "indexed": true,
          "internalType": "address",
          "name": "user",
          "type": "address"
        },
        {
          "indexed": false,
          "internalType": "uint256",
          "name": "amount",
          "type": "uint256"
        }
      ],
      "name": "ProofDeposited",
      "type": "event"
    },
    {
      "anonymous": false,
      "inputs": [
        {
          "indexed": true,
          "internalType": "address",
          "name": "user",
          "type": "address"
        },
        {
          "indexed": false,
          "internalType": "uint256",
          "name": "amount",
          "type": "uint256"
        }
      ],
      "name": "ProofWithdrawn",
      "type": "event"
    },
    {
      "anonymous": false,
      "inputs": [
        {
          "indexed": true,
          "internalType": "address",
          "name": "user",
          "type": "address"
        },
        {
          "indexed": false,
          "internalType": "uint256",
          "name": "amount",
          "type": "uint256"
        }
      ],
      "name": "UsdcDeposited",
      "type": "event"
    },
    {
      "anonymous": false,
      "inputs": [
        {
          "indexed": true,
          "internalType": "address",
          "name": "user",
          "type": "address"
        },
        {
          "indexed": false,
          "internalType": "uint256",
          "name": "amount",
          "type": "uint256"
        }
      ],
      "name": "UsdcWithdrawn",
      "type": "event"
    },
    {
      "anonymous": false,
      "inputs": [
        {
          "indexed": false,
          "internalType": "uint256",
          "name": "oldAmount",
          "type": "uint256"
        },
        {
          "indexed": false,
          "internalType": "uint256",
          "name": "newAmount",
          "type": "uint256"
        }
      ],
      "name": "VoteStakeAmountChanged",
      "type": "event"
    },
    {
      "inputs": [
        {
          "internalType": "address",
          "name": "",
          "type": "address"
        }
      ],
      "name": "activeBetsCount",
      "outputs": [
        {
          "internalType": "uint256",
          "name": "",
          "type": "uint256"
        }
      ],
      "stateMutability": "view",
      "type": "function"
    },
    {
      "inputs": [
        {
          "internalType": "uint256",
          "name": "",
          "type": "uint256"
        }
      ],
      "name": "allBets",
      "outputs": [
        {
          "internalType": "address",
          "name": "",
          "type": "address"
        }
      ],
      "stateMutability": "view",
      "type": "function"
    },
    {
      "inputs": [
        {
          "internalType": "address",
          "name": "_creator",
          "type": "address"
        }
      ],
      "name": "banCreator",
      "outputs": [],
      "stateMutability": "nonpayable",
      "type": "function"
    },
    {
      "inputs": [
        {
          "internalType": "address",
          "name": "",
          "type": "address"
        }
      ],
      "name": "bannedCreators",
      "outputs": [
        {
          "internalType": "bool",
          "name": "",
          "type": "bool"
        }
      ],
      "stateMutability": "view",
      "type": "function"
    },
    {
      "inputs": [],
      "name": "baseDurationDays",
      "outputs": [
        {
          "internalType": "uint256",
          "name": "",
          "type": "uint256"
        }
      ],
      "stateMutability": "view",
      "type": "function"
    },
    {
      "inputs": [],
      "name": "betImplementation",
      "outputs": [
        {
          "internalType": "address",
          "name": "",
          "type": "address"
        }
      ],
      "stateMutability": "view",
      "type": "function"
    },
    {
      "inputs": [
        {
          "components": [
            {
              "internalType": "string",
              "name": "title",
              "type": "string"
            },
            {
              "internalType": "string",
              "name": "description",
              "type": "string"
            },
            {
              "internalType": "uint256",
              "name": "bettingDeadline",
              "type": "uint256"
            },
            {
              "internalType": "uint256",
              "name": "proofDeadline",
              "type": "uint256"
            },
            {
              "internalType": "uint256",
              "name": "votingDeadline",
              "type": "uint256"
            },
            {
              "internalType": "uint256",
              "name": "minimumBetAmount",
              "type": "uint256"
            },
            {
              "internalType": "uint256",
              "name": "minimumSideStake",
              "type": "uint256"
            },
            {
              "internalType": "uint8",
              "name": "minimumTrustScore",
              "type": "uint8"
            },
            {
              "internalType": "uint256",
              "name": "minimumVotes",
              "type": "uint256"
            }
          ],
          "internalType": "struct Bet.BetDetails",
          "name": "_details",
          "type": "tuple"
        }
      ],
      "name": "calculateDynamicCreationFee",
      "outputs": [
        {
          "internalType": "uint256",
          "name": "",
          "type": "uint256"
        }
      ],
      "stateMutability": "view",
      "type": "function"
    },
    {
      "inputs": [
        {
          "internalType": "address",
          "name": "voter",
          "type": "address"
        }
      ],
      "name": "calculateRequiredStake",
      "outputs": [
        {
          "internalType": "uint256",
          "name": "",
          "type": "uint256"
        }
      ],
      "stateMutability": "view",
      "type": "function"
    },
    {
      "inputs": [
        {
          "components": [
            {
              "internalType": "string",
              "name": "title",
              "type": "string"
            },
            {
              "internalType": "string",
              "name": "description",
              "type": "string"
            },
            {
              "internalType": "uint256",
              "name": "bettingDeadline",
              "type": "uint256"
            },
            {
              "internalType": "uint256",
              "name": "proofDeadline",
              "type": "uint256"
            },
            {
              "internalType": "uint256",
              "name": "votingDeadline",
              "type": "uint256"
            },
            {
              "internalType": "uint256",
              "name": "minimumBetAmount",
              "type": "uint256"
            },
            {
              "internalType": "uint256",
              "name": "minimumSideStake",
              "type": "uint256"
            },
            {
              "internalType": "uint8",
              "name": "minimumTrustScore",
              "type": "uint8"
            },
            {
              "internalType": "uint256",
              "name": "minimumVotes",
              "type": "uint256"
            }
          ],
          "internalType": "struct Bet.BetDetails",
          "name": "_details",
          "type": "tuple"
        }
      ],
      "name": "createBet",
      "outputs": [
        {
          "internalType": "address",
          "name": "",
          "type": "address"
        }
      ],
      "stateMutability": "nonpayable",
      "type": "function"
    },
    {
      "inputs": [],
      "name": "creationFeeProof",
      "outputs": [
        {
          "internalType": "uint256",
          "name": "",
          "type": "uint256"
        }
      ],
      "stateMutability": "view",
      "type": "function"
    },
    {
      "inputs": [],
      "name": "defaultPlatformFeePercentage",
      "outputs": [
        {
          "internalType": "uint8",
          "name": "",
          "type": "uint8"
        }
      ],
      "stateMutability": "view",
      "type": "function"
    },
    {
      "inputs": [],
      "name": "defaultVoterRewardPercentage",
      "outputs": [
        {
          "internalType": "uint8",
          "name": "",
          "type": "uint8"
        }
      ],
      "stateMutability": "view",
      "type": "function"
    },
    {
      "inputs": [
        {
          "internalType": "uint256",
          "name": "_amount",
          "type": "uint256"
        }
      ],
      "name": "depositProof",
      "outputs": [],
      "stateMutability": "nonpayable",
      "type": "function"
    },
    {
      "inputs": [
        {
          "internalType": "uint256",
          "name": "_amount",
          "type": "uint256"
        }
      ],
      "name": "depositUsdc",
      "outputs": [],
      "stateMutability": "nonpayable",
      "type": "function"
    },
    {
      "inputs": [
        {
          "internalType": "address",
          "name": "creator",
          "type": "address"
        }
      ],
      "name": "factoryLogBetCompletion",
      "outputs": [],
      "stateMutability": "nonpayable",
      "type": "function"
    },
    {
      "inputs": [
        {
          "internalType": "address",
          "name": "participant",
          "type": "address"
        }
      ],
      "name": "factoryLogBetParticipation",
      "outputs": [],
      "stateMutability": "nonpayable",
      "type": "function"
    },
    {
      "inputs": [
        {
          "internalType": "address",
          "name": "voter",
          "type": "address"
        }
      ],
      "name": "factoryLogVote",
      "outputs": [],
      "stateMutability": "nonpayable",
      "type": "function"
    },
    {
      "inputs": [],
      "name": "feeCollector",
      "outputs": [
        {
          "internalType": "address",
          "name": "",
          "type": "address"
        }
      ],
      "stateMutability": "view",
      "type": "function"
    },
    {
      "inputs": [
        {
          "internalType": "address",
          "name": "",
          "type": "address"
        }
      ],
      "name": "firstInteraction",
      "outputs": [
        {
          "internalType": "uint256",
          "name": "",
          "type": "uint256"
        }
      ],
      "stateMutability": "view",
      "type": "function"
    },
    {
      "inputs": [
        {
          "internalType": "address",
          "name": "user",
          "type": "address"
        }
      ],
      "name": "getActiveBetCount",
      "outputs": [
        {
          "internalType": "uint256",
          "name": "",
          "type": "uint256"
        }
      ],
      "stateMutability": "view",
      "type": "function"
    },
    {
      "inputs": [],
      "name": "getBets",
      "outputs": [
        {
          "internalType": "address[]",
          "name": "",
          "type": "address[]"
        }
      ],
      "stateMutability": "view",
      "type": "function"
    },
    {
      "inputs": [],
      "name": "getFactoryConfig",
      "outputs": [
        {
          "internalType": "uint256",
          "name": "creationFee",
          "type": "uint256"
        },
        {
          "internalType": "uint256",
          "name": "voteStakeAmount",
          "type": "uint256"
        },
        {
          "internalType": "uint8",
          "name": "voterRewardPct",
          "type": "uint8"
        },
        {
          "internalType": "uint8",
          "name": "platformFeePct",
          "type": "uint8"
        },
        {
          "internalType": "uint256",
          "name": "maxActive",
          "type": "uint256"
        }
      ],
      "stateMutability": "view",
      "type": "function"
    },
    {
      "inputs": [
        {
          "internalType": "address",
          "name": "_user",
          "type": "address"
        }
      ],
      "name": "getInternalBalances",
      "outputs": [
        {
          "internalType": "uint256",
          "name": "usdcBalance",
          "type": "uint256"
        },
        {
          "internalType": "uint256",
          "name": "proofBalance",
          "type": "uint256"
        }
      ],
      "stateMutability": "view",
      "type": "function"
    },
    {
      "inputs": [
        {
          "internalType": "address",
          "name": "",
          "type": "address"
        }
      ],
      "name": "internalProofBalance",
      "outputs": [
        {
          "internalType": "uint256",
          "name": "",
          "type": "uint256"
        }
      ],
      "stateMutability": "view",
      "type": "function"
    },
    {
      "inputs": [
        {
          "internalType": "address",
          "name": "",
          "type": "address"
        }
      ],
      "name": "internalUsdcBalance",
      "outputs": [
        {
          "internalType": "uint256",
          "name": "",
          "type": "uint256"
        }
      ],
      "stateMutability": "view",
      "type": "function"
    },
    {
      "inputs": [
        {
          "internalType": "address",
          "name": "_user",
          "type": "address"
        }
      ],
      "name": "isBanned",
      "outputs": [
        {
          "internalType": "bool",
          "name": "",
          "type": "bool"
        }
      ],
      "stateMutability": "view",
      "type": "function"
    },
    {
      "inputs": [
        {
          "internalType": "address",
          "name": "",
          "type": "address"
        }
      ],
      "name": "isBetFromFactory",
      "outputs": [
        {
          "internalType": "bool",
          "name": "",
          "type": "bool"
        }
      ],
      "stateMutability": "view",
      "type": "function"
    },
    {
      "inputs": [],
      "name": "maxActiveBetsPerUser",
      "outputs": [
        {
          "internalType": "uint256",
          "name": "",
          "type": "uint256"
        }
      ],
      "stateMutability": "view",
      "type": "function"
    },
    {
      "inputs": [],
      "name": "owner",
      "outputs": [
        {
          "internalType": "address",
          "name": "",
          "type": "address"
        }
      ],
      "stateMutability": "view",
      "type": "function"
    },
    {
      "inputs": [],
      "name": "proofCollateralUsdc",
      "outputs": [
        {
          "internalType": "uint256",
          "name": "",
          "type": "uint256"
        }
      ],
      "stateMutability": "view",
      "type": "function"
    },
    {
      "inputs": [],
      "name": "proofToken",
      "outputs": [
        {
          "internalType": "contract ProofToken",
          "name": "",
          "type": "address"
        }
      ],
      "stateMutability": "view",
      "type": "function"
    },
    {
      "inputs": [],
      "name": "renounceOwnership",
      "outputs": [],
      "stateMutability": "nonpayable",
      "type": "function"
    },
    {
      "inputs": [
        {
          "internalType": "uint256",
          "name": "_days",
          "type": "uint256"
        }
      ],
      "name": "setBaseDurationDays",
      "outputs": [],
      "stateMutability": "nonpayable",
      "type": "function"
    },
    {
      "inputs": [
        {
          "internalType": "address",
          "name": "_implementation",
          "type": "address"
        }
      ],
      "name": "setBetImplementation",
      "outputs": [],
      "stateMutability": "nonpayable",
      "type": "function"
    },
    {
      "inputs": [
        {
          "internalType": "uint256",
          "name": "_newFee",
          "type": "uint256"
        }
      ],
      "name": "setCreationFee",
      "outputs": [],
      "stateMutability": "nonpayable",
      "type": "function"
    },
    {
      "inputs": [
        {
          "internalType": "uint8",
          "name": "_percentage",
          "type": "uint8"
        }
      ],
      "name": "setDefaultPlatformFeePercentage",
      "outputs": [],
      "stateMutability": "nonpayable",
      "type": "function"
    },
    {
      "inputs": [
        {
          "internalType": "uint8",
          "name": "_percentage",
          "type": "uint8"
        }
      ],
      "name": "setDefaultVoterRewardPercentage",
      "outputs": [],
      "stateMutability": "nonpayable",
      "type": "function"
    },
    {
      "inputs": [
        {
          "internalType": "address",
          "name": "_newCollector",
          "type": "address"
        }
      ],
      "name": "setFeeCollector",
      "outputs": [],
      "stateMutability": "nonpayable",
      "type": "function"
    },
    {
      "inputs": [
        {
          "internalType": "uint256",
          "name": "_limit",
          "type": "uint256"
        }
      ],
      "name": "setMaxActiveBetsPerUser",
      "outputs": [],
      "stateMutability": "nonpayable",
      "type": "function"
    },
    {
      "inputs": [
        {
          "internalType": "uint256",
          "name": "_amount",
          "type": "uint256"
        }
      ],
      "name": "setProofCollateralUsdc",
      "outputs": [],
      "stateMutability": "nonpayable",
      "type": "function"
    },
    {
      "inputs": [
        {
          "internalType": "uint256",
          "name": "_amount",
          "type": "uint256"
        }
      ],
      "name": "setVoteStakeAmount",
      "outputs": [],
      "stateMutability": "nonpayable",
      "type": "function"
    },
    {
      "inputs": [
        {
          "internalType": "address",
          "name": "_from",
          "type": "address"
        },
        {
          "internalType": "address",
          "name": "_to",
          "type": "address"
        },
        {
          "internalType": "uint256",
          "name": "_amount",
          "type": "uint256"
        },
        {
          "internalType": "string",
          "name": "_reason",
          "type": "string"
        }
      ],
      "name": "transferInternalProof",
      "outputs": [],
      "stateMutability": "nonpayable",
      "type": "function"
    },
    {
      "inputs": [
        {
          "internalType": "address",
          "name": "_from",
          "type": "address"
        },
        {
          "internalType": "address",
          "name": "_to",
          "type": "address"
        },
        {
          "internalType": "uint256",
          "name": "_amount",
          "type": "uint256"
        },
        {
          "internalType": "string",
          "name": "_reason",
          "type": "string"
        }
      ],
      "name": "transferInternalUsdc",
      "outputs": [],
      "stateMutability": "nonpayable",
      "type": "function"
    },
    {
      "inputs": [
        {
          "internalType": "address",
          "name": "newOwner",
          "type": "address"
        }
      ],
      "name": "transferOwnership",
      "outputs": [],
      "stateMutability": "nonpayable",
      "type": "function"
    },
    {
      "inputs": [],
      "name": "trustScoreContract",
      "outputs": [
        {
          "internalType": "contract TrustScore",
          "name": "",
          "type": "address"
        }
      ],
      "stateMutability": "view",
      "type": "function"
    },
    {
      "inputs": [
        {
          "internalType": "address",
          "name": "_creator",
          "type": "address"
        }
      ],
      "name": "unbanCreator",
      "outputs": [],
      "stateMutability": "nonpayable",
      "type": "function"
    },
    {
      "inputs": [],
      "name": "usdcToken",
      "outputs": [
        {
          "internalType": "contract IERC20",
          "name": "",
          "type": "address"
        }
      ],
      "stateMutability": "view",
      "type": "function"
    },
    {
      "inputs": [],
      "name": "voteStakeAmountProof",
      "outputs": [
        {
          "internalType": "uint256",
          "name": "",
          "type": "uint256"
        }
      ],
      "stateMutability": "view",
      "type": "function"
    },
    {
      "inputs": [
        {
          "internalType": "uint256",
          "name": "_amount",
          "type": "uint256"
        }
      ],
      "name": "withdrawProof",
      "outputs": [],
      "stateMutability": "nonpayable",
      "type": "function"
    },
    {
      "inputs": [
        {
          "internalType": "uint256",
          "name": "_amount",
          "type": "uint256"
        }
      ],
      "name": "withdrawUsdc",
      "outputs": [],
      "stateMutability": "nonpayable",
      "type": "function"
    }
  ],
  "bytecode": "0x60803461037357601f6125d538819003918201601f19168301916001600160401b038311848410176103775780849261012094604052833981010312610373576100488161038b565b6100546020830161038b565b916100616040820161038b565b61006d6060830161038b565b9360808301519060a08401519560c08501519361009261010060e0880151970161038b565b923315610360575f8054336001600160a01b03198216811783556040519a9290916001600160a01b0316907f8be0079c531659141344cd1fd0a4f28419497f9722a3daafe3b4186f6b6457e09080a36001805560076011556001600160a01b031697881561032c57506001600160a01b03169081156102fb576001600160a01b03169182156102c9576001600160a01b031692831561029057851561024b578815610206576001600160a01b03169687156101c15760018060a01b0319600254161760025560018060a01b0319600354161760035560018060a01b0319600454161760045560018060a01b03196005541617600555600b55600c55600e5560018060a01b0319600654161760065561030561ffff19600d541617600d5560125560405161223590816103a08239f35b60405162461bcd60e51b815260206004820152601660248201527f5a65726f20626574496d706c656d656e746174696f6e000000000000000000006044820152606490fd5b60405162461bcd60e51b815260206004820152601a60248201527f43726561746f72207374616b65206d61737420626520203e20300000000000006044820152606490fd5b60405162461bcd60e51b815260206004820152601660248201527f566f7465207374616b65206d757374206265203e2030000000000000000000006044820152606490fd5b60405162461bcd60e51b81526020600482015260116024820152702d32b937903332b2a1b7b63632b1ba37b960791b6044820152606490fd5b60405162461bcd60e51b815260206004820152600a6024820152692d32b93790282927a7a360b11b6044820152606490fd5b60405162461bcd60e51b81526020600482015260096024820152685a65726f205553444360b81b6044820152606490fd5b62461bcd60e51b815260206004820152600f60248201526e5a65726f20747275737453636f726560881b6044820152606490fd5b631e4fbdf760e01b5f525f60045260245ffd5b5f80fd5b634e487b7160e01b5f52604160045260245ffd5b51906001600160a01b03821682036103735756fe6080806040526004361015610012575f80fd5b5f905f3560e01c9081630133ea5c14611c8a5750806306aac6d914611bee578063077779e414611b5a5780630e94a0ee14611b3157806311eac85514611b0857806314f8d2c314611a4457806315903763146119ff57806315ac74f2146119865780631bf892471461193c5780631c46a5d11461191e5780631ee86ed5146118585780631fa488201461176b5780632357928e1461168057806325bfd7d914611647578063282430bc146116295780632cc34bb9146116065780632e9cbc37146115705780632ff7a1fa1461154f5780633ff9e8e014611526578063436741311461150257806349b202f2146114c35780634f927dfd1461140b57806351deef93146113d2578063528e81ef146113995780635b06dece146112a7578063715018a61461124d5780637ce175531461115b5780638341c8291461113d5780638a26c4de1461033e5780638ca2c71a1461111c5780638da5cb5b146110f557806394aa685a146110d757806397bcebb414610a0357806397f735d5146109c457806399da0b9f1461093a5780639b148baa1461086c578063a42dce80146107e7578063a6afd5fd1461071f578063b7d86225146106fc578063c19b52d914610697578063c415b95c1461066e578063c961dbae146105d3578063d0574bfc14610425578063dc7831fd146103fc578063e0ced0e1146103b8578063e2a247db14610377578063e632f7381461033e578063ea1ef284146102ea578063f2fde38b146102645763fb707f1f14610244575f80fd5b346102615780600319360112610261576020600c54604051908152f35b80fd5b50346102615760203660031901126102615761027e611cc3565b6102866121d9565b6001600160a01b031680156102d65781546001600160a01b03198116821783556001600160a01b03167f8be0079c531659141344cd1fd0a4f28419497f9722a3daafe3b4186f6b6457e08380a380f35b631e4fbdf760e01b82526004829052602482fd5b503461026157602036600319011261026157610304611cc3565b338252600860205261031c60ff604084205416611eeb565b6001600160a01b03168152601360205260408120805460ff1916600117905580f35b5034610261576020366003190112610261576020906040906001600160a01b03610366611cc3565b168152600f83522054604051908152f35b503461026157602036600319011261026157610391611cc3565b6103996121d9565b6001600160a01b03168152601360205260408120805460ff1916905580f35b503461026157602036600319011261026157600435906007548210156102615760206103e383611ebf565b905460405160039290921b1c6001600160a01b03168152f35b50346102615780600319360112610261576002546040516001600160a01b039091168152602090f35b5034610261576020366003190112610261576024610441611cc3565b600254604051630d47875d60e41b81526001600160a01b0392831660048201819052909390926020928592918391165afa9182156105c8578392610586575b508083526010602052604083205461056e5750620151806104a2425b42612120565b0491600c54916101fe60ff82169160011b16908082046002149015171561055a578061012c039082811261012c831281169061012c8413901516176105465760038502948086046003149015171561054657840161012c0393821380158286131691851216176105325760206064610521858583821261052a5761212d565b04604051908152f35b83915061212d565b634e487b7160e01b81526011600452602490fd5b634e487b7160e01b83526011600452602483fd5b634e487b7160e01b82526011600452602482fd5b82526010602052620151806104a2604084205461049c565b9091506020813d6020116105c0575b816105a260209383611cd9565b810103126105bc575160ff811681036105bc57905f610480565b8280fd5b3d9150610595565b6040513d85823e3d90fd5b5034610261576020366003190112610261576004356105f06121d9565b80156106305760407f7038fd5f31cb6799163d0ca95acbbb2b209576b1833f1915e5be0a9f6eb49b4491600c549080600c5582519182526020820152a180f35b60405162461bcd60e51b81526020600482015260166024820152750566f7465207374616b65206d757374206265203e20360541b6044820152606490fd5b50346102615780600319360112610261576005546040516001600160a01b039091168152602090f35b5034610261576020366003190112610261576106b1611cc3565b33825260086020526106c960ff604084205416611eeb565b6001600160a01b0316808252600f60205260408220546106e7575080f35b8152600f6020526040812080545f1901905580f35b5034610261576020366003190112610261576107166121d9565b600435600b5580f35b503461026157806003193601126102615760405180602060075491828152018091600785527fa66cc928b5edb82af9bd49922954155ab7b0942694bea4ce44661d9a8736c68890855b8181106107c8575050508261077e910383611cd9565b604051928392602084019060208552518091526040840192915b8181106107a6575050500390f35b82516001600160a01b0316845285945060209384019390920191600101610798565b82546001600160a01b0316845260209093019260019283019201610768565b503461026157602036600319011261026157610801611cc3565b6108096121d9565b6001600160a01b03168015610833576bffffffffffffffffffffffff60a01b600554161760055580f35b60405162461bcd60e51b815260206004820152601160248201527024b73b30b634b21031b7b63632b1ba37b960791b6044820152606490fd5b5034610261577fd65318ec9967b019cd6c9e0b2f5866a86edea54d64ac9a1c5cb52db0c51c273b61089c36611d65565b909391926108a86121b9565b33865260086020526108c060ff604088205416611f23565b60018060a01b03169283865260096020526108e185604088205410156120d4565b83865260096020526040862085815403905560018060a01b0316938486526009602052604086208181540190556109306040519283928352876020840152606060408401526060830190611faf565b0390a36001805580f35b503461026157602036600319011261026157610954611cc3565b61095c6121d9565b6001600160a01b03168015610986576bffffffffffffffffffffffff60a01b600654161760065580f35b60405162461bcd60e51b815260206004820152601660248201527524b73b30b634b21034b6b83632b6b2b73a30ba34b7b760511b6044820152606490fd5b50346102615760203660031901126102615760209060ff906040906001600160a01b036109ef611cc3565b168152601384522054166040519015158152f35b503461026157610a1236611dd0565b610a1a6121b9565b610a2381612140565b338352600a6020528060408420541061109d57338352600f6020526040832054600e54111561106157338352601360205260ff604084205416611028573383526009602052604083205460125411610fe357338352600a6020526040832081815403905560018060a01b0360045416604051632b852f2560e01b8152602081600481855afa908115610fd8578591610fa4575b50610ac36064918461212d565b0484610acf8285612120565b9282610f5f575b505081610e91575b604051928352602083015260408201527f2445fb79a5a4a2bac1a965d4d13b4e827f051f2d6fc972fad3b399041e5a8b4560603392a2600654608881901c62ffffff16763d602d80600a3d3981f3363d3d373d3d3d363d7300000017835260781b6effffffffffffffffffffffffffffff19166e5af43d82803e903d91602b57fd5bf3176020526001600160a01b036037600984f016908115610e825760125480610deb575b5060025460035460045460055486936001600160a01b03918216939082169282169116863b15610de757849260405194859384936326b4b40160e21b855260e06004860152610bfb610be48b5161012060e4890152610204880190611faf565b60208c015187820360e31901610104890152611faf565b9360408b015161012487015260608b015161014487015260808b015161016487015260a08b015161018487015260c08b01516101a487015260ff60e08c0151166101c48701526101008b01516101e48701523360248701523060448701526064860152608485015260a484015260c4830152038183885af18015610ddc57610dc7575b505060075468010000000000000000811015610db357806001610ca49201600755611ebf565b81546001600160a01b0360039290921b91821b19169084901b179055818352600860209081526040808520805460ff19166001179055338552600f909152832080545f198114610d9f57600101905560025483906001600160a01b0316803b15610d9b57819060246040518094819363393f530f60e01b83523360048401525af18015610d9057610d7b575b6020838351817f9fad859b21dc8b04ac5bbdd3cfd18a2215799015dc9f0488bc0acd8817d76d6360405185815280610d6c339588830190611faf565b0390a360018055604051908152f35b610d86848092611cd9565b6105bc5782610d30565b6040513d86823e3d90fd5b5080fd5b634e487b7160e01b85526011600452602485fd5b634e487b7160e01b84526041600452602484fd5b81610dd191611cd9565b6105bc57825f610c7e565b6040513d84823e3d90fd5b8480fd5b3384526009602052604084209081540390556012548284526009602052604084209081540190558260125460405190815281602082015260606040820152601760608201527f426574206372656174696f6e20636f6c6c61746572616c00000000000000000060808201527fd65318ec9967b019cd6c9e0b2f5866a86edea54d64ac9a1c5cb52db0c51c273b60a03392a35f610b84565b63b06ebf3d60e01b8352600483fd5b6004805460055460405163a9059cbb60e01b81526001600160a01b039182169381019390935260248301859052602091839160449183918b91165af1908115610f54578691610f25575b50610ade5760405162461bcd60e51b815260206004820152601960248201527f50524f4f4620666565207472616e73666572206661696c6564000000000000006044820152606490fd5b610f47915060203d602011610f4d575b610f3f8183611cd9565b810190612014565b5f610edb565b503d610f35565b6040513d88823e3d90fd5b803b15610d9b57818091602460405180948193630852cd8d60e31b83528860048401525af18015610ddc5715610ad65781610f9991611cd9565b610de757845f610ad6565b90506020813d602011610fd0575b81610fbf60209383611cd9565b81010312610de75751610ac3610ab6565b3d9150610fb2565b6040513d87823e3d90fd5b60405162461bcd60e51b815260206004820152601760248201527f496e73756666696369656e7420636f6c6c61746572616c0000000000000000006044820152606490fd5b60405162461bcd60e51b815260206004820152601160248201527010dc99585d1bdc881a5cc818985b9b9959607a1b6044820152606490fd5b60405162461bcd60e51b8152602060048201526014602482015273546f6f206d616e7920616374697665206265747360601b6044820152606490fd5b60405162461bcd60e51b815260206004820152601260248201527124b739bab33334b1b4b2b73a10282927a7a360711b6044820152606490fd5b50346102615780600319360112610261576020601254604051908152f35b5034610261578060031936011261026157546040516001600160a01b039091168152602090f35b503461026157602061113561113036611dd0565b612140565b604051908152f35b50346102615780600319360112610261576020600e54604051908152f35b5034610261576020366003190112610261576004356111786121b9565b611183811515611fd3565b338252600a60205261119b8160408420541015611f63565b33808352600a602090815260408085208054859003905560048054915163a9059cbb60e01b815290810193909352602483018490528290604490829087906001600160a01b03165af180156105c8576111fb91849161122e575b5061202c565b6040519081527f4bf38f9736a5ce4bdb7feae20f2d2b06453cb6546f6b135b6b17acc4eb40166760203392a26001805580f35b611247915060203d602011610f4d57610f3f8183611cd9565b5f6111f5565b50346102615780600319360112610261576112666121d9565b80546001600160a01b03198116825581906001600160a01b03167f8be0079c531659141344cd1fd0a4f28419497f9722a3daafe3b4186f6b6457e08280a380f35b5034610261576020366003190112610261576004356112c46121b9565b6112cf811515611fd3565b33825260096020526112e781604084205410156120d4565b3380835260096020908152604080852080548590039055600354905163a9059cbb60e01b81526004810193909352602483018490528290604490829087906001600160a01b03165af180156105c85761134791849161137a575b50612091565b6040519081527f0d1589f631deb2542273b007140b132a18d48a4303d103fe64d353db07e01b5760203392a26001805580f35b611393915060203d602011610f4d57610f3f8183611cd9565b5f611341565b5034610261576020366003190112610261576020906040906001600160a01b036113c1611cc3565b168152600a83522054604051908152f35b5034610261576020366003190112610261576020906040906001600160a01b036113fa611cc3565b168152601083522054604051908152f35b503461026157602036600319011261026157611425611dc0565b61142d6121d9565b60ff8116906032821161148957600d805460ff19811690931790556040805160ff93841681529190921660208201527f23544ae90129bcc75de3e8f5f3300261a16bd084afbf41bd26cac1f2365b305591819081015b0390a180f35b60405162461bcd60e51b8152602060048201526012602482015271566f74657220726577617264203e2035302560701b6044820152606490fd5b50346102615760203660031901126102615760209060ff906040906001600160a01b036114ee611cc3565b168152600884522054166040519015158152f35b5034610261578060031936011261026157602060ff600d5460081c16604051908152f35b50346102615780600319360112610261576006546040516001600160a01b039091168152602090f35b5034610261578060031936011261026157602060ff600d5416604051908152f35b50346102615760203660031901126102615760043561158d6121d9565b80156115cd5760407f25c1c85e83cba392025ae48f325ef9bd15b683a7ad29251a107354cb1068ae6391600e549080600e5582519182526020820152a180f35b60405162461bcd60e51b815260206004820152601160248201527004c696d6974206d757374206265203e203607c1b6044820152606490fd5b5034610261576020366003190112610261576116206121d9565b60043560125580f35b50346102615780600319360112610261576020601154604051908152f35b5034610261576020366003190112610261576020906040906001600160a01b0361166f611cc3565b168152600983522054604051908152f35b50346102615760203660031901126102615760043561169d6121b9565b6116a8811515611fd3565b6003546040516323b872dd60e01b815233600482015230602482015260448101839052906020908290606490829087906001600160a01b03165af180156105c8576116f991849161137a5750612091565b3382526010602052604082205415611758575b338252600960205260408220611723828254612070565b90556040519081527f36e229bdaedfa85d503535ae31c3ac9e40d88f1ab4fa53870ef2da82df48e99060203392a26001805580f35b338252601060205242604083205561170c565b5034610261576020366003190112610261576004356117886121b9565b611793811515611fd3565b600480546040516323b872dd60e01b81523392810192909252306024830152604482018390526020908290606490829087906001600160a01b03165af180156105c8576117e691849161122e575061202c565b3382526010602052604082205415611845575b338252600a60205260408220611810828254612070565b90556040519081527fa4ddd265c8016cfa57813894be0f8a41c7dfa594c82404375abadf2ffc33607c60203392a26001805580f35b33825260106020524260408320556117f9565b503461026157602036600319011261026157611872611dc0565b61187a6121d9565b603260ff8216116118e45760ff7f285d424463e6f2d8b27eb851e42ce326e42daff7d6c17735b05f02baf329aaa591611483600d549161ff008160081b1661ff0019841617600d5560405193849360081c168390929160ff60209181604085019616845216910152565b60405162461bcd60e51b8152602060048201526012602482015271506c6174666f726d20666565203e2035302560701b6044820152606490fd5b50346102615780600319360112610261576020600b54604051908152f35b503461026157602036600319011261026157604090816001600160a01b03611962611cc3565b1691828152600960205281812054928152600a602052205482519182526020820152f35b5034610261576020366003190112610261576004356119a36121d9565b801515806119f4575b156119b75760115580f35b60405162461bcd60e51b815260206004820152601560248201527424b73b30b634b2103130b9b290323ab930ba34b7b760591b6044820152606490fd5b50601e8111156119ac565b503461026157806003193601126102615760a0600b54600c5460ff600d54600e54926040519485526020850152818116604085015260081c1660608301526080820152f35b5034610261577fd65318ec9967b019cd6c9e0b2f5866a86edea54d64ac9a1c5cb52db0c51c273b611a7436611d65565b90939192611a806121b9565b3386526008602052611a9860ff604088205416611f23565b60018060a01b031692838652600a602052611ab98560408820541015611f63565b838652600a6020526040862085815403905560018060a01b031693848652600a602052604086208181540190556109306040519283928884526020840152606060408401526060830190611faf565b50346102615780600319360112610261576003546040516001600160a01b039091168152602090f35b50346102615780600319360112610261576004546040516001600160a01b039091168152602090f35b50346102615760203660031901126102615780611b75611cc3565b3382526008602052611b8d60ff604084205416611eeb565b6002546001600160a01b031690813b15611bea57604051633e852f6560e01b81526001600160a01b0390911660048201529082908290602490829084905af18015610ddc57611bd95750f35b81611be391611cd9565b6102615780f35b5050fd5b5034611c86576020366003190112611c8657611c08611cc3565b335f526008602052611c2060ff60405f205416611eeb565b6002546001600160a01b031690813b15611c865760405163a971fb2360e01b81526001600160a01b039091166004820152905f908290602490829084905af18015611c7b57611c6d575080f35b611c7991505f90611cd9565b005b6040513d5f823e3d90fd5b5f80fd5b34611c86576020366003190112611c86576020906001600160a01b03611cae611cc3565b165f526013825260ff60405f20541615158152f35b600435906001600160a01b0382168203611c8657565b90601f8019910116810190811067ffffffffffffffff821117611cfb57604052565b634e487b7160e01b5f52604160045260245ffd5b81601f82011215611c865780359067ffffffffffffffff8211611cfb5760405192611d44601f8401601f191660200185611cd9565b82845260208383010111611c8657815f926020809301838601378301015290565b906080600319830112611c86576004356001600160a01b0381168103611c8657916024356001600160a01b0381168103611c865791604435916064359067ffffffffffffffff8211611c8657611dbd91600401611d0f565b90565b6004359060ff82168203611c8657565b6020600319820112611c865760043567ffffffffffffffff8111611c86576101208183036003190112611c865760405191610120830183811067ffffffffffffffff821117611cfb57604052816004013567ffffffffffffffff8111611c8657816004611e3f92850101611d0f565b835260248201359067ffffffffffffffff8211611c86576004611e6492840101611d0f565b602083015260448101356040830152606481013560608301526084810135608083015260a481013560a083015260c481013560c083015260e48101359060ff82168203611c86576101049160e0840152013561010082015290565b600754811015611ed75760075f5260205f2001905f90565b634e487b7160e01b5f52603260045260245ffd5b15611ef257565b60405162461bcd60e51b8152602060048201526009602482015268139bdd08184810995d60ba1b6044820152606490fd5b15611f2a57565b60405162461bcd60e51b81526020600482015260116024820152704f6e6c7920666163746f7279206265747360781b6044820152606490fd5b15611f6a57565b60405162461bcd60e51b815260206004820152601b60248201527f496e73756666696369656e7420696e7465726e616c2050524f4f4600000000006044820152606490fd5b805180835260209291819084018484015e5f828201840152601f01601f1916010190565b15611fda57565b60405162461bcd60e51b81526020600482015260126024820152710416d6f756e74206d757374206265203e20360741b6044820152606490fd5b90816020910312611c8657518015158103611c865790565b1561203357565b60405162461bcd60e51b8152602060048201526015602482015274141493d3d1881d1c985b9cd9995c8819985a5b1959605a1b6044820152606490fd5b9190820180921161207d57565b634e487b7160e01b5f52601160045260245ffd5b1561209857565b60405162461bcd60e51b81526020600482015260146024820152731554d110c81d1c985b9cd9995c8819985a5b195960621b6044820152606490fd5b156120db57565b60405162461bcd60e51b815260206004820152601a60248201527f496e73756666696369656e7420696e7465726e616c20555344430000000000006044820152606490fd5b9190820391821161207d57565b8181029291811591840414171561207d57565b60800151428111156121ae5761215b62015180914290612120565b046011548082105f1461217d5750506064612179815b600b5461212d565b0490565b6001600160ff1b038116810361207d5760011b11156121a25760646121796096612171565b606461217960c8612171565b50620151805f61215b565b6002600154146121ca576002600155565b633ee5aeb560e01b5f5260045ffd5b5f546001600160a01b031633036121ec57565b63118cdaa760e01b5f523360045260245ffdfea26469706673582212200d4fe44313bbc6ce9ac66c30acbb517a544ebb296c3fac38ab906290c4c6465164736f6c634300081c0033",
  "linkReferences": {},
  "deployedLinkReferences": {},
  "immutableReferences": {},
  "inputSourceName": "project/contracts/BetFactory.sol",
  "buildInfoId": "solc-0_8_28-972febb76e253fbcb44cf4865369e4c2ef48272e"
}