{
  "_format": "hh3-artifact-1",
  "contractName": "ProofToken",
  "sourceName": "contracts/ProofToken.sol",
  "abi": [
    {
      "inputs": [],
      "stateMutability": "nonpayable",
      "type": "constructor"
    },
    {
      "inputs": [
        {
          "internalType": "address",
          "name": "spender",
          "type": "address"
        },
        {
          "internalType": "uint256",
          "name": "allowance",
          "type": "uint256"
        },
        {
          "internalType": "uint256",
          "name": "needed",
          "type": "uint256"
        }
      ],
      "name": "ERC20InsufficientAllowance",
      "type": "error"
    },
    {
      "inputs": [
        {
          "internalType": "address",
          "name": "sender",
          "type": "address"
        },
        {
          "internalType": "uint256",
          "name": "balance",
          "type": "uint256"
        },
        {
          "internalType": "uint256",
          "name": "needed",
          "type": "uint256"
        }
      ],
      "name": "ERC20InsufficientBalance",
      "type": "error"
    },
    {
      "inputs": [
        {
          "internalType": "address",
          "name": "approver",
          "type": "address"
        }
      ],
      "name": "ERC20InvalidApprover",
      "type": "error"
    },
    {
      "inputs": [
        {
          "internalType": "address",
          "name": "receiver",
          "type": "address"
        }
      ],
      "name": "ERC20InvalidReceiver",
      "type": "error"
    },
    {
      "inputs": [
        {
          "internalType": "address",
          "name": "sender",
          "type": "address"
        }
      ],
      "name": "ERC20InvalidSender",
      "type": "error"
    },
    {
      "inputs": [
        {
          "internalType": "address",
          "name": "spender",
          "type": "address"
        }
      ],
      "name": "ERC20InvalidSpender",
      "type": "error"
    },
    {
      "inputs": [
        {
          "internalType": "address",
          "name": "owner",
          "type": "address"
        }
      ],
      "name": "OwnableInvalidOwner",
      "type": "error"
    },
    {
      "inputs": [
        {
          "internalType": "address",
          "name": "account",
          "type": "address"
        }
      ],
      "name": "OwnableUnauthorizedAccount",
      "type": "error"
    },
    {
      "anonymous": false,
      "inputs": [
        {
          "indexed": true,
          "internalType": "address",
          "name": "owner",
          "type": "address"
        },
        {
          "indexed": true,
          "internalType": "address",
          "name": "spender",
          "type": "address"
        },
        {
          "indexed": false,
          "internalType": "uint256",
          "name": "value",
          "type": "uint256"
        }
      ],
      "name": "Approval",
      "type": "event"
    },
    {
      "anonymous": false,
      "inputs": [
        {
          "indexed": false,
          "internalType": "uint256",
          "name": "oldRate",
          "type": "uint256"
        },
        {
          "indexed": false,
          "internalType": "uint256",
          "name": "newRate",
          "type": "uint256"
        }
      ],
      "name": "BurnRateChanged",
      "type": "event"
    },
    {
      "anonymous": false,
      "inputs": [
        {
          "indexed": true,
          "internalType": "address",
          "name": "burner",
          "type": "address"
        },
        {
          "indexed": false,
          "internalType": "bool",
          "name": "authorized",
          "type": "bool"
        }
      ],
      "name": "BurnerAuthorized",
      "type": "event"
    },
    {
      "anonymous": false,
      "inputs": [
        {
          "indexed": true,
          "internalType": "address",
          "name": "to",
          "type": "address"
        },
        {
          "indexed": false,
          "internalType": "uint256",
          "name": "amount",
          "type": "uint256"
        },
        {
          "indexed": false,
          "internalType": "uint256",
          "name": "year",
          "type": "uint256"
        }
      ],
      "name": "InflationMinted",
      "type": "event"
    },
    {
      "anonymous": false,
      "inputs": [
        {
          "indexed": false,
          "internalType": "uint256",
          "name": "oldRate",
          "type": "uint256"
        },
        {
          "indexed": false,
          "internalType": "uint256",
          "name": "newRate",
          "type": "uint256"
        }
      ],
      "name": "InflationRateChanged",
      "type": "event"
    },
    {
      "anonymous": false,
      "inputs": [
        {
          "indexed": true,
          "internalType": "address",
          "name": "previousOwner",
          "type": "address"
        },
        {
          "indexed": true,
          "internalType": "address",
          "name": "newOwner",
          "type": "address"
        }
      ],
      "name": "OwnershipTransferred",
      "type": "event"
    },
    {
      "anonymous": false,
      "inputs": [
        {
          "indexed": true,
          "internalType": "address",
          "name": "from",
          "type": "address"
        },
        {
          "indexed": false,
          "internalType": "uint256",
          "name": "amount",
          "type": "uint256"
        },
        {
          "indexed": false,
          "internalType": "string",
          "name": "reason",
          "type": "string"
        }
      ],
      "name": "TokensBurned",
      "type": "event"
    },
    {
      "anonymous": false,
      "inputs": [
        {
          "indexed": true,
          "internalType": "address",
          "name": "from",
          "type": "address"
        },
        {
          "indexed": true,
          "internalType": "address",
          "name": "to",
          "type": "address"
        },
        {
          "indexed": false,
          "internalType": "uint256",
          "name": "value",
          "type": "uint256"
        }
      ],
      "name": "Transfer",
      "type": "event"
    },
    {
      "anonymous": false,
      "inputs": [
        {
          "indexed": false,
          "internalType": "address",
          "name": "oldTreasury",
          "type": "address"
        },
        {
          "indexed": false,
          "internalType": "address",
          "name": "newTreasury",
          "type": "address"
        }
      ],
      "name": "TreasuryChanged",
      "type": "event"
    },
    {
      "inputs": [],
      "name": "MAX_SUPPLY",
      "outputs": [
        {
          "internalType": "uint256",
          "name": "",
          "type": "uint256"
        }
      ],
      "stateMutability": "view",
      "type": "function"
    },
    {
      "inputs": [
        {
          "internalType": "address",
          "name": "owner",
          "type": "address"
        },
        {
          "internalType": "address",
          "name": "spender",
          "type": "address"
        }
      ],
      "name": "allowance",
      "outputs": [
        {
          "internalType": "uint256",
          "name": "",
          "type": "uint256"
        }
      ],
      "stateMutability": "view",
      "type": "function"
    },
    {
      "inputs": [],
      "name": "annualInflationRate",
      "outputs": [
        {
          "internalType": "uint256",
          "name": "",
          "type": "uint256"
        }
      ],
      "stateMutability": "view",
      "type": "function"
    },
    {
      "inputs": [
        {
          "internalType": "address",
          "name": "spender",
          "type": "address"
        },
        {
          "internalType": "uint256",
          "name": "value",
          "type": "uint256"
        }
      ],
      "name": "approve",
      "outputs": [
        {
          "internalType": "bool",
          "name": "",
          "type": "bool"
        }
      ],
      "stateMutability": "nonpayable",
      "type": "function"
    },
    {
      "inputs": [
        {
          "internalType": "address",
          "name": "burner",
          "type": "address"
        },
        {
          "internalType": "bool",
          "name": "authorized",
          "type": "bool"
        }
      ],
      "name": "authorizeBurner",
      "outputs": [],
      "stateMutability": "nonpayable",
      "type": "function"
    },
    {
      "inputs": [
        {
          "internalType": "address",
          "name": "",
          "type": "address"
        }
      ],
      "name": "authorizedBurners",
      "outputs": [
        {
          "internalType": "bool",
          "name": "",
          "type": "bool"
        }
      ],
      "stateMutability": "view",
      "type": "function"
    },
    {
      "inputs": [
        {
          "internalType": "address",
          "name": "account",
          "type": "address"
        }
      ],
      "name": "balanceOf",
      "outputs": [
        {
          "internalType": "uint256",
          "name": "",
          "type": "uint256"
        }
      ],
      "stateMutability": "view",
      "type": "function"
    },
    {
      "inputs": [
        {
          "internalType": "uint256",
          "name": "amount",
          "type": "uint256"
        }
      ],
      "name": "burn",
      "outputs": [],
      "stateMutability": "nonpayable",
      "type": "function"
    },
    {
      "inputs": [
        {
          "internalType": "address",
          "name": "sender",
          "type": "address"
        },
        {
          "internalType": "uint256",
          "name": "totalFeeAmount",
          "type": "uint256"
        }
      ],
      "name": "burnFromFees",
      "outputs": [
        {
          "internalType": "uint256",
          "name": "burnAmount",
          "type": "uint256"
        },
        {
          "internalType": "uint256",
          "name": "keepAmount",
          "type": "uint256"
        }
      ],
      "stateMutability": "nonpayable",
      "type": "function"
    },
    {
      "inputs": [],
      "name": "canMintInflation",
      "outputs": [
        {
          "internalType": "bool",
          "name": "",
          "type": "bool"
        }
      ],
      "stateMutability": "view",
      "type": "function"
    },
    {
      "inputs": [],
      "name": "decimals",
      "outputs": [
        {
          "internalType": "uint8",
          "name": "",
          "type": "uint8"
        }
      ],
      "stateMutability": "view",
      "type": "function"
    },
    {
      "inputs": [
        {
          "internalType": "uint256",
          "name": "amount",
          "type": "uint256"
        },
        {
          "internalType": "string",
          "name": "reason",
          "type": "string"
        }
      ],
      "name": "factoryBurn",
      "outputs": [],
      "stateMutability": "nonpayable",
      "type": "function"
    },
    {
      "inputs": [],
      "name": "feeBurnPercentage",
      "outputs": [
        {
          "internalType": "uint256",
          "name": "",
          "type": "uint256"
        }
      ],
      "stateMutability": "view",
      "type": "function"
    },
    {
      "inputs": [],
      "name": "getCurrentYear",
      "outputs": [
        {
          "internalType": "uint256",
          "name": "",
          "type": "uint256"
        }
      ],
      "stateMutability": "view",
      "type": "function"
    },
    {
      "inputs": [],
      "name": "getTokenomics",
      "outputs": [
        {
          "internalType": "uint256",
          "name": "currentSupply",
          "type": "uint256"
        },
        {
          "internalType": "uint256",
          "name": "maxSupply",
          "type": "uint256"
        },
        {
          "internalType": "uint256",
          "name": "burned",
          "type": "uint256"
        },
        {
          "internalType": "uint256",
          "name": "mintedFromInflation",
          "type": "uint256"
        },
        {
          "internalType": "uint256",
          "name": "inflationRate",
          "type": "uint256"
        },
        {
          "internalType": "uint256",
          "name": "burnRate",
          "type": "uint256"
        }
      ],
      "stateMutability": "view",
      "type": "function"
    },
    {
      "inputs": [],
      "name": "lastInflationMint",
      "outputs": [
        {
          "internalType": "uint256",
          "name": "",
          "type": "uint256"
        }
      ],
      "stateMutability": "view",
      "type": "function"
    },
    {
      "inputs": [],
      "name": "mintInflation",
      "outputs": [
        {
          "internalType": "uint256",
          "name": "",
          "type": "uint256"
        }
      ],
      "stateMutability": "nonpayable",
      "type": "function"
    },
    {
      "inputs": [],
      "name": "name",
      "outputs": [
        {
          "internalType": "string",
          "name": "",
          "type": "string"
        }
      ],
      "stateMutability": "view",
      "type": "function"
    },
    {
      "inputs": [],
      "name": "owner",
      "outputs": [
        {
          "internalType": "address",
          "name": "",
          "type": "address"
        }
      ],
      "stateMutability": "view",
      "type": "function"
    },
    {
      "inputs": [],
      "name": "renounceOwnership",
      "outputs": [],
      "stateMutability": "nonpayable",
      "type": "function"
    },
    {
      "inputs": [
        {
          "internalType": "uint256",
          "name": "_rate",
          "type": "uint256"
        }
      ],
      "name": "setBurnRate",
      "outputs": [],
      "stateMutability": "nonpayable",
      "type": "function"
    },
    {
      "inputs": [
        {
          "internalType": "uint256",
          "name": "_rate",
          "type": "uint256"
        }
      ],
      "name": "setInflationRate",
      "outputs": [],
      "stateMutability": "nonpayable",
      "type": "function"
    },
    {
      "inputs": [
        {
          "internalType": "address",
          "name": "_treasury",
          "type": "address"
        }
      ],
      "name": "setTreasury",
      "outputs": [],
      "stateMutability": "nonpayable",
      "type": "function"
    },
    {
      "inputs": [],
      "name": "symbol",
      "outputs": [
        {
          "internalType": "string",
          "name": "",
          "type": "string"
        }
      ],
      "stateMutability": "view",
      "type": "function"
    },
    {
      "inputs": [],
      "name": "totalBurned",
      "outputs": [
        {
          "internalType": "uint256",
          "name": "",
          "type": "uint256"
        }
      ],
      "stateMutability": "view",
      "type": "function"
    },
    {
      "inputs": [],
      "name": "totalMintedFromInflation",
      "outputs": [
        {
          "internalType": "uint256",
          "name": "",
          "type": "uint256"
        }
      ],
      "stateMutability": "view",
      "type": "function"
    },
    {
      "inputs": [],
      "name": "totalSupply",
      "outputs": [
        {
          "internalType": "uint256",
          "name": "",
          "type": "uint256"
        }
      ],
      "stateMutability": "view",
      "type": "function"
    },
    {
      "inputs": [
        {
          "internalType": "address",
          "name": "to",
          "type": "address"
        },
        {
          "internalType": "uint256",
          "name": "value",
          "type": "uint256"
        }
      ],
      "name": "transfer",
      "outputs": [
        {
          "internalType": "bool",
          "name": "",
          "type": "bool"
        }
      ],
      "stateMutability": "nonpayable",
      "type": "function"
    },
    {
      "inputs": [
        {
          "internalType": "address",
          "name": "from",
          "type": "address"
        },
        {
          "internalType": "address",
          "name": "to",
          "type": "address"
        },
        {
          "internalType": "uint256",
          "name": "value",
          "type": "uint256"
        }
      ],
      "name": "transferFrom",
      "outputs": [
        {
          "internalType": "bool",
          "name": "",
          "type": "bool"
        }
      ],
      "stateMutability": "nonpayable",
      "type": "function"
    },
    {
      "inputs": [
        {
          "internalType": "address",
          "name": "newOwner",
          "type": "address"
        }
      ],
      "name": "transferOwnership",
      "outputs": [],
      "stateMutability": "nonpayable",
      "type": "function"
    },
    {
      "inputs": [],
      "name": "treasury",
      "outputs": [
        {
          "internalType": "address",
          "name": "",
          "type": "address"
        }
      ],
      "stateMutability": "view",
      "type": "function"
    }
  ],
  "bytecode": "0x60806040523461040557604080519081016001600160401b03811182821017610318576040908152600e82526d283937b7b32132ba102a37b5b2b760911b602083015280519081016001600160401b03811182821017610318576040526005815264282927a7a360d91b602082015281516001600160401b03811161031857600354600181811c911680156103fb575b60208210146102fa57601f8111610398575b50602092601f821160011461033757928192935f9261032c575b50508160011b915f199060031b1c1916176003555b80516001600160401b03811161031857600454600181811c9116801561030e575b60208210146102fa57601f8111610297575b50602091601f8211600114610237579181925f9261022c575b50508160011b915f199060031b1c1916176004555b33156102195760058054336001600160a01b0319821681179092556001600160a01b03167f8be0079c531659141344cd1fd0a4f28419497f9722a3daafe3b4186f6b6457e05f80a3600560065560326007556002546a52b7d2dcc80cd2e4000000810180911161020557600255335f525f60205260405f206a52b7d2dcc80cd2e400000081540190556040516a52b7d2dcc80cd2e400000081525f7fddf252ad1be2c89b69c2b068fc378daa952ba7f163c4a11628f55a4df523b3ef60203393a3426008556040516111d6908161040a8239f35b634e487b7160e01b5f52601160045260245ffd5b631e4fbdf760e01b5f525f60045260245ffd5b015190505f8061011c565b601f1982169260045f52805f20915f5b85811061027f57508360019510610267575b505050811b01600455610131565b01515f1960f88460031b161c191690555f8080610259565b91926020600181928685015181550194019201610247565b60045f527f8a35acfbc15ff81a39ae7d344fd709f28e8600b4aa8c65c6b64bfe7fe36bd19b601f830160051c810191602084106102f0575b601f0160051c01905b8181106102e55750610103565b5f81556001016102d8565b90915081906102cf565b634e487b7160e01b5f52602260045260245ffd5b90607f16906100f1565b634e487b7160e01b5f52604160045260245ffd5b015190505f806100bb565b601f1982169360035f52805f20915f5b8681106103805750836001959610610368575b505050811b016003556100d0565b01515f1960f88460031b161c191690555f808061035a565b91926020600181928685015181550194019201610347565b60035f527fc2575a0e9e593c00f959f8c92f12db2869c3395a3b0502d05e2516446f71f85b601f830160051c810191602084106103f1575b601f0160051c01905b8181106103e657506100a1565b5f81556001016103d9565b90915081906103d0565b90607f169061008f565b5f80fdfe6080806040526004361015610012575f80fd5b5f3560e01c90816306fdde0314610e7257508063076f019e14610e4e578063095ea7b314610dcc57806318160ddd14610daf578063189d165e14610d1a57806323b872dd14610c3b5780632b852f2514610c1e5780633117681a14610c01578063313ce56714610be657806332cb6b0c14610bc057806338b544bd14610ba357806342966c6814610b265780635ee0420a146109dc57806361d027b3146109b4578063691ca86e1461093757806370a0823114610900578063715018a6146108a55780638da5cb5b1461087d57806394b78174146107a057806395d89b4114610685578063a9059cbb14610654578063b1551b95146105c0578063c551a2f9146103ee578063ce41607a146103cc578063d89135cd146103af578063dd62ed3e1461035f578063ec0cdf6214610322578063ee2923d9146102d1578063f0f4426014610218578063f2fde38b146101925763ffe5bd6514610171575f80fd5b3461018e575f36600319011261018e576020600854604051908152f35b5f80fd5b3461018e57602036600319011261018e576101ab610f6b565b6101b361104b565b6001600160a01b0316801561020557600580546001600160a01b0319811683179091556001600160a01b03167f8be0079c531659141344cd1fd0a4f28419497f9722a3daafe3b4186f6b6457e05f80a3005b631e4fbdf760e01b5f525f60045260245ffd5b3461018e57602036600319011261018e57610231610f6b565b61023961104b565b6001600160a01b0316801561029c5760407f8c3aa5f43a388513435861bf27dfad7829cd248696fed367c62d441f6295449691600b5490806bffffffffffffffffffffffff60a01b831617600b5582519160018060a01b031682526020820152a1005b60405162461bcd60e51b815260206004820152600d60248201526c5a65726f20747265617375727960981b6044820152606490fd5b3461018e575f36600319011261018e5760c0600254600954600a5460065490600754926040519485526b033b2e3c9fd0803ce8000000602086015260408501526060840152608083015260a0820152f35b3461018e57602036600319011261018e576001600160a01b03610343610f6b565b165f52600c602052602060ff60405f2054166040519015158152f35b3461018e57604036600319011261018e57610378610f6b565b610380610f81565b6001600160a01b039182165f908152600160209081526040808320949093168252928352819020549051908152f35b3461018e575f36600319011261018e576020600954604051908152f35b3461018e575f36600319011261018e5760206103e6611034565b604051908152f35b3461018e575f36600319011261018e5761040661104b565b61040e610fb8565b1561057b576002546b033b2e3c9fd0803ce8000000610456606461044e6301e1338061043c60085442611027565b0461044960065487611014565b611014565b048093610f97565b1161054157600b546001600160a01b0316801561052f575b6001600160a01b031690811561051c5760209161048d82600254610f97565b600255805f525f835260405f20828154019055805f7fddf252ad1be2c89b69c2b068fc378daa952ba7f163c4a11628f55a4df523b3ef85604051868152a36104d782600a54610f97565b600a55426008557f48fefcd4bb655820162ad58fe05ebc9c851c2c562092d7cf4a5ca1a2482fb5a36040610509611034565b81519085825286820152a2604051908152f35b63ec442f0560e01b5f525f60045260245ffd5b506005546001600160a01b031661046e565b60405162461bcd60e51b815260206004820152601260248201527145786365656473206d617820737570706c7960701b6044820152606490fd5b60405162461bcd60e51b815260206004820152601b60248201527f546f6f20736f6f6e20666f7220696e666c6174696f6e206d696e7400000000006044820152606490fd5b3461018e57602036600319011261018e576004356105dc61104b565b6014811161061d5760407fc129fc0a5e776ab2d744d8fb32d6464c21437654017d98f1cdb503bb2f70783191600654908060065582519182526020820152a1005b60405162461bcd60e51b815260206004820152600f60248201526e496e666c6174696f6e203e2032302560881b6044820152606490fd5b3461018e57604036600319011261018e5761067a610670610f6b565b6024359033611072565b602060405160018152f35b3461018e575f36600319011261018e576040515f6004548060011c90600181168015610796575b602083108114610782578285529081156107665750600114610711575b50819003601f01601f191681019067ffffffffffffffff8211818310176106fd576106f982918260405282610f41565b0390f35b634e487b7160e01b5f52604160045260245ffd5b905060045f527f8a35acfbc15ff81a39ae7d344fd709f28e8600b4aa8c65c6b64bfe7fe36bd19b5f905b828210610750575060209150820101826106c9565b600181602092548385880101520191019061073b565b90506020925060ff191682840152151560051b820101826106c9565b634e487b7160e01b5f52602260045260245ffd5b91607f16916106ac565b3461018e57604036600319011261018e5760043560243567ffffffffffffffff811161018e573660238201121561018e5780600401359167ffffffffffffffff831161018e57366024848401011161018e578260247ffad31924d655455395c87544c8aa1ffdb5a7505a22a3c2e03f28003b6556a75f93335f52600c60205261082f60ff60405f205416610fcf565b610839843361111c565b61084584600954610f97565b600955604051938452604060208501528260408501520160608301375f606084830101526060813394601f80199101168101030190a2005b3461018e575f36600319011261018e576005546040516001600160a01b039091168152602090f35b3461018e575f36600319011261018e576108bd61104b565b600580546001600160a01b031981169091555f906001600160a01b03167f8be0079c531659141344cd1fd0a4f28419497f9722a3daafe3b4186f6b6457e08280a3005b3461018e57602036600319011261018e576001600160a01b03610921610f6b565b165f525f602052602060405f2054604051908152f35b3461018e57604036600319011261018e57610950610f6b565b6024359081151580920361018e5760207f820feb1c986b7f5bafd6bfc94f2a065587da0b565ed6fd3a4bcc0a2e71d7a5249161098a61104b565b60018060a01b031692835f52600c825260405f2060ff1981541660ff8316179055604051908152a2005b3461018e575f36600319011261018e57600b546040516001600160a01b039091168152602090f35b3461018e57604036600319011261018e576109f5610f6b565b60243590335f52600c602052610a1160ff60405f205416610fcf565b6064610a1f60075484611014565b0490610a2b8284611027565b9060018060a01b03811693845f525f60205260405f205410610aea5760409383610a85575b508180610a66575b505082519182526020820152f35b600554610a7e926001600160a01b0390911690611072565b8381610a58565b610a8f848361111c565b610a9b84600954610f97565b6009557ffad31924d655455395c87544c8aa1ffdb5a7505a22a3c2e03f28003b6556a75f60808651868152876020820152600888820152672332b290313ab93760c11b6060820152a284610a50565b60405162461bcd60e51b8152602060048201526014602482015273496e73756666696369656e742062616c616e636560601b6044820152606490fd5b3461018e57602036600319011261018e57600435610b44813361111c565b610b5081600954610f97565b60095560405190815260406020820152600b60408201526a26b0b73ab0b610313ab93760a91b60608201527ffad31924d655455395c87544c8aa1ffdb5a7505a22a3c2e03f28003b6556a75f60803392a2005b3461018e575f36600319011261018e576020600654604051908152f35b3461018e575f36600319011261018e5760206040516b033b2e3c9fd0803ce80000008152f35b3461018e575f36600319011261018e57602060405160128152f35b3461018e575f36600319011261018e576020600a54604051908152f35b3461018e575f36600319011261018e576020600754604051908152f35b3461018e57606036600319011261018e57610c54610f6b565b610c5c610f81565b6001600160a01b0382165f818152600160209081526040808320338452909152902054909260443592915f198110610c9a575b5061067a9350611072565b838110610cff578415610cec573315610cd95761067a945f52600160205260405f2060018060a01b0333165f526020528360405f209103905584610c8f565b634a1406b160e11b5f525f60045260245ffd5b63e602df0560e01b5f525f60045260245ffd5b8390637dc7a0d960e11b5f523360045260245260445260645ffd5b3461018e57602036600319011261018e57600435610d3661104b565b60648111610d775760407f229952885149023c7b324c7187b4b260b1a8e44dfee2bf619ef6f1296d52706d91600754908060075582519182526020820152a1005b60405162461bcd60e51b815260206004820152601060248201526f4275726e2072617465203e203130302560801b6044820152606490fd5b3461018e575f36600319011261018e576020600254604051908152f35b3461018e57604036600319011261018e57610de5610f6b565b602435903315610cec576001600160a01b0316908115610cd957335f52600160205260405f20825f526020528060405f20556040519081527f8c5be1e5ebec7d5bd14f71427d1e84f3dd0314c0f7b2291e5b200ac8c7c3b92560203392a3602060405160018152f35b3461018e575f36600319011261018e576020610e68610fb8565b6040519015158152f35b3461018e575f36600319011261018e575f6003548060011c90600181168015610f37575b602083108114610782578285529081156107665750600114610ee25750819003601f01601f191681019067ffffffffffffffff8211818310176106fd576106f982918260405282610f41565b905060035f527fc2575a0e9e593c00f959f8c92f12db2869c3395a3b0502d05e2516446f71f85b5f905b828210610f21575060209150820101826106c9565b6001816020925483858801015201910190610f0c565b91607f1691610e96565b602060409281835280519182918282860152018484015e5f828201840152601f01601f1916010190565b600435906001600160a01b038216820361018e57565b602435906001600160a01b038216820361018e57565b91908201809211610fa457565b634e487b7160e01b5f52601160045260245ffd5b6008546301e133808101809111610fa45742101590565b15610fd657565b60405162461bcd60e51b81526020600482015260166024820152752737ba1030baba3437b934bd32b2103a3790313ab93760511b6044820152606490fd5b81810292918115918404141715610fa457565b91908203918211610fa457565b6301e1338042046107b201806107b211610fa45790565b6005546001600160a01b0316330361105f57565b63118cdaa760e01b5f523360045260245ffd5b6001600160a01b0316908115611109576001600160a01b031691821561051c57815f525f60205260405f20548181106110f057817fddf252ad1be2c89b69c2b068fc378daa952ba7f163c4a11628f55a4df523b3ef92602092855f525f84520360405f2055845f525f825260405f20818154019055604051908152a3565b8263391434e360e21b5f5260045260245260445260645ffd5b634b637e8f60e11b5f525f60045260245ffd5b9091906001600160a01b0316801561110957805f525f60205260405f2054838110611186576020845f94957fddf252ad1be2c89b69c2b068fc378daa952ba7f163c4a11628f55a4df523b3ef938587528684520360408620558060025403600255604051908152a3565b915063391434e360e21b5f5260045260245260445260645ffdfea2646970667358221220620a616a8bf61095f4e8dff3e03654b999adf94ebc399207d2a05bcb294d15b664736f6c634300081c0033",
  "linkReferences": {},
  "deployedLinkReferences": {},
  "immutableReferences": {},
  "inputSourceName": "project/contracts/ProofToken.sol",
  "buildInfoId": "solc-0_8_28-7221581efdac1fe863e190a996b5760ed2d7d925"
}