{
  "_format": "hh3-artifact-1",
  "contractName": "TokenVesting",
  "sourceName": "contracts/TokenVesting.sol",
  "abi": [
    {
      "inputs": [
        {
          "internalType": "address",
          "name": "token_",
          "type": "address"
        }
      ],
      "stateMutability": "nonpayable",
      "type": "constructor"
    },
    {
      "inputs": [
        {
          "internalType": "address",
          "name": "owner",
          "type": "address"
        }
      ],
      "name": "OwnableInvalidOwner",
      "type": "error"
    },
    {
      "inputs": [
        {
          "internalType": "address",
          "name": "account",
          "type": "address"
        }
      ],
      "name": "OwnableUnauthorizedAccount",
      "type": "error"
    },
    {
      "inputs": [],
      "name": "ReentrancyGuardReentrantCall",
      "type": "error"
    },
    {
      "inputs": [
        {
          "internalType": "address",
          "name": "token",
          "type": "address"
        }
      ],
      "name": "SafeERC20FailedOperation",
      "type": "error"
    },
    {
      "anonymous": false,
      "inputs": [
        {
          "indexed": true,
          "internalType": "address",
          "name": "previousOwner",
          "type": "address"
        },
        {
          "indexed": true,
          "internalType": "address",
          "name": "newOwner",
          "type": "address"
        }
      ],
      "name": "OwnershipTransferred",
      "type": "event"
    },
    {
      "anonymous": false,
      "inputs": [
        {
          "indexed": true,
          "internalType": "address",
          "name": "beneficiary",
          "type": "address"
        },
        {
          "indexed": false,
          "internalType": "uint256",
          "name": "amount",
          "type": "uint256"
        }
      ],
      "name": "Released",
      "type": "event"
    },
    {
      "anonymous": false,
      "inputs": [
        {
          "indexed": true,
          "internalType": "address",
          "name": "beneficiary",
          "type": "address"
        },
        {
          "indexed": false,
          "internalType": "uint256",
          "name": "amount",
          "type": "uint256"
        },
        {
          "indexed": false,
          "internalType": "uint64",
          "name": "start",
          "type": "uint64"
        },
        {
          "indexed": false,
          "internalType": "uint64",
          "name": "cliff",
          "type": "uint64"
        },
        {
          "indexed": false,
          "internalType": "uint64",
          "name": "duration",
          "type": "uint64"
        }
      ],
      "name": "VestingScheduleCreated",
      "type": "event"
    },
    {
      "inputs": [
        {
          "internalType": "address",
          "name": "beneficiary_",
          "type": "address"
        },
        {
          "internalType": "uint64",
          "name": "start_",
          "type": "uint64"
        },
        {
          "internalType": "uint64",
          "name": "cliff_",
          "type": "uint64"
        },
        {
          "internalType": "uint64",
          "name": "duration_",
          "type": "uint64"
        },
        {
          "internalType": "uint256",
          "name": "totalAmount_",
          "type": "uint256"
        }
      ],
      "name": "createVestingSchedule",
      "outputs": [],
      "stateMutability": "nonpayable",
      "type": "function"
    },
    {
      "inputs": [],
      "name": "getAllBeneficiaries",
      "outputs": [
        {
          "internalType": "address[]",
          "name": "",
          "type": "address[]"
        }
      ],
      "stateMutability": "view",
      "type": "function"
    },
    {
      "inputs": [
        {
          "internalType": "address",
          "name": "beneficiary_",
          "type": "address"
        }
      ],
      "name": "getReleasableAmount",
      "outputs": [
        {
          "internalType": "uint256",
          "name": "",
          "type": "uint256"
        }
      ],
      "stateMutability": "view",
      "type": "function"
    },
    {
      "inputs": [
        {
          "internalType": "address",
          "name": "beneficiary_",
          "type": "address"
        }
      ],
      "name": "getVestingSchedule",
      "outputs": [
        {
          "components": [
            {
              "internalType": "bool",
              "name": "initialized",
              "type": "bool"
            },
            {
              "internalType": "address",
              "name": "beneficiary",
              "type": "address"
            },
            {
              "internalType": "uint64",
              "name": "cliff",
              "type": "uint64"
            },
            {
              "internalType": "uint64",
              "name": "start",
              "type": "uint64"
            },
            {
              "internalType": "uint64",
              "name": "duration",
              "type": "uint64"
            },
            {
              "internalType": "uint256",
              "name": "totalAmount",
              "type": "uint256"
            },
            {
              "internalType": "uint256",
              "name": "released",
              "type": "uint256"
            }
          ],
          "internalType": "struct TokenVesting.VestingSchedule",
          "name": "",
          "type": "tuple"
        }
      ],
      "stateMutability": "view",
      "type": "function"
    },
    {
      "inputs": [],
      "name": "owner",
      "outputs": [
        {
          "internalType": "address",
          "name": "",
          "type": "address"
        }
      ],
      "stateMutability": "view",
      "type": "function"
    },
    {
      "inputs": [
        {
          "internalType": "address",
          "name": "beneficiary_",
          "type": "address"
        }
      ],
      "name": "release",
      "outputs": [],
      "stateMutability": "nonpayable",
      "type": "function"
    },
    {
      "inputs": [],
      "name": "renounceOwnership",
      "outputs": [],
      "stateMutability": "nonpayable",
      "type": "function"
    },
    {
      "inputs": [],
      "name": "token",
      "outputs": [
        {
          "internalType": "contract IERC20",
          "name": "",
          "type": "address"
        }
      ],
      "stateMutability": "view",
      "type": "function"
    },
    {
      "inputs": [
        {
          "internalType": "address",
          "name": "newOwner",
          "type": "address"
        }
      ],
      "name": "transferOwnership",
      "outputs": [],
      "stateMutability": "nonpayable",
      "type": "function"
    }
  ],
  "bytecode": "0x60a03461012657601f610d2638819003918201601f19168301916001600160401b0383118484101761012a5780849260209460405283398101031261012657516001600160a01b03811690819003610126573315610113575f8054336001600160a01b03198216811783556040519290916001600160a01b0316907f8be0079c531659141344cd1fd0a4f28419497f9722a3daafe3b4186f6b6457e09080a36001805581156100d15750608052604051610be7908161013f823960805181818160940152818161020001526108a90152f35b62461bcd60e51b815260206004820152601c60248201527f546f6b656e20616464726573732063616e6e6f74206265207a65726f000000006044820152606490fd5b631e4fbdf760e01b5f525f60045260245ffd5b5f80fd5b634e487b7160e01b5f52604160045260245ffdfe6080806040526004361015610012575f80fd5b5f3560e01c9081631916558714610830575080632afd1a7d146108055780632f14bae81461073d578063715018a6146106e65780638da5cb5b146106bf5780639f829063146105b2578063a7bbebcb1461014c578063f2fde38b146100c75763fc0c546a1461007f575f80fd5b346100c3575f3660031901126100c3576040517f00000000000000000000000000000000000000000000000000000000000000006001600160a01b03168152602090f35b5f80fd5b346100c35760203660031901126100c3576100e0610a28565b6100e8610b8b565b6001600160a01b03168015610139575f80546001600160a01b03198116831782556001600160a01b0316907f8be0079c531659141344cd1fd0a4f28419497f9722a3daafe3b4186f6b6457e09080a3005b631e4fbdf760e01b5f525f60045260245ffd5b346100c35760a03660031901126100c357610165610a28565b6024356001600160401b038116908181036100c357604435926001600160401b038416918285036100c357606435906001600160401b0382168092036100c357608435926101b1610b8b565b6001600160a01b03165f8181526002602052604090205490969060ff1661056257831561051d5782156104d857828511610487576040516370a0823160e01b81523060048201526020816024817f00000000000000000000000000000000000000000000000000000000000000006001600160a01b03165afa801561047c5785915f91610447575b50106103e75761024891610ac8565b60036040519161025783610a8c565b60018352602083018881526001600160401b036040850192168252606084018881526080850186815260a086019288845260c08701945f86528c5f52600260205260405f20975115159160ff895491610100600160a81b03905160081b16926001600160401b0360a81b905160a81b1693169062ffffff60e81b1617171786556001600160401b03600187019251166fffffffffffffffff00000000000000008354925160401b16916fffffffffffffffffffffffffffffffff1916171790555160028401555191015560035492680100000000000000008410156103d35760018401806003558410156103bf577f2389e17d18cc1f40c2192dafee563b712029088cff0f3c01b6ba7afc177e76ca9460809460035f527fc2575a0e9e593c00f959f8c92f12db2869c3395a3b0502d05e2516446f71f85b01876bffffffffffffffffffffffff60a01b825416179055604051938452602084015260408301526060820152a2005b634e487b7160e01b5f52603260045260245ffd5b634e487b7160e01b5f52604160045260245ffd5b60405162461bcd60e51b815260206004820152603260248201527f496e73756666696369656e7420746f6b656e7320696e20636f6e747261637420604482015271746f20637265617465207363686564756c6560701b6064820152608490fd5b9150506020813d602011610474575b8161046360209383610aa7565b810103126100c35784905189610239565b3d9150610456565b6040513d5f823e3d90fd5b60405162461bcd60e51b8152602060048201526024808201527f436c6966662063616e6e6f74206265206c6f6e676572207468616e20647572616044820152633a34b7b760e11b6064820152608490fd5b60405162461bcd60e51b815260206004820152601f60248201527f4475726174696f6e206d7573742062652067726561746572207468616e2030006044820152606490fd5b60405162461bcd60e51b815260206004820152601d60248201527f416d6f756e74206d7573742062652067726561746572207468616e20300000006044820152606490fd5b60405162461bcd60e51b815260206004820152602260248201527f42656e656669636961727920616c7265616479206861732061207363686564756044820152616c6560f01b6064820152608490fd5b346100c35760203660031901126100c3576105cb610a28565b5f60c06040516105da81610a8c565b8281528260208201528260408201528260608201528260808201528260a0820152015260018060a01b03165f52600260205260e060405f2060405161061e81610a8c565b8154916001600160401b0360ff8416151593848452816020850160018060a01b038360081c16815281604087019360a81c16835281600186015493606088019282861684528260808a019660401c16865260c0600360028a01549960a08c019a8b5201549901988952604051998a5260018060a01b0390511660208a01525116604088015251166060860152511660808401525160a08301525160c0820152f35b346100c3575f3660031901126100c3575f546040516001600160a01b039091168152602090f35b346100c3575f3660031901126100c3576106fe610b8b565b5f80546001600160a01b0319811682556001600160a01b03167f8be0079c531659141344cd1fd0a4f28419497f9722a3daafe3b4186f6b6457e08280a3005b346100c3575f3660031901126100c3576040518060206003549283815201809260035f527fc2575a0e9e593c00f959f8c92f12db2869c3395a3b0502d05e2516446f71f85b905f5b8181106107e6575050508161079b910382610aa7565b604051918291602083019060208452518091526040830191905f5b8181106107c4575050500390f35b82516001600160a01b03168452859450602093840193909201916001016107b6565b82546001600160a01b0316845260209093019260019283019201610785565b346100c35760203660031901126100c3576020610828610823610a28565b610a4b565b604051908152f35b346100c35760203660031901126100c357610849610a28565b90600260015414610a1957600260015560018060a01b03821691825f52600260205260405f209160ff835416156109c65750610886600391610ae8565b91019061089582548092610a3e565b91821561098a5782820180921161097657557f000000000000000000000000000000000000000000000000000000000000000060205f6040518281019063a9059cbb60e01b8252866024820152856044820152604481526108f7606482610aa7565b519082855af11561047c575f513d61096d57506001600160a01b0381163b155b61094d575060207fb21fb52d5749b80f3182f8c6992236b5e5576681880914484d7f4c9b062e619e91604051908152a260018055005b635274afe760e01b5f9081526001600160a01b0391909116600452602490fd5b60011415610917565b634e487b7160e01b5f52601160045260245ffd5b60405162461bcd60e51b81526020600482015260146024820152734e6f20746f6b656e7320746f2072656c6561736560601b6044820152606490fd5b62461bcd60e51b815260206004820152602860248201527f4e6f2076657374696e67207363686564756c6520666f7220746869732062656e604482015267656669636961727960c01b6064820152608490fd5b633ee5aeb560e01b5f5260045ffd5b600435906001600160a01b03821682036100c357565b9190820391821161097657565b6001600160a01b0381165f908152600260205260409020805460ff1615610a86576003610a7a610a8393610ae8565b91015490610a3e565b90565b50505f90565b60e081019081106001600160401b038211176103d357604052565b90601f801991011681019081106001600160401b038211176103d357604052565b906001600160401b03809116911601906001600160401b03821161097657565b6001600160a01b03165f908152600260205260409020805460ff811615610a865760a81c6001600160401b03164210610b865760018101546001600160401b038082169160401c16916001600160401b03610b438484610ac8565b16421015610b7c578215610b75576002610b609101549142610a3e565b90818102918183041490151715610976570490565b5050505f90565b6002015492915050565b505f90565b5f546001600160a01b03163303610b9e57565b63118cdaa760e01b5f523360045260245ffdfea26469706673582212208e57f9760c78fd79691b03e534292fc8185835ad862711a06880f358809665d364736f6c634300081c0033",
  "linkReferences": {},
  "deployedLinkReferences": {},
  "immutableReferences": {
    "922": [
      {
        "length": 32,
        "start": 148
      },
      {
        "length": 32,
        "start": 512
      },
      {
        "length": 32,
        "start": 2217
      }
    ]
  },
  "inputSourceName": "project/contracts/TokenVesting.sol",
  "buildInfoId": "solc-0_8_28-020e723ebb9f4579b879314001a2eb900ee2c374"
}