{
  "_format": "hh3-artifact-1",
  "contractName": "Bet",
  "sourceName": "contracts/Bet.sol",
  "abi": [
    {
      "inputs": [],
      "name": "ReentrancyGuardReentrantCall",
      "type": "error"
    },
    {
      "anonymous": false,
      "inputs": [
        {
          "indexed": false,
          "internalType": "string",
          "name": "reason",
          "type": "string"
        }
      ],
      "name": "BetCancelled",
      "type": "event"
    },
    {
      "anonymous": false,
      "inputs": [
        {
          "indexed": true,
          "internalType": "address",
          "name": "user",
          "type": "address"
        },
        {
          "indexed": false,
          "internalType": "enum Bet.Side",
          "name": "position",
          "type": "uint8"
        },
        {
          "indexed": false,
          "internalType": "uint256",
          "name": "amountUsdc",
          "type": "uint256"
        }
      ],
      "name": "BetPlaced",
      "type": "event"
    },
    {
      "anonymous": false,
      "inputs": [
        {
          "indexed": false,
          "internalType": "enum Bet.Side",
          "name": "winningSide",
          "type": "uint8"
        }
      ],
      "name": "BetResolved",
      "type": "event"
    },
    {
      "anonymous": false,
      "inputs": [
        {
          "indexed": false,
          "internalType": "enum Bet.Side",
          "name": "winningSide",
          "type": "uint8"
        },
        {
          "indexed": false,
          "internalType": "uint256",
          "name": "totalWinningStake",
          "type": "uint256"
        },
        {
          "indexed": false,
          "internalType": "uint256",
          "name": "totalLosingStake",
          "type": "uint256"
        },
        {
          "indexed": false,
          "internalType": "uint256",
          "name": "platformFeeAmount",
          "type": "uint256"
        },
        {
          "indexed": false,
          "internalType": "uint256",
          "name": "voterRewardPool",
          "type": "uint256"
        },
        {
          "indexed": false,
          "internalType": "uint256",
          "name": "winnersPool",
          "type": "uint256"
        },
        {
          "indexed": false,
          "internalType": "uint256",
          "name": "winningVoterCount",
          "type": "uint256"
        },
        {
          "indexed": false,
          "internalType": "uint256",
          "name": "rewardPerWinningVoter",
          "type": "uint256"
        }
      ],
      "name": "BetResolvedSnapshot",
      "type": "event"
    },
    {
      "anonymous": false,
      "inputs": [
        {
          "indexed": true,
          "internalType": "address",
          "name": "user",
          "type": "address"
        },
        {
          "indexed": false,
          "internalType": "uint256",
          "name": "amountUsdc",
          "type": "uint256"
        },
        {
          "indexed": false,
          "internalType": "uint256",
          "name": "amountProof",
          "type": "uint256"
        }
      ],
      "name": "FundsWithdrawn",
      "type": "event"
    },
    {
      "anonymous": false,
      "inputs": [
        {
          "indexed": true,
          "internalType": "address",
          "name": "creator",
          "type": "address"
        },
        {
          "indexed": false,
          "internalType": "string",
          "name": "proofUrl",
          "type": "string"
        }
      ],
      "name": "ProofSubmitted",
      "type": "event"
    },
    {
      "anonymous": false,
      "inputs": [
        {
          "indexed": true,
          "internalType": "address",
          "name": "voter",
          "type": "address"
        },
        {
          "indexed": false,
          "internalType": "enum Bet.Side",
          "name": "vote",
          "type": "uint8"
        },
        {
          "indexed": false,
          "internalType": "uint256",
          "name": "amountProof",
          "type": "uint256"
        }
      ],
      "name": "VoteCast",
      "type": "event"
    },
    {
      "inputs": [],
      "name": "betFactory",
      "outputs": [
        {
          "internalType": "contract BetFactory",
          "name": "",
          "type": "address"
        }
      ],
      "stateMutability": "view",
      "type": "function"
    },
    {
      "inputs": [
        {
          "internalType": "address",
          "name": "_participant",
          "type": "address"
        }
      ],
      "name": "calculateParticipantPayout",
      "outputs": [
        {
          "internalType": "uint256",
          "name": "payout",
          "type": "uint256"
        },
        {
          "internalType": "bool",
          "name": "isWinner",
          "type": "bool"
        }
      ],
      "stateMutability": "view",
      "type": "function"
    },
    {
      "inputs": [
        {
          "internalType": "address",
          "name": "_voter",
          "type": "address"
        }
      ],
      "name": "calculateVoterReward",
      "outputs": [
        {
          "internalType": "uint256",
          "name": "usdcReward",
          "type": "uint256"
        },
        {
          "internalType": "uint256",
          "name": "proofRefund",
          "type": "uint256"
        }
      ],
      "stateMutability": "view",
      "type": "function"
    },
    {
      "inputs": [],
      "name": "checkAndCancelForProof",
      "outputs": [],
      "stateMutability": "nonpayable",
      "type": "function"
    },
    {
      "inputs": [],
      "name": "checkAndCloseBetting",
      "outputs": [],
      "stateMutability": "nonpayable",
      "type": "function"
    },
    {
      "inputs": [],
      "name": "checkAndResolve",
      "outputs": [],
      "stateMutability": "nonpayable",
      "type": "function"
    },
    {
      "inputs": [],
      "name": "claimCreatorCollateral",
      "outputs": [],
      "stateMutability": "nonpayable",
      "type": "function"
    },
    {
      "inputs": [],
      "name": "claimRefund",
      "outputs": [],
      "stateMutability": "nonpayable",
      "type": "function"
    },
    {
      "inputs": [],
      "name": "claimVoterRewards",
      "outputs": [],
      "stateMutability": "nonpayable",
      "type": "function"
    },
    {
      "inputs": [],
      "name": "claimWinnings",
      "outputs": [],
      "stateMutability": "nonpayable",
      "type": "function"
    },
    {
      "inputs": [],
      "name": "collateralLocked",
      "outputs": [
        {
          "internalType": "bool",
          "name": "",
          "type": "bool"
        }
      ],
      "stateMutability": "view",
      "type": "function"
    },
    {
      "inputs": [],
      "name": "creator",
      "outputs": [
        {
          "internalType": "address",
          "name": "",
          "type": "address"
        }
      ],
      "stateMutability": "view",
      "type": "function"
    },
    {
      "inputs": [],
      "name": "creatorCollateral",
      "outputs": [
        {
          "internalType": "uint256",
          "name": "",
          "type": "uint256"
        }
      ],
      "stateMutability": "view",
      "type": "function"
    },
    {
      "inputs": [],
      "name": "currentStatus",
      "outputs": [
        {
          "internalType": "enum Bet.Status",
          "name": "",
          "type": "uint8"
        }
      ],
      "stateMutability": "view",
      "type": "function"
    },
    {
      "inputs": [],
      "name": "details",
      "outputs": [
        {
          "internalType": "string",
          "name": "title",
          "type": "string"
        },
        {
          "internalType": "string",
          "name": "description",
          "type": "string"
        },
        {
          "internalType": "uint256",
          "name": "bettingDeadline",
          "type": "uint256"
        },
        {
          "internalType": "uint256",
          "name": "proofDeadline",
          "type": "uint256"
        },
        {
          "internalType": "uint256",
          "name": "votingDeadline",
          "type": "uint256"
        },
        {
          "internalType": "uint256",
          "name": "minimumBetAmount",
          "type": "uint256"
        },
        {
          "internalType": "uint256",
          "name": "minimumSideStake",
          "type": "uint256"
        },
        {
          "internalType": "uint8",
          "name": "minimumTrustScore",
          "type": "uint8"
        },
        {
          "internalType": "uint256",
          "name": "minimumVotes",
          "type": "uint256"
        }
      ],
      "stateMutability": "view",
      "type": "function"
    },
    {
      "inputs": [],
      "name": "feeCollector",
      "outputs": [
        {
          "internalType": "address",
          "name": "",
          "type": "address"
        }
      ],
      "stateMutability": "view",
      "type": "function"
    },
    {
      "inputs": [],
      "name": "fundsDistributed",
      "outputs": [
        {
          "internalType": "bool",
          "name": "",
          "type": "bool"
        }
      ],
      "stateMutability": "view",
      "type": "function"
    },
    {
      "inputs": [],
      "name": "getBetDetails",
      "outputs": [
        {
          "components": [
            {
              "internalType": "string",
              "name": "title",
              "type": "string"
            },
            {
              "internalType": "string",
              "name": "description",
              "type": "string"
            },
            {
              "internalType": "uint256",
              "name": "bettingDeadline",
              "type": "uint256"
            },
            {
              "internalType": "uint256",
              "name": "proofDeadline",
              "type": "uint256"
            },
            {
              "internalType": "uint256",
              "name": "votingDeadline",
              "type": "uint256"
            },
            {
              "internalType": "uint256",
              "name": "minimumBetAmount",
              "type": "uint256"
            },
            {
              "internalType": "uint256",
              "name": "minimumSideStake",
              "type": "uint256"
            },
            {
              "internalType": "uint8",
              "name": "minimumTrustScore",
              "type": "uint8"
            },
            {
              "internalType": "uint256",
              "name": "minimumVotes",
              "type": "uint256"
            }
          ],
          "internalType": "struct Bet.BetDetails",
          "name": "",
          "type": "tuple"
        }
      ],
      "stateMutability": "view",
      "type": "function"
    },
    {
      "inputs": [],
      "name": "getBetInfo",
      "outputs": [
        {
          "internalType": "string",
          "name": "title",
          "type": "string"
        },
        {
          "internalType": "string",
          "name": "description",
          "type": "string"
        },
        {
          "internalType": "uint256",
          "name": "totalYes",
          "type": "uint256"
        },
        {
          "internalType": "uint256",
          "name": "totalNo",
          "type": "uint256"
        },
        {
          "internalType": "uint256",
          "name": "bettingDeadline",
          "type": "uint256"
        },
        {
          "internalType": "uint256",
          "name": "proofDeadline",
          "type": "uint256"
        },
        {
          "internalType": "uint256",
          "name": "votingDeadline",
          "type": "uint256"
        },
        {
          "internalType": "string",
          "name": "proof",
          "type": "string"
        },
        {
          "internalType": "uint256",
          "name": "participantsCount",
          "type": "uint256"
        },
        {
          "internalType": "uint256",
          "name": "voters",
          "type": "uint256"
        }
      ],
      "stateMutability": "view",
      "type": "function"
    },
    {
      "inputs": [],
      "name": "getResolutionInfo",
      "outputs": [
        {
          "internalType": "enum Bet.Status",
          "name": "status",
          "type": "uint8"
        },
        {
          "internalType": "enum Bet.Side",
          "name": "winningSide_",
          "type": "uint8"
        },
        {
          "internalType": "uint256",
          "name": "totalWinningStake",
          "type": "uint256"
        },
        {
          "internalType": "uint256",
          "name": "totalLosingStake",
          "type": "uint256"
        },
        {
          "internalType": "uint256",
          "name": "platformFeePct",
          "type": "uint256"
        },
        {
          "internalType": "uint256",
          "name": "voterRewardPct",
          "type": "uint256"
        },
        {
          "internalType": "uint256",
          "name": "platformFeeAmount",
          "type": "uint256"
        },
        {
          "internalType": "uint256",
          "name": "voterRewardPool",
          "type": "uint256"
        },
        {
          "internalType": "uint256",
          "name": "winnersPool",
          "type": "uint256"
        },
        {
          "internalType": "uint256",
          "name": "winningVoterCount",
          "type": "uint256"
        },
        {
          "internalType": "uint256",
          "name": "rewardPerWinningVoter",
          "type": "uint256"
        }
      ],
      "stateMutability": "view",
      "type": "function"
    },
    {
      "inputs": [],
      "name": "getVoteStats",
      "outputs": [
        {
          "internalType": "uint256",
          "name": "totalYesVotes",
          "type": "uint256"
        },
        {
          "internalType": "uint256",
          "name": "totalNoVotes",
          "type": "uint256"
        },
        {
          "internalType": "uint256",
          "name": "totalVoteStake",
          "type": "uint256"
        }
      ],
      "stateMutability": "view",
      "type": "function"
    },
    {
      "inputs": [
        {
          "internalType": "address",
          "name": "",
          "type": "address"
        }
      ],
      "name": "hasParticipated",
      "outputs": [
        {
          "internalType": "bool",
          "name": "",
          "type": "bool"
        }
      ],
      "stateMutability": "view",
      "type": "function"
    },
    {
      "inputs": [
        {
          "components": [
            {
              "internalType": "string",
              "name": "title",
              "type": "string"
            },
            {
              "internalType": "string",
              "name": "description",
              "type": "string"
            },
            {
              "internalType": "uint256",
              "name": "bettingDeadline",
              "type": "uint256"
            },
            {
              "internalType": "uint256",
              "name": "proofDeadline",
              "type": "uint256"
            },
            {
              "internalType": "uint256",
              "name": "votingDeadline",
              "type": "uint256"
            },
            {
              "internalType": "uint256",
              "name": "minimumBetAmount",
              "type": "uint256"
            },
            {
              "internalType": "uint256",
              "name": "minimumSideStake",
              "type": "uint256"
            },
            {
              "internalType": "uint8",
              "name": "minimumTrustScore",
              "type": "uint8"
            },
            {
              "internalType": "uint256",
              "name": "minimumVotes",
              "type": "uint256"
            }
          ],
          "internalType": "struct Bet.BetDetails",
          "name": "_details",
          "type": "tuple"
        },
        {
          "internalType": "address",
          "name": "_creator",
          "type": "address"
        },
        {
          "internalType": "address",
          "name": "_betFactory",
          "type": "address"
        },
        {
          "internalType": "address",
          "name": "_trustScore",
          "type": "address"
        },
        {
          "internalType": "address",
          "name": "_usdcToken",
          "type": "address"
        },
        {
          "internalType": "address",
          "name": "_proofToken",
          "type": "address"
        },
        {
          "internalType": "address",
          "name": "_feeCollector",
          "type": "address"
        }
      ],
      "name": "initialize",
      "outputs": [],
      "stateMutability": "nonpayable",
      "type": "function"
    },
    {
      "inputs": [],
      "name": "noVotes",
      "outputs": [
        {
          "internalType": "uint256",
          "name": "",
          "type": "uint256"
        }
      ],
      "stateMutability": "view",
      "type": "function"
    },
    {
      "inputs": [],
      "name": "participantCount",
      "outputs": [
        {
          "internalType": "uint256",
          "name": "",
          "type": "uint256"
        }
      ],
      "stateMutability": "view",
      "type": "function"
    },
    {
      "inputs": [
        {
          "internalType": "uint256",
          "name": "",
          "type": "uint256"
        }
      ],
      "name": "participantList",
      "outputs": [
        {
          "internalType": "address",
          "name": "",
          "type": "address"
        }
      ],
      "stateMutability": "view",
      "type": "function"
    },
    {
      "inputs": [
        {
          "internalType": "address",
          "name": "",
          "type": "address"
        }
      ],
      "name": "participants",
      "outputs": [
        {
          "internalType": "uint256",
          "name": "yesStake",
          "type": "uint256"
        },
        {
          "internalType": "uint256",
          "name": "noStake",
          "type": "uint256"
        },
        {
          "internalType": "bool",
          "name": "hasWithdrawn",
          "type": "bool"
        }
      ],
      "stateMutability": "view",
      "type": "function"
    },
    {
      "inputs": [
        {
          "internalType": "enum Bet.Side",
          "name": "_position",
          "type": "uint8"
        },
        {
          "internalType": "uint256",
          "name": "_amountUsdc",
          "type": "uint256"
        }
      ],
      "name": "placeBet",
      "outputs": [],
      "stateMutability": "nonpayable",
      "type": "function"
    },
    {
      "inputs": [],
      "name": "proofToken",
      "outputs": [
        {
          "internalType": "contract IERC20",
          "name": "",
          "type": "address"
        }
      ],
      "stateMutability": "view",
      "type": "function"
    },
    {
      "inputs": [],
      "name": "proofUrl",
      "outputs": [
        {
          "internalType": "string",
          "name": "",
          "type": "string"
        }
      ],
      "stateMutability": "view",
      "type": "function"
    },
    {
      "inputs": [
        {
          "internalType": "string",
          "name": "_proofUrl",
          "type": "string"
        }
      ],
      "name": "submitProof",
      "outputs": [],
      "stateMutability": "nonpayable",
      "type": "function"
    },
    {
      "inputs": [],
      "name": "totalNoProofStake",
      "outputs": [
        {
          "internalType": "uint256",
          "name": "",
          "type": "uint256"
        }
      ],
      "stateMutability": "view",
      "type": "function"
    },
    {
      "inputs": [],
      "name": "totalNoStake",
      "outputs": [
        {
          "internalType": "uint256",
          "name": "",
          "type": "uint256"
        }
      ],
      "stateMutability": "view",
      "type": "function"
    },
    {
      "inputs": [],
      "name": "totalVoteStakeProof",
      "outputs": [
        {
          "internalType": "uint256",
          "name": "",
          "type": "uint256"
        }
      ],
      "stateMutability": "view",
      "type": "function"
    },
    {
      "inputs": [],
      "name": "totalVotes",
      "outputs": [
        {
          "internalType": "uint256",
          "name": "",
          "type": "uint256"
        }
      ],
      "stateMutability": "view",
      "type": "function"
    },
    {
      "inputs": [],
      "name": "totalYesProofStake",
      "outputs": [
        {
          "internalType": "uint256",
          "name": "",
          "type": "uint256"
        }
      ],
      "stateMutability": "view",
      "type": "function"
    },
    {
      "inputs": [],
      "name": "totalYesStake",
      "outputs": [
        {
          "internalType": "uint256",
          "name": "",
          "type": "uint256"
        }
      ],
      "stateMutability": "view",
      "type": "function"
    },
    {
      "inputs": [],
      "name": "trustScoreContract",
      "outputs": [
        {
          "internalType": "contract TrustScore",
          "name": "",
          "type": "address"
        }
      ],
      "stateMutability": "view",
      "type": "function"
    },
    {
      "inputs": [],
      "name": "usdcToken",
      "outputs": [
        {
          "internalType": "contract IERC20",
          "name": "",
          "type": "address"
        }
      ],
      "stateMutability": "view",
      "type": "function"
    },
    {
      "inputs": [
        {
          "internalType": "enum Bet.Side",
          "name": "_vote",
          "type": "uint8"
        }
      ],
      "name": "vote",
      "outputs": [],
      "stateMutability": "nonpayable",
      "type": "function"
    },
    {
      "inputs": [
        {
          "internalType": "address",
          "name": "",
          "type": "address"
        }
      ],
      "name": "voted",
      "outputs": [
        {
          "internalType": "bool",
          "name": "",
          "type": "bool"
        }
      ],
      "stateMutability": "view",
      "type": "function"
    },
    {
      "inputs": [
        {
          "internalType": "address",
          "name": "",
          "type": "address"
        }
      ],
      "name": "voterStakesProof",
      "outputs": [
        {
          "internalType": "uint256",
          "name": "",
          "type": "uint256"
        }
      ],
      "stateMutability": "view",
      "type": "function"
    },
    {
      "inputs": [
        {
          "internalType": "address",
          "name": "",
          "type": "address"
        }
      ],
      "name": "votes",
      "outputs": [
        {
          "internalType": "enum Bet.Side",
          "name": "",
          "type": "uint8"
        }
      ],
      "stateMutability": "view",
      "type": "function"
    },
    {
      "inputs": [],
      "name": "winningSide",
      "outputs": [
        {
          "internalType": "enum Bet.Side",
          "name": "",
          "type": "uint8"
        }
      ],
      "stateMutability": "view",
      "type": "function"
    },
    {
      "inputs": [],
      "name": "yesVotes",
      "outputs": [
        {
          "internalType": "uint256",
          "name": "",
          "type": "uint256"
        }
      ],
      "stateMutability": "view",
      "type": "function"
    }
  ],
  "bytecode": "0x6080806040523460195760015f55613d3d908161001e8239f35b5f80fdfe6080806040526004361015610012575f80fd5b5f905f3560e01c9081630208d811146132225750806302d05d3f146131fa57806307ea56db146131c757806309e69ede146131735780630d15fd77146131565780630e6fdaa1146131145780630e94a0ee146130ec57806311eac855146130c457806316468241146130a75780632bcd0f02146130335780632c2e8faf14612d435780632d336a9714612d155780632e1a961814612ced578063362f04c014612cd05780633a1fecb814612ca157806354dcd96a14612c84578063565974d314612bf557806363a391411461288757806364948dc9146126c45780636a3541c5146126a15780636f95b3f31461267b5780638a2fd0291461254a5780639ad2d00414611e70578063aa23979214611e3e578063aec2ccae14611dff578063b3f98adc146118f4578063b401faf114611590578063b4fb3ee314611551578063b5545a3c146113c1578063b5b47f42146113a3578063c415b95c1461137a578063ccc827951461135c578063cfe7b770146112b2578063d4249dce1461127a578063d6d2023814611155578063d72edbf214610caa578063d8bff5a514610c68578063d9cbee0414610c4a578063dc7831fd14610c21578063dcb3b30e14610687578063e41356f314610299578063ef8a923514610273578063fb04521b14610255578063fb286c65146102375763fbf063381461020d575f80fd5b34610234578060031936011261023457602060ff6018541661023260405180926134e1565bf35b80fd5b50346102345780600319360112610234576020601954604051908152f35b50346102345780600319360112610234576020601454604051908152f35b5034610234578060031936011261023457602060ff6023541661023260405180926134d4565b50346102345780600319360112610234576102b2613c89565b60ff6023541660058110156106735760038114908115610668575b501561063457338152602260205260ff6040822054161561060357338152602080526040812054156105d3578081903383526020805260408320543384526020805283604081205560ff6023541660058110156105bf576003036105b857338452602160205260ff6040852054169060ff601854169160038310156105a45760038110156105a45782146104cd575b50505b8061043f575b816103a3575b60405191825260208201527ffbc3a599b784fe88772fc5abcc07223f64ca0b13acc341f4fb1e46bef0510eb460403392a26001815580f35b600b5483906001600160a01b0316803b1561043b5781809160c460405180948193634d8a45d560e11b835230600484015233602484015289604484015260806064840152600c60848401526b159bdd195c881c995dd85c9960a21b60a48401525af1801561043057610417575b505061036b565b8161042191613291565b61042c57825f610410565b8280fd5b6040513d84823e3d90fd5b5080fd5b600b5483906001600160a01b0316803b1561043b5781809160c4604051809481936314f8d2c360e01b83523060048401523360248401528860448401526080606484015260116084840152702b37ba329039ba30b5b2903932ba3ab93760791b60a48401525af18015610430576104b8575b5050610365565b816104c291613291565b61042c57825f6104b1565b9150600114801561059a5760046013545b600b546040516317fbd0fd60e11b81529260209184919082906001600160a01b03165afa90811561058f5760ff610521926064948991610560575b50169061355d565b04901561055757601954905b8015158061054e575b1561035c57610546929350613584565b905f8061035c565b50811515610536565b601a549061052d565b610582915060203d602011610588575b61057a8183613291565b810190613544565b5f610519565b503d610570565b6040513d88823e3d90fd5b60046012546104de565b634e487b7160e01b86526021600452602486fd5b905061035f565b634e487b7160e01b85526021600452602485fd5b60405162461bcd60e51b81526020600482015260086024820152674e6f207374616b6560c01b6044820152606490fd5b60405162461bcd60e51b8152602060048201526009602482015268139bdd081d9bdd195960ba1b6044820152606490fd5b60405162461bcd60e51b815260206004820152600c60248201526b139bdd08199a5b9a5cda195960a21b6044820152606490fd5b60049150145f6102cd565b634e487b7160e01b82526021600452602482fd5b503461023457604036600319011261023457600435600381101561043b576024356106b0613c89565b60ff602354166005811015610c0d576106c990156137bb565b600354421015610bd7578260018314808015610bca575b15610b96576006548310610b615760ff6008541680610af1575b50600b5460408051631bf8924760e01b8152336004820152916001600160a01b03169082602481845afa918215610ae6578792610ab4575b50600a548590336001600160a01b03909116036109f657905060011b90848204600214851517156109e257811161099d57600b5486916001600160a01b0390911690813b1561042c57829160c483926040519485938492634d8a45d560e11b8452336004850152306024850152604484015260806064840152601b60848401527f43726561746f72206d61746368696e6720636f6c6c61746572616c000000000060a48401525af1801561043057610984575b50506107f383601054613984565b601055600160ff1960115416176011555b338552601d60205260ff60408620541615610905575b338552601f60205260408520916105bf57156108e15761083b828254613984565b905561084981601254613984565b6012555b600b5483906001600160a01b0316803b1561043b578180916024604051809481936301ddde7960e21b83523360048401525af18015610430576108cc575b505061089a60405180936134e1565b60208201527f9f6b4cced64244a64465098f682029975b1614400b96bc6bd12c66808371916660403392a26001815580f35b816108d691613291565b61042c57825f61088b565b6001016108ef828254613984565b90556108fd81601354613984565b60135561084d565b338552601d60205260408520805460ff19166001179055601e5468010000000000000000811015610970578060016109409201601e556134a8565b81546001600160a01b0360039290921b91821b19163390911b179055601b5461096890613c3b565b601b5561081a565b634e487b7160e01b86526041600452602486fd5b8161098e91613291565b61099957845f6107e5565b8480fd5b60405162461bcd60e51b815260206004820152601e60248201527f43726561746f72206e6565647320657874726120636f6c6c61746572616c00006044820152606490fd5b634e487b7160e01b87526011600452602487fd5b909110610a7b578086913b1561043b5781809160c460405180948193634d8a45d560e11b83523360048401523060248401528a604484015260806064840152600d60848401526c10995d081c1b1858d95b595b9d609a1b60a48401525af1801561043057610a66575b5050610804565b81610a7091613291565b61099957845f610a5f565b60405162461bcd60e51b8152602060048201526011602482015270496e73756666696369656e74205553444360781b6044820152606490fd5b610ad791925060403d604011610adf575b610acf8183613291565b810190613c25565b50905f610732565b503d610ac5565b6040513d89823e3d90fd5b600c54604051630d47875d60e41b81523360048201529190602090839060249082906001600160a01b03165afa918215610ae657610b3c9260ff918991610b42575b50161015613be9565b5f6106fa565b610b5b915060203d6020116105885761057a8183613291565b5f610b33565b60405162461bcd60e51b815260206004820152600d60248201526c5374616b6520746f6f206c6f7760981b6044820152606490fd5b60405162461bcd60e51b815260206004820152600c60248201526b496e76616c6964207369646560a01b6044820152606490fd5b50849150600284146106e0565b60405162461bcd60e51b815260206004820152600e60248201526d10995d1d1a5b99c818db1bdcd95960921b6044820152606490fd5b634e487b7160e01b84526021600452602484fd5b5034610234578060031936011261023457600c546040516001600160a01b039091168152602090f35b50346102345780600319360112610234576020601654604051908152f35b50346102345760203660031901126102345760209060ff906040906001600160a01b03610c93613492565b1681526021845220541661023260405180926134e1565b5034610234578060031936011261023457610cc3613c89565b60ff6023541660058110156106735760021480611149575b610ce7575b6001815580f35b601c54600954111561107257610d05600460ff196023541617602355565b5f516020613ca85f395f51905f52606060405160208152601960208201527f496e73756666696369656e74207075626c696320766f746573000000000000006040820152a15b600b54600a5482916001600160a01b039081169116813b15610f1757829160248392604051948593849263c19b52d960e01b845260048401525af180156104305761105d575b505060ff6023541660058110159081610ffe57600381148091811561104d575b50610dbb90613991565b6018549160ff8360081c1661101257610ffe5715610fed575060ff60185461010061ff0019821617601855166003811015610673576001148015610fe457601254905b15610fdb57601354905b15610f9657600b54604051634367413160e01b815283926001600160a01b0390921691602082600481865afa908115610f8b5760ff610e529260649487916105605750169061355d565b0480610f24575b50505060ff60185416600381101561067357600103610f1b57806016545b80610e84575b5050610ce0565b600b546001600160a01b031690813b15610f1757829160c4839260405194859384926314f8d2c360e01b8452306004850152816024850152604484015260806064840152601b60848401527f436f6c6c656374206c6f73696e672070726f6f66207374616b6573000000000060a48401525af180156104305715610e7d5781610f0c91613291565b61023457805f610e7d565b5050fd5b80601554610e77565b600f546001600160a01b031690823b15610f8657610f5c92849283604051809681958294634d8a45d560e11b8452306004850161393e565b03925af1801561043057610f71575b80610e59565b81610f7b91613291565b61023457805f610f6b565b505050fd5b6040513d86823e3d90fd5b60405162461bcd60e51b815260206004820152601760248201527f4e6f207374616b657320746f20646973747269627574650000000000000000006044820152606490fd5b60125490610e08565b60135490610dfe565b61ff00191661010017601855610ce0565b634e487b7160e01b83526021600452602483fd5b60405162461bcd60e51b8152602060048201526013602482015272105b1c9958591e48191a5cdd1c9a589d5d1959606a1b6044820152606490fd5b8493506004149050610dbb610db1565b8161106791613291565b61023457805f610d91565b601954601a54808211156110dd575050600160ff1960185416176018556110a1600360ff196023541617602355565b7fd6bcd4b6873d691163f1aff2d5585378623aef08e17513a5253eabe39c65dc50602060ff601854166110d760405180926134e1565ba1610d4b565b111561110257600260ff1960185416176018556110a1600360ff196023541617602355565b611114600460ff196023541617602355565b5f516020613ca85f395f51905f526060604051602081526008602082015267566f74652074696560c01b6040820152a1610d4b565b50600554421015610cdb565b503461023457806003193601126102345760ff60235416600581101561067357158061126e575b6111835780f35b601254600754809110159081611261575b50156111aa57600160ff19602354161760235580f35b6111bc600460ff196023541617602355565b600b54600a5482916001600160a01b039081169116813b15610f1757829160248392604051948593849263c19b52d960e01b845260048401525af180156104305761124c575b50505f516020613ca85f395f51905f52606060405160208152601a60208201527f4d696e696d756d2073696465207374616b65206e6f74206d65740000000000006040820152a180f35b8161125691613291565b61023457805f611202565b905060135410155f611194565b5060035442101561117c565b5034610234576020366003190112610234576020906040906001600160a01b036112a2613492565b1681528280522054604051908152f35b50346102345780600319360112610234576012546101406013546003549261134b6004549160055493601b5494601c54946112eb613357565b986112f46133d9565b936113246113006132b3565b956113166040519d8d8f9e8f908152019061346e565b8c810360208e01529061346e565b9560408b015260608a0152608089015260a088015260c087015285820360e087015261346e565b916101008401526101208301520390f35b50346102345780600319360112610234576020601354604051908152f35b5034610234578060031936011261023457600f546040516001600160a01b039091168152602090f35b50346102345780600319360112610234576020601a54604051908152f35b50346102345780600319360112610234576113da613c89565b60ff6023541660058110156106735760040361151c57338152601f602052604081206002810161142081549261141360ff851615613c49565b6001815491015490613984565b9182156114eb5760ff19166001179055600b5482906001600160a01b0316803b1561043b5781809160c460405180948193634d8a45d560e11b835230600484015233602484015288604484015260806064840152600a60848401526910995d081c99599d5b9960b21b60a48401525af18015610430576114d6575b50506040519081528160208201527ffbc3a599b784fe88772fc5abcc07223f64ca0b13acc341f4fb1e46bef0510eb460403392a26001815580f35b816114e091613291565b61043b57815f61149b565b60405162461bcd60e51b8152602060048201526009602482015268139bc81c99599d5b9960ba1b6044820152606490fd5b60405162461bcd60e51b815260206004820152600d60248201526c139bdd0818d85b98d95b1b1959609a1b6044820152606490fd5b50346102345760203660031901126102345760209060ff906040906001600160a01b0361157c613492565b168152601d84522054166040519015158152f35b50346102345780600319360112610234576115a9613c89565b60ff602354166005811015610673576003036118bf5760185460ff8160081c161561188857338252601f60205260408220805490811580159061187b575b1561184357600281019160ff83549461160282871615613c49565b1660038110156105a45760011491821561183857505b80156118065781156117fd57601254915b156117f457601354905b600b546040516317fbd0fd60e11b81529387916001600160a01b0316602086600481845afa80156117cc57606461167a60ff60209360049a88916117d7575b50168861355d565b049160405197888092634367413160e01b82525afa80156117cc576116cd6116dd966116c86116d29460646116c160ff8b9760019e6116d79c916117ad575b50168561355d565b04926135a2565b6135a2565b61355d565b613584565b90613984565b9260ff191617905580611724575b6040519081528160208201527ffbc3a599b784fe88772fc5abcc07223f64ca0b13acc341f4fb1e46bef0510eb460403392a26001815580f35b600b5482906001600160a01b0316803b1561043b5781809160c460405180948193634d8a45d560e11b835230600484015233602484015288604484015260806064840152600c60848401526b4265742077696e6e696e677360a01b60a48401525af1801561043057611798575b50506116eb565b816117a291613291565b61043b57815f611791565b6117c6915060203d6020116105885761057a8183613291565b5f6116b9565b6040513d85823e3d90fd5b6117ee9150853d87116105885761057a8183613291565b5f611672565b60125490611633565b60135491611629565b60405162461bcd60e51b815260206004820152600a6024820152692737ba103bb4b73732b960b11b6044820152606490fd5b600191500154611618565b60405162461bcd60e51b815260206004820152601060248201526f2737903830b93a34b1b4b830ba34b7b760811b6044820152606490fd5b50600181015415156115e7565b60405162461bcd60e51b815260206004820152600f60248201526e139bdd08191a5cdd1c9a589d5d1959608a1b6044820152606490fd5b60405162461bcd60e51b815260206004820152600d60248201526c139bdd0818dbdb5c1b195d1959609a1b6044820152606490fd5b50346102345760203660031901126102345760043560038110801561042c5761191b613c89565b60ff602354166005811015610c0d57600261193691146137bb565b600554421015611dca576001821483818015611dbe575b15611d8a57600a546001600160a01b03163314611d4f57338552601f60205260408520541580611d38575b15611cfd57338552602260205260ff604086205416611cc857600c54604051630d47875d60e41b815233600482015290602090829060249082906001600160a01b03165afa801561058f576119df918791611ca9575b5060ff806008541691161015613be9565b600b54604051633415d2ff60e21b815233600482015293906001600160a01b0316602085602481845afa948515610ae6578795611c71575b5060408051631bf8924760e01b81523360048201529081602481855afa8015611c665786918991611c45575b5010611c0b578087913b1561043b5781809160c4604051809481936314f8d2c360e01b83523360048401523060248401528b604484015260806064840152600a608484015269566f7465207374616b6560b01b60a48401525af1801561043057611bf2575b5050338652602260205260408620600160ff1982541617905533865260216020526040862090156105a45760ff1981541660ff86161790553385526020805260408520611af6848254613984565b9055611b0483601454613984565b601455611b12601c54613c3b565b601c55610c0d5715611bd057611b29601954613c3b565b601955611b3881601554613984565b6015555b600b5483906001600160a01b0316803b1561043b578180916024604051809481936306aac6d960e01b83523360048401525af1801561043057611bbb575b5050611b8960405180936134e1565b60208201527fd9d9fd0caa964abf9540e87552b03d0f6f1427c14e4d23c647cc9f24efc0848860403392a26001815580f35b81611bc591613291565b61042c57825f611b7a565b611bdb601a54613c3b565b601a55611bea81601654613984565b601655611b3c565b81611bfc91613291565b611c0757855f611aa8565b8580fd5b60405162461bcd60e51b815260206004820152601260248201527124b739bab33334b1b4b2b73a10282927a7a360711b6044820152606490fd5b611c5e915060403d604011610adf57610acf8183613291565b90505f611a43565b6040513d8a823e3d90fd5b9094506020813d602011611ca1575b81611c8d60209383613291565b81010312611c9d5751935f611a17565b5f80fd5b3d9150611c80565b611cc2915060203d6020116105885761057a8183613291565b5f6119ce565b60405162461bcd60e51b815260206004820152600d60248201526c105b1c9958591e481d9bdd1959609a1b6044820152606490fd5b60405162461bcd60e51b8152602060048201526013602482015272426574746f72732063616e6e6f7420766f746560681b6044820152606490fd5b50338552601f602052600160408620015415611978565b60405162461bcd60e51b815260206004820152601360248201527243726561746f722063616e6e6f7420766f746560681b6044820152606490fd5b60405162461bcd60e51b815260206004820152600c60248201526b496e76616c696420766f746560a01b6044820152606490fd5b5050836002841461194d565b60405162461bcd60e51b815260206004820152600d60248201526c159bdd1a5b99c818db1bdcd959609a1b6044820152606490fd5b50346102345760203660031901126102345760209060ff906040906001600160a01b03611e2a613492565b168152602284522054166040519015158152f35b5034610234576020366003190112610234576040611e62611e5d613492565b6139d0565b825191825215156020820152f35b50346102345760e03660031901126102345760043567ffffffffffffffff811161043b57610120600319823603011261043b5760405190611eb082613274565b806004013567ffffffffffffffff811161254657611ed490600436918401016134ee565b8252602481013567ffffffffffffffff811161254657611efa90600436918401016134ee565b602083015260448101356040830152606481013560608301526084810135608083015260a481013560a083015260c481013560c083015260e48101359060ff821682036125465760e08301919091526101040135610100820152602435906001600160a01b038216820361042c576044356001600160a01b038116810361254657606435916001600160a01b038316830361099957608435936001600160a01b0385168503611c075760a435906001600160a01b03821682036125425760c435926001600160a01b038416840361253e5760235460ff8160081c166125035761ff001916610100176023556001600160a01b0382161515806124f1575b806124df575b806124cd575b806124bb575b806124a9575b1561247557604081015160608201518091109081612467575b501561243257805180519067ffffffffffffffff821161233557819061204f60015461323c565b601f81116123c3575b50602090601f8311600114612354578b92612349575b50508160011b915f199060031b1c1916176001555b602081015180519067ffffffffffffffff8211612335576120a560025461323c565b601f81116122d5575b50602090601f831160011461226d576101009392918b9183612262575b50508160011b915f199060031b1c1916176002555b60408101516003556060810151600455608081015160055560a081015160065560c081015160075560e08101516008805460ff191660ff929092169190911790550151600955600a80546001600160a01b0319166001600160a01b039283161790558316330361221d57600b80546001600160a01b03199081163317909155600c805482166001600160a01b03968716179055600d8054821696861696909617909555600e80548616918516919091179055600f8054909416908316179092556023805460ff19169055604051634a55342d60e11b81529160209183916004918391165afa9081156104305782916121eb575b508060105560ff801960115416911515161760115580f35b90506020813d602011612215575b8161220660209383613291565b81010312611c9d57515f6121d3565b3d91506121f9565b60405162461bcd60e51b815260206004820152601b60248201527f4f6e6c7920666163746f72792063616e20696e697469616c697a6500000000006044820152606490fd5b015190505f806120cb565b60028b52818b209190601f1984168c5b8181106122bd5750916001939185610100979694106122a5575b505050811b016002556120e0565b01515f1960f88460031b161c191690555f8080612297565b9293602060018192878601518155019501930161227d565b60028b527f405787fa12a823e0f2b7631cc41b3ba8828b3321ca811111fa75cd3aa3bb5ace601f840160051c81016020851061232e575b8c601f840160051c83018210612324575050506120ae565b815560010161230c565b508061230c565b634e487b7160e01b8a52604160045260248afd5b015190505f8061206e565b60018c525f516020613cc85f395f51905f529250601f1984168c5b8181106123ab5750908460019594939210612393575b505050811b01600155612083565b01515f1960f88460031b161c191690555f8080612385565b9293602060018192878601518155019501930161236f565b90915060018b52601f830160051c5f516020613cc85f395f51905f52016020841061241e575b908392915b601f820160051c5f516020613cc85f395f51905f520181106124105750612058565b8c81558493506001016123ee565b505f516020613cc85f395f51905f526123e9565b60405162461bcd60e51b815260206004820152600d60248201526c42616420646561646c696e657360981b6044820152606490fd5b90506080820151115f612028565b60405162461bcd60e51b815260206004820152600c60248201526b5a65726f206164647265737360a01b6044820152606490fd5b506001600160a01b038416151561200f565b506001600160a01b0383161515612009565b506001600160a01b0387161515612003565b506001600160a01b0386161515611ffd565b506001600160a01b0385161515611ff7565b60405162461bcd60e51b8152602060048201526013602482015272105b1c9958591e481a5b9a5d1a585b1a5e9959606a1b6044820152606490fd5b8780fd5b8680fd5b8380fd5b503461023457806003193601126102345761010060405161256a81613274565b60608152606060208201528260408201528260608201528260808201528260a08201528260c08201528260e0820152015261012060206040516125ac81613274565b6125b4613357565b81526125be6133d9565b9082810191825260ff600354926040830193845260045460608401908152600554608085019081526006549060a086019182526007549260c0870193845261264986600854169560e089019687526126366009549961010081019a8b526040519d8d8f9e928f938452519201526101408d019061346e565b90518b8203601f190160408d015261346e565b975160608a01525160808901525160a08801525160c08701525160e08601525116610100840152516101208301520390f35b5034610234578060031936011261023457602060ff60185460081c166040519015158152f35b5034610234578060031936011261023457602060ff601154166040519015158152f35b50346102345780600319360112610234576126dd613c89565b60ff60235416600581101561067357806003612702921490811561287c575b50613991565b600a546001600160a01b031633819003612848576011549060ff821615612803576010549081156127ce57839260ff191660115560018060a01b03600b541691823b15610f865760c48492836040519586948593634d8a45d560e11b85523060048601526024850152604484015260806064840152601960848401527f52657475726e2063726561746f7220636f6c6c61746572616c0000000000000060a48401525af18015610430576127b9575b506001905580f35b816127c391613291565b61023457805f6127b1565b60405162461bcd60e51b815260206004820152600d60248201526c139bc818dbdb1b185d195c985b609a1b6044820152606490fd5b60405162461bcd60e51b815260206004820152601a60248201527f436f6c6c61746572616c20616c726561647920636c61696d65640000000000006044820152606490fd5b60405162461bcd60e51b815260206004820152600c60248201526b27b7363c9031b932b0ba37b960a11b6044820152606490fd5b60049150145f6126fc565b5034611c9d575f366003190112611c9d5760ff602354166005811015612be15760011480612bd5575b6128b75780f35b6128c9600460ff196023541617602355565b600b54600a546001600160a01b039182169116813b15611c9d575f9160248392604051948593849263c19b52d960e01b845260048401525af18015612bca57612bb7575b505f516020613ca85f395f51905f526060604051602081526015602082015274141c9bdbd988191958591b1a5b99481b5a5cdcd959605a1b6040820152a160ff6011541680612bac575b6129b7575b600b54600a5482916001600160a01b039081169116813b15610f17578291602483926040519485938492633a87bca160e21b845260048401525af18015610430576129a657505080f35b816129b091613291565b6102345780f35b601054600b54604051634367413160e01b815283916001600160a01b031690602081600481855afa9081156117cc57612a0160ff612a09936064938791612b8d575b50168661355d565b0480946135a2565b6040516331056e5760e21b81529093602082600481865afa918215610f8b578492612b49575b50823b1561254657612a5b92849283604051809681958294634d8a45d560e11b8452306004850161393e565b03925af1801561043057612b34575b5050612a7b60125460135490613984565b80612a96575b50508060105560ff196011541660115561295c565b825b601e54811015612b2a5780612aae6001926134a8565b838060a01b0391549060031b1c16808652601f602052612ae16040872054828852601f6020528460408920015490613984565b8481612af1575b50505001612a98565b6116d2612afe928861355d565b9081612b0b575b84612ae8565b8652601f602052612b2160408720918254613984565b90555f80612b05565b5050505f80612a81565b81612b3e91613291565b61043b57815f612a6a565b9091506020813d602011612b85575b81612b6560209383613291565b8101031261254657516001600160a01b038116810361254657905f612a2f565b3d9150612b58565b612ba6915060203d6020116105885761057a8183613291565b5f6129f9565b506010541515612957565b612bc391505f90613291565b5f5f61290d565b6040513d5f823e3d90fd5b506004544210156128b0565b634e487b7160e01b5f52602160045260245ffd5b34611c9d575f366003190112611c9d57612c4d612c10613357565b612c186133d9565b600354906004546005546006546007549160ff6008541693612c5b600954966040519a8b9a6101208c526101208c019061346e565b908a820360208c015261346e565b9660408901526060880152608087015260a086015260c085015260e08401526101008301520390f35b34611c9d575f366003190112611c9d576020601054604051908152f35b34611c9d576020366003190112611c9d576040612cc4612cbf613492565b6137f8565b82519182526020820152f35b34611c9d575f366003190112611c9d576020601b54604051908152f35b34611c9d575f366003190112611c9d57600b546040516001600160a01b039091168152602090f35b34611c9d575f366003190112611c9d576060601954601a546014549060405192835260208301526040820152f35b34611c9d576020366003190112611c9d5760043567ffffffffffffffff8111611c9d57612d749036906004016134ee565b600a546001600160a01b031633036130005760ff602354166005811015612be1576001612da191146137bb565b6003544210612fc657600454421015612f8957805115612f5657805167ffffffffffffffff8111612f4257612dd760175461323c565b601f8111612eda575b50806020601f8211600114612e6b575f91612e60575b508160011b915f199060031b1c1916176017555b600260ff1960235416176023557f227d17811e582357665ee6ee281ef8528946951eab558c87afaf102464d6cc56612e5b60018060a01b03600a54169260405191829160208352602083019061346e565b0390a2005b905082015183612df6565b60175f9081525f516020613ce85f395f51905f529250601f198416905b818110612ec257509083600194939210612eaa575b5050811b01601755612e0a565b8401515f1960f88460031b161c191690558380612e9d565b91926020600181928689015181550194019201612e88565b60175f52601f820160051c5f516020613ce85f395f51905f52019060208310612f2d575b601f0160051c5f516020613ce85f395f51905f5201905b818110612f225750612de0565b5f8155600101612f15565b5f516020613ce85f395f51905f529150612efe565b634e487b7160e01b5f52604160045260245ffd5b60405162461bcd60e51b815260206004820152600b60248201526a22b6b83a3c90383937b7b360a91b6044820152606490fd5b60405162461bcd60e51b8152602060048201526015602482015274141c9bdbd988191958591b1a5b99481c185cdcd959605a1b6044820152606490fd5b60405162461bcd60e51b81526020600482015260126024820152712132ba3a34b7339039ba34b6361037b832b760711b6044820152606490fd5b60405162461bcd60e51b815260206004820152600b60248201526a2737ba1031b932b0ba37b960a91b6044820152606490fd5b34611c9d575f366003190112611c9d576101606130756130516135af565b999a909861306b604099939998949897959751809d6134d4565b60208c01906134e1565b60408a01526060890152608088015260a087015260c086015260e0850152610100840152610120830152610140820152f35b34611c9d575f366003190112611c9d576020601554604051908152f35b34611c9d575f366003190112611c9d57600d546040516001600160a01b039091168152602090f35b34611c9d575f366003190112611c9d57600e546040516001600160a01b039091168152602090f35b34611c9d576020366003190112611c9d57600435601e54811015611c9d5761313d6020916134a8565b905460405160039290921b1c6001600160a01b03168152f35b34611c9d575f366003190112611c9d576020601c54604051908152f35b34611c9d576020366003190112611c9d576001600160a01b03613194613492565b165f52601f602052606060405f2080549060ff600260018301549201541690604051928352602083015215156040820152f35b34611c9d575f366003190112611c9d576131f66131e26132b3565b60405191829160208352602083019061346e565b0390f35b34611c9d575f366003190112611c9d57600a546040516001600160a01b039091168152602090f35b34611c9d575f366003190112611c9d576020906012548152f35b90600182811c9216801561326a575b602083101461325657565b634e487b7160e01b5f52602260045260245ffd5b91607f169161324b565b610120810190811067ffffffffffffffff821117612f4257604052565b90601f8019910116810190811067ffffffffffffffff821117612f4257604052565b604051905f82601754916132c68361323c565b808352926001811690811561333857506001146132ec575b6132ea92500383613291565b565b5060175f90815290915f516020613ce85f395f51905f525b81831061331c5750509060206132ea928201016132de565b6020919350806001915483858901015201910190918492613304565b602092506132ea94915060ff191682840152151560051b8201016132de565b604051905f826001549161336a8361323c565b8083529260018116908115613338575060011461338d576132ea92500383613291565b5060015f90815290915f516020613cc85f395f51905f525b8183106133bd5750509060206132ea928201016132de565b60209193508060019154838589010152019101909184926133a5565b604051905f82600254916133ec8361323c565b8083529260018116908115613338575060011461340f576132ea92500383613291565b5060025f90815290917f405787fa12a823e0f2b7631cc41b3ba8828b3321ca811111fa75cd3aa3bb5ace5b8183106134525750509060206132ea928201016132de565b602091935080600191548385890101520191019091849261343a565b805180835260209291819084018484015e5f828201840152601f01601f1916010190565b600435906001600160a01b0382168203611c9d57565b601e548110156134c057601e5f5260205f2001905f90565b634e487b7160e01b5f52603260045260245ffd5b906005821015612be15752565b906003821015612be15752565b81601f82011215611c9d5780359067ffffffffffffffff8211612f425760405192613523601f8401601f191660200185613291565b82845260208383010111611c9d57815f926020809301838601378301015290565b90816020910312611c9d575160ff81168103611c9d5790565b8181029291811591840414171561357057565b634e487b7160e01b5f52601160045260245ffd5b811561358e570490565b634e487b7160e01b5f52601260045260245ffd5b9190820391821161357057565b60ff602354169060ff6018541690816005841015612be15760038403613700576003811015612be15760011480156136f8576012545b9181156136ef57601354905b600b54604051634367413160e01b815292936001600160a01b0390911692908490602083600481885afa8015612bca5760ff6020916004955f916136d2575b501695604051948580926317fbd0fd60e11b82525afa928315612bca576136869360ff915f916136b3575b501693606461366a878561355d565b0493836116c8606461367d89899861355d565b049586926135a2565b91156136aa57601954905b8180156136a5576136a29085613584565b90565b505f90565b601a5490613691565b6136cc915060203d6020116105885761057a8183613291565b5f61365b565b6136e99150833d85116105885761057a8183613291565b5f613630565b601254906135f1565b6013546135e5565b50600b54604051634367413160e01b815292936001600160a01b0390911690602084600481855afa918215612bca576004945f93613799575b50602090604051958680926317fbd0fd60e11b82525afa938415612bca575f94613778575b5093925f9260ff805f94169216905f905f905f905f905f90565b61379291945060203d6020116105885761057a8183613291565b925f61375e565b60209193506137b490823d84116105885761057a8183613291565b9290613739565b156137c257565b60405162461bcd60e51b815260206004820152600e60248201526d496e76616c69642073746174757360901b6044820152606490fd5b6001600160a01b03165f8181526022602052604081205490929060ff1615801561392b575b61392357815f526020805260405f20549160ff602354166005811015612be1576004811461391c5760021901613913575f52602160205260ff60405f20541660ff60185416906003821015612be1576003811015612be15781036139135760011480156139095760046013545b600b546040516317fbd0fd60e11b81529260209184919082906001600160a01b03165afa908115612bca5760ff6138cc926064945f916105605750169061355d565b04901561390057601954905b811515806138f7575b6138e9575050565b6138f4929450613584565b91565b508015156138e1565b601a54906138d8565b600460125461388a565b505f9250829150565b505f935050565b5f9250829150565b50815f526020805260405f20541561381d565b6001600160a01b039182168152911660208201526040810191909152608060608201819052600c908201526b506c6174666f726d2066656560a01b60a082015260c00190565b9190820180921161357057565b1561399857565b60405162461bcd60e51b815260206004820152601060248201526f10995d081b9bdd08199a5b9a5cda195960821b6044820152606490fd5b60ff602354166005811015612be157600303613be25760018060a01b03165f52601f60205260405f206040516060810181811067ffffffffffffffff821117612f42576040528154808252600183015460ff600260208501958387520154161591821580604086015292613bc8575b5050613bc05760ff601854169060038210159283612be15760018314928380613bb6575b15613b8957506001935b612be1578215613b815750515b8115613b7857601254915b15613b70576013545b600b546040516317fbd0fd60e11b815293906001600160a01b0316602085600481845afa948515612bca575f95613b4b575b50602060049160405192838092634367413160e01b82525afa8015612bca576116cd6116d7946116c887936138f4996116d2965f92613b18575b506116c160ff6064613b0f828295168861355d565b0493168561355d565b606491925060ff82613b0f82613b3f6116c19560203d6020116105885761057a8183613291565b96955050505050613afa565b6004919550613b68602091823d84116105885761057a8183613291565b959150613ac0565b601254613a8e565b60135491613a85565b905051613a7a565b5f945060021480613bac575b15613ba257600193613a6d565b505050505f905f90565b5080511515613b95565b5082511515613a63565b50505f905f90565b15915081613bd9575b505f80613a3f565b9050155f613bd1565b505f905f90565b15613bf057565b60405162461bcd60e51b815260206004820152600d60248201526c547275737420746f6f206c6f7760981b6044820152606490fd5b9190826040910312611c9d576020825192015190565b5f1981146135705760010190565b15613c5057565b60405162461bcd60e51b815260206004820152601160248201527020b63932b0b23c903bb4ba34323930bbb760791b6044820152606490fd5b60025f5414613c985760025f55565b633ee5aeb560e01b5f5260045ffdfe3ddcc849954303c379ec7b5fc775e4075525c655f439ae3564d02ae1c1feda6cb10e2d527612073b26eecdfd717e6a320cf44b4afac2b0732d9fcbe2b7fa0cf6c624b66cc0138b8fabc209247f72d758e1cf3343756d543badbf24212bed8c15a2646970667358221220d2f07caa816cbe15ae086a0241a2e53b08720adb13544ce25d3f3a590356f09364736f6c634300081c0033",
  "linkReferences": {},
  "deployedLinkReferences": {},
  "immutableReferences": {},
  "inputSourceName": "project/contracts/Bet.sol",
  "buildInfoId": "solc-0_8_28-972febb76e253fbcb44cf4865369e4c2ef48272e"
}