{
  "_format": "hh3-artifact-1",
  "contractName": "BetFactory",
  "sourceName": "contracts/BetFactory.sol",
  "abi": [
    {
      "inputs": [
        {
          "internalType": "address",
          "name": "_trustScore",
          "type": "address"
        },
        {
          "internalType": "address",
          "name": "_usdcToken",
          "type": "address"
        },
        {
          "internalType": "address",
          "name": "_proofToken",
          "type": "address"
        },
        {
          "internalType": "address",
          "name": "_feeCollector",
          "type": "address"
        },
        {
          "internalType": "uint256",
          "name": "_creationFeeProof",
          "type": "uint256"
        },
        {
          "internalType": "uint256",
          "name": "_initialVoteStakeAmountProof",
          "type": "uint256"
        },
        {
          "internalType": "uint256",
          "name": "_maxActiveBets",
          "type": "uint256"
        }
      ],
      "stateMutability": "nonpayable",
      "type": "constructor"
    },
    {
      "inputs": [
        {
          "internalType": "address",
          "name": "owner",
          "type": "address"
        }
      ],
      "name": "OwnableInvalidOwner",
      "type": "error"
    },
    {
      "inputs": [
        {
          "internalType": "address",
          "name": "account",
          "type": "address"
        }
      ],
      "name": "OwnableUnauthorizedAccount",
      "type": "error"
    },
    {
      "inputs": [],
      "name": "ReentrancyGuardReentrantCall",
      "type": "error"
    },
    {
      "anonymous": false,
      "inputs": [
        {
          "indexed": true,
          "internalType": "address",
          "name": "betAddress",
          "type": "address"
        },
        {
          "indexed": true,
          "internalType": "address",
          "name": "creator",
          "type": "address"
        },
        {
          "indexed": false,
          "internalType": "string",
          "name": "title",
          "type": "string"
        }
      ],
      "name": "BetCreated",
      "type": "event"
    },
    {
      "anonymous": false,
      "inputs": [
        {
          "indexed": false,
          "internalType": "uint8",
          "name": "oldPercentage",
          "type": "uint8"
        },
        {
          "indexed": false,
          "internalType": "uint8",
          "name": "newPercentage",
          "type": "uint8"
        }
      ],
      "name": "DefaultPlatformFeeChanged",
      "type": "event"
    },
    {
      "anonymous": false,
      "inputs": [
        {
          "indexed": false,
          "internalType": "uint8",
          "name": "oldPercentage",
          "type": "uint8"
        },
        {
          "indexed": false,
          "internalType": "uint8",
          "name": "newPercentage",
          "type": "uint8"
        }
      ],
      "name": "DefaultVoterRewardChanged",
      "type": "event"
    },
    {
      "anonymous": false,
      "inputs": [
        {
          "indexed": true,
          "internalType": "address",
          "name": "payer",
          "type": "address"
        },
        {
          "indexed": false,
          "internalType": "uint256",
          "name": "totalFee",
          "type": "uint256"
        },
        {
          "indexed": false,
          "internalType": "uint256",
          "name": "burnAmount",
          "type": "uint256"
        },
        {
          "indexed": false,
          "internalType": "uint256",
          "name": "keepAmount",
          "type": "uint256"
        }
      ],
      "name": "FeeProcessed",
      "type": "event"
    },
    {
      "anonymous": false,
      "inputs": [
        {
          "indexed": true,
          "internalType": "address",
          "name": "from",
          "type": "address"
        },
        {
          "indexed": true,
          "internalType": "address",
          "name": "to",
          "type": "address"
        },
        {
          "indexed": false,
          "internalType": "uint256",
          "name": "usdcAmount",
          "type": "uint256"
        },
        {
          "indexed": false,
          "internalType": "uint256",
          "name": "proofAmount",
          "type": "uint256"
        },
        {
          "indexed": false,
          "internalType": "string",
          "name": "reason",
          "type": "string"
        }
      ],
      "name": "InternalTransfer",
      "type": "event"
    },
    {
      "anonymous": false,
      "inputs": [
        {
          "indexed": false,
          "internalType": "uint256",
          "name": "oldLimit",
          "type": "uint256"
        },
        {
          "indexed": false,
          "internalType": "uint256",
          "name": "newLimit",
          "type": "uint256"
        }
      ],
      "name": "MaxActiveBetsChanged",
      "type": "event"
    },
    {
      "anonymous": false,
      "inputs": [
        {
          "indexed": true,
          "internalType": "address",
          "name": "previousOwner",
          "type": "address"
        },
        {
          "indexed": true,
          "internalType": "address",
          "name": "newOwner",
          "type": "address"
        }
      ],
      "name": "OwnershipTransferred",
      "type": "event"
    },
    {
      "anonymous": false,
      "inputs": [
        {
          "indexed": true,
          "internalType": "address",
          "name": "user",
          "type": "address"
        },
        {
          "indexed": false,
          "internalType": "uint256",
          "name": "amount",
          "type": "uint256"
        }
      ],
      "name": "ProofDeposited",
      "type": "event"
    },
    {
      "anonymous": false,
      "inputs": [
        {
          "indexed": true,
          "internalType": "address",
          "name": "user",
          "type": "address"
        },
        {
          "indexed": false,
          "internalType": "uint256",
          "name": "amount",
          "type": "uint256"
        }
      ],
      "name": "ProofWithdrawn",
      "type": "event"
    },
    {
      "anonymous": false,
      "inputs": [
        {
          "indexed": true,
          "internalType": "address",
          "name": "user",
          "type": "address"
        },
        {
          "indexed": false,
          "internalType": "uint256",
          "name": "amount",
          "type": "uint256"
        }
      ],
      "name": "UsdcDeposited",
      "type": "event"
    },
    {
      "anonymous": false,
      "inputs": [
        {
          "indexed": true,
          "internalType": "address",
          "name": "user",
          "type": "address"
        },
        {
          "indexed": false,
          "internalType": "uint256",
          "name": "amount",
          "type": "uint256"
        }
      ],
      "name": "UsdcWithdrawn",
      "type": "event"
    },
    {
      "anonymous": false,
      "inputs": [
        {
          "indexed": false,
          "internalType": "uint256",
          "name": "oldAmount",
          "type": "uint256"
        },
        {
          "indexed": false,
          "internalType": "uint256",
          "name": "newAmount",
          "type": "uint256"
        }
      ],
      "name": "VoteStakeAmountChanged",
      "type": "event"
    },
    {
      "inputs": [
        {
          "internalType": "address",
          "name": "",
          "type": "address"
        }
      ],
      "name": "activeBetsCount",
      "outputs": [
        {
          "internalType": "uint256",
          "name": "",
          "type": "uint256"
        }
      ],
      "stateMutability": "view",
      "type": "function"
    },
    {
      "inputs": [
        {
          "internalType": "uint256",
          "name": "",
          "type": "uint256"
        }
      ],
      "name": "allBets",
      "outputs": [
        {
          "internalType": "address",
          "name": "",
          "type": "address"
        }
      ],
      "stateMutability": "view",
      "type": "function"
    },
    {
      "inputs": [],
      "name": "baseDurationDays",
      "outputs": [
        {
          "internalType": "uint256",
          "name": "",
          "type": "uint256"
        }
      ],
      "stateMutability": "view",
      "type": "function"
    },
    {
      "inputs": [
        {
          "components": [
            {
              "internalType": "string",
              "name": "title",
              "type": "string"
            },
            {
              "internalType": "string",
              "name": "description",
              "type": "string"
            },
            {
              "internalType": "uint256",
              "name": "bettingDeadline",
              "type": "uint256"
            },
            {
              "internalType": "uint256",
              "name": "proofDeadline",
              "type": "uint256"
            },
            {
              "internalType": "uint256",
              "name": "votingDeadline",
              "type": "uint256"
            },
            {
              "internalType": "uint256",
              "name": "minimumBetAmount",
              "type": "uint256"
            },
            {
              "internalType": "uint256",
              "name": "minimumSideStake",
              "type": "uint256"
            },
            {
              "internalType": "uint8",
              "name": "minimumTrustScore",
              "type": "uint8"
            },
            {
              "internalType": "uint256",
              "name": "minimumVotes",
              "type": "uint256"
            }
          ],
          "internalType": "struct Bet.BetDetails",
          "name": "_details",
          "type": "tuple"
        }
      ],
      "name": "calculateDynamicCreationFee",
      "outputs": [
        {
          "internalType": "uint256",
          "name": "",
          "type": "uint256"
        }
      ],
      "stateMutability": "view",
      "type": "function"
    },
    {
      "inputs": [
        {
          "internalType": "address",
          "name": "voter",
          "type": "address"
        }
      ],
      "name": "calculateRequiredStake",
      "outputs": [
        {
          "internalType": "uint256",
          "name": "",
          "type": "uint256"
        }
      ],
      "stateMutability": "view",
      "type": "function"
    },
    {
      "inputs": [
        {
          "components": [
            {
              "internalType": "string",
              "name": "title",
              "type": "string"
            },
            {
              "internalType": "string",
              "name": "description",
              "type": "string"
            },
            {
              "internalType": "uint256",
              "name": "bettingDeadline",
              "type": "uint256"
            },
            {
              "internalType": "uint256",
              "name": "proofDeadline",
              "type": "uint256"
            },
            {
              "internalType": "uint256",
              "name": "votingDeadline",
              "type": "uint256"
            },
            {
              "internalType": "uint256",
              "name": "minimumBetAmount",
              "type": "uint256"
            },
            {
              "internalType": "uint256",
              "name": "minimumSideStake",
              "type": "uint256"
            },
            {
              "internalType": "uint8",
              "name": "minimumTrustScore",
              "type": "uint8"
            },
            {
              "internalType": "uint256",
              "name": "minimumVotes",
              "type": "uint256"
            }
          ],
          "internalType": "struct Bet.BetDetails",
          "name": "_details",
          "type": "tuple"
        }
      ],
      "name": "createBet",
      "outputs": [
        {
          "internalType": "address",
          "name": "",
          "type": "address"
        }
      ],
      "stateMutability": "nonpayable",
      "type": "function"
    },
    {
      "inputs": [],
      "name": "creationFeeProof",
      "outputs": [
        {
          "internalType": "uint256",
          "name": "",
          "type": "uint256"
        }
      ],
      "stateMutability": "view",
      "type": "function"
    },
    {
      "inputs": [],
      "name": "defaultPlatformFeePercentage",
      "outputs": [
        {
          "internalType": "uint8",
          "name": "",
          "type": "uint8"
        }
      ],
      "stateMutability": "view",
      "type": "function"
    },
    {
      "inputs": [],
      "name": "defaultVoterRewardPercentage",
      "outputs": [
        {
          "internalType": "uint8",
          "name": "",
          "type": "uint8"
        }
      ],
      "stateMutability": "view",
      "type": "function"
    },
    {
      "inputs": [
        {
          "internalType": "uint256",
          "name": "_amount",
          "type": "uint256"
        }
      ],
      "name": "depositProof",
      "outputs": [],
      "stateMutability": "nonpayable",
      "type": "function"
    },
    {
      "inputs": [
        {
          "internalType": "uint256",
          "name": "_amount",
          "type": "uint256"
        }
      ],
      "name": "depositUsdc",
      "outputs": [],
      "stateMutability": "nonpayable",
      "type": "function"
    },
    {
      "inputs": [
        {
          "internalType": "address",
          "name": "creator",
          "type": "address"
        }
      ],
      "name": "factoryLogBetCompletion",
      "outputs": [],
      "stateMutability": "nonpayable",
      "type": "function"
    },
    {
      "inputs": [
        {
          "internalType": "address",
          "name": "participant",
          "type": "address"
        }
      ],
      "name": "factoryLogBetParticipation",
      "outputs": [],
      "stateMutability": "nonpayable",
      "type": "function"
    },
    {
      "inputs": [
        {
          "internalType": "address",
          "name": "voter",
          "type": "address"
        }
      ],
      "name": "factoryLogVote",
      "outputs": [],
      "stateMutability": "nonpayable",
      "type": "function"
    },
    {
      "inputs": [],
      "name": "feeCollector",
      "outputs": [
        {
          "internalType": "address",
          "name": "",
          "type": "address"
        }
      ],
      "stateMutability": "view",
      "type": "function"
    },
    {
      "inputs": [
        {
          "internalType": "address",
          "name": "",
          "type": "address"
        }
      ],
      "name": "firstInteraction",
      "outputs": [
        {
          "internalType": "uint256",
          "name": "",
          "type": "uint256"
        }
      ],
      "stateMutability": "view",
      "type": "function"
    },
    {
      "inputs": [
        {
          "internalType": "address",
          "name": "user",
          "type": "address"
        }
      ],
      "name": "getActiveBetCount",
      "outputs": [
        {
          "internalType": "uint256",
          "name": "",
          "type": "uint256"
        }
      ],
      "stateMutability": "view",
      "type": "function"
    },
    {
      "inputs": [],
      "name": "getBets",
      "outputs": [
        {
          "internalType": "address[]",
          "name": "",
          "type": "address[]"
        }
      ],
      "stateMutability": "view",
      "type": "function"
    },
    {
      "inputs": [],
      "name": "getFactoryConfig",
      "outputs": [
        {
          "internalType": "uint256",
          "name": "creationFee",
          "type": "uint256"
        },
        {
          "internalType": "uint256",
          "name": "voteStakeAmount",
          "type": "uint256"
        },
        {
          "internalType": "uint8",
          "name": "voterRewardPct",
          "type": "uint8"
        },
        {
          "internalType": "uint8",
          "name": "platformFeePct",
          "type": "uint8"
        },
        {
          "internalType": "uint256",
          "name": "maxActive",
          "type": "uint256"
        }
      ],
      "stateMutability": "view",
      "type": "function"
    },
    {
      "inputs": [
        {
          "internalType": "address",
          "name": "_user",
          "type": "address"
        }
      ],
      "name": "getInternalBalances",
      "outputs": [
        {
          "internalType": "uint256",
          "name": "usdcBalance",
          "type": "uint256"
        },
        {
          "internalType": "uint256",
          "name": "proofBalance",
          "type": "uint256"
        }
      ],
      "stateMutability": "view",
      "type": "function"
    },
    {
      "inputs": [
        {
          "internalType": "address",
          "name": "",
          "type": "address"
        }
      ],
      "name": "internalProofBalance",
      "outputs": [
        {
          "internalType": "uint256",
          "name": "",
          "type": "uint256"
        }
      ],
      "stateMutability": "view",
      "type": "function"
    },
    {
      "inputs": [
        {
          "internalType": "address",
          "name": "",
          "type": "address"
        }
      ],
      "name": "internalUsdcBalance",
      "outputs": [
        {
          "internalType": "uint256",
          "name": "",
          "type": "uint256"
        }
      ],
      "stateMutability": "view",
      "type": "function"
    },
    {
      "inputs": [
        {
          "internalType": "address",
          "name": "",
          "type": "address"
        }
      ],
      "name": "isBetFromFactory",
      "outputs": [
        {
          "internalType": "bool",
          "name": "",
          "type": "bool"
        }
      ],
      "stateMutability": "view",
      "type": "function"
    },
    {
      "inputs": [],
      "name": "maxActiveBetsPerUser",
      "outputs": [
        {
          "internalType": "uint256",
          "name": "",
          "type": "uint256"
        }
      ],
      "stateMutability": "view",
      "type": "function"
    },
    {
      "inputs": [],
      "name": "owner",
      "outputs": [
        {
          "internalType": "address",
          "name": "",
          "type": "address"
        }
      ],
      "stateMutability": "view",
      "type": "function"
    },
    {
      "inputs": [],
      "name": "proofToken",
      "outputs": [
        {
          "internalType": "contract ProofToken",
          "name": "",
          "type": "address"
        }
      ],
      "stateMutability": "view",
      "type": "function"
    },
    {
      "inputs": [],
      "name": "renounceOwnership",
      "outputs": [],
      "stateMutability": "nonpayable",
      "type": "function"
    },
    {
      "inputs": [
        {
          "internalType": "uint256",
          "name": "_days",
          "type": "uint256"
        }
      ],
      "name": "setBaseDurationDays",
      "outputs": [],
      "stateMutability": "nonpayable",
      "type": "function"
    },
    {
      "inputs": [
        {
          "internalType": "uint256",
          "name": "_newFee",
          "type": "uint256"
        }
      ],
      "name": "setCreationFee",
      "outputs": [],
      "stateMutability": "nonpayable",
      "type": "function"
    },
    {
      "inputs": [
        {
          "internalType": "uint8",
          "name": "_percentage",
          "type": "uint8"
        }
      ],
      "name": "setDefaultPlatformFeePercentage",
      "outputs": [],
      "stateMutability": "nonpayable",
      "type": "function"
    },
    {
      "inputs": [
        {
          "internalType": "uint8",
          "name": "_percentage",
          "type": "uint8"
        }
      ],
      "name": "setDefaultVoterRewardPercentage",
      "outputs": [],
      "stateMutability": "nonpayable",
      "type": "function"
    },
    {
      "inputs": [
        {
          "internalType": "address",
          "name": "_newCollector",
          "type": "address"
        }
      ],
      "name": "setFeeCollector",
      "outputs": [],
      "stateMutability": "nonpayable",
      "type": "function"
    },
    {
      "inputs": [
        {
          "internalType": "uint256",
          "name": "_limit",
          "type": "uint256"
        }
      ],
      "name": "setMaxActiveBetsPerUser",
      "outputs": [],
      "stateMutability": "nonpayable",
      "type": "function"
    },
    {
      "inputs": [
        {
          "internalType": "uint256",
          "name": "_amount",
          "type": "uint256"
        }
      ],
      "name": "setVoteStakeAmount",
      "outputs": [],
      "stateMutability": "nonpayable",
      "type": "function"
    },
    {
      "inputs": [
        {
          "internalType": "address",
          "name": "_from",
          "type": "address"
        },
        {
          "internalType": "address",
          "name": "_to",
          "type": "address"
        },
        {
          "internalType": "uint256",
          "name": "_amount",
          "type": "uint256"
        },
        {
          "internalType": "string",
          "name": "_reason",
          "type": "string"
        }
      ],
      "name": "transferInternalProof",
      "outputs": [],
      "stateMutability": "nonpayable",
      "type": "function"
    },
    {
      "inputs": [
        {
          "internalType": "address",
          "name": "_from",
          "type": "address"
        },
        {
          "internalType": "address",
          "name": "_to",
          "type": "address"
        },
        {
          "internalType": "uint256",
          "name": "_amount",
          "type": "uint256"
        },
        {
          "internalType": "string",
          "name": "_reason",
          "type": "string"
        }
      ],
      "name": "transferInternalUsdc",
      "outputs": [],
      "stateMutability": "nonpayable",
      "type": "function"
    },
    {
      "inputs": [
        {
          "internalType": "address",
          "name": "newOwner",
          "type": "address"
        }
      ],
      "name": "transferOwnership",
      "outputs": [],
      "stateMutability": "nonpayable",
      "type": "function"
    },
    {
      "inputs": [],
      "name": "trustScoreContract",
      "outputs": [
        {
          "internalType": "contract TrustScore",
          "name": "",
          "type": "address"
        }
      ],
      "stateMutability": "view",
      "type": "function"
    },
    {
      "inputs": [],
      "name": "usdcToken",
      "outputs": [
        {
          "internalType": "contract IERC20",
          "name": "",
          "type": "address"
        }
      ],
      "stateMutability": "view",
      "type": "function"
    },
    {
      "inputs": [],
      "name": "voteStakeAmountProof",
      "outputs": [
        {
          "internalType": "uint256",
          "name": "",
          "type": "uint256"
        }
      ],
      "stateMutability": "view",
      "type": "function"
    },
    {
      "inputs": [
        {
          "internalType": "uint256",
          "name": "_amount",
          "type": "uint256"
        }
      ],
      "name": "withdrawProof",
      "outputs": [],
      "stateMutability": "nonpayable",
      "type": "function"
    },
    {
      "inputs": [
        {
          "internalType": "uint256",
          "name": "_amount",
          "type": "uint256"
        }
      ],
      "name": "withdrawUsdc",
      "outputs": [],
      "stateMutability": "nonpayable",
      "type": "function"
    }
  ],
  "bytecode": "0x6080346102ac57601f615ae138819003918201601f19168301916001600160401b038311848410176102b05780849260e0946040528339810103126102ac57610047816102c4565b90610054602082016102c4565b91610061604083016102c4565b9061006e606084016102c4565b60808401519260c060a0860151950151953315610299575f8054336001600160a01b0319821681178355604051969290916001600160a01b0316907f8be0079c531659141344cd1fd0a4f28419497f9722a3daafe3b4186f6b6457e09080a36001805560076010556001600160a01b031693841561026557506001600160a01b0316908115610234576001600160a01b0316918215610202576001600160a01b03169283156101c95785156101845760018060a01b0319600254161760025560018060a01b0319600354161760035560018060a01b0319600454161760045560018060a01b03196005541617600555600a55600b55600d5561030561ffff19600c541617600c5560405161580890816102d98239f35b60405162461bcd60e51b815260206004820152601660248201527f566f7465207374616b65206d757374206265203e2030000000000000000000006044820152606490fd5b60405162461bcd60e51b81526020600482015260116024820152702d32b937903332b2a1b7b63632b1ba37b960791b6044820152606490fd5b60405162461bcd60e51b815260206004820152600a6024820152692d32b93790282927a7a360b11b6044820152606490fd5b60405162461bcd60e51b81526020600482015260096024820152685a65726f205553444360b81b6044820152606490fd5b62461bcd60e51b815260206004820152600f60248201526e5a65726f20747275737453636f726560881b6044820152606490fd5b631e4fbdf760e01b5f525f60045260245ffd5b5f80fd5b634e487b7160e01b5f52604160045260245ffd5b51906001600160a01b03821682036102ac5756fe60806040526004361015610011575f80fd5b5f5f3560e01c806306aac6d91461181b578063077779e4146117875780630e94a0ee1461175e57806311eac8551461173557806314f8d2c31461166f578063159037631461162a57806315ac74f2146115b15780631bf89247146115675780631c46a5d1146115495780631ee86ed5146114835780631fa48820146113965780632357928e146112ab57806325bfd7d914611272578063282430bc146112545780632e9cbc37146111be5780632ff7a1fa1461119d578063436741311461117957806349b202f21461113a5780634f927dfd1461108257806351deef9314611049578063528e81ef146110105780635b06dece14610f1e578063715018a614610ec45780637ce1755314610dd25780638341c82914610db45780638a26c4de1461028e5780638ca2c71a14610d935780638da5cb5b14610d6c57806397bcebb41461084b5780639b148baa1461077b578063a42dce80146106f6578063a6afd5fd1461062e578063b7d862251461060b578063c19b52d9146105a6578063c415b95c1461057d578063c961dbae146104e2578063d0574bfc14610334578063dc7831fd1461030b578063e0ced0e1146102c7578063e632f7381461028e578063f2fde38b146102085763fb707f1f146101e8575f80fd5b346102055780600319360112610205576020600b54604051908152f35b80fd5b5034610205576020366003190112610205576102226118b7565b61022a611e0e565b6001600160a01b0316801561027a5781546001600160a01b03198116821783556001600160a01b03167f8be0079c531659141344cd1fd0a4f28419497f9722a3daafe3b4186f6b6457e08380a380f35b631e4fbdf760e01b82526004829052602482fd5b5034610205576020366003190112610205576020906040906001600160a01b036102b66118b7565b168152600e83522054604051908152f35b503461020557602036600319011261020557600435906006548210156102055760206102f283611ad4565b905460405160039290921b1c6001600160a01b03168152f35b50346102055780600319360112610205576002546040516001600160a01b039091168152602090f35b50346102055760203660031901126102055760246103506118b7565b600254604051630d47875d60e41b81526001600160a01b0392831660048201819052909390926020928592918391165afa9182156104d7578392610495575b50808352600f602052604083205461047d5750620151806103b1425b42611d31565b0491600b54916101fe60ff82169160011b169080820460021490151715610469578061012c039082811261012c831281169061012c8413901516176104555760038502948086046003149015171561045557840161012c0393821380158286131691851216176104415760206064610430858583821261043957611d3e565b04604051908152f35b839150611d3e565b634e487b7160e01b81526011600452602490fd5b634e487b7160e01b83526011600452602483fd5b634e487b7160e01b82526011600452602482fd5b8252600f602052620151806103b160408420546103ab565b9091506020813d6020116104cf575b816104b160209383611959565b810103126104cb575160ff811681036104cb57905f61038f565b8280fd5b3d91506104a4565b6040513d85823e3d90fd5b5034610205576020366003190112610205576004356104ff611e0e565b801561053f5760407f7038fd5f31cb6799163d0ca95acbbb2b209576b1833f1915e5be0a9f6eb49b4491600b549080600b5582519182526020820152a180f35b60405162461bcd60e51b81526020600482015260166024820152750566f7465207374616b65206d757374206265203e20360541b6044820152606490fd5b50346102055780600319360112610205576005546040516001600160a01b039091168152602090f35b5034610205576020366003190112610205576105c06118b7565b33825260076020526105d860ff604084205416611b00565b6001600160a01b0316808252600e60205260408220546105f6575080f35b8152600e6020526040812080545f1901905580f35b503461020557602036600319011261020557610625611e0e565b600435600a5580f35b503461020557806003193601126102055760405180602060065491828152018091600685527ff652222313e28459528d920b65115c16c04f3efc82aaedc97be59f3f377c0d3f90855b8181106106d7575050508261068d910383611959565b604051928392602084019060208552518091526040840192915b8181106106b5575050500390f35b82516001600160a01b03168452859450602093840193909201916001016106a7565b82546001600160a01b0316845260209093019260019283019201610677565b5034610205576020366003190112610205576107106118b7565b610718611e0e565b6001600160a01b03168015610742576bffffffffffffffffffffffff60a01b600554161760055580f35b60405162461bcd60e51b815260206004820152601160248201527024b73b30b634b21031b7b63632b1ba37b960791b6044820152606490fd5b5034610205576108417fd65318ec9967b019cd6c9e0b2f5866a86edea54d64ac9a1c5cb52db0c51c273b6107ae366118cd565b9294936107bc969196611dee565b33885260076020526107d460ff60408a205416611b38565b60018060a01b03169485885260086020526107f58360408a20541015611ce5565b85885260086020526040882083815403905560018060a01b0316958688526008602052604088208381540190556040519384938452886020850152606060408501526060840191611bc4565b0390a36001805580f35b50346102055761085a366119e5565b610862611dee565b61086b81611d51565b338352600960205280604084205410610d3257338352600e6020526040832054600d541115610cf65733835260096020526040832081815403905560018060a01b0360045416604051632b852f2560e01b8152602081600481855afa908115610ceb578591610cb7575b506108e260649184611d3e565b04846108ee8285611d31565b9282610c6e575b505081610ba0575b604051928352602083015260408201527f2445fb79a5a4a2bac1a965d4d13b4e827f051f2d6fc972fad3b399041e5a8b4560603392a2600254600354600454600554604051936001600160a01b03908116939181169261399e80870193918316929091169086841067ffffffffffffffff851117610b8c5791869594939160c093611e35883960e083526109b96109a28a5161012060e0870152610200860190611dca565b60208b015185820360df1901610100870152611dca565b9560408a015161012085015260608a015161014085015260808a015161016085015260a08a0151610180850152848a01516101a085015260ff60e08b0151166101c08501526101008a01516101e08501523360208501523060408501526060840152608083015260a08201520152039083f08015610b815760018060a01b03169060065468010000000000000000811015610b6d57806001610a5e9201600655611ad4565b81546001600160a01b0360039290921b91821b19169084901b179055818352600760209081526040808520805460ff19166001179055338552600e909152832080545f198114610b5957600101905560025483906001600160a01b0316803b15610b5557819060246040518094819363393f530f60e01b83523360048401525af18015610b4a57610b35575b6020838351817f9fad859b21dc8b04ac5bbdd3cfd18a2215799015dc9f0488bc0acd8817d76d6360405185815280610b26339588830190611dca565b0390a360018055604051908152f35b610b40848092611959565b6104cb5782610aea565b6040513d86823e3d90fd5b5080fd5b634e487b7160e01b85526011600452602485fd5b634e487b7160e01b84526041600452602484fd5b6040513d84823e3d90fd5b634e487b7160e01b89526041600452602489fd5b6004805460055460405163a9059cbb60e01b81526001600160a01b039182169381019390935260248301859052602091839160449183918b91165af1908115610c63578691610c34575b506108fd5760405162461bcd60e51b815260206004820152601960248201527f50524f4f4620666565207472616e73666572206661696c6564000000000000006044820152606490fd5b610c56915060203d602011610c5c575b610c4e8183611959565b810190611c25565b5f610bea565b503d610c44565b6040513d88823e3d90fd5b803b15610b5557818091602460405180948193630852cd8d60e31b83528860048401525af18015610b8157156108f55781610ca891611959565b610cb357845f6108f5565b8480fd5b90506020813d602011610ce3575b81610cd260209383611959565b81010312610cb357516108e26108d5565b3d9150610cc5565b6040513d87823e3d90fd5b60405162461bcd60e51b8152602060048201526014602482015273546f6f206d616e7920616374697665206265747360601b6044820152606490fd5b60405162461bcd60e51b815260206004820152601260248201527124b739bab33334b1b4b2b73a10282927a7a360711b6044820152606490fd5b5034610205578060031936011261020557546040516001600160a01b039091168152602090f35b5034610205576020610dac610da7366119e5565b611d51565b604051908152f35b50346102055780600319360112610205576020600d54604051908152f35b503461020557602036600319011261020557600435610def611dee565b610dfa811515611be4565b3382526009602052610e128160408420541015611b78565b338083526009602090815260408085208054859003905560048054915163a9059cbb60e01b815290810193909352602483018490528290604490829087906001600160a01b03165af180156104d757610e72918491610ea5575b50611c3d565b6040519081527f4bf38f9736a5ce4bdb7feae20f2d2b06453cb6546f6b135b6b17acc4eb40166760203392a26001805580f35b610ebe915060203d602011610c5c57610c4e8183611959565b5f610e6c565b5034610205578060031936011261020557610edd611e0e565b80546001600160a01b03198116825581906001600160a01b03167f8be0079c531659141344cd1fd0a4f28419497f9722a3daafe3b4186f6b6457e08280a380f35b503461020557602036600319011261020557600435610f3b611dee565b610f46811515611be4565b3382526008602052610f5e8160408420541015611ce5565b3380835260086020908152604080852080548590039055600354905163a9059cbb60e01b81526004810193909352602483018490528290604490829087906001600160a01b03165af180156104d757610fbe918491610ff1575b50611ca2565b6040519081527f0d1589f631deb2542273b007140b132a18d48a4303d103fe64d353db07e01b5760203392a26001805580f35b61100a915060203d602011610c5c57610c4e8183611959565b5f610fb8565b5034610205576020366003190112610205576020906040906001600160a01b036110386118b7565b168152600983522054604051908152f35b5034610205576020366003190112610205576020906040906001600160a01b036110716118b7565b168152600f83522054604051908152f35b50346102055760203660031901126102055761109c611949565b6110a4611e0e565b60ff8116906032821161110057600c805460ff19811690931790556040805160ff93841681529190921660208201527f23544ae90129bcc75de3e8f5f3300261a16bd084afbf41bd26cac1f2365b305591819081015b0390a180f35b60405162461bcd60e51b8152602060048201526012602482015271566f74657220726577617264203e2035302560701b6044820152606490fd5b50346102055760203660031901126102055760209060ff906040906001600160a01b036111656118b7565b168152600784522054166040519015158152f35b5034610205578060031936011261020557602060ff600c5460081c16604051908152f35b5034610205578060031936011261020557602060ff600c5416604051908152f35b5034610205576020366003190112610205576004356111db611e0e565b801561121b5760407f25c1c85e83cba392025ae48f325ef9bd15b683a7ad29251a107354cb1068ae6391600d549080600d5582519182526020820152a180f35b60405162461bcd60e51b815260206004820152601160248201527004c696d6974206d757374206265203e203607c1b6044820152606490fd5b50346102055780600319360112610205576020601054604051908152f35b5034610205576020366003190112610205576020906040906001600160a01b0361129a6118b7565b168152600883522054604051908152f35b5034610205576020366003190112610205576004356112c8611dee565b6112d3811515611be4565b6003546040516323b872dd60e01b815233600482015230602482015260448101839052906020908290606490829087906001600160a01b03165af180156104d757611324918491610ff15750611ca2565b338252600f602052604082205415611383575b33825260086020526040822061134e828254611c81565b90556040519081527f36e229bdaedfa85d503535ae31c3ac9e40d88f1ab4fa53870ef2da82df48e99060203392a26001805580f35b338252600f602052426040832055611337565b5034610205576020366003190112610205576004356113b3611dee565b6113be811515611be4565b600480546040516323b872dd60e01b81523392810192909252306024830152604482018390526020908290606490829087906001600160a01b03165af180156104d757611411918491610ea55750611c3d565b338252600f602052604082205415611470575b33825260096020526040822061143b828254611c81565b90556040519081527fa4ddd265c8016cfa57813894be0f8a41c7dfa594c82404375abadf2ffc33607c60203392a26001805580f35b338252600f602052426040832055611424565b50346102055760203660031901126102055761149d611949565b6114a5611e0e565b603260ff82161161150f5760ff7f285d424463e6f2d8b27eb851e42ce326e42daff7d6c17735b05f02baf329aaa5916110fa600c549161ff008160081b1661ff0019841617600c5560405193849360081c168390929160ff60209181604085019616845216910152565b60405162461bcd60e51b8152602060048201526012602482015271506c6174666f726d20666565203e2035302560701b6044820152606490fd5b50346102055780600319360112610205576020600a54604051908152f35b503461020557602036600319011261020557604090816001600160a01b0361158d6118b7565b16918281526008602052818120549281526009602052205482519182526020820152f35b5034610205576020366003190112610205576004356115ce611e0e565b8015158061161f575b156115e25760105580f35b60405162461bcd60e51b815260206004820152601560248201527424b73b30b634b2103130b9b290323ab930ba34b7b760591b6044820152606490fd5b50601e8111156115d7565b503461020557806003193601126102055760a0600a54600b5460ff600c54600d54926040519485526020850152818116604085015260081c1660608301526080820152f35b5034610205576108417fd65318ec9967b019cd6c9e0b2f5866a86edea54d64ac9a1c5cb52db0c51c273b6116a2366118cd565b9294936116b0969196611dee565b33885260076020526116c860ff60408a205416611b38565b60018060a01b03169485885260096020526116e98360408a20541015611b78565b85885260096020526040882083815403905560018060a01b0316958688526009602052604088208381540190556040519384938985526020850152606060408501526060840191611bc4565b50346102055780600319360112610205576003546040516001600160a01b039091168152602090f35b50346102055780600319360112610205576004546040516001600160a01b039091168152602090f35b503461020557602036600319011261020557806117a26118b7565b33825260076020526117ba60ff604084205416611b00565b6002546001600160a01b031690813b1561181757604051633e852f6560e01b81526001600160a01b0390911660048201529082908290602490829084905af18015610b81576118065750f35b8161181091611959565b6102055780f35b5050fd5b50346118b35760203660031901126118b3576118356118b7565b335f52600760205261184d60ff60405f205416611b00565b6002546001600160a01b031690813b156118b35760405163a971fb2360e01b81526001600160a01b039091166004820152905f908290602490829084905af180156118a85761189a575080f35b6118a691505f90611959565b005b6040513d5f823e3d90fd5b5f80fd5b600435906001600160a01b03821682036118b357565b60806003198201126118b3576004356001600160a01b03811681036118b357916024356001600160a01b03811681036118b357916044359160643567ffffffffffffffff81116118b357826023820112156118b35780600401359267ffffffffffffffff84116118b357602484830101116118b3576024019190565b6004359060ff821682036118b357565b90601f8019910116810190811067ffffffffffffffff82111761197b57604052565b634e487b7160e01b5f52604160045260245ffd5b81601f820112156118b35780359067ffffffffffffffff821161197b57604051926119c4601f8401601f191660200185611959565b828452602083830101116118b357815f926020809301838601378301015290565b60206003198201126118b35760043567ffffffffffffffff81116118b35761012081830360031901126118b35760405191610120830183811067ffffffffffffffff82111761197b57604052816004013567ffffffffffffffff81116118b357816004611a549285010161198f565b835260248201359067ffffffffffffffff82116118b3576004611a799284010161198f565b602083015260448101356040830152606481013560608301526084810135608083015260a481013560a083015260c481013560c083015260e48101359060ff821682036118b3576101049160e0840152013561010082015290565b600654811015611aec5760065f5260205f2001905f90565b634e487b7160e01b5f52603260045260245ffd5b15611b0757565b60405162461bcd60e51b8152602060048201526009602482015268139bdd08184810995d60ba1b6044820152606490fd5b15611b3f57565b60405162461bcd60e51b81526020600482015260116024820152704f6e6c7920666163746f7279206265747360781b6044820152606490fd5b15611b7f57565b60405162461bcd60e51b815260206004820152601b60248201527f496e73756666696369656e7420696e7465726e616c2050524f4f4600000000006044820152606490fd5b908060209392818452848401375f828201840152601f01601f1916010190565b15611beb57565b60405162461bcd60e51b81526020600482015260126024820152710416d6f756e74206d757374206265203e20360741b6044820152606490fd5b908160209103126118b3575180151581036118b35790565b15611c4457565b60405162461bcd60e51b8152602060048201526015602482015274141493d3d1881d1c985b9cd9995c8819985a5b1959605a1b6044820152606490fd5b91908201809211611c8e57565b634e487b7160e01b5f52601160045260245ffd5b15611ca957565b60405162461bcd60e51b81526020600482015260146024820152731554d110c81d1c985b9cd9995c8819985a5b195960621b6044820152606490fd5b15611cec57565b60405162461bcd60e51b815260206004820152601a60248201527f496e73756666696369656e7420696e7465726e616c20555344430000000000006044820152606490fd5b91908203918211611c8e57565b81810292918115918404141715611c8e57565b6080015142811115611dbf57611d6c62015180914290611d31565b046010548082105f14611d8e5750506064611d8a815b600a54611d3e565b0490565b6001600160ff1b0381168103611c8e5760011b1115611db3576064611d8a6096611d82565b6064611d8a60c8611d82565b50620151805f611d6c565b805180835260209291819084018484015e5f828201840152601f01601f1916010190565b600260015414611dff576002600155565b633ee5aeb560e01b5f5260045ffd5b5f546001600160a01b03163303611e2157565b63118cdaa760e01b5f523360045260245ffdfe610120604052346106645761399e8038038061001a81610668565b92833981019060e0818303126106645780516001600160401b03811161066457810161012081840312610664576040519261012084016001600160401b038111858210176104965760405281516001600160401b038111610664578161008191840161068d565b84526020820151906001600160401b038211610664576100a291830161068d565b602084015260408101516040840152606081015160608401526080810151608084015260a081015160a084015260c081015160c084015260e08101519060ff82168203610664576101009160e08501520151610100830152610106602082016106de565b91610113604083016106de565b61011f606084016106de565b9061012c608085016106de565b9261014560c061013e60a088016106de565b96016106de565b60015f55956001600160a01b03169081151580610652575b80610640575b8061062e575b8061061c575b8061060a575b156105d6576040810151606082015180911090816105c8575b50156105935780518051906001600160401b0382116104965760015490600182811c92168015610589575b60208310146104785781601f84931161051b575b50602090601f83116001146104b5575f926104aa575b50508160011b915f199060031b1c1916176001555b60208101518051906001600160401b03821161049657600254600181811c9116801561048c575b602082101461047857601f8111610415575b50602090601f83116001146103ac576101009392915f91836103a1575b50508160011b915f199060031b1c1916176002555b60408101516003556060810151600455608081015160055560a081015160065560c081015160075560ff60e08201511660ff196008541617600855015160095560018060a01b0319600a541617600a5560018060a01b031660805260018060a01b031660a05260018060a01b031660c05260018060a01b031660e0526101005260ff19601b5416601b556040516132ab90816106f382396080518181816103720152818161042b015281816104f80152818161072f01528181610c220152818161110f0152818161146b0152818161169c01528181611a39015281816120f9015281816122cc01528181612ba601528181612cd201528181612e7b015261300f015260a0518181816109a001528181610ae201526119d7015260c05181612708015260e0518161274c015261010051818181610e0d01526113ac0152f35b015190505f8061024e565b90601f1983169160025f52815f20925f5b8181106103fd5750916001939185610100979694106103e5575b505050811b01600255610263565b01515f1960f88460031b161c191690555f80806103d7565b929360206001819287860151815501950193016103bd565b60025f527f405787fa12a823e0f2b7631cc41b3ba8828b3321ca811111fa75cd3aa3bb5ace601f840160051c8101916020851061046e575b601f0160051c01905b8181106104635750610231565b5f8155600101610456565b909150819061044d565b634e487b7160e01b5f52602260045260245ffd5b90607f169061021f565b634e487b7160e01b5f52604160045260245ffd5b015190505f806101e3565b60015f9081528281209350601f198516905b81811061050357509084600195949392106104eb575b505050811b016001556101f8565b01515f1960f88460031b161c191690555f80806104dd565b929360206001819287860151815501950193016104c7565b60015f529091507fb10e2d527612073b26eecdfd717e6a320cf44b4afac2b0732d9fcbe2b7fa0cf6601f840160051c8101916020851061057f575b90601f859493920160051c01905b81811061057157506101cd565b5f8155849350600101610564565b9091508190610556565b91607f16916101b9565b60405162461bcd60e51b815260206004820152600d60248201526c42616420646561646c696e657360981b6044820152606490fd5b90506080820151115f61018e565b60405162461bcd60e51b815260206004820152600c60248201526b5a65726f206164647265737360a01b6044820152606490fd5b506001600160a01b0387161515610175565b506001600160a01b038616151561016f565b506001600160a01b0385161515610169565b506001600160a01b0384161515610163565b506001600160a01b038316151561015d565b5f80fd5b6040519190601f01601f191682016001600160401b0381118382101761049657604052565b81601f82011215610664578051906001600160401b038211610496576106bc601f8301601f1916602001610668565b928284526020838301011161066457815f9260208093018386015e8301015290565b51906001600160a01b03821682036106645756fe6080806040526004361015610012575f80fd5b5f905f3560e01c9081630208d8111461284b5750806302d05d3f1461282357806307ea56db146127f057806309e69ede146127985780630d15fd771461277b5780630e94a0ee1461273757806311eac855146126f357806316468241146126d65780632bcd0f02146126625780632c2e8faf146123295780632d336a97146122fb5780632e1a9618146122b7578063362f04c01461229a5780633a1fecb81461225f578063565974d3146121d057806363a39141146120aa5780636f95b3f3146120845780638a2fd02914611ea1578063aa23979214611e62578063aec2ccae14611e20578063b3f98adc14611931578063b401faf1146115e8578063b4fb3ee3146115a6578063b5545a3c146113f9578063b5b47f42146113db578063c415b95c14611396578063ccc8279514611378578063cfe7b77014611218578063d4249dce146111db578063d6d2023814611099578063d72edbf214610b74578063d8bff5a514610b2f578063d9cbee0414610b11578063dc7831fd14610acc578063dcb3b30e146106a5578063e41356f314610262578063ef8a92351461023c578063fb04521b1461021e578063fb286c65146102005763fbf06338146101d6575f80fd5b346101fd57806003193601126101fd57602060ff601154166101fb6040518092612adb565bf35b80fd5b50346101fd57806003193601126101fd576020601254604051908152f35b50346101fd57806003193601126101fd576020600d54604051908152f35b50346101fd57806003193601126101fd57602060ff601b54166101fb6040518092612ace565b50346101fd57806003193601126101fd5761027b613217565b60ff601b541660058110156106915760038114908115610686575b501561065257338152601a60205260ff604082205416156106215733815260186020526040812054156105f15780819033835260186020526040832054338452601860205283604081205560ff601b541660058110156105dd576003036105d657338452601960205260ff6040852054169060ff601154169160038310156105c25760038110156105c25782146104d3575b50505b80610428575b8161036f575b60405191825260208201527ffbc3a599b784fe88772fc5abcc07223f64ca0b13acc341f4fb1e46bef0510eb460403392a26001815580f35b827f00000000000000000000000000000000000000000000000000000000000000006001600160a01b0316803b156104245781809160c460405180948193634d8a45d560e11b835230600484015233602484015289604484015260806064840152600c60848401526b159bdd195c881c995dd85c9960a21b60a48401525af1801561041957610400575b5050610337565b8161040a916128ba565b61041557825f6103f9565b8280fd5b6040513d84823e3d90fd5b5080fd5b827f00000000000000000000000000000000000000000000000000000000000000006001600160a01b0316803b156104245781809160c4604051809481936314f8d2c360e01b83523060048401523360248401528860448401526080606484015260116084840152702b37ba329039ba30b5b2903932ba3ab93760791b60a48401525af18015610419576104be575b5050610331565b816104c8916128ba565b61041557825f6104b7565b915060011480156105ba57600c545b6040516317fbd0fd60e11b8152906020826004817f00000000000000000000000000000000000000000000000000000000000000006001600160a01b03165afa9081156105af5760ff610541926064948991610580575b501690612b01565b04901561057757601254905b8015158061056e575b1561032857610566929350612b28565b905f80610328565b50811515610556565b6013549061054d565b6105a2915060203d6020116105a8575b61059a81836128ba565b810190612ae8565b5f610539565b503d610590565b6040513d88823e3d90fd5b600b546104e2565b634e487b7160e01b86526021600452602486fd5b905061032b565b634e487b7160e01b85526021600452602485fd5b60405162461bcd60e51b81526020600482015260086024820152674e6f207374616b6560c01b6044820152606490fd5b60405162461bcd60e51b8152602060048201526009602482015268139bdd081d9bdd195960ba1b6044820152606490fd5b60405162461bcd60e51b815260206004820152600c60248201526b139bdd08199a5b9a5cda195960a21b6044820152606490fd5b60049150145f610296565b634e487b7160e01b82526021600452602482fd5b50346101fd5760403660031901126101fd576004356003811015610424576024356106ce613217565b60ff601b54166005811015610ab8576106e79015612d97565b600354421015610a82576001821483818015610a76575b15610a42576006548310610a0d5760ff6008541680610984575b5060408051631bf8924760e01b81523360048201527f00000000000000000000000000000000000000000000000000000000000000006001600160a01b0316939181602481875afa80156109795785918891610949575b501061091057823b1561090c5785604051634d8a45d560e11b815233600482015230602482015285604482015260806064820152600d60848201526c10995d081c1b1858d95b595b9d609a1b60a4820152818160c48183895af18015610419576108f7575b5050338652601660205260ff604087205416156108cd575b338652601760205260408620916105c25785929190156108a957610811848254612f34565b905561081f83600b54612f34565b600b555b803b15610424578180916024604051809481936301ddde7960e21b83523360048401525af1801561041957610894575b50506108626040518093612adb565b60208201527f9f6b4cced64244a64465098f682029975b1614400b96bc6bd12c66808371916660403392a26001815580f35b8161089e916128ba565b61041557825f610853565b6001016108b7848254612f34565b90556108c583600c54612f34565b600c55610823565b338652601660205260408620600160ff198254161790556108ef6014546131c9565b6014556107ec565b81610901916128ba565b61090c57855f6107d4565b8580fd5b60405162461bcd60e51b8152602060048201526011602482015270496e73756666696369656e74205553444360781b6044820152606490fd5b61096b915060403d604011610972575b61096381836128ba565b8101906131b3565b505f61076f565b503d610959565b6040513d89823e3d90fd5b604051630d47875d60e41b8152336004820152906020826024817f00000000000000000000000000000000000000000000000000000000000000006001600160a01b03165afa918215610979576109e89260ff9189916109ee575b50161015613177565b5f610718565b610a07915060203d6020116105a85761059a81836128ba565b5f6109df565b60405162461bcd60e51b815260206004820152600d60248201526c5374616b6520746f6f206c6f7760981b6044820152606490fd5b60405162461bcd60e51b815260206004820152600c60248201526b496e76616c6964207369646560a01b6044820152606490fd5b505083600284146106fe565b60405162461bcd60e51b815260206004820152600e60248201526d10995d1d1a5b99c818db1bdcd95960921b6044820152606490fd5b634e487b7160e01b84526021600452602484fd5b50346101fd57806003193601126101fd576040517f00000000000000000000000000000000000000000000000000000000000000006001600160a01b03168152602090f35b50346101fd57806003193601126101fd576020600f54604051908152f35b50346101fd5760203660031901126101fd576004356001600160a01b038116908190036104245760408260ff9260209452601984522054166101fb6040518092612adb565b50346101fd57806003193601126101fd57610b8d613217565b60ff601b54166005811015610691576002148061108d575b610bb1575b6001815580f35b6015546009541115610fb657610bcf600460ff19601b541617601b55565b5f5160206132365f395f51905f52606060405160208152601960208201527f496e73756666696369656e74207075626c696320766f746573000000000000006040820152a15b600a546001600160a01b037f00000000000000000000000000000000000000000000000000000000000000008116929116823b15610424576040519063c19b52d960e01b82526004820152818160248183875af1801561041957908291610fa1575b505060ff601b541660058110159081610f0c576003811480918115610f93575b5015610f5b576011549160ff8360081c16610f2057610f0c5715610ef9575060ff60115461010061ff0019821617601155166003811015610691576001148015610ef057600b54905b15610ee757600c54905b15610ea257604051634367413160e01b8152602081600481875afa908115610e97579160ff610d2492606494869161058057501690612b01565b0480610df1575b5060ff601154169160038310156106915760018293145f14610de957600f545b80610d59575b505050610baa565b813b15610de557829160c4839260405194859384926314f8d2c360e01b8452306004850152816024850152604484015260806064840152601b60848401527f436f6c6c656374206c6f73696e672070726f6f66207374616b6573000000000060a48401525af1801561041957610dd0575b80610d51565b81610dda916128ba565b6101fd57805f610dca565b5050fd5b600e54610d4b565b823b1561042457604051634d8a45d560e11b81523060048201527f00000000000000000000000000000000000000000000000000000000000000006001600160a01b03166024820152604481019190915260806064820152600c60848201526b506c6174666f726d2066656560a01b60a4820152818160c48183875af1801561041957908291610e82575b50610d2b565b81610e8c916128ba565b6101fd57805f610e7c565b6040513d85823e3d90fd5b60405162461bcd60e51b815260206004820152601760248201527f4e6f207374616b657320746f20646973747269627574650000000000000000006044820152606490fd5b600b5490610cea565b600c5490610ce0565b61ff001916610100176011559050610baa565b634e487b7160e01b83526021600452602483fd5b60405162461bcd60e51b8152602060048201526013602482015272105b1c9958591e48191a5cdd1c9a589d5d1959606a1b6044820152606490fd5b60405162461bcd60e51b815260206004820152601060248201526f10995d081b9bdd08199a5b9a5cda195960821b6044820152606490fd5b92505060048392145f610c97565b81610fab916128ba565b6101fd57805f610c77565b60125460135480821115611021575050600160ff196011541617601155610fe5600360ff19601b541617601b55565b7fd6bcd4b6873d691163f1aff2d5585378623aef08e17513a5253eabe39c65dc50602060ff6011541661101b6040518092612adb565ba1610c15565b111561104657600260ff196011541617601155610fe5600360ff19601b541617601b55565b611058600460ff19601b541617601b55565b5f5160206132365f395f51905f526060604051602081526008602082015267566f74652074696560c01b6040820152a1610c15565b50600554421015610ba5565b50346101fd57806003193601126101fd5760ff601b541660058110156106915715806111cf575b6110c75780f35b600b546007548091101590816111c2575b50156110ee57600160ff19601b541617601b5580f35b611100600460ff19601b541617601b55565b600a5481906001600160a01b037f000000000000000000000000000000000000000000000000000000000000000081169116813b15610de557829160248392604051948593849263c19b52d960e01b845260048401525af18015610419576111ad575b50505f5160206132365f395f51905f52606060405160208152601a60208201527f4d696e696d756d2073696465207374616b65206e6f74206d65740000000000006040820152a180f35b816111b7916128ba565b6101fd57805f611163565b9050600c5410155f6110d8565b506003544210156110c0565b50346101fd5760203660031901126101fd576004356001600160a01b03811690819003610424578160409160209352601883522054604051908152f35b50346101fd57806003193601126101fd57600b5490600c549060035460045491600554601454936015549361124b612980565b9660405194806002549061125e82612865565b808952916001811690811561135157506001146112f8575b5050918593916112916112e7976101409b9c979503866128ba565b6112c061129c6128dc565b956112b26040519d8d8f9e8f9081520190612aaa565b8c810360208e015290612aaa565b9560408b015260608a0152608089015260a088015260c087015285820360e0870152612aaa565b916101008401526101208301520390f35b6002815291507f405787fa12a823e0f2b7631cc41b3ba8828b3321ca811111fa75cd3aa3bb5ace5b818310611337575050850160200181611291611276565b6001816020929493945483858c0101520191019190611320565b60ff19166020808b019190915292151560051b890190920192508391506112919050611276565b50346101fd57806003193601126101fd576020600c54604051908152f35b50346101fd57806003193601126101fd576040517f00000000000000000000000000000000000000000000000000000000000000006001600160a01b03168152602090f35b50346101fd57806003193601126101fd576020601354604051908152f35b50346101fd57806003193601126101fd57611412613217565b60ff601b5416600581101561069157600403611571573381526017602052604081206002810161145881549261144b60ff8516156131d7565b6001815491015490612f34565b9182156115405760ff19166001179055817f00000000000000000000000000000000000000000000000000000000000000006001600160a01b0316803b156104245781809160c460405180948193634d8a45d560e11b835230600484015233602484015288604484015260806064840152600a60848401526910995d081c99599d5b9960b21b60a48401525af180156104195761152b575b50506040519081528160208201527ffbc3a599b784fe88772fc5abcc07223f64ca0b13acc341f4fb1e46bef0510eb460403392a26001815580f35b81611535916128ba565b61042457815f6114f0565b60405162461bcd60e51b8152602060048201526009602482015268139bc81c99599d5b9960ba1b6044820152606490fd5b60405162461bcd60e51b815260206004820152600d60248201526c139bdd0818d85b98d95b1b1959609a1b6044820152606490fd5b50346101fd5760203660031901126101fd576004356001600160a01b038116908190036104245760408260ff9260209452601684522054166040519015158152f35b50346101fd57806003193601126101fd57611601613217565b60ff601b54166005811015610691576003036118fc5760115460ff8160081c16156118c557338252601760205260408220805480158015906118b8575b1561188057600282019060ff825494611659828716156131d7565b1660038110156105c2576001149283156118745750905b8115611842578492801561183957600b54905b1561183057600c54905b6040516317fbd0fd60e11b81527f00000000000000000000000000000000000000000000000000000000000000006001600160a01b03169490602081600481895afa80156109795760ff6116ed916064938a91611806575b501685612b01565b049260405192634367413160e01b84526020846004818a5afa938415611825578361174561174f9461174060019960646117398f6117559c61174a9960ff929161180657501685612b01565b0492612b46565b612b46565b612b01565b612b28565b90612f34565b9460ff19161790558261179d5750506040519081528160208201527ffbc3a599b784fe88772fc5abcc07223f64ca0b13acc341f4fb1e46bef0510eb460403392a26001815580f35b803b156104245781809160c460405180948193634d8a45d560e11b835230600484015233602484015288604484015260806064840152600c60848401526b4265742077696e6e696e677360a01b60a48401525af1801561041957156114f05781611535916128ba565b61181f915060203d6020116105a85761059a81836128ba565b5f6116e5565b6040513d8a823e3d90fd5b600b549061168d565b600c5490611683565b60405162461bcd60e51b815260206004820152600a6024820152692737ba103bb4b73732b960b11b6044820152606490fd5b60019150015490611670565b60405162461bcd60e51b815260206004820152601060248201526f2737903830b93a34b1b4b830ba34b7b760811b6044820152606490fd5b506001820154151561163e565b60405162461bcd60e51b815260206004820152600f60248201526e139bdd08191a5cdd1c9a589d5d1959608a1b6044820152606490fd5b60405162461bcd60e51b815260206004820152600d60248201526c139bdd0818dbdb5c1b195d1959609a1b6044820152606490fd5b50346101fd5760203660031901126101fd5760043560038110801561041557611958613217565b60ff601b54166005811015610ab85760026119739114612d97565b600554421015611deb578260018314808015611dde575b15611daa57338552601760205260408520541580611d93575b15611d5857338552601a60205260ff604086205416611d2357604051630d47875d60e41b81523360048201526020816024817f00000000000000000000000000000000000000000000000000000000000000006001600160a01b03165afa80156105af57611a23918791611d04575b5060ff806008541691161015613177565b604051633415d2ff60e21b8152336004820152927f00000000000000000000000000000000000000000000000000000000000000006001600160a01b03169290602085602481875afa948515610979578795611cd0575b5060408051631bf8924760e01b81523360048201529081602481885afa80156118255786918991611caf575b5010611c7557833b15611c7157866040516314f8d2c360e01b815233600482015230602482015286604482015260806064820152600a608482015269566f7465207374616b6560b01b60a4820152818160c481838a5af1801561041957611c5c575b5050338752601a60205260408720600160ff198254161790553387526019602052604087209015611c485760ff1981541660ff8716179055338652601860205260408620611b57858254612f34565b9055611b6584600d54612f34565b600d55611b736015546131c9565b6015556105dd5784919015611c2657611b8d6012546131c9565b601255611b9c83600e54612f34565b600e555b803b15610424578180916024604051809481936306aac6d960e01b83523360048401525af1801561041957611c11575b5050611bdf6040518093612adb565b60208201527fd9d9fd0caa964abf9540e87552b03d0f6f1427c14e4d23c647cc9f24efc0848860403392a26001815580f35b81611c1b916128ba565b61041557825f611bd0565b611c316013546131c9565b601355611c4083600f54612f34565b600f55611ba0565b634e487b7160e01b87526021600452602487fd5b81611c66916128ba565b611c7157865f611b08565b8680fd5b60405162461bcd60e51b815260206004820152601260248201527124b739bab33334b1b4b2b73a10282927a7a360711b6044820152606490fd5b611cc8915060403d6040116109725761096381836128ba565b90505f611aa6565b9094506020813d602011611cfc575b81611cec602093836128ba565b81010312611c715751935f611a7a565b3d9150611cdf565b611d1d915060203d6020116105a85761059a81836128ba565b5f611a12565b60405162461bcd60e51b815260206004820152600d60248201526c105b1c9958591e481d9bdd1959609a1b6044820152606490fd5b60405162461bcd60e51b8152602060048201526013602482015272426574746f72732063616e6e6f7420766f746560681b6044820152606490fd5b5033855260176020526001604086200154156119a3565b60405162461bcd60e51b815260206004820152600c60248201526b496e76616c696420766f746560a01b6044820152606490fd5b508491506002841461198a565b60405162461bcd60e51b815260206004820152600d60248201526c159bdd1a5b99c818db1bdcd959609a1b6044820152606490fd5b50346101fd5760203660031901126101fd576004356001600160a01b038116908190036104245760408260ff9260209452601a84522054166040519015158152f35b50346101fd5760203660031901126101fd57600435906001600160a01b03821682036101fd576040611e9383612f41565b825191825215156020820152f35b50346101fd57806003193601126101fd5780610100604051611ec28161289d565b60608152606060208201528260408201528260608201528260808201528260a08201528260c08201528260e0820152015260405190611f008261289d565b604051908060015490611f1282612865565b808552916001811690811561205d5750600114612004575b61012060208686611f3d818803826128ba565b8152611f47612a15565b9082810191825260ff600354926040830193845260045460608401908152600554608085019081526006549060a086019182526007549260c08701938452611fd286600854169560e08901968752611fbf6009549961010081019a8b526040519d8d8f9e928f938452519201526101408d0190612aaa565b90518b8203601f190160408d0152612aaa565b975160608a01525160808901525160a08801525160c08701525160e08601525116610100840152516101208301520390f35b6001815291507fb10e2d527612073b26eecdfd717e6a320cf44b4afac2b0732d9fcbe2b7fa0cf65b818310612043575050810160200181611f3d611f2a565b60018160209294939454838588010152019101919061202c565b60ff191660208087019190915292151560051b85019092019250839150611f3d9050611f2a565b50346101fd57806003193601126101fd57602060ff60115460081c166040519015158152f35b50346121ac575f3660031901126121ac5760ff601b541660058110156121bc57600114806121b0575b6120da5780f35b6120ec600460ff19601b541617601b55565b600a546001600160a01b037f000000000000000000000000000000000000000000000000000000000000000081169116813b156121ac575f9160248392604051948593849263c19b52d960e01b845260048401525af180156121a15761218e575b505f5160206132365f395f51905f526060604051602081526015602082015274141c9bdbd988191958591b1a5b99481b5a5cdcd959605a1b6040820152a180f35b61219a91505f906128ba565b5f5f61214d565b6040513d5f823e3d90fd5b5f80fd5b506004544210156120d3565b634e487b7160e01b5f52602160045260245ffd5b346121ac575f3660031901126121ac576122286121eb612980565b6121f3612a15565b600354906004546005546006546007549160ff6008541693612236600954966040519a8b9a6101208c526101208c0190612aaa565b908a820360208c0152612aaa565b9660408901526060880152608087015260a086015260c085015260e08401526101008301520390f35b346121ac5760203660031901126121ac576004356001600160a01b03811681036121ac5761228e604091612dd4565b82519182526020820152f35b346121ac575f3660031901126121ac576020601454604051908152f35b346121ac575f3660031901126121ac576040517f00000000000000000000000000000000000000000000000000000000000000006001600160a01b03168152602090f35b346121ac575f3660031901126121ac576060601254601354600d549060405192835260208301526040820152f35b346121ac5760203660031901126121ac5760043567ffffffffffffffff81116121ac57366023820112156121ac57806004013567ffffffffffffffff81116125715760405191612383601f8301601f1916602001846128ba565b81835236602483830101116121ac57815f926024602093018386013783010152600a546001600160a01b0316330361262f5760ff601b541660058110156121bc5760016123d09114612d97565b60035442106125f5576004544210156125b85780511561258557805167ffffffffffffffff811161257157612406601054612865565b601f8111612509575b50806020601f821160011461249a575f9161248f575b508160011b915f199060031b1c1916176010555b600260ff19601b541617601b557f227d17811e582357665ee6ee281ef8528946951eab558c87afaf102464d6cc5661248a60018060a01b03600a541692604051918291602083526020830190612aaa565b0390a2005b905082015183612425565b60105f9081525f5160206132565f395f51905f529250601f198416905b8181106124f1575090836001949392106124d9575b5050811b01601055612439565b8401515f1960f88460031b161c1916905583806124cc565b919260206001819286890151815501940192016124b7565b60105f52601f820160051c5f5160206132565f395f51905f5201906020831061255c575b601f0160051c5f5160206132565f395f51905f5201905b818110612551575061240f565b5f8155600101612544565b5f5160206132565f395f51905f52915061252d565b634e487b7160e01b5f52604160045260245ffd5b60405162461bcd60e51b815260206004820152600b60248201526a22b6b83a3c90383937b7b360a91b6044820152606490fd5b60405162461bcd60e51b8152602060048201526015602482015274141c9bdbd988191958591b1a5b99481c185cdcd959605a1b6044820152606490fd5b60405162461bcd60e51b81526020600482015260126024820152712132ba3a34b7339039ba34b6361037b832b760711b6044820152606490fd5b60405162461bcd60e51b815260206004820152600b60248201526a2737ba1031b932b0ba37b960a91b6044820152606490fd5b346121ac575f3660031901126121ac576101606126a4612680612b53565b999a909861269a604099939998949897959751809d612ace565b60208c0190612adb565b60408a01526060890152608088015260a087015260c086015260e0850152610100840152610120830152610140820152f35b346121ac575f3660031901126121ac576020600e54604051908152f35b346121ac575f3660031901126121ac576040517f00000000000000000000000000000000000000000000000000000000000000006001600160a01b03168152602090f35b346121ac575f3660031901126121ac576040517f00000000000000000000000000000000000000000000000000000000000000006001600160a01b03168152602090f35b346121ac575f3660031901126121ac576020601554604051908152f35b346121ac5760203660031901126121ac576004356001600160a01b038116908190036121ac575f526017602052606060405f2080549060ff600260018301549201541690604051928352602083015215156040820152f35b346121ac575f3660031901126121ac5761281f61280b6128dc565b604051918291602083526020830190612aaa565b0390f35b346121ac575f3660031901126121ac57600a546040516001600160a01b039091168152602090f35b346121ac575f3660031901126121ac57602090600b548152f35b90600182811c92168015612893575b602083101461287f57565b634e487b7160e01b5f52602260045260245ffd5b91607f1691612874565b610120810190811067ffffffffffffffff82111761257157604052565b90601f8019910116810190811067ffffffffffffffff82111761257157604052565b604051905f82601054916128ef83612865565b80835292600181169081156129615750600114612915575b612913925003836128ba565b565b5060105f90815290915f5160206132565f395f51905f525b81831061294557505090602061291392820101612907565b602091935080600191548385890101520191019091849261292d565b6020925061291394915060ff191682840152151560051b820101612907565b604051905f826001549161299383612865565b808352926001811690811561296157506001146129b657612913925003836128ba565b5060015f90815290917fb10e2d527612073b26eecdfd717e6a320cf44b4afac2b0732d9fcbe2b7fa0cf65b8183106129f957505090602061291392820101612907565b60209193508060019154838589010152019101909184926129e1565b604051905f8260025491612a2883612865565b80835292600181169081156129615750600114612a4b57612913925003836128ba565b5060025f90815290917f405787fa12a823e0f2b7631cc41b3ba8828b3321ca811111fa75cd3aa3bb5ace5b818310612a8e57505090602061291392820101612907565b6020919350806001915483858901015201910190918492612a76565b805180835260209291819084018484015e5f828201840152601f01601f1916010190565b9060058210156121bc5752565b9060038210156121bc5752565b908160209103126121ac575160ff811681036121ac5790565b81810292918115918404141715612b1457565b634e487b7160e01b5f52601160045260245ffd5b8115612b32570490565b634e487b7160e01b5f52601260045260245ffd5b91908203918211612b1457565b60ff601b54169060ff60115416908160058410156121bc5760038403612cc05760038110156121bc576001148015612cb857600b545b918115612caf57600c54905b604051634367413160e01b815291927f00000000000000000000000000000000000000000000000000000000000000006001600160a01b031692908490602083600481885afa80156121a15760ff6020916004955f91612c92575b501695604051948580926317fbd0fd60e11b82525afa9283156121a157612c469360ff915f91612c73575b5016936064612c2a8785612b01565b0493836117406064612c3d898998612b01565b04958692612b46565b9115612c6a57601254905b818015612c6557612c629085612b28565b90565b505f90565b60135490612c51565b612c8c915060203d6020116105a85761059a81836128ba565b5f612c1b565b612ca99150833d85116105a85761059a81836128ba565b5f612bf0565b600b5490612b95565b600c54612b89565b50604051634367413160e01b815291927f00000000000000000000000000000000000000000000000000000000000000006001600160a01b031690602084600481855afa9182156121a1576004945f93612d75575b50602090604051958680926317fbd0fd60e11b82525afa9384156121a1575f94612d54575b5093925f9260ff805f94169216905f905f905f905f905f90565b612d6e91945060203d6020116105a85761059a81836128ba565b925f612d3a565b6020919350612d9090823d84116105a85761059a81836128ba565b9290612d15565b15612d9e57565b60405162461bcd60e51b815260206004820152600e60248201526d496e76616c69642073746174757360901b6044820152606490fd5b6001600160a01b03165f818152601a602052604081205490929060ff16158015612f20575b612f1857815f52601860205260405f20549160ff601b541660058110156121bc5760048114612f115760021901612f08575f52601960205260ff60405f20541660ff601154169060038210156121bc5760038110156121bc578103612f08576001148015612f0057600c545b6040516317fbd0fd60e11b8152906020826004817f00000000000000000000000000000000000000000000000000000000000000006001600160a01b03165afa9081156121a15760ff612ec3926064945f9161058057501690612b01565b049015612ef757601254905b81151580612eee575b612ee0575050565b612eeb929450612b28565b91565b50801515612ed8565b60135490612ecf565b600b54612e65565b505f9250829150565b505f935050565b5f9250829150565b50815f52601860205260405f205415612df9565b91908201809211612b1457565b60ff601b541660058110156121bc576003036131705760018060a01b03165f52601760205260405f206040516060810181811067ffffffffffffffff821117612571576040528154808252600183015460ff600260208501958387520154161591821580604086015292613156575b505061314e5760ff6011541690600382101592836121bc5760018314928380613144575b1561311757506001935b6121bc57821561310f5750515b811561310657600b54915b156130fe57600c545b6040516317fbd0fd60e11b8152927f00000000000000000000000000000000000000000000000000000000000000006001600160a01b0316602085600481845afa9485156121a1575f956130d9575b50602060049160405192838092634367413160e01b82525afa80156121a15761174561174f946117408793612eeb9961174a965f926130a6575b5061173960ff606461309d8282951688612b01565b04931685612b01565b606491925060ff8261309d826130cd6117399560203d6020116105a85761059a81836128ba565b96955050505050613088565b60049195506130f6602091823d84116105a85761059a81836128ba565b95915061304e565b600b54612fff565b600c5491612ff6565b905051612feb565b5f94506002148061313a575b1561313057600193612fde565b505050505f905f90565b5080511515613123565b5082511515612fd4565b50505f905f90565b15915081613167575b505f80612fb0565b9050155f61315f565b505f905f90565b1561317e57565b60405162461bcd60e51b815260206004820152600d60248201526c547275737420746f6f206c6f7760981b6044820152606490fd5b91908260409103126121ac576020825192015190565b5f198114612b145760010190565b156131de57565b60405162461bcd60e51b815260206004820152601160248201527020b63932b0b23c903bb4ba34323930bbb760791b6044820152606490fd5b60025f54146132265760025f55565b633ee5aeb560e01b5f5260045ffdfe3ddcc849954303c379ec7b5fc775e4075525c655f439ae3564d02ae1c1feda6c1b6847dc741a1b0cd08d278845f9d819d87b734759afb55fe2de5cb82a9ae672a2646970667358221220691b0681914242ee3c2cba33a87e132a7933172658188761bc24d8caa407ebb764736f6c634300081c0033a2646970667358221220267e6fd512a5b970123ce5f2ecea14eebfa3b28e506dda9638f0b69b082e9c2664736f6c634300081c0033",
  "linkReferences": {},
  "deployedLinkReferences": {},
  "immutableReferences": {},
  "inputSourceName": "project/contracts/BetFactory.sol",
  "buildInfoId": "solc-0_8_28-6b2216c239454acf0538d54564f7ba400f043d83"
}