{
  "_format": "hh3-artifact-1",
  "contractName": "BetFactory",
  "sourceName": "contracts/BetFactory.sol",
  "abi": [
    {
      "inputs": [
        {
          "internalType": "address",
          "name": "_trustScore",
          "type": "address"
        },
        {
          "internalType": "address",
          "name": "_usdcToken",
          "type": "address"
        },
        {
          "internalType": "address",
          "name": "_proofToken",
          "type": "address"
        },
        {
          "internalType": "address",
          "name": "_feeCollector",
          "type": "address"
        },
        {
          "internalType": "uint256",
          "name": "_creationFeeProof",
          "type": "uint256"
        },
        {
          "internalType": "uint256",
          "name": "_initialVoteStakeAmountProof",
          "type": "uint256"
        },
        {
          "internalType": "uint256",
          "name": "_maxActiveBets",
          "type": "uint256"
        }
      ],
      "stateMutability": "nonpayable",
      "type": "constructor"
    },
    {
      "inputs": [
        {
          "internalType": "address",
          "name": "owner",
          "type": "address"
        }
      ],
      "name": "OwnableInvalidOwner",
      "type": "error"
    },
    {
      "inputs": [
        {
          "internalType": "address",
          "name": "account",
          "type": "address"
        }
      ],
      "name": "OwnableUnauthorizedAccount",
      "type": "error"
    },
    {
      "inputs": [],
      "name": "ReentrancyGuardReentrantCall",
      "type": "error"
    },
    {
      "anonymous": false,
      "inputs": [
        {
          "indexed": true,
          "internalType": "address",
          "name": "betAddress",
          "type": "address"
        },
        {
          "indexed": true,
          "internalType": "address",
          "name": "creator",
          "type": "address"
        },
        {
          "indexed": false,
          "internalType": "string",
          "name": "title",
          "type": "string"
        }
      ],
      "name": "BetCreated",
      "type": "event"
    },
    {
      "anonymous": false,
      "inputs": [
        {
          "indexed": false,
          "internalType": "uint8",
          "name": "oldPercentage",
          "type": "uint8"
        },
        {
          "indexed": false,
          "internalType": "uint8",
          "name": "newPercentage",
          "type": "uint8"
        }
      ],
      "name": "DefaultPlatformFeeChanged",
      "type": "event"
    },
    {
      "anonymous": false,
      "inputs": [
        {
          "indexed": false,
          "internalType": "uint8",
          "name": "oldPercentage",
          "type": "uint8"
        },
        {
          "indexed": false,
          "internalType": "uint8",
          "name": "newPercentage",
          "type": "uint8"
        }
      ],
      "name": "DefaultVoterRewardChanged",
      "type": "event"
    },
    {
      "anonymous": false,
      "inputs": [
        {
          "indexed": true,
          "internalType": "address",
          "name": "payer",
          "type": "address"
        },
        {
          "indexed": false,
          "internalType": "uint256",
          "name": "totalFee",
          "type": "uint256"
        },
        {
          "indexed": false,
          "internalType": "uint256",
          "name": "burnAmount",
          "type": "uint256"
        },
        {
          "indexed": false,
          "internalType": "uint256",
          "name": "keepAmount",
          "type": "uint256"
        }
      ],
      "name": "FeeProcessed",
      "type": "event"
    },
    {
      "anonymous": false,
      "inputs": [
        {
          "indexed": true,
          "internalType": "address",
          "name": "from",
          "type": "address"
        },
        {
          "indexed": true,
          "internalType": "address",
          "name": "to",
          "type": "address"
        },
        {
          "indexed": false,
          "internalType": "uint256",
          "name": "usdcAmount",
          "type": "uint256"
        },
        {
          "indexed": false,
          "internalType": "uint256",
          "name": "proofAmount",
          "type": "uint256"
        },
        {
          "indexed": false,
          "internalType": "string",
          "name": "reason",
          "type": "string"
        }
      ],
      "name": "InternalTransfer",
      "type": "event"
    },
    {
      "anonymous": false,
      "inputs": [
        {
          "indexed": false,
          "internalType": "uint256",
          "name": "oldLimit",
          "type": "uint256"
        },
        {
          "indexed": false,
          "internalType": "uint256",
          "name": "newLimit",
          "type": "uint256"
        }
      ],
      "name": "MaxActiveBetsChanged",
      "type": "event"
    },
    {
      "anonymous": false,
      "inputs": [
        {
          "indexed": true,
          "internalType": "address",
          "name": "previousOwner",
          "type": "address"
        },
        {
          "indexed": true,
          "internalType": "address",
          "name": "newOwner",
          "type": "address"
        }
      ],
      "name": "OwnershipTransferred",
      "type": "event"
    },
    {
      "anonymous": false,
      "inputs": [
        {
          "indexed": true,
          "internalType": "address",
          "name": "user",
          "type": "address"
        },
        {
          "indexed": false,
          "internalType": "uint256",
          "name": "amount",
          "type": "uint256"
        }
      ],
      "name": "ProofDeposited",
      "type": "event"
    },
    {
      "anonymous": false,
      "inputs": [
        {
          "indexed": true,
          "internalType": "address",
          "name": "user",
          "type": "address"
        },
        {
          "indexed": false,
          "internalType": "uint256",
          "name": "amount",
          "type": "uint256"
        }
      ],
      "name": "ProofWithdrawn",
      "type": "event"
    },
    {
      "anonymous": false,
      "inputs": [
        {
          "indexed": true,
          "internalType": "address",
          "name": "user",
          "type": "address"
        },
        {
          "indexed": false,
          "internalType": "uint256",
          "name": "amount",
          "type": "uint256"
        }
      ],
      "name": "UsdcDeposited",
      "type": "event"
    },
    {
      "anonymous": false,
      "inputs": [
        {
          "indexed": true,
          "internalType": "address",
          "name": "user",
          "type": "address"
        },
        {
          "indexed": false,
          "internalType": "uint256",
          "name": "amount",
          "type": "uint256"
        }
      ],
      "name": "UsdcWithdrawn",
      "type": "event"
    },
    {
      "anonymous": false,
      "inputs": [
        {
          "indexed": false,
          "internalType": "uint256",
          "name": "oldAmount",
          "type": "uint256"
        },
        {
          "indexed": false,
          "internalType": "uint256",
          "name": "newAmount",
          "type": "uint256"
        }
      ],
      "name": "VoteStakeAmountChanged",
      "type": "event"
    },
    {
      "inputs": [
        {
          "internalType": "address",
          "name": "",
          "type": "address"
        }
      ],
      "name": "activeBetsCount",
      "outputs": [
        {
          "internalType": "uint256",
          "name": "",
          "type": "uint256"
        }
      ],
      "stateMutability": "view",
      "type": "function"
    },
    {
      "inputs": [
        {
          "internalType": "uint256",
          "name": "",
          "type": "uint256"
        }
      ],
      "name": "allBets",
      "outputs": [
        {
          "internalType": "address",
          "name": "",
          "type": "address"
        }
      ],
      "stateMutability": "view",
      "type": "function"
    },
    {
      "inputs": [
        {
          "components": [
            {
              "internalType": "string",
              "name": "title",
              "type": "string"
            },
            {
              "internalType": "string",
              "name": "description",
              "type": "string"
            },
            {
              "internalType": "uint256",
              "name": "bettingDeadline",
              "type": "uint256"
            },
            {
              "internalType": "uint256",
              "name": "proofDeadline",
              "type": "uint256"
            },
            {
              "internalType": "uint256",
              "name": "votingDeadline",
              "type": "uint256"
            },
            {
              "internalType": "uint256",
              "name": "minimumBetAmount",
              "type": "uint256"
            },
            {
              "internalType": "uint256",
              "name": "minimumSideStake",
              "type": "uint256"
            },
            {
              "internalType": "uint8",
              "name": "minimumTrustScore",
              "type": "uint8"
            },
            {
              "internalType": "uint256",
              "name": "minimumVotes",
              "type": "uint256"
            }
          ],
          "internalType": "struct Bet.BetDetails",
          "name": "_details",
          "type": "tuple"
        }
      ],
      "name": "createBet",
      "outputs": [
        {
          "internalType": "address",
          "name": "",
          "type": "address"
        }
      ],
      "stateMutability": "nonpayable",
      "type": "function"
    },
    {
      "inputs": [],
      "name": "creationFeeProof",
      "outputs": [
        {
          "internalType": "uint256",
          "name": "",
          "type": "uint256"
        }
      ],
      "stateMutability": "view",
      "type": "function"
    },
    {
      "inputs": [],
      "name": "defaultPlatformFeePercentage",
      "outputs": [
        {
          "internalType": "uint8",
          "name": "",
          "type": "uint8"
        }
      ],
      "stateMutability": "view",
      "type": "function"
    },
    {
      "inputs": [],
      "name": "defaultVoterRewardPercentage",
      "outputs": [
        {
          "internalType": "uint8",
          "name": "",
          "type": "uint8"
        }
      ],
      "stateMutability": "view",
      "type": "function"
    },
    {
      "inputs": [
        {
          "internalType": "uint256",
          "name": "_amount",
          "type": "uint256"
        }
      ],
      "name": "depositProof",
      "outputs": [],
      "stateMutability": "nonpayable",
      "type": "function"
    },
    {
      "inputs": [
        {
          "internalType": "uint256",
          "name": "_amount",
          "type": "uint256"
        }
      ],
      "name": "depositUsdc",
      "outputs": [],
      "stateMutability": "nonpayable",
      "type": "function"
    },
    {
      "inputs": [
        {
          "internalType": "address",
          "name": "creator",
          "type": "address"
        }
      ],
      "name": "factoryLogBetCompletion",
      "outputs": [],
      "stateMutability": "nonpayable",
      "type": "function"
    },
    {
      "inputs": [
        {
          "internalType": "address",
          "name": "participant",
          "type": "address"
        }
      ],
      "name": "factoryLogBetParticipation",
      "outputs": [],
      "stateMutability": "nonpayable",
      "type": "function"
    },
    {
      "inputs": [
        {
          "internalType": "address",
          "name": "voter",
          "type": "address"
        }
      ],
      "name": "factoryLogVote",
      "outputs": [],
      "stateMutability": "nonpayable",
      "type": "function"
    },
    {
      "inputs": [],
      "name": "feeCollector",
      "outputs": [
        {
          "internalType": "address",
          "name": "",
          "type": "address"
        }
      ],
      "stateMutability": "view",
      "type": "function"
    },
    {
      "inputs": [
        {
          "internalType": "address",
          "name": "user",
          "type": "address"
        }
      ],
      "name": "getActiveBetCount",
      "outputs": [
        {
          "internalType": "uint256",
          "name": "",
          "type": "uint256"
        }
      ],
      "stateMutability": "view",
      "type": "function"
    },
    {
      "inputs": [],
      "name": "getBets",
      "outputs": [
        {
          "internalType": "address[]",
          "name": "",
          "type": "address[]"
        }
      ],
      "stateMutability": "view",
      "type": "function"
    },
    {
      "inputs": [],
      "name": "getFactoryConfig",
      "outputs": [
        {
          "internalType": "uint256",
          "name": "creationFee",
          "type": "uint256"
        },
        {
          "internalType": "uint256",
          "name": "voteStakeAmount",
          "type": "uint256"
        },
        {
          "internalType": "uint8",
          "name": "voterRewardPct",
          "type": "uint8"
        },
        {
          "internalType": "uint8",
          "name": "platformFeePct",
          "type": "uint8"
        },
        {
          "internalType": "uint256",
          "name": "maxActive",
          "type": "uint256"
        }
      ],
      "stateMutability": "view",
      "type": "function"
    },
    {
      "inputs": [
        {
          "internalType": "address",
          "name": "_user",
          "type": "address"
        }
      ],
      "name": "getInternalBalances",
      "outputs": [
        {
          "internalType": "uint256",
          "name": "usdcBalance",
          "type": "uint256"
        },
        {
          "internalType": "uint256",
          "name": "proofBalance",
          "type": "uint256"
        }
      ],
      "stateMutability": "view",
      "type": "function"
    },
    {
      "inputs": [
        {
          "internalType": "address",
          "name": "",
          "type": "address"
        }
      ],
      "name": "internalProofBalance",
      "outputs": [
        {
          "internalType": "uint256",
          "name": "",
          "type": "uint256"
        }
      ],
      "stateMutability": "view",
      "type": "function"
    },
    {
      "inputs": [
        {
          "internalType": "address",
          "name": "",
          "type": "address"
        }
      ],
      "name": "internalUsdcBalance",
      "outputs": [
        {
          "internalType": "uint256",
          "name": "",
          "type": "uint256"
        }
      ],
      "stateMutability": "view",
      "type": "function"
    },
    {
      "inputs": [
        {
          "internalType": "address",
          "name": "",
          "type": "address"
        }
      ],
      "name": "isBetFromFactory",
      "outputs": [
        {
          "internalType": "bool",
          "name": "",
          "type": "bool"
        }
      ],
      "stateMutability": "view",
      "type": "function"
    },
    {
      "inputs": [],
      "name": "maxActiveBetsPerUser",
      "outputs": [
        {
          "internalType": "uint256",
          "name": "",
          "type": "uint256"
        }
      ],
      "stateMutability": "view",
      "type": "function"
    },
    {
      "inputs": [],
      "name": "owner",
      "outputs": [
        {
          "internalType": "address",
          "name": "",
          "type": "address"
        }
      ],
      "stateMutability": "view",
      "type": "function"
    },
    {
      "inputs": [],
      "name": "proofToken",
      "outputs": [
        {
          "internalType": "contract ProofToken",
          "name": "",
          "type": "address"
        }
      ],
      "stateMutability": "view",
      "type": "function"
    },
    {
      "inputs": [],
      "name": "renounceOwnership",
      "outputs": [],
      "stateMutability": "nonpayable",
      "type": "function"
    },
    {
      "inputs": [
        {
          "internalType": "uint256",
          "name": "_newFee",
          "type": "uint256"
        }
      ],
      "name": "setCreationFee",
      "outputs": [],
      "stateMutability": "nonpayable",
      "type": "function"
    },
    {
      "inputs": [
        {
          "internalType": "uint8",
          "name": "_percentage",
          "type": "uint8"
        }
      ],
      "name": "setDefaultPlatformFeePercentage",
      "outputs": [],
      "stateMutability": "nonpayable",
      "type": "function"
    },
    {
      "inputs": [
        {
          "internalType": "uint8",
          "name": "_percentage",
          "type": "uint8"
        }
      ],
      "name": "setDefaultVoterRewardPercentage",
      "outputs": [],
      "stateMutability": "nonpayable",
      "type": "function"
    },
    {
      "inputs": [
        {
          "internalType": "address",
          "name": "_newCollector",
          "type": "address"
        }
      ],
      "name": "setFeeCollector",
      "outputs": [],
      "stateMutability": "nonpayable",
      "type": "function"
    },
    {
      "inputs": [
        {
          "internalType": "uint256",
          "name": "_limit",
          "type": "uint256"
        }
      ],
      "name": "setMaxActiveBetsPerUser",
      "outputs": [],
      "stateMutability": "nonpayable",
      "type": "function"
    },
    {
      "inputs": [
        {
          "internalType": "uint256",
          "name": "_amount",
          "type": "uint256"
        }
      ],
      "name": "setVoteStakeAmount",
      "outputs": [],
      "stateMutability": "nonpayable",
      "type": "function"
    },
    {
      "inputs": [
        {
          "internalType": "address",
          "name": "_from",
          "type": "address"
        },
        {
          "internalType": "address",
          "name": "_to",
          "type": "address"
        },
        {
          "internalType": "uint256",
          "name": "_amount",
          "type": "uint256"
        },
        {
          "internalType": "string",
          "name": "_reason",
          "type": "string"
        }
      ],
      "name": "transferInternalProof",
      "outputs": [],
      "stateMutability": "nonpayable",
      "type": "function"
    },
    {
      "inputs": [
        {
          "internalType": "address",
          "name": "_from",
          "type": "address"
        },
        {
          "internalType": "address",
          "name": "_to",
          "type": "address"
        },
        {
          "internalType": "uint256",
          "name": "_amount",
          "type": "uint256"
        },
        {
          "internalType": "string",
          "name": "_reason",
          "type": "string"
        }
      ],
      "name": "transferInternalUsdc",
      "outputs": [],
      "stateMutability": "nonpayable",
      "type": "function"
    },
    {
      "inputs": [
        {
          "internalType": "address",
          "name": "newOwner",
          "type": "address"
        }
      ],
      "name": "transferOwnership",
      "outputs": [],
      "stateMutability": "nonpayable",
      "type": "function"
    },
    {
      "inputs": [],
      "name": "trustScoreContract",
      "outputs": [
        {
          "internalType": "contract TrustScore",
          "name": "",
          "type": "address"
        }
      ],
      "stateMutability": "view",
      "type": "function"
    },
    {
      "inputs": [],
      "name": "usdcToken",
      "outputs": [
        {
          "internalType": "contract IERC20",
          "name": "",
          "type": "address"
        }
      ],
      "stateMutability": "view",
      "type": "function"
    },
    {
      "inputs": [],
      "name": "voteStakeAmountProof",
      "outputs": [
        {
          "internalType": "uint256",
          "name": "",
          "type": "uint256"
        }
      ],
      "stateMutability": "view",
      "type": "function"
    },
    {
      "inputs": [
        {
          "internalType": "uint256",
          "name": "_amount",
          "type": "uint256"
        }
      ],
      "name": "withdrawProof",
      "outputs": [],
      "stateMutability": "nonpayable",
      "type": "function"
    },
    {
      "inputs": [
        {
          "internalType": "uint256",
          "name": "_amount",
          "type": "uint256"
        }
      ],
      "name": "withdrawUsdc",
      "outputs": [],
      "stateMutability": "nonpayable",
      "type": "function"
    }
  ],
  "bytecode": "0x6080346102a757601f61575138819003918201601f19168301916001600160401b038311848410176102ab5780849260e0946040528339810103126102a757610047816102bf565b90610054602082016102bf565b91610061604083016102bf565b9061006e606084016102bf565b60808401519260c060a0860151950151953315610294575f8054336001600160a01b0319821681178355604051969290916001600160a01b0316907f8be0079c531659141344cd1fd0a4f28419497f9722a3daafe3b4186f6b6457e09080a3600180556001600160a01b031693841561026057506001600160a01b031690811561022f576001600160a01b03169182156101fd576001600160a01b03169283156101c457851561017f5760018060a01b0319600254161760025560018060a01b0319600354161760035560018060a01b0319600454161760045560018060a01b03196005541617600555600a55600b55600d5561030561ffff19600c541617600c5560405161547d90816102d48239f35b60405162461bcd60e51b815260206004820152601660248201527f566f7465207374616b65206d757374206265203e2030000000000000000000006044820152606490fd5b60405162461bcd60e51b81526020600482015260116024820152702d32b937903332b2a1b7b63632b1ba37b960791b6044820152606490fd5b60405162461bcd60e51b815260206004820152600a6024820152692d32b93790282927a7a360b11b6044820152606490fd5b60405162461bcd60e51b81526020600482015260096024820152685a65726f205553444360b81b6044820152606490fd5b62461bcd60e51b815260206004820152600f60248201526e5a65726f20747275737453636f726560881b6044820152606490fd5b631e4fbdf760e01b5f525f60045260245ffd5b5f80fd5b634e487b7160e01b5f52604160045260245ffd5b51906001600160a01b03821682036102a75756fe60806040526004361015610011575f80fd5b5f5f3560e01c806306aac6d914611642578063077779e4146115ae5780630e94a0ee1461158557806311eac8551461155c57806314f8d2c31461149657806315903763146114515780631bf89247146114075780631c46a5d1146113e95780631ee86ed5146113235780631fa488201461125c5780632357928e1461119757806325bfd7d91461115e5780632e9cbc37146110c85780632ff7a1fa146110a7578063436741311461108357806349b202f2146110445780634f927dfd14610f8c578063528e81ef14610f535780635b06dece14610e61578063715018a614610e075780637ce1755314610d0a5780638341c82914610cec5780638a26c4de146102575780638da5cb5b14610cc557806397bcebb4146106665780639b148baa14610596578063a42dce8014610511578063a6afd5fd14610449578063b7d8622514610426578063c19b52d9146103c1578063c415b95c14610398578063c961dbae146102fd578063dc7831fd146102d4578063e0ced0e114610290578063e632f73814610257578063f2fde38b146101d15763fb707f1f146101b1575f80fd5b346101ce57806003193601126101ce576020600b54604051908152f35b80fd5b50346101ce5760203660031901126101ce576101eb6116de565b6101f3611aad565b6001600160a01b031680156102435781546001600160a01b03198116821783556001600160a01b03167f8be0079c531659141344cd1fd0a4f28419497f9722a3daafe3b4186f6b6457e08380a380f35b631e4fbdf760e01b82526004829052602482fd5b50346101ce5760203660031901126101ce576020906040906001600160a01b0361027f6116de565b168152600e83522054604051908152f35b50346101ce5760203660031901126101ce57600435906006548210156101ce5760206102bb8361180c565b905460405160039290921b1c6001600160a01b03168152f35b50346101ce57806003193601126101ce576002546040516001600160a01b039091168152602090f35b50346101ce5760203660031901126101ce5760043561031a611aad565b801561035a5760407f7038fd5f31cb6799163d0ca95acbbb2b209576b1833f1915e5be0a9f6eb49b4491600b549080600b5582519182526020820152a180f35b60405162461bcd60e51b81526020600482015260166024820152750566f7465207374616b65206d757374206265203e20360541b6044820152606490fd5b50346101ce57806003193601126101ce576005546040516001600160a01b039091168152602090f35b50346101ce5760203660031901126101ce576103db6116de565b33825260076020526103f360ff604084205416611838565b6001600160a01b0316808252600e6020526040822054610411575080f35b8152600e6020526040812080545f1901905580f35b50346101ce5760203660031901126101ce57610440611aad565b600435600a5580f35b50346101ce57806003193601126101ce5760405180602060065491828152018091600685527ff652222313e28459528d920b65115c16c04f3efc82aaedc97be59f3f377c0d3f90855b8181106104f257505050826104a8910383611780565b604051928392602084019060208552518091526040840192915b8181106104d0575050500390f35b82516001600160a01b03168452859450602093840193909201916001016104c2565b82546001600160a01b0316845260209093019260019283019201610492565b50346101ce5760203660031901126101ce5761052b6116de565b610533611aad565b6001600160a01b0316801561055d576bffffffffffffffffffffffff60a01b600554161760055580f35b60405162461bcd60e51b815260206004820152601160248201527024b73b30b634b21031b7b63632b1ba37b960791b6044820152606490fd5b50346101ce5761065c7fd65318ec9967b019cd6c9e0b2f5866a86edea54d64ac9a1c5cb52db0c51c273b6105c9366116f4565b9294936105d7969196611a8d565b33885260076020526105ef60ff60408a205416611870565b60018060a01b03169485885260086020526106108360408a20541015611a1d565b85885260086020526040882083815403905560018060a01b03169586885260086020526040882083815401905560405193849384528860208501526060604085015260608401916118fc565b0390a36001805580f35b50346101ce5760203660031901126101ce5760043567ffffffffffffffff8111610a6d576101206003198236030112610a6d5760405190610120820182811067ffffffffffffffff821117610a8557604052806004013567ffffffffffffffff8111610cc1576106dc90600436918401016117b6565b8252602481013567ffffffffffffffff8111610cc15761070290600436918401016117b6565b906020830191825260408301906044810135825260608401926064820135845260808501916084810135835260a086019060a4810135825260c087019060c4810135825260e48101359060ff82168203610cbd5760e089019182526101046101008a019101358152610772611a8d565b338a52600960205260408a2054600a54809110610c8357338b52600e60205260408b2054600d541115610c4757338b52600960205260408b20908154039055600a5460018060a01b0360045416604051632b852f2560e01b8152602081600481855afa908115610b87578d91610c11575b50808302908382041483151715610bfd57606490049182810391818311610be9578383928f9282610b92575b5003610aba575b5050600a5491604051928352602083015260408201527f2445fb79a5a4a2bac1a965d4d13b4e827f051f2d6fc972fad3b399041e5a8b4560603392a26002546003546004546005546040519b6001600160a01b039182169a613974808f019b9484169a958416999690931697959493909267ffffffffffffffff8c118f8d1017610aa457928f928f9e9d9c9a9896938f936108d78d60c09f9d9b986108eb946102009160ff9c99611ad4903960e08352519161012060e08201520190611a69565b90518d820360df19016101008f0152611a69565b9d516101208c0152516101408b0152516101608a015251610180890152516101a088015251166101c0860152516101e08501523360208501523060408501526060840152608083015260a08201520152039083f08015610a995760018060a01b03169060065468010000000000000000811015610a8557806001610972920160065561180c565b81546001600160a01b0360039290921b91821b19169084901b179055818352600760209081526040808520805460ff19166001179055338552600e909152832080545f198114610a7157600101905560025483906001600160a01b0316803b15610a6d57819060246040518094819363393f530f60e01b83523360048401525af18015610a6257610a49575b6020838351817f9fad859b21dc8b04ac5bbdd3cfd18a2215799015dc9f0488bc0acd8817d76d6360405185815280610a3a339588830190611a69565b0390a360018055604051908152f35b610a54848092611780565b610a5e57826109fe565b8280fd5b6040513d86823e3d90fd5b5080fd5b634e487b7160e01b85526011600452602485fd5b634e487b7160e01b84526041600452602484fd5b6040513d84823e3d90fd5b5050634e487b7160e01b8f52604160045260248ffd5b6004805460055460405163a9059cbb60e01b81526001600160a01b0391821693810193909352602483019490945290926020928492604492849291165af1908115610b87578d91610b58575b5015610b1357808c610816565b60405162461bcd60e51b815260206004820152601960248201527f50524f4f4620666565207472616e73666572206661696c6564000000000000006044820152606490fd5b610b7a915060203d602011610b80575b610b728183611780565b81019061195d565b5f610b06565b503d610b68565b6040513d8f823e3d90fd5b9293509050813b15610a5e57828092602460405180968193630852cd8d60e31b83528a60048401525af1908115610a9957849386921561080f57610bdc9194508392508290611780565b6101ce578383925f61080f565b634e487b7160e01b8e52601160045260248efd5b634e487b7160e01b8d52601160045260248dfd5b90506020813d602011610c3f575b81610c2c60209383611780565b81010312610c3b57515f6107e3565b8c80fd5b3d9150610c1f565b60405162461bcd60e51b8152602060048201526014602482015273546f6f206d616e7920616374697665206265747360601b6044820152606490fd5b60405162461bcd60e51b815260206004820152601260248201527124b739bab33334b1b4b2b73a10282927a7a360711b6044820152606490fd5b8980fd5b8380fd5b50346101ce57806003193601126101ce57546040516001600160a01b039091168152602090f35b50346101ce57806003193601126101ce576020600d54604051908152f35b50346101ce5760203660031901126101ce57600435610d27611a8d565b610d3281151561191c565b3382526009602052610d4a81604084205410156118b0565b338083526009602090815260408085208054859003905560048054915163a9059cbb60e01b815290810193909352602483018490528290604490829087906001600160a01b03165af18015610dfc57610daa918491610ddd575b50611975565b6040519081527f4bf38f9736a5ce4bdb7feae20f2d2b06453cb6546f6b135b6b17acc4eb40166760203392a26001805580f35b610df6915060203d602011610b8057610b728183611780565b5f610da4565b6040513d85823e3d90fd5b50346101ce57806003193601126101ce57610e20611aad565b80546001600160a01b03198116825581906001600160a01b03167f8be0079c531659141344cd1fd0a4f28419497f9722a3daafe3b4186f6b6457e08280a380f35b50346101ce5760203660031901126101ce57600435610e7e611a8d565b610e8981151561191c565b3382526008602052610ea18160408420541015611a1d565b3380835260086020908152604080852080548590039055600354905163a9059cbb60e01b81526004810193909352602483018490528290604490829087906001600160a01b03165af18015610dfc57610f01918491610f34575b506119da565b6040519081527f0d1589f631deb2542273b007140b132a18d48a4303d103fe64d353db07e01b5760203392a26001805580f35b610f4d915060203d602011610b8057610b728183611780565b5f610efb565b50346101ce5760203660031901126101ce576020906040906001600160a01b03610f7b6116de565b168152600983522054604051908152f35b50346101ce5760203660031901126101ce57610fa6611770565b610fae611aad565b60ff8116906032821161100a57600c805460ff19811690931790556040805160ff93841681529190921660208201527f23544ae90129bcc75de3e8f5f3300261a16bd084afbf41bd26cac1f2365b305591819081015b0390a180f35b60405162461bcd60e51b8152602060048201526012602482015271566f74657220726577617264203e2035302560701b6044820152606490fd5b50346101ce5760203660031901126101ce5760209060ff906040906001600160a01b0361106f6116de565b168152600784522054166040519015158152f35b50346101ce57806003193601126101ce57602060ff600c5460081c16604051908152f35b50346101ce57806003193601126101ce57602060ff600c5416604051908152f35b50346101ce5760203660031901126101ce576004356110e5611aad565b80156111255760407f25c1c85e83cba392025ae48f325ef9bd15b683a7ad29251a107354cb1068ae6391600d549080600d5582519182526020820152a180f35b60405162461bcd60e51b815260206004820152601160248201527004c696d6974206d757374206265203e203607c1b6044820152606490fd5b50346101ce5760203660031901126101ce576020906040906001600160a01b036111866116de565b168152600883522054604051908152f35b50346101ce5760203660031901126101ce576004356111b4611a8d565b6111bf81151561191c565b6003546040516323b872dd60e01b815233600482015230602482015260448101839052906020908290606490829087906001600160a01b03165af18015610dfc57611210918491610f3457506119da565b3382526008602052604082206112278282546119b9565b90556040519081527f36e229bdaedfa85d503535ae31c3ac9e40d88f1ab4fa53870ef2da82df48e99060203392a26001805580f35b50346101ce5760203660031901126101ce57600435611279611a8d565b61128481151561191c565b600480546040516323b872dd60e01b81523392810192909252306024830152604482018390526020908290606490829087906001600160a01b03165af18015610dfc576112d7918491610ddd5750611975565b3382526009602052604082206112ee8282546119b9565b90556040519081527fa4ddd265c8016cfa57813894be0f8a41c7dfa594c82404375abadf2ffc33607c60203392a26001805580f35b50346101ce5760203660031901126101ce5761133d611770565b611345611aad565b603260ff8216116113af5760ff7f285d424463e6f2d8b27eb851e42ce326e42daff7d6c17735b05f02baf329aaa591611004600c549161ff008160081b1661ff0019841617600c5560405193849360081c168390929160ff60209181604085019616845216910152565b60405162461bcd60e51b8152602060048201526012602482015271506c6174666f726d20666565203e2035302560701b6044820152606490fd5b50346101ce57806003193601126101ce576020600a54604051908152f35b50346101ce5760203660031901126101ce57604090816001600160a01b0361142d6116de565b16918281526008602052818120549281526009602052205482519182526020820152f35b50346101ce57806003193601126101ce5760a0600a54600b5460ff600c54600d54926040519485526020850152818116604085015260081c1660608301526080820152f35b50346101ce5761065c7fd65318ec9967b019cd6c9e0b2f5866a86edea54d64ac9a1c5cb52db0c51c273b6114c9366116f4565b9294936114d7969196611a8d565b33885260076020526114ef60ff60408a205416611870565b60018060a01b03169485885260096020526115108360408a205410156118b0565b85885260096020526040882083815403905560018060a01b03169586885260096020526040882083815401905560405193849389855260208501526060604085015260608401916118fc565b50346101ce57806003193601126101ce576003546040516001600160a01b039091168152602090f35b50346101ce57806003193601126101ce576004546040516001600160a01b039091168152602090f35b50346101ce5760203660031901126101ce57806115c96116de565b33825260076020526115e160ff604084205416611838565b6002546001600160a01b031690813b1561163e57604051633e852f6560e01b81526001600160a01b0390911660048201529082908290602490829084905af18015610a995761162d5750f35b8161163791611780565b6101ce5780f35b5050fd5b50346116da5760203660031901126116da5761165c6116de565b335f52600760205261167460ff60405f205416611838565b6002546001600160a01b031690813b156116da5760405163a971fb2360e01b81526001600160a01b039091166004820152905f908290602490829084905af180156116cf576116c1575080f35b6116cd91505f90611780565b005b6040513d5f823e3d90fd5b5f80fd5b600435906001600160a01b03821682036116da57565b60806003198201126116da576004356001600160a01b03811681036116da57916024356001600160a01b03811681036116da57916044359160643567ffffffffffffffff81116116da57826023820112156116da5780600401359267ffffffffffffffff84116116da57602484830101116116da576024019190565b6004359060ff821682036116da57565b90601f8019910116810190811067ffffffffffffffff8211176117a257604052565b634e487b7160e01b5f52604160045260245ffd5b81601f820112156116da5780359067ffffffffffffffff82116117a257604051926117eb601f8401601f191660200185611780565b828452602083830101116116da57815f926020809301838601378301015290565b6006548110156118245760065f5260205f2001905f90565b634e487b7160e01b5f52603260045260245ffd5b1561183f57565b60405162461bcd60e51b8152602060048201526009602482015268139bdd08184810995d60ba1b6044820152606490fd5b1561187757565b60405162461bcd60e51b81526020600482015260116024820152704f6e6c7920666163746f7279206265747360781b6044820152606490fd5b156118b757565b60405162461bcd60e51b815260206004820152601b60248201527f496e73756666696369656e7420696e7465726e616c2050524f4f4600000000006044820152606490fd5b908060209392818452848401375f828201840152601f01601f1916010190565b1561192357565b60405162461bcd60e51b81526020600482015260126024820152710416d6f756e74206d757374206265203e20360741b6044820152606490fd5b908160209103126116da575180151581036116da5790565b1561197c57565b60405162461bcd60e51b8152602060048201526015602482015274141493d3d1881d1c985b9cd9995c8819985a5b1959605a1b6044820152606490fd5b919082018092116119c657565b634e487b7160e01b5f52601160045260245ffd5b156119e157565b60405162461bcd60e51b81526020600482015260146024820152731554d110c81d1c985b9cd9995c8819985a5b195960621b6044820152606490fd5b15611a2457565b60405162461bcd60e51b815260206004820152601a60248201527f496e73756666696369656e7420696e7465726e616c20555344430000000000006044820152606490fd5b805180835260209291819084018484015e5f828201840152601f01601f1916010190565b600260015414611a9e576002600155565b633ee5aeb560e01b5f5260045ffd5b5f546001600160a01b03163303611ac057565b63118cdaa760e01b5f523360045260245ffdfe61012060405234610664576139748038038061001a81610668565b92833981019060e0818303126106645780516001600160401b03811161066457810161012081840312610664576040519261012084016001600160401b038111858210176104965760405281516001600160401b038111610664578161008191840161068d565b84526020820151906001600160401b038211610664576100a291830161068d565b602084015260408101516040840152606081015160608401526080810151608084015260a081015160a084015260c081015160c084015260e08101519060ff82168203610664576101009160e08501520151610100830152610106602082016106de565b91610113604083016106de565b61011f606084016106de565b9061012c608085016106de565b9261014560c061013e60a088016106de565b96016106de565b60015f55956001600160a01b03169081151580610652575b80610640575b8061062e575b8061061c575b8061060a575b156105d6576040810151606082015180911090816105c8575b50156105935780518051906001600160401b0382116104965760015490600182811c92168015610589575b60208310146104785781601f84931161051b575b50602090601f83116001146104b5575f926104aa575b50508160011b915f199060031b1c1916176001555b60208101518051906001600160401b03821161049657600254600181811c9116801561048c575b602082101461047857601f8111610415575b50602090601f83116001146103ac576101009392915f91836103a1575b50508160011b915f199060031b1c1916176002555b60408101516003556060810151600455608081015160055560a081015160065560c081015160075560ff60e08201511660ff196008541617600855015160095560018060a01b0319600a541617600a5560018060a01b031660805260018060a01b031660a05260018060a01b031660c05260018060a01b031660e0526101005260ff196019541660195560405161328190816106f3823960805181818161035c01528181610415015281816104e20152818161071901528181610bee01528181611292015281816115380152818161176901528181611b00015281816120f0015281816122bf01528181612b7c01528181612ca801528181612e510152612fe5015260a05181818161098a01528181610acc0152611aa4015260c051816126de015260e05181612722015261010051818181610f9001526114790152f35b015190505f8061024e565b90601f1983169160025f52815f20925f5b8181106103fd5750916001939185610100979694106103e5575b505050811b01600255610263565b01515f1960f88460031b161c191690555f80806103d7565b929360206001819287860151815501950193016103bd565b60025f527f405787fa12a823e0f2b7631cc41b3ba8828b3321ca811111fa75cd3aa3bb5ace601f840160051c8101916020851061046e575b601f0160051c01905b8181106104635750610231565b5f8155600101610456565b909150819061044d565b634e487b7160e01b5f52602260045260245ffd5b90607f169061021f565b634e487b7160e01b5f52604160045260245ffd5b015190505f806101e3565b60015f9081528281209350601f198516905b81811061050357509084600195949392106104eb575b505050811b016001556101f8565b01515f1960f88460031b161c191690555f80806104dd565b929360206001819287860151815501950193016104c7565b60015f529091507fb10e2d527612073b26eecdfd717e6a320cf44b4afac2b0732d9fcbe2b7fa0cf6601f840160051c8101916020851061057f575b90601f859493920160051c01905b81811061057157506101cd565b5f8155849350600101610564565b9091508190610556565b91607f16916101b9565b60405162461bcd60e51b815260206004820152600d60248201526c42616420646561646c696e657360981b6044820152606490fd5b90506080820151115f61018e565b60405162461bcd60e51b815260206004820152600c60248201526b5a65726f206164647265737360a01b6044820152606490fd5b506001600160a01b0387161515610175565b506001600160a01b038616151561016f565b506001600160a01b0385161515610169565b506001600160a01b0384161515610163565b506001600160a01b038316151561015d565b5f80fd5b6040519190601f01601f191682016001600160401b0381118382101761049657604052565b81601f82011215610664578051906001600160401b038211610496576106bc601f8301601f1916602001610668565b928284526020838301011161066457815f9260208093018386015e8301015290565b51906001600160a01b03821682036106645756fe6080806040526004361015610012575f80fd5b5f905f3560e01c9081630208d811146128215750806302d05d3f146127f957806307ea56db146127c657806309e69ede1461276e5780630d15fd77146127515780630e94a0ee1461270d57806311eac855146126c95780632bcd0f02146126555780632c2e8faf1461231c5780632d336a97146122ee5780632e1a9618146122aa578063362f04c01461228d5780633a1fecb814612252578063565974d3146121c357806363a39141146120a15780636f95b3f31461207b5780638a2fd02914611f4a578063aa23979214611f0b578063aec2ccae14611ec9578063b3f98adc146119fe578063b401faf1146116b5578063b4fb3ee314611673578063b5545a3c146114c6578063b5b47f42146114a8578063c415b95c14611463578063ccc8279514611445578063cfe7b7701461139b578063d4249dce1461135e578063d6d202381461121c578063d72edbf214610b40578063d8bff5a514610afb578063dc7831fd14610ab6578063dcb3b30e1461068f578063e41356f31461024c578063ef8a923514610226578063fb04521b14610208578063fb286c65146101ea5763fbf06338146101c0575f80fd5b346101e757806003193601126101e757602060ff600f54166101e56040518092612ab1565bf35b80fd5b50346101e757806003193601126101e7576020601054604051908152f35b50346101e757806003193601126101e7576020600d54604051908152f35b50346101e757806003193601126101e757602060ff601954166101e56040518092612aa4565b50346101e757806003193601126101e7576102656131ed565b60ff60195416600581101561067b5760038114908115610670575b501561063c57338152601860205260ff6040822054161561060b5733815260166020526040812054156105db5780819033835260166020526040832054338452601660205283604081205560ff6019541660058110156105c7576003036105c057338452601760205260ff6040852054169060ff600f54169160038310156105ac5760038110156105ac5782146104bd575b50505b80610412575b81610359575b60405191825260208201527ffbc3a599b784fe88772fc5abcc07223f64ca0b13acc341f4fb1e46bef0510eb460403392a26001815580f35b827f00000000000000000000000000000000000000000000000000000000000000006001600160a01b0316803b1561040e5781809160c460405180948193634d8a45d560e11b835230600484015233602484015289604484015260806064840152600c60848401526b159bdd195c881c995dd85c9960a21b60a48401525af18015610403576103ea575b5050610321565b816103f491612890565b6103ff57825f6103e3565b8280fd5b6040513d84823e3d90fd5b5080fd5b827f00000000000000000000000000000000000000000000000000000000000000006001600160a01b0316803b1561040e5781809160c4604051809481936314f8d2c360e01b83523060048401523360248401528860448401526080606484015260116084840152702b37ba329039ba30b5b2903932ba3ab93760791b60a48401525af18015610403576104a8575b505061031b565b816104b291612890565b6103ff57825f6104a1565b915060011480156105a457600c545b6040516317fbd0fd60e11b8152906020826004817f00000000000000000000000000000000000000000000000000000000000000006001600160a01b03165afa9081156105995760ff61052b92606494899161056a575b501690612ad7565b04901561056157601054905b80151580610558575b1561031257610550929350612afe565b905f80610312565b50811515610540565b60115490610537565b61058c915060203d602011610592575b6105848183612890565b810190612abe565b5f610523565b503d61057a565b6040513d88823e3d90fd5b600b546104cc565b634e487b7160e01b86526021600452602486fd5b9050610315565b634e487b7160e01b85526021600452602485fd5b60405162461bcd60e51b81526020600482015260086024820152674e6f207374616b6560c01b6044820152606490fd5b60405162461bcd60e51b8152602060048201526009602482015268139bdd081d9bdd195960ba1b6044820152606490fd5b60405162461bcd60e51b815260206004820152600c60248201526b139bdd08199a5b9a5cda195960a21b6044820152606490fd5b60049150145f610280565b634e487b7160e01b82526021600452602482fd5b50346101e75760403660031901126101e757600435600381101561040e576024356106b86131ed565b60ff601954166005811015610aa2576106d19015612d6d565b600354421015610a6c576001821483818015610a60575b15610a2c5760065483106109f75760ff600854168061096e575b5060408051631bf8924760e01b81523360048201527f00000000000000000000000000000000000000000000000000000000000000006001600160a01b0316939181602481875afa80156109635785918891610933575b50106108fa57823b156108f65785604051634d8a45d560e11b815233600482015230602482015285604482015260806064820152600d60848201526c10995d081c1b1858d95b595b9d609a1b60a4820152818160c48183895af18015610403576108e1575b5050338652601460205260ff604087205416156108b7575b338652601560205260408620916105ac578592919015610893576107fb848254612f0a565b905561080983600b54612f0a565b600b555b803b1561040e578180916024604051809481936301ddde7960e21b83523360048401525af180156104035761087e575b505061084c6040518093612ab1565b60208201527f9f6b4cced64244a64465098f682029975b1614400b96bc6bd12c66808371916660403392a26001815580f35b8161088891612890565b6103ff57825f61083d565b6001016108a1848254612f0a565b90556108af83600c54612f0a565b600c5561080d565b338652601460205260408620600160ff198254161790556108d960125461319f565b6012556107d6565b816108eb91612890565b6108f657855f6107be565b8580fd5b60405162461bcd60e51b8152602060048201526011602482015270496e73756666696369656e74205553444360781b6044820152606490fd5b610955915060403d60401161095c575b61094d8183612890565b810190613189565b505f610759565b503d610943565b6040513d89823e3d90fd5b604051630d47875d60e41b8152336004820152906020826024817f00000000000000000000000000000000000000000000000000000000000000006001600160a01b03165afa918215610963576109d29260ff9189916109d8575b5016101561314d565b5f610702565b6109f1915060203d602011610592576105848183612890565b5f6109c9565b60405162461bcd60e51b815260206004820152600d60248201526c5374616b6520746f6f206c6f7760981b6044820152606490fd5b60405162461bcd60e51b815260206004820152600c60248201526b496e76616c6964207369646560a01b6044820152606490fd5b505083600284146106e8565b60405162461bcd60e51b815260206004820152600e60248201526d10995d1d1a5b99c818db1bdcd95960921b6044820152606490fd5b634e487b7160e01b84526021600452602484fd5b50346101e757806003193601126101e7576040517f00000000000000000000000000000000000000000000000000000000000000006001600160a01b03168152602090f35b50346101e75760203660031901126101e7576004356001600160a01b0381169081900361040e5760408260ff9260209452601784522054166101e56040518092612ab1565b50346101e757806003193601126101e757610b596131ed565b60ff60195416600581101561067b5760021480611210575b610b7d575b6001815580f35b601354600954111561113957610b9b600460ff196019541617601955565b5f51602061322c5f395f51905f52606060405160208152601960208201527f496e73756666696369656e74207075626c696320766f746573000000000000006040820152a15b600a546001600160a01b037f00000000000000000000000000000000000000000000000000000000000000008116929116823b1561040e576040519063c19b52d960e01b82526004820152818160248183875af1801561040357908291611124575b505060ff601954166005811015908161108f576003811480918115611116575b50156110de57600f549160ff8360081c166110a35761108f571561107c575060ff600f5461010061ff0019821617600f5516600381101561067b57600114801561107357600b54905b1561106a57600c54905b1561102557604051634367413160e01b8152602081600481875afa90811561101a579160ff610cf092606494869161056a57501690612ad7565b0480610f74575b5060ff600f541691600383101561067b5760018293145f14610f6c576011545b80610e6a575b5050505b60ff60195416600581101561067b57600303610b76576040516315e6878160e11b815261016081600481305afa801561040357829183848590869287948896610dce575b50916101009593917f87b335c0678f691271b7598c29c98e4103fb348ebe80b3d57a55aec34ea24fbd97959360ff600f541696610da56040518099612ab1565b602088015260408701526060860152608085015260a084015260c083015260e0820152a1610b76565b9650505050505050610160813d8211610e62575b81610df06101609383612890565b8101031261040e5760058151101561040e5760036020820151101561040e576040810151606082015160c083015160e0840151610100850151610120860151610140909601519495939092907f87b335c0678f691271b7598c29c98e4103fb348ebe80b3d57a55aec34ea24fbd610d65565b3d9150610de2565b60405163fb707f1f60e01b815290602082600481865afa918215610f61578492610f25575b5090610e9a91612ad7565b8015610d1d57813b15610f2157829160c4839260405194859384926314f8d2c360e01b84523060048501528160248501526044840152608060648401526012608484015271566f746572206c6f73696e67207374616b6560701b60a48401525af1801561040357610f0c575b80610d1d565b81610f1691612890565b6101e757805f610f06565b5050fd5b915092506020813d602011610f59575b81610f4260209383612890565b81010312610f5557518392610e9a610e8f565b5f80fd5b3d9150610f35565b6040513d86823e3d90fd5b601054610d17565b823b1561040e57604051634d8a45d560e11b81523060048201527f00000000000000000000000000000000000000000000000000000000000000006001600160a01b03166024820152604481019190915260806064820152600c60848201526b506c6174666f726d2066656560a01b60a4820152818160c48183875af1801561040357908291611005575b50610cf7565b8161100f91612890565b6101e757805f610fff565b6040513d85823e3d90fd5b60405162461bcd60e51b815260206004820152601760248201527f4e6f207374616b657320746f20646973747269627574650000000000000000006044820152606490fd5b600b5490610cb6565b600c5490610cac565b61ff00191661010017600f559050610d21565b634e487b7160e01b83526021600452602483fd5b60405162461bcd60e51b8152602060048201526013602482015272105b1c9958591e48191a5cdd1c9a589d5d1959606a1b6044820152606490fd5b60405162461bcd60e51b815260206004820152601060248201526f10995d081b9bdd08199a5b9a5cda195960821b6044820152606490fd5b92505060048392145f610c63565b8161112e91612890565b6101e757805f610c43565b601054601154808211156111a4575050600160ff19600f541617600f55611168600360ff196019541617601955565b7fd6bcd4b6873d691163f1aff2d5585378623aef08e17513a5253eabe39c65dc50602060ff600f541661119e6040518092612ab1565ba1610be1565b11156111c957600260ff19600f541617600f55611168600360ff196019541617601955565b6111db600460ff196019541617601955565b5f51602061322c5f395f51905f526060604051602081526008602082015267566f74652074696560c01b6040820152a1610be1565b50600554421015610b71565b50346101e757806003193601126101e75760ff60195416600581101561067b571580611352575b61124a5780f35b600b54600754809110159081611345575b501561127157600160ff19601954161760195580f35b611283600460ff196019541617601955565b600a5481906001600160a01b037f000000000000000000000000000000000000000000000000000000000000000081169116813b15610f2157829160248392604051948593849263c19b52d960e01b845260048401525af1801561040357611330575b50505f51602061322c5f395f51905f52606060405160208152601a60208201527f4d696e696d756d2073696465207374616b65206e6f74206d65740000000000006040820152a180f35b8161133a91612890565b6101e757805f6112e6565b9050600c5410155f61125b565b50600354421015611243565b50346101e75760203660031901126101e7576004356001600160a01b0381169081900361040e578160409160209352601683522054604051908152f35b50346101e757806003193601126101e757600b54610140600c5460035492611434600454916005549360125494601354946113d4612956565b986113dd6129eb565b9361140d6113e96128b2565b956113ff6040519d8d8f9e8f9081520190612a80565b8c810360208e015290612a80565b9560408b015260608a0152608089015260a088015260c087015285820360e0870152612a80565b916101008401526101208301520390f35b50346101e757806003193601126101e7576020600c54604051908152f35b50346101e757806003193601126101e7576040517f00000000000000000000000000000000000000000000000000000000000000006001600160a01b03168152602090f35b50346101e757806003193601126101e7576020601154604051908152f35b50346101e757806003193601126101e7576114df6131ed565b60ff60195416600581101561067b5760040361163e573381526015602052604081206002810161152581549261151860ff8516156131ad565b6001815491015490612f0a565b91821561160d5760ff19166001179055817f00000000000000000000000000000000000000000000000000000000000000006001600160a01b0316803b1561040e5781809160c460405180948193634d8a45d560e11b835230600484015233602484015288604484015260806064840152600a60848401526910995d081c99599d5b9960b21b60a48401525af18015610403576115f8575b50506040519081528160208201527ffbc3a599b784fe88772fc5abcc07223f64ca0b13acc341f4fb1e46bef0510eb460403392a26001815580f35b8161160291612890565b61040e57815f6115bd565b60405162461bcd60e51b8152602060048201526009602482015268139bc81c99599d5b9960ba1b6044820152606490fd5b60405162461bcd60e51b815260206004820152600d60248201526c139bdd0818d85b98d95b1b1959609a1b6044820152606490fd5b50346101e75760203660031901126101e7576004356001600160a01b0381169081900361040e5760408260ff9260209452601484522054166040519015158152f35b50346101e757806003193601126101e7576116ce6131ed565b60ff60195416600581101561067b576003036119c957600f5460ff8160081c16156119925733825260156020526040822080548015801590611985575b1561194d57600282019060ff825494611726828716156131ad565b1660038110156105ac576001149283156119415750905b811561190f578492801561190657600b54905b156118fd57600c54905b6040516317fbd0fd60e11b81527f00000000000000000000000000000000000000000000000000000000000000006001600160a01b03169490602081600481895afa80156109635760ff6117ba916064938a916118d3575b501685612ad7565b049260405192634367413160e01b84526020846004818a5afa9384156118f2578361181261181c9461180d60019960646118068f6118229c6118179960ff92916118d357501685612ad7565b0492612b1c565b612b1c565b612ad7565b612afe565b90612f0a565b9460ff19161790558261186a5750506040519081528160208201527ffbc3a599b784fe88772fc5abcc07223f64ca0b13acc341f4fb1e46bef0510eb460403392a26001815580f35b803b1561040e5781809160c460405180948193634d8a45d560e11b835230600484015233602484015288604484015260806064840152600c60848401526b4265742077696e6e696e677360a01b60a48401525af1801561040357156115bd578161160291612890565b6118ec915060203d602011610592576105848183612890565b5f6117b2565b6040513d8a823e3d90fd5b600b549061175a565b600c5490611750565b60405162461bcd60e51b815260206004820152600a6024820152692737ba103bb4b73732b960b11b6044820152606490fd5b6001915001549061173d565b60405162461bcd60e51b815260206004820152601060248201526f2737903830b93a34b1b4b830ba34b7b760811b6044820152606490fd5b506001820154151561170b565b60405162461bcd60e51b815260206004820152600f60248201526e139bdd08191a5cdd1c9a589d5d1959608a1b6044820152606490fd5b60405162461bcd60e51b815260206004820152600d60248201526c139bdd0818dbdb5c1b195d1959609a1b6044820152606490fd5b50346101e75760203660031901126101e7576004356003811080156103ff57611a256131ed565b60ff601954166005811015610aa2576002611a409114612d6d565b600554421015611e94578260018314808015611e87575b15611e5357338552601560205260408520541580611e3c575b15611e0157338552601860205260ff604086205416611dcc57604051630d47875d60e41b81523360048201526020816024817f00000000000000000000000000000000000000000000000000000000000000006001600160a01b03165afa801561059957611af0918791611dad575b5060ff80600854169116101561314d565b60405163fb707f1f60e01b8152927f00000000000000000000000000000000000000000000000000000000000000006001600160a01b03169290602085600481875afa948515610963578795611d79575b5060408051631bf8924760e01b81523360048201529081602481885afa80156118f25786918991611d58575b5010611d1e57833b15611d1a57866040516314f8d2c360e01b815233600482015230602482015286604482015260806064820152600a608482015269566f7465207374616b6560b01b60a4820152818160c481838a5af1801561040357611d05575b5050338752601860205260408720600160ff198254161790553387526017602052604087209015611cf15760ff1981541660ff8716179055338652601660205260408620611c1e858254612f0a565b9055611c2c84600d54612f0a565b600d55611c3a60135461319f565b6013556105c75784919015611cde57611c5460105461319f565b6010555b803b1561040e578180916024604051809481936306aac6d960e01b83523360048401525af1801561040357611cc9575b5050611c976040518093612ab1565b60208201527fd9d9fd0caa964abf9540e87552b03d0f6f1427c14e4d23c647cc9f24efc0848860403392a26001815580f35b81611cd391612890565b6103ff57825f611c88565b611ce960115461319f565b601155611c58565b634e487b7160e01b87526021600452602487fd5b81611d0f91612890565b611d1a57865f611bcf565b8680fd5b60405162461bcd60e51b815260206004820152601260248201527124b739bab33334b1b4b2b73a10282927a7a360711b6044820152606490fd5b611d71915060403d60401161095c5761094d8183612890565b90505f611b6d565b9094506020813d602011611da5575b81611d9560209383612890565b81010312610f555751935f611b41565b3d9150611d88565b611dc6915060203d602011610592576105848183612890565b5f611adf565b60405162461bcd60e51b815260206004820152600d60248201526c105b1c9958591e481d9bdd1959609a1b6044820152606490fd5b60405162461bcd60e51b8152602060048201526013602482015272426574746f72732063616e6e6f7420766f746560681b6044820152606490fd5b503385526015602052600160408620015415611a70565b60405162461bcd60e51b815260206004820152600c60248201526b496e76616c696420766f746560a01b6044820152606490fd5b5084915060028414611a57565b60405162461bcd60e51b815260206004820152600d60248201526c159bdd1a5b99c818db1bdcd959609a1b6044820152606490fd5b50346101e75760203660031901126101e7576004356001600160a01b0381169081900361040e5760408260ff9260209452601884522054166040519015158152f35b50346101e75760203660031901126101e757600435906001600160a01b03821682036101e7576040611f3c83612f17565b825191825215156020820152f35b50346101e757806003193601126101e757610100604051611f6a81612873565b60608152606060208201528260408201528260608201528260808201528260a08201528260c08201528260e082015201526101206020604051611fac81612873565b611fb4612956565b8152611fbe6129eb565b9082810191825260ff600354926040830193845260045460608401908152600554608085019081526006549060a086019182526007549260c0870193845261204986600854169560e089019687526120366009549961010081019a8b526040519d8d8f9e928f938452519201526101408d0190612a80565b90518b8203601f190160408d0152612a80565b975160608a01525160808901525160a08801525160c08701525160e08601525116610100840152516101208301520390f35b50346101e757806003193601126101e757602060ff600f5460081c166040519015158152f35b5034610f55575f366003190112610f555760ff6019541660058110156121af57600114806121a3575b6120d15780f35b6120e3600460ff196019541617601955565b600a546001600160a01b037f000000000000000000000000000000000000000000000000000000000000000081169116813b15610f55575f9160248392604051948593849263c19b52d960e01b845260048401525af1801561219857612185575b505f51602061322c5f395f51905f526060604051602081526015602082015274141c9bdbd988191958591b1a5b99481b5a5cdcd959605a1b6040820152a180f35b61219191505f90612890565b5f5f612144565b6040513d5f823e3d90fd5b506004544210156120ca565b634e487b7160e01b5f52602160045260245ffd5b34610f55575f366003190112610f555761221b6121de612956565b6121e66129eb565b600354906004546005546006546007549160ff6008541693612229600954966040519a8b9a6101208c526101208c0190612a80565b908a820360208c0152612a80565b9660408901526060880152608087015260a086015260c085015260e08401526101008301520390f35b34610f55576020366003190112610f55576004356001600160a01b0381168103610f5557612281604091612daa565b82519182526020820152f35b34610f55575f366003190112610f55576020601254604051908152f35b34610f55575f366003190112610f55576040517f00000000000000000000000000000000000000000000000000000000000000006001600160a01b03168152602090f35b34610f55575f366003190112610f55576060601054601154600d549060405192835260208301526040820152f35b34610f55576020366003190112610f555760043567ffffffffffffffff8111610f555736602382011215610f5557806004013567ffffffffffffffff81116125645760405191612376601f8301601f191660200184612890565b8183523660248383010111610f5557815f926024602093018386013783010152600a546001600160a01b031633036126225760ff6019541660058110156121af5760016123c39114612d6d565b60035442106125e8576004544210156125ab5780511561257857805167ffffffffffffffff8111612564576123f9600e5461283b565b601f81116124fc575b50806020601f821160011461248d575f91612482575b508160011b915f199060031b1c191617600e555b600260ff1960195416176019557f227d17811e582357665ee6ee281ef8528946951eab558c87afaf102464d6cc5661247d60018060a01b03600a541692604051918291602083526020830190612a80565b0390a2005b905082015183612418565b600e5f9081525f51602061320c5f395f51905f529250601f198416905b8181106124e4575090836001949392106124cc575b5050811b01600e5561242c565b8401515f1960f88460031b161c1916905583806124bf565b919260206001819286890151815501940192016124aa565b600e5f52601f820160051c5f51602061320c5f395f51905f5201906020831061254f575b601f0160051c5f51602061320c5f395f51905f5201905b8181106125445750612402565b5f8155600101612537565b5f51602061320c5f395f51905f529150612520565b634e487b7160e01b5f52604160045260245ffd5b60405162461bcd60e51b815260206004820152600b60248201526a22b6b83a3c90383937b7b360a91b6044820152606490fd5b60405162461bcd60e51b8152602060048201526015602482015274141c9bdbd988191958591b1a5b99481c185cdcd959605a1b6044820152606490fd5b60405162461bcd60e51b81526020600482015260126024820152712132ba3a34b7339039ba34b6361037b832b760711b6044820152606490fd5b60405162461bcd60e51b815260206004820152600b60248201526a2737ba1031b932b0ba37b960a91b6044820152606490fd5b34610f55575f366003190112610f5557610160612697612673612b29565b999a909861268d604099939998949897959751809d612aa4565b60208c0190612ab1565b60408a01526060890152608088015260a087015260c086015260e0850152610100840152610120830152610140820152f35b34610f55575f366003190112610f55576040517f00000000000000000000000000000000000000000000000000000000000000006001600160a01b03168152602090f35b34610f55575f366003190112610f55576040517f00000000000000000000000000000000000000000000000000000000000000006001600160a01b03168152602090f35b34610f55575f366003190112610f55576020601354604051908152f35b34610f55576020366003190112610f55576004356001600160a01b03811690819003610f55575f526015602052606060405f2080549060ff600260018301549201541690604051928352602083015215156040820152f35b34610f55575f366003190112610f55576127f56127e16128b2565b604051918291602083526020830190612a80565b0390f35b34610f55575f366003190112610f5557600a546040516001600160a01b039091168152602090f35b34610f55575f366003190112610f5557602090600b548152f35b90600182811c92168015612869575b602083101461285557565b634e487b7160e01b5f52602260045260245ffd5b91607f169161284a565b610120810190811067ffffffffffffffff82111761256457604052565b90601f8019910116810190811067ffffffffffffffff82111761256457604052565b604051905f82600e54916128c58361283b565b808352926001811690811561293757506001146128eb575b6128e992500383612890565b565b50600e5f90815290915f51602061320c5f395f51905f525b81831061291b5750509060206128e9928201016128dd565b6020919350806001915483858901015201910190918492612903565b602092506128e994915060ff191682840152151560051b8201016128dd565b604051905f82600154916129698361283b565b8083529260018116908115612937575060011461298c576128e992500383612890565b5060015f90815290917fb10e2d527612073b26eecdfd717e6a320cf44b4afac2b0732d9fcbe2b7fa0cf65b8183106129cf5750509060206128e9928201016128dd565b60209193508060019154838589010152019101909184926129b7565b604051905f82600254916129fe8361283b565b80835292600181169081156129375750600114612a21576128e992500383612890565b5060025f90815290917f405787fa12a823e0f2b7631cc41b3ba8828b3321ca811111fa75cd3aa3bb5ace5b818310612a645750509060206128e9928201016128dd565b6020919350806001915483858901015201910190918492612a4c565b805180835260209291819084018484015e5f828201840152601f01601f1916010190565b9060058210156121af5752565b9060038210156121af5752565b90816020910312610f55575160ff81168103610f555790565b81810292918115918404141715612aea57565b634e487b7160e01b5f52601160045260245ffd5b8115612b08570490565b634e487b7160e01b5f52601260045260245ffd5b91908203918211612aea57565b60ff601954169060ff600f5416908160058410156121af5760038403612c965760038110156121af576001148015612c8e57600b545b918115612c8557600c54905b604051634367413160e01b815291927f00000000000000000000000000000000000000000000000000000000000000006001600160a01b031692908490602083600481885afa80156121985760ff6020916004955f91612c68575b501695604051948580926317fbd0fd60e11b82525afa92831561219857612c1c9360ff915f91612c49575b5016936064612c008785612ad7565b04938361180d6064612c13898998612ad7565b04958692612b1c565b9115612c4057601054905b818015612c3b57612c389085612afe565b90565b505f90565b60115490612c27565b612c62915060203d602011610592576105848183612890565b5f612bf1565b612c7f9150833d8511610592576105848183612890565b5f612bc6565b600b5490612b6b565b600c54612b5f565b50604051634367413160e01b815291927f00000000000000000000000000000000000000000000000000000000000000006001600160a01b031690602084600481855afa918215612198576004945f93612d4b575b50602090604051958680926317fbd0fd60e11b82525afa938415612198575f94612d2a575b5093925f9260ff805f94169216905f905f905f905f905f90565b612d4491945060203d602011610592576105848183612890565b925f612d10565b6020919350612d6690823d8411610592576105848183612890565b9290612ceb565b15612d7457565b60405162461bcd60e51b815260206004820152600e60248201526d496e76616c69642073746174757360901b6044820152606490fd5b6001600160a01b03165f8181526018602052604081205490929060ff16158015612ef6575b612eee57815f52601660205260405f20549160ff6019541660058110156121af5760048114612ee75760021901612ede575f52601760205260ff60405f20541660ff600f54169060038210156121af5760038110156121af578103612ede576001148015612ed657600c545b6040516317fbd0fd60e11b8152906020826004817f00000000000000000000000000000000000000000000000000000000000000006001600160a01b03165afa9081156121985760ff612e99926064945f9161056a57501690612ad7565b049015612ecd57601054905b81151580612ec4575b612eb6575050565b612ec1929450612afe565b91565b50801515612eae565b60115490612ea5565b600b54612e3b565b505f9250829150565b505f935050565b5f9250829150565b50815f52601660205260405f205415612dcf565b91908201809211612aea57565b60ff6019541660058110156121af576003036131465760018060a01b03165f52601560205260405f206040516060810181811067ffffffffffffffff821117612564576040528154808252600183015460ff60026020850195838752015416159182158060408601529261312c575b50506131245760ff600f541690600382101592836121af576001831492838061311a575b156130ed57506001935b6121af5782156130e55750515b81156130dc57600b54915b156130d457600c545b6040516317fbd0fd60e11b8152927f00000000000000000000000000000000000000000000000000000000000000006001600160a01b0316602085600481845afa948515612198575f956130af575b50602060049160405192838092634367413160e01b82525afa80156121985761181261181c9461180d8793612ec199611817965f9261307c575b5061180660ff60646130738282951688612ad7565b04931685612ad7565b606491925060ff82613073826130a36118069560203d602011610592576105848183612890565b9695505050505061305e565b60049195506130cc602091823d8411610592576105848183612890565b959150613024565b600b54612fd5565b600c5491612fcc565b905051612fc1565b5f945060021480613110575b1561310657600193612fb4565b505050505f905f90565b50805115156130f9565b5082511515612faa565b50505f905f90565b1591508161313d575b505f80612f86565b9050155f613135565b505f905f90565b1561315457565b60405162461bcd60e51b815260206004820152600d60248201526c547275737420746f6f206c6f7760981b6044820152606490fd5b9190826040910312610f55576020825192015190565b5f198114612aea5760010190565b156131b457565b60405162461bcd60e51b815260206004820152601160248201527020b63932b0b23c903bb4ba34323930bbb760791b6044820152606490fd5b60025f54146131fc5760025f55565b633ee5aeb560e01b5f5260045ffdfebb7b4a454dc3493923482f07822329ed19e8244eff582cc204f8554c3620c3fd3ddcc849954303c379ec7b5fc775e4075525c655f439ae3564d02ae1c1feda6ca26469706673582212209877ca666f6833cf2ebc775bfbf0b2cecb48185f35618e5e9977cfd3bad1f8af64736f6c634300081c0033a2646970667358221220ff4499dce606bf731954a88406a2b30c7744da82fee7297cf9ecd3925e240b9764736f6c634300081c0033",
  "linkReferences": {},
  "deployedLinkReferences": {},
  "immutableReferences": {},
  "inputSourceName": "project/contracts/BetFactory.sol",
  "buildInfoId": "solc-0_8_28-b7c2ea2a8f45c9083975d2cf583d049d038de816"
}