{
  "_format": "hh3-artifact-1",
  "contractName": "TrustScore",
  "sourceName": "contracts/TrustScore.sol",
  "abi": [
    {
      "inputs": [],
      "stateMutability": "nonpayable",
      "type": "constructor"
    },
    {
      "inputs": [
        {
          "internalType": "address",
          "name": "owner",
          "type": "address"
        }
      ],
      "name": "OwnableInvalidOwner",
      "type": "error"
    },
    {
      "inputs": [
        {
          "internalType": "address",
          "name": "account",
          "type": "address"
        }
      ],
      "name": "OwnableUnauthorizedAccount",
      "type": "error"
    },
    {
      "anonymous": false,
      "inputs": [
        {
          "indexed": true,
          "internalType": "address",
          "name": "contractAddress",
          "type": "address"
        },
        {
          "indexed": false,
          "internalType": "bool",
          "name": "isAuthorized",
          "type": "bool"
        }
      ],
      "name": "ContractAuthorized",
      "type": "event"
    },
    {
      "anonymous": false,
      "inputs": [
        {
          "indexed": true,
          "internalType": "address",
          "name": "previousOwner",
          "type": "address"
        },
        {
          "indexed": true,
          "internalType": "address",
          "name": "newOwner",
          "type": "address"
        }
      ],
      "name": "OwnershipTransferred",
      "type": "event"
    },
    {
      "anonymous": false,
      "inputs": [
        {
          "indexed": true,
          "internalType": "address",
          "name": "user",
          "type": "address"
        },
        {
          "indexed": false,
          "internalType": "uint8",
          "name": "oldScore",
          "type": "uint8"
        },
        {
          "indexed": false,
          "internalType": "uint8",
          "name": "newScore",
          "type": "uint8"
        }
      ],
      "name": "ScoreUpdated",
      "type": "event"
    },
    {
      "inputs": [],
      "name": "CREATE_BET_POINTS",
      "outputs": [
        {
          "internalType": "uint8",
          "name": "",
          "type": "uint8"
        }
      ],
      "stateMutability": "view",
      "type": "function"
    },
    {
      "inputs": [],
      "name": "PARTICIPATE_POINTS",
      "outputs": [
        {
          "internalType": "uint8",
          "name": "",
          "type": "uint8"
        }
      ],
      "stateMutability": "view",
      "type": "function"
    },
    {
      "inputs": [],
      "name": "PENALTY_POINTS",
      "outputs": [
        {
          "internalType": "uint8",
          "name": "",
          "type": "uint8"
        }
      ],
      "stateMutability": "view",
      "type": "function"
    },
    {
      "inputs": [],
      "name": "VOTE_POINTS",
      "outputs": [
        {
          "internalType": "uint8",
          "name": "",
          "type": "uint8"
        }
      ],
      "stateMutability": "view",
      "type": "function"
    },
    {
      "inputs": [
        {
          "internalType": "address",
          "name": "_user",
          "type": "address"
        }
      ],
      "name": "applyPenalty",
      "outputs": [],
      "stateMutability": "nonpayable",
      "type": "function"
    },
    {
      "inputs": [
        {
          "internalType": "address",
          "name": "_contractAddress",
          "type": "address"
        },
        {
          "internalType": "bool",
          "name": "_isAuthorized",
          "type": "bool"
        }
      ],
      "name": "authorizeContract",
      "outputs": [],
      "stateMutability": "nonpayable",
      "type": "function"
    },
    {
      "inputs": [
        {
          "internalType": "address",
          "name": "",
          "type": "address"
        }
      ],
      "name": "authorizedContracts",
      "outputs": [
        {
          "internalType": "bool",
          "name": "",
          "type": "bool"
        }
      ],
      "stateMutability": "view",
      "type": "function"
    },
    {
      "inputs": [
        {
          "internalType": "address",
          "name": "_user",
          "type": "address"
        }
      ],
      "name": "getScore",
      "outputs": [
        {
          "internalType": "uint8",
          "name": "",
          "type": "uint8"
        }
      ],
      "stateMutability": "view",
      "type": "function"
    },
    {
      "inputs": [
        {
          "internalType": "address",
          "name": "_creator",
          "type": "address"
        }
      ],
      "name": "logBetCreation",
      "outputs": [],
      "stateMutability": "nonpayable",
      "type": "function"
    },
    {
      "inputs": [
        {
          "internalType": "address",
          "name": "_participant",
          "type": "address"
        }
      ],
      "name": "logBetParticipation",
      "outputs": [],
      "stateMutability": "nonpayable",
      "type": "function"
    },
    {
      "inputs": [
        {
          "internalType": "address",
          "name": "_voter",
          "type": "address"
        }
      ],
      "name": "logVote",
      "outputs": [],
      "stateMutability": "nonpayable",
      "type": "function"
    },
    {
      "inputs": [],
      "name": "owner",
      "outputs": [
        {
          "internalType": "address",
          "name": "",
          "type": "address"
        }
      ],
      "stateMutability": "view",
      "type": "function"
    },
    {
      "inputs": [],
      "name": "renounceOwnership",
      "outputs": [],
      "stateMutability": "nonpayable",
      "type": "function"
    },
    {
      "inputs": [
        {
          "internalType": "address",
          "name": "",
          "type": "address"
        }
      ],
      "name": "scores",
      "outputs": [
        {
          "internalType": "uint8",
          "name": "",
          "type": "uint8"
        }
      ],
      "stateMutability": "view",
      "type": "function"
    },
    {
      "inputs": [
        {
          "internalType": "address",
          "name": "newOwner",
          "type": "address"
        }
      ],
      "name": "transferOwnership",
      "outputs": [],
      "stateMutability": "nonpayable",
      "type": "function"
    }
  ],
  "bytecode": "0x6080806040523460885733156075575f8054336001600160a01b0319821681178355916001600160a01b03909116907f8be0079c531659141344cd1fd0a4f28419497f9722a3daafe3b4186f6b6457e09080a3335f52600260205260405f20600160ff1982541617905561069a908161008d8239f35b631e4fbdf760e01b5f525f60045260245ffd5b5f80fdfe6080806040526004361015610012575f80fd5b5f3560e01c908163319d033c146104d35750806332f95de2146103f0578063393f530f146103185780633e852f65146101c75780635cbeb13f1461029b57806370811c8314610280578063715018a61461022957806376dd110f1461018c5780638da5cb5b14610202578063a971fb23146101c7578063cab9599f1461014a578063d47875d01461018c578063d5b9221b1461014f578063e8e89ecc1461014a5763f2fde38b146100c1575f80fd5b34610146576020366003190112610146576100da6104ec565b6100e261061e565b6001600160a01b03168015610133575f80546001600160a01b03198116831782556001600160a01b0316907f8be0079c531659141344cd1fd0a4f28419497f9722a3daafe3b4186f6b6457e09080a3005b631e4fbdf760e01b5f525f60045260245ffd5b5f80fd5b610502565b34610146576020366003190112610146576001600160a01b036101706104ec565b165f526002602052602060ff60405f2054166040519015158152f35b34610146576020366003190112610146576001600160a01b036101ad6104ec565b165f526001602052602060ff60405f205416604051908152f35b34610146576020366003190112610146576102006101e36104ec565b335f5260026020526101fb60ff60405f20541661051d565b61057d565b005b34610146575f366003190112610146575f546040516001600160a01b039091168152602090f35b34610146575f3660031901126101465761024161061e565b5f80546001600160a01b0319811682556001600160a01b03167f8be0079c531659141344cd1fd0a4f28419497f9722a3daafe3b4186f6b6457e08280a3005b34610146575f36600319011261014657602060405160058152f35b34610146576040366003190112610146576102b46104ec565b602435908115158092036101465760207f3213ab8ec2ed122402f038736b41878b69ae9f61f49a7edd0666bce891d29fc9916102ee61061e565b60018060a01b031692835f526002825260405f2060ff1981541660ff8316179055604051908152a2005b34610146576020366003190112610146576103316104ec565b335f52600260205261034960ff60405f20541661051d565b60018060a01b0316805f5260016020525f5160206106455f395f51905f5260ff60405f205416606460ff61037e600284610569565b16106103c757825f52600160205260405f20606460ff198254161790555b5f8381526001602090815260409182902054825160ff9485168152931690830152819081015b0390a2005b6103d2600282610569565b835f52600160205260ff60405f20911660ff1982541617905561039c565b34610146576020366003190112610146576104096104ec565b335f52600260205261042160ff60405f20541661051d565b6001600160a01b03165f8181526001602052604090205460ff1660058111610484575f828152600160209081526040808320805460ff19169055805160ff9094168452908301919091525f5160206106455f395f51905f529190819081016103c2565b60041981019060ff82116104bf575f5160206106455f395f51905f5291835f52600160205260ff60405f20911660ff1982541617905561039c565b634e487b7160e01b5f52601160045260245ffd5b34610146575f3660031901126101465780600260209252f35b600435906001600160a01b038216820361014657565b34610146575f36600319011261014657602060405160018152f35b1561052457565b60405162461bcd60e51b815260206004820152601a60248201527f4e6f7420616e20617574686f72697a656420636f6e74726163740000000000006044820152606490fd5b9060ff8091169116019060ff82116104bf57565b60018060a01b0316805f5260016020525f5160206106455f395f51905f5260ff60405f205416606460ff6105b2600184610569565b16106105f557825f52600160205260405f20606460ff198254161790555b5f8381526001602090815260409182902054825160ff948516815293169083015290a2565b610600600182610569565b835f52600160205260ff60405f20911660ff198254161790556105d0565b5f546001600160a01b0316330361063157565b63118cdaa760e01b5f523360045260245ffdfe7f7fd872ba3bc458143afb3ffe4aa312415cf687a1c870dd06bfb55ca3f33eaaa2646970667358221220020a82d40cee960d41e45e4df4a886de7f5bd8fa293958e43db207149a89b8f464736f6c634300081c0033",
  "linkReferences": {},
  "deployedLinkReferences": {},
  "immutableReferences": {},
  "inputSourceName": "project/contracts/TrustScore.sol",
  "buildInfoId": "solc-0_8_28-0e9c4b897040a61f36c9c85d767a00f0aa749d2d"
}