{
  "_format": "hh3-artifact-1",
  "contractName": "BetFactory",
  "sourceName": "contracts/BetFactory.sol",
  "abi": [
    {
      "inputs": [
        {
          "internalType": "address",
          "name": "_trustScore",
          "type": "address"
        },
        {
          "internalType": "address",
          "name": "_usdcToken",
          "type": "address"
        },
        {
          "internalType": "address",
          "name": "_proofToken",
          "type": "address"
        },
        {
          "internalType": "address",
          "name": "_feeCollector",
          "type": "address"
        },
        {
          "internalType": "uint256",
          "name": "_creationFeeProof",
          "type": "uint256"
        },
        {
          "internalType": "uint256",
          "name": "_initialVoteStakeAmountProof",
          "type": "uint256"
        },
        {
          "internalType": "uint256",
          "name": "_maxActiveBets",
          "type": "uint256"
        }
      ],
      "stateMutability": "nonpayable",
      "type": "constructor"
    },
    {
      "inputs": [
        {
          "internalType": "address",
          "name": "owner",
          "type": "address"
        }
      ],
      "name": "OwnableInvalidOwner",
      "type": "error"
    },
    {
      "inputs": [
        {
          "internalType": "address",
          "name": "account",
          "type": "address"
        }
      ],
      "name": "OwnableUnauthorizedAccount",
      "type": "error"
    },
    {
      "inputs": [],
      "name": "ReentrancyGuardReentrantCall",
      "type": "error"
    },
    {
      "anonymous": false,
      "inputs": [
        {
          "indexed": true,
          "internalType": "address",
          "name": "betAddress",
          "type": "address"
        },
        {
          "indexed": true,
          "internalType": "address",
          "name": "creator",
          "type": "address"
        },
        {
          "indexed": false,
          "internalType": "string",
          "name": "title",
          "type": "string"
        }
      ],
      "name": "BetCreated",
      "type": "event"
    },
    {
      "anonymous": false,
      "inputs": [
        {
          "indexed": false,
          "internalType": "uint8",
          "name": "oldPercentage",
          "type": "uint8"
        },
        {
          "indexed": false,
          "internalType": "uint8",
          "name": "newPercentage",
          "type": "uint8"
        }
      ],
      "name": "DefaultPlatformFeeChanged",
      "type": "event"
    },
    {
      "anonymous": false,
      "inputs": [
        {
          "indexed": false,
          "internalType": "uint8",
          "name": "oldPercentage",
          "type": "uint8"
        },
        {
          "indexed": false,
          "internalType": "uint8",
          "name": "newPercentage",
          "type": "uint8"
        }
      ],
      "name": "DefaultVoterRewardChanged",
      "type": "event"
    },
    {
      "anonymous": false,
      "inputs": [
        {
          "indexed": true,
          "internalType": "address",
          "name": "payer",
          "type": "address"
        },
        {
          "indexed": false,
          "internalType": "uint256",
          "name": "totalFee",
          "type": "uint256"
        },
        {
          "indexed": false,
          "internalType": "uint256",
          "name": "burnAmount",
          "type": "uint256"
        },
        {
          "indexed": false,
          "internalType": "uint256",
          "name": "keepAmount",
          "type": "uint256"
        }
      ],
      "name": "FeeProcessed",
      "type": "event"
    },
    {
      "anonymous": false,
      "inputs": [
        {
          "indexed": true,
          "internalType": "address",
          "name": "from",
          "type": "address"
        },
        {
          "indexed": true,
          "internalType": "address",
          "name": "to",
          "type": "address"
        },
        {
          "indexed": false,
          "internalType": "uint256",
          "name": "usdcAmount",
          "type": "uint256"
        },
        {
          "indexed": false,
          "internalType": "uint256",
          "name": "proofAmount",
          "type": "uint256"
        },
        {
          "indexed": false,
          "internalType": "string",
          "name": "reason",
          "type": "string"
        }
      ],
      "name": "InternalTransfer",
      "type": "event"
    },
    {
      "anonymous": false,
      "inputs": [
        {
          "indexed": false,
          "internalType": "uint256",
          "name": "oldLimit",
          "type": "uint256"
        },
        {
          "indexed": false,
          "internalType": "uint256",
          "name": "newLimit",
          "type": "uint256"
        }
      ],
      "name": "MaxActiveBetsChanged",
      "type": "event"
    },
    {
      "anonymous": false,
      "inputs": [
        {
          "indexed": true,
          "internalType": "address",
          "name": "previousOwner",
          "type": "address"
        },
        {
          "indexed": true,
          "internalType": "address",
          "name": "newOwner",
          "type": "address"
        }
      ],
      "name": "OwnershipTransferred",
      "type": "event"
    },
    {
      "anonymous": false,
      "inputs": [
        {
          "indexed": true,
          "internalType": "address",
          "name": "user",
          "type": "address"
        },
        {
          "indexed": false,
          "internalType": "uint256",
          "name": "amount",
          "type": "uint256"
        }
      ],
      "name": "ProofDeposited",
      "type": "event"
    },
    {
      "anonymous": false,
      "inputs": [
        {
          "indexed": true,
          "internalType": "address",
          "name": "user",
          "type": "address"
        },
        {
          "indexed": false,
          "internalType": "uint256",
          "name": "amount",
          "type": "uint256"
        }
      ],
      "name": "ProofWithdrawn",
      "type": "event"
    },
    {
      "anonymous": false,
      "inputs": [
        {
          "indexed": true,
          "internalType": "address",
          "name": "user",
          "type": "address"
        },
        {
          "indexed": false,
          "internalType": "uint256",
          "name": "amount",
          "type": "uint256"
        }
      ],
      "name": "UsdcDeposited",
      "type": "event"
    },
    {
      "anonymous": false,
      "inputs": [
        {
          "indexed": true,
          "internalType": "address",
          "name": "user",
          "type": "address"
        },
        {
          "indexed": false,
          "internalType": "uint256",
          "name": "amount",
          "type": "uint256"
        }
      ],
      "name": "UsdcWithdrawn",
      "type": "event"
    },
    {
      "anonymous": false,
      "inputs": [
        {
          "indexed": false,
          "internalType": "uint256",
          "name": "oldAmount",
          "type": "uint256"
        },
        {
          "indexed": false,
          "internalType": "uint256",
          "name": "newAmount",
          "type": "uint256"
        }
      ],
      "name": "VoteStakeAmountChanged",
      "type": "event"
    },
    {
      "inputs": [
        {
          "internalType": "address",
          "name": "",
          "type": "address"
        }
      ],
      "name": "activeBetsCount",
      "outputs": [
        {
          "internalType": "uint256",
          "name": "",
          "type": "uint256"
        }
      ],
      "stateMutability": "view",
      "type": "function"
    },
    {
      "inputs": [
        {
          "internalType": "uint256",
          "name": "",
          "type": "uint256"
        }
      ],
      "name": "allBets",
      "outputs": [
        {
          "internalType": "address",
          "name": "",
          "type": "address"
        }
      ],
      "stateMutability": "view",
      "type": "function"
    },
    {
      "inputs": [
        {
          "components": [
            {
              "internalType": "string",
              "name": "title",
              "type": "string"
            },
            {
              "internalType": "string",
              "name": "description",
              "type": "string"
            },
            {
              "internalType": "uint256",
              "name": "bettingDeadline",
              "type": "uint256"
            },
            {
              "internalType": "uint256",
              "name": "proofDeadline",
              "type": "uint256"
            },
            {
              "internalType": "uint256",
              "name": "votingDeadline",
              "type": "uint256"
            },
            {
              "internalType": "uint256",
              "name": "minimumBetAmount",
              "type": "uint256"
            },
            {
              "internalType": "uint256",
              "name": "minimumSideStake",
              "type": "uint256"
            },
            {
              "internalType": "uint8",
              "name": "minimumTrustScore",
              "type": "uint8"
            },
            {
              "internalType": "uint256",
              "name": "minimumVotes",
              "type": "uint256"
            }
          ],
          "internalType": "struct Bet.BetDetails",
          "name": "_details",
          "type": "tuple"
        }
      ],
      "name": "createBet",
      "outputs": [
        {
          "internalType": "address",
          "name": "",
          "type": "address"
        }
      ],
      "stateMutability": "nonpayable",
      "type": "function"
    },
    {
      "inputs": [],
      "name": "creationFeeProof",
      "outputs": [
        {
          "internalType": "uint256",
          "name": "",
          "type": "uint256"
        }
      ],
      "stateMutability": "view",
      "type": "function"
    },
    {
      "inputs": [],
      "name": "defaultPlatformFeePercentage",
      "outputs": [
        {
          "internalType": "uint8",
          "name": "",
          "type": "uint8"
        }
      ],
      "stateMutability": "view",
      "type": "function"
    },
    {
      "inputs": [],
      "name": "defaultVoterRewardPercentage",
      "outputs": [
        {
          "internalType": "uint8",
          "name": "",
          "type": "uint8"
        }
      ],
      "stateMutability": "view",
      "type": "function"
    },
    {
      "inputs": [
        {
          "internalType": "uint256",
          "name": "_amount",
          "type": "uint256"
        }
      ],
      "name": "depositProof",
      "outputs": [],
      "stateMutability": "nonpayable",
      "type": "function"
    },
    {
      "inputs": [
        {
          "internalType": "uint256",
          "name": "_amount",
          "type": "uint256"
        }
      ],
      "name": "depositUsdc",
      "outputs": [],
      "stateMutability": "nonpayable",
      "type": "function"
    },
    {
      "inputs": [
        {
          "internalType": "address",
          "name": "creator",
          "type": "address"
        }
      ],
      "name": "factoryLogBetCompletion",
      "outputs": [],
      "stateMutability": "nonpayable",
      "type": "function"
    },
    {
      "inputs": [
        {
          "internalType": "address",
          "name": "participant",
          "type": "address"
        }
      ],
      "name": "factoryLogBetParticipation",
      "outputs": [],
      "stateMutability": "nonpayable",
      "type": "function"
    },
    {
      "inputs": [
        {
          "internalType": "address",
          "name": "voter",
          "type": "address"
        }
      ],
      "name": "factoryLogVote",
      "outputs": [],
      "stateMutability": "nonpayable",
      "type": "function"
    },
    {
      "inputs": [],
      "name": "feeCollector",
      "outputs": [
        {
          "internalType": "address",
          "name": "",
          "type": "address"
        }
      ],
      "stateMutability": "view",
      "type": "function"
    },
    {
      "inputs": [],
      "name": "getBets",
      "outputs": [
        {
          "internalType": "address[]",
          "name": "",
          "type": "address[]"
        }
      ],
      "stateMutability": "view",
      "type": "function"
    },
    {
      "inputs": [
        {
          "internalType": "address",
          "name": "_user",
          "type": "address"
        }
      ],
      "name": "getInternalBalances",
      "outputs": [
        {
          "internalType": "uint256",
          "name": "usdcBalance",
          "type": "uint256"
        },
        {
          "internalType": "uint256",
          "name": "proofBalance",
          "type": "uint256"
        }
      ],
      "stateMutability": "view",
      "type": "function"
    },
    {
      "inputs": [
        {
          "internalType": "address",
          "name": "",
          "type": "address"
        }
      ],
      "name": "internalProofBalance",
      "outputs": [
        {
          "internalType": "uint256",
          "name": "",
          "type": "uint256"
        }
      ],
      "stateMutability": "view",
      "type": "function"
    },
    {
      "inputs": [
        {
          "internalType": "address",
          "name": "",
          "type": "address"
        }
      ],
      "name": "internalUsdcBalance",
      "outputs": [
        {
          "internalType": "uint256",
          "name": "",
          "type": "uint256"
        }
      ],
      "stateMutability": "view",
      "type": "function"
    },
    {
      "inputs": [
        {
          "internalType": "address",
          "name": "",
          "type": "address"
        }
      ],
      "name": "isBetFromFactory",
      "outputs": [
        {
          "internalType": "bool",
          "name": "",
          "type": "bool"
        }
      ],
      "stateMutability": "view",
      "type": "function"
    },
    {
      "inputs": [],
      "name": "maxActiveBetsPerUser",
      "outputs": [
        {
          "internalType": "uint256",
          "name": "",
          "type": "uint256"
        }
      ],
      "stateMutability": "view",
      "type": "function"
    },
    {
      "inputs": [],
      "name": "owner",
      "outputs": [
        {
          "internalType": "address",
          "name": "",
          "type": "address"
        }
      ],
      "stateMutability": "view",
      "type": "function"
    },
    {
      "inputs": [],
      "name": "proofToken",
      "outputs": [
        {
          "internalType": "contract ProofToken",
          "name": "",
          "type": "address"
        }
      ],
      "stateMutability": "view",
      "type": "function"
    },
    {
      "inputs": [],
      "name": "renounceOwnership",
      "outputs": [],
      "stateMutability": "nonpayable",
      "type": "function"
    },
    {
      "inputs": [
        {
          "internalType": "uint256",
          "name": "_newFee",
          "type": "uint256"
        }
      ],
      "name": "setCreationFee",
      "outputs": [],
      "stateMutability": "nonpayable",
      "type": "function"
    },
    {
      "inputs": [
        {
          "internalType": "uint8",
          "name": "_percentage",
          "type": "uint8"
        }
      ],
      "name": "setDefaultPlatformFeePercentage",
      "outputs": [],
      "stateMutability": "nonpayable",
      "type": "function"
    },
    {
      "inputs": [
        {
          "internalType": "uint8",
          "name": "_percentage",
          "type": "uint8"
        }
      ],
      "name": "setDefaultVoterRewardPercentage",
      "outputs": [],
      "stateMutability": "nonpayable",
      "type": "function"
    },
    {
      "inputs": [
        {
          "internalType": "address",
          "name": "_newCollector",
          "type": "address"
        }
      ],
      "name": "setFeeCollector",
      "outputs": [],
      "stateMutability": "nonpayable",
      "type": "function"
    },
    {
      "inputs": [
        {
          "internalType": "uint256",
          "name": "_limit",
          "type": "uint256"
        }
      ],
      "name": "setMaxActiveBetsPerUser",
      "outputs": [],
      "stateMutability": "nonpayable",
      "type": "function"
    },
    {
      "inputs": [
        {
          "internalType": "uint256",
          "name": "_amount",
          "type": "uint256"
        }
      ],
      "name": "setVoteStakeAmount",
      "outputs": [],
      "stateMutability": "nonpayable",
      "type": "function"
    },
    {
      "inputs": [
        {
          "internalType": "address",
          "name": "_from",
          "type": "address"
        },
        {
          "internalType": "address",
          "name": "_to",
          "type": "address"
        },
        {
          "internalType": "uint256",
          "name": "_amount",
          "type": "uint256"
        },
        {
          "internalType": "string",
          "name": "_reason",
          "type": "string"
        }
      ],
      "name": "transferInternalProof",
      "outputs": [],
      "stateMutability": "nonpayable",
      "type": "function"
    },
    {
      "inputs": [
        {
          "internalType": "address",
          "name": "_from",
          "type": "address"
        },
        {
          "internalType": "address",
          "name": "_to",
          "type": "address"
        },
        {
          "internalType": "uint256",
          "name": "_amount",
          "type": "uint256"
        },
        {
          "internalType": "string",
          "name": "_reason",
          "type": "string"
        }
      ],
      "name": "transferInternalUsdc",
      "outputs": [],
      "stateMutability": "nonpayable",
      "type": "function"
    },
    {
      "inputs": [
        {
          "internalType": "address",
          "name": "newOwner",
          "type": "address"
        }
      ],
      "name": "transferOwnership",
      "outputs": [],
      "stateMutability": "nonpayable",
      "type": "function"
    },
    {
      "inputs": [],
      "name": "trustScoreContract",
      "outputs": [
        {
          "internalType": "contract TrustScore",
          "name": "",
          "type": "address"
        }
      ],
      "stateMutability": "view",
      "type": "function"
    },
    {
      "inputs": [],
      "name": "usdcToken",
      "outputs": [
        {
          "internalType": "contract IERC20",
          "name": "",
          "type": "address"
        }
      ],
      "stateMutability": "view",
      "type": "function"
    },
    {
      "inputs": [],
      "name": "voteStakeAmountProof",
      "outputs": [
        {
          "internalType": "uint256",
          "name": "",
          "type": "uint256"
        }
      ],
      "stateMutability": "view",
      "type": "function"
    },
    {
      "inputs": [
        {
          "internalType": "uint256",
          "name": "_amount",
          "type": "uint256"
        }
      ],
      "name": "withdrawProof",
      "outputs": [],
      "stateMutability": "nonpayable",
      "type": "function"
    },
    {
      "inputs": [
        {
          "internalType": "uint256",
          "name": "_amount",
          "type": "uint256"
        }
      ],
      "name": "withdrawUsdc",
      "outputs": [],
      "stateMutability": "nonpayable",
      "type": "function"
    }
  ],
  "bytecode": "0x6080346101b457601f6149ef38819003918201601f19168301916001600160401b038311848410176101b85780849260e0946040528339810103126101b457610047816101cc565b90610054602082016101cc565b610060604083016101cc565b61006c606084016101cc565b9060808401519260c060a08601519501519533156101a1575f8054336001600160a01b03198216811783556040519290916001600160a01b0316907f8be0079c531659141344cd1fd0a4f28419497f9722a3daafe3b4186f6b6457e09080a360018055861561014d5750600280546001600160a01b03199081166001600160a01b039384161790915560038054821693831693909317909255600480548316938216939093179092556005805490911692909116919091179055600a55600b55600d55600c805461ffff191661030517905560405161480e90816101e18239f35b62461bcd60e51b815260206004820152602960248201527f496e697469616c20766f7465207374616b65206d75737420626520677265617460448201526806572207468616e20360bc1b6064820152608490fd5b631e4fbdf760e01b5f525f60045260245ffd5b5f80fd5b634e487b7160e01b5f52604160045260245ffd5b51906001600160a01b03821682036101b45756fe60806040526004361015610011575f80fd5b5f5f3560e01c806306aac6d914611564578063077779e4146114d05780630e94a0ee146114a757806311eac8551461147e57806314f8d2c3146113b25780631bf89247146113685780631c46a5d11461134a5780631ee86ed5146112795780631fa48820146111b25780632357928e146110ed57806325bfd7d9146110b45780632e9cbc37146110125780632ff7a1fa14610ff15780634367413114610fcd57806349b202f214610f8e5780634f927dfd14610ecb578063528e81ef14610e925780635b06dece14610d9b578063715018a614610d415780637ce1755314610c3d5780638341c82914610c1f5780638a26c4de14610be65780638da5cb5b14610bbf57806397bcebb4146106045780639b148baa14610532578063a42dce80146104ed578063a6afd5fd14610425578063b7d8622514610402578063c19b52d914610383578063c415b95c1461035a578063c961dbae146102ae578063dc7831fd14610285578063e0ced0e114610241578063f2fde38b146101bb5763fb707f1f1461019b575f80fd5b346101b857806003193601126101b8576020600b54604051908152f35b80fd5b50346101b85760203660031901126101b8576101d5611600565b6101dd611a09565b6001600160a01b0316801561022d5781546001600160a01b03198116821783556001600160a01b03167f8be0079c531659141344cd1fd0a4f28419497f9722a3daafe3b4186f6b6457e08380a380f35b631e4fbdf760e01b82526004829052602482fd5b50346101b85760203660031901126101b857600435906006548210156101b857602061026c8361172e565b905460405160039290921b1c6001600160a01b03168152f35b50346101b857806003193601126101b8576002546040516001600160a01b039091168152602090f35b50346101b85760203660031901126101b8576004356102cb611a09565b801561030b5760407f7038fd5f31cb6799163d0ca95acbbb2b209576b1833f1915e5be0a9f6eb49b4491600b549080600b5582519182526020820152a180f35b60405162461bcd60e51b815260206004820152602160248201527f566f7465207374616b65206d7573742062652067726561746572207468616e206044820152600360fc1b6064820152608490fd5b50346101b857806003193601126101b8576005546040516001600160a01b039091168152602090f35b50346101b85760203660031901126101b85761039d611600565b33825260076020526103b560ff60408420541661175a565b6001600160a01b0316808252600e60205260408220546103d3575080f35b8152600e60205260408120805480156103ee575f1901905580f35b634e487b7160e01b83526011600452602483fd5b50346101b85760203660031901126101b85761041c611a09565b600435600a5580f35b50346101b857806003193601126101b85760405180602060065491828152018091600685527ff652222313e28459528d920b65115c16c04f3efc82aaedc97be59f3f377c0d3f90855b8181106104ce57505050826104849103836116a2565b604051928392602084019060208552518091526040840192915b8181106104ac575050500390f35b82516001600160a01b031684528594506020938401939092019160010161049e565b82546001600160a01b031684526020909301926001928301920161046e565b50346101b85760203660031901126101b857610507611600565b61050f611a09565b60018060a01b03166bffffffffffffffffffffffff60a01b600554161760055580f35b50346101b8576105fe7fd65318ec9967b019cd6c9e0b2f5866a86edea54d64ac9a1c5cb52db0c51c273b61056536611616565b929493959095338852600760205261058360ff60408a2054166117b1565b60018060a01b03169485885260086020526105a48360408a2054101561198e565b8588526008602052604088206105bb848254611855565b905560018060a01b0316958688526008602052604088206105dd848254611876565b90556040519384938452886020850152606060408501526060840191611883565b0390a380f35b50346101b85760203660031901126101b85760043567ffffffffffffffff8111610a08576101206003198236030112610a085760405190610120820182811067ffffffffffffffff821117610a2057604052806004013567ffffffffffffffff8111610bbb5761067a90600436918401016116d8565b8252602481013567ffffffffffffffff8111610bbb576106a090600436918401016116d8565b906020830191825260408301906044810135825260608401926064820135845260808501916084810135835260a086019060a4810135825260c087019060c4810135825260e48101359060ff82168203610bb75760e089019182526101046101008a019101358152338a52600960205260408a2054610724600a54809210156117fd565b338b52600e60205260408b2054600d541115610b7357338b52600960205261075160408c20918254611855565b9055600a5460018060a01b0360045416604051632b852f2560e01b8152602081600481855afa908115610ad5578d91610b3d575b50808302908382041483151715610b29576107a560648e92048094611855565b9183610ae0575b50819081610a55575b5050600a5491604051928352602083015260408201527f2445fb79a5a4a2bac1a965d4d13b4e827f051f2d6fc972fad3b399041e5a8b4560603392a26002546003546004546005546040519b6001600160a01b039182169a612d89808f019b9484169a958416999690931697959493909267ffffffffffffffff8c118f8d1017610a3f57928f928f9e9d9c9a9896938f936108768d60c09f9d9b9861088a946102009160ff9c99611a50903960e08352519161012060e082015201906119e5565b90518d820360df19016101008f01526119e5565b9d516101208c0152516101408b0152516101608a015251610180890152516101a088015251166101c0860152516101e08501523360208501523060408501526060840152608083015260a08201520152039083f08015610a345760018060a01b03169060065468010000000000000000811015610a2057806001610911920160065561172e565b81546001600160a01b0360039290921b91821b19169084901b179055818352600760209081526040808520805460ff19166001179055338552600e909152832080545f198114610a0c57600101905560025483906001600160a01b0316803b15610a0857819060246040518094819363393f530f60e01b83523360048401525af180156109fd576109e4575b6020838351817f9fad859b21dc8b04ac5bbdd3cfd18a2215799015dc9f0488bc0acd8817d76d63604051858152806109d93395888301906119e5565b0390a3604051908152f35b6109ef8480926116a2565b6109f9578261099d565b8280fd5b6040513d86823e3d90fd5b5080fd5b634e487b7160e01b85526011600452602485fd5b634e487b7160e01b84526041600452602484fd5b6040513d84823e3d90fd5b5050634e487b7160e01b8f52604160045260248ffd5b6004805460055460405163a9059cbb60e01b81526001600160a01b0391821693810193909352602483019490945290926020928492604492849291165af18015610ad557610aa6575b50808c6107b5565b610ac79060203d602011610ace575b610abf81836116a2565b8101906118ef565b505f610a9e565b503d610ab5565b6040513d8f823e3d90fd5b803b15610a0857818091602460405180948193630852cd8d60e31b83528960048401525af18015610a3457156107ac5781610b1a916116a2565b610b25578b5f6107ac565b8b80fd5b634e487b7160e01b8d52601160045260248dfd5b90506020813d602011610b6b575b81610b58602093836116a2565b81010312610b6757515f610785565b8c80fd5b3d9150610b4b565b606460405162461bcd60e51b815260206004820152602060248201527f43726561746f722068617320746f6f206d616e792061637469766520626574736044820152fd5b8980fd5b8380fd5b50346101b857806003193601126101b857546040516001600160a01b039091168152602090f35b50346101b85760203660031901126101b8576020906040906001600160a01b03610c0e611600565b168152600e83522054604051908152f35b50346101b857806003193601126101b8576020600d54604051908152f35b50346101b85760203660031901126101b857600435610c5a611a2f565b610c658115156118a3565b3382526009602052610c7d81604084205410156117fd565b338252600960205260408220610c94828254611855565b90556004805460405163a9059cbb60e01b81523392810192909252602482018390526020908290604490829087906001600160a01b03165af18015610d3657610ce4918491610d17575b50611907565b6040519081527f4bf38f9736a5ce4bdb7feae20f2d2b06453cb6546f6b135b6b17acc4eb40166760203392a26001805580f35b610d30915060203d602011610ace57610abf81836116a2565b5f610cde565b6040513d85823e3d90fd5b50346101b857806003193601126101b857610d5a611a09565b80546001600160a01b03198116825581906001600160a01b03167f8be0079c531659141344cd1fd0a4f28419497f9722a3daafe3b4186f6b6457e08280a380f35b50346101b85760203660031901126101b857600435610db8611a2f565b610dc38115156118a3565b3382526008602052610ddb816040842054101561198e565b338252600860205260408220610df2828254611855565b905560035460405163a9059cbb60e01b815233600482015260248101839052906020908290604490829087906001600160a01b03165af18015610d3657610e40918491610e73575b5061194b565b6040519081527f0d1589f631deb2542273b007140b132a18d48a4303d103fe64d353db07e01b5760203392a26001805580f35b610e8c915060203d602011610ace57610abf81836116a2565b5f610e3a565b50346101b85760203660031901126101b8576020906040906001600160a01b03610eba611600565b168152600983522054604051908152f35b50346101b85760203660031901126101b857610ee5611692565b610eed611a09565b60ff81169060328211610f4957600c805460ff19811690931790556040805160ff93841681529190921660208201527f23544ae90129bcc75de3e8f5f3300261a16bd084afbf41bd26cac1f2365b305591819081015b0390a180f35b60405162461bcd60e51b815260206004820152601e60248201527f566f746572207265776172642063616e6e6f74206578636565642035302500006044820152606490fd5b50346101b85760203660031901126101b85760209060ff906040906001600160a01b03610fb9611600565b168152600784522054166040519015158152f35b50346101b857806003193601126101b857602060ff600c5460081c16604051908152f35b50346101b857806003193601126101b857602060ff600c5416604051908152f35b50346101b85760203660031901126101b85760043561102f611a09565b801561106f5760407f25c1c85e83cba392025ae48f325ef9bd15b683a7ad29251a107354cb1068ae6391600d549080600d5582519182526020820152a180f35b60405162461bcd60e51b815260206004820152601c60248201527f4c696d6974206d7573742062652067726561746572207468616e2030000000006044820152606490fd5b50346101b85760203660031901126101b8576020906040906001600160a01b036110dc611600565b168152600883522054604051908152f35b50346101b85760203660031901126101b85760043561110a611a2f565b6111158115156118a3565b6003546040516323b872dd60e01b815233600482015230602482015260448101839052906020908290606490829087906001600160a01b03165af18015610d3657611166918491610e73575061194b565b33825260086020526040822061117d828254611876565b90556040519081527f36e229bdaedfa85d503535ae31c3ac9e40d88f1ab4fa53870ef2da82df48e99060203392a26001805580f35b50346101b85760203660031901126101b8576004356111cf611a2f565b6111da8115156118a3565b600480546040516323b872dd60e01b81523392810192909252306024830152604482018390526020908290606490829087906001600160a01b03165af18015610d365761122d918491610d175750611907565b338252600960205260408220611244828254611876565b90556040519081527fa4ddd265c8016cfa57813894be0f8a41c7dfa594c82404375abadf2ffc33607c60203392a26001805580f35b50346101b85760203660031901126101b857611293611692565b61129b611a09565b603260ff8216116113055760ff7f285d424463e6f2d8b27eb851e42ce326e42daff7d6c17735b05f02baf329aaa591610f43600c549161ff008160081b1661ff0019841617600c5560405193849360081c168390929160ff60209181604085019616845216910152565b60405162461bcd60e51b815260206004820152601e60248201527f506c6174666f726d206665652063616e6e6f74206578636565642035302500006044820152606490fd5b50346101b857806003193601126101b8576020600a54604051908152f35b50346101b85760203660031901126101b857604090816001600160a01b0361138e611600565b16918281526008602052818120549281526009602052205482519182526020820152f35b50346101b8576105fe7fd65318ec9967b019cd6c9e0b2f5866a86edea54d64ac9a1c5cb52db0c51c273b6113e536611616565b929493959095338852600760205261140360ff60408a2054166117b1565b60018060a01b03169485885260096020526114248360408a205410156117fd565b85885260096020526040882061143b848254611855565b905560018060a01b03169586885260096020526040882061145d848254611876565b90556040519384938985526020850152606060408501526060840191611883565b50346101b857806003193601126101b8576003546040516001600160a01b039091168152602090f35b50346101b857806003193601126101b8576004546040516001600160a01b039091168152602090f35b50346101b85760203660031901126101b857806114eb611600565b338252600760205261150360ff60408420541661175a565b6002546001600160a01b031690813b1561156057604051633e852f6560e01b81526001600160a01b0390911660048201529082908290602490829084905af18015610a345761154f5750f35b81611559916116a2565b6101b85780f35b5050fd5b50346115fc5760203660031901126115fc5761157e611600565b335f52600760205261159660ff60405f20541661175a565b6002546001600160a01b031690813b156115fc5760405163a971fb2360e01b81526001600160a01b039091166004820152905f908290602490829084905af180156115f1576115e3575080f35b6115ef91505f906116a2565b005b6040513d5f823e3d90fd5b5f80fd5b600435906001600160a01b03821682036115fc57565b60806003198201126115fc576004356001600160a01b03811681036115fc57916024356001600160a01b03811681036115fc57916044359160643567ffffffffffffffff81116115fc57826023820112156115fc5780600401359267ffffffffffffffff84116115fc57602484830101116115fc576024019190565b6004359060ff821682036115fc57565b90601f8019910116810190811067ffffffffffffffff8211176116c457604052565b634e487b7160e01b5f52604160045260245ffd5b81601f820112156115fc5780359067ffffffffffffffff82116116c4576040519261170d601f8401601f1916602001856116a2565b828452602083830101116115fc57815f926020809301838601378301015290565b6006548110156117465760065f5260205f2001905f90565b634e487b7160e01b5f52603260045260245ffd5b1561176157565b60405162461bcd60e51b815260206004820152602260248201527f43616c6c6572206973206e6f7420612076616c69642042657420636f6e74726160448201526118dd60f21b6064820152608490fd5b156117b857565b60405162461bcd60e51b815260206004820152601f60248201527f4f6e6c7920666163746f727920626574732063616e2063616c6c2074686973006044820152606490fd5b1561180457565b60405162461bcd60e51b815260206004820152602360248201527f496e73756666696369656e7420696e7465726e616c2050524f4f462062616c616044820152626e636560e81b6064820152608490fd5b9190820391821161186257565b634e487b7160e01b5f52601160045260245ffd5b9190820180921161186257565b908060209392818452848401375f828201840152601f01601f1916010190565b156118aa57565b60405162461bcd60e51b815260206004820152601d60248201527f416d6f756e74206d7573742062652067726561746572207468616e20300000006044820152606490fd5b908160209103126115fc575180151581036115fc5790565b1561190e57565b60405162461bcd60e51b8152602060048201526015602482015274141493d3d1881d1c985b9cd9995c8819985a5b1959605a1b6044820152606490fd5b1561195257565b60405162461bcd60e51b81526020600482015260146024820152731554d110c81d1c985b9cd9995c8819985a5b195960621b6044820152606490fd5b1561199557565b60405162461bcd60e51b815260206004820152602260248201527f496e73756666696369656e7420696e7465726e616c20555344432062616c616e604482015261636560f01b6064820152608490fd5b805180835260209291819084018484015e5f828201840152601f01601f1916010190565b5f546001600160a01b03163303611a1c57565b63118cdaa760e01b5f523360045260245ffd5b600260015414611a40576002600155565b633ee5aeb560e01b5f5260045ffdfe6080604052346104e557612d8980380380610019816104e9565b92833981019060e0818303126104e55780516001600160401b0381116104e5578101610120818403126104e5576040519261012084016001600160401b038111858210176103e85760405281516001600160401b0381116104e5578161008091840161050e565b84526020820151906001600160401b0382116104e5576100a191830161050e565b906020840191825260408101519060408501918252606081015190606086019182526080810151906080870191825260a08101519060a0880191825260c081015160c0890190815260e08201519160ff831683036104e55760e08a019283526101000151926101008a019384526020890161011b9061055f565b9461012860408b0161055f565b9661013560608c0161055f565b9861014260808d0161055f565b9a61014f60a08e0161055f565b9c60c00161015c9061055f565b60015f559d518051906001600160401b0382116103e85760015490600182811c921680156104db575b60208310146103ca5781601f84931161046d575b50602090601f8311600114610407575f926103fc575b50508160011b915f199060031b1c1916176001555b518051906001600160401b0382116103e857600254600181811c911680156103de575b60208210146103ca57601f8111610367575b50602090601f83116001146102fa5760ff98979695949392915f91836102ef575b50508160011b915f199060031b1c1916176002555b5160035551600455516005555160065551600755516008805460ff1990811693909216929092179091559051600955600a80546001600160a01b03199081166001600160a01b0394851617909155600b8054821694841694909417909355600c8054841694831694909417909355600d8054831694821694909417909355600e8054821694841694909417909355600f805490931693909116929092179055601e805490911690555f601781905560185560405161281590816105748239f35b015190505f8061021a565b90601f1983169160025f52815f20925f5b81811061034f575091600193918560ff9c9b9a999897969410610337575b505050811b0160025561022f565b01515f1960f88460031b161c191690555f8080610329565b9293602060018192878601518155019501930161030b565b60025f527f405787fa12a823e0f2b7631cc41b3ba8828b3321ca811111fa75cd3aa3bb5ace601f840160051c810191602085106103c0575b601f0160051c01905b8181106103b557506101f9565b5f81556001016103a8565b909150819061039f565b634e487b7160e01b5f52602260045260245ffd5b90607f16906101e7565b634e487b7160e01b5f52604160045260245ffd5b015190505f806101af565b60015f9081528281209350601f198516905b818110610455575090846001959493921061043d575b505050811b016001556101c4565b01515f1960f88460031b161c191690555f808061042f565b92936020600181928786015181550195019301610419565b60015f529091507fb10e2d527612073b26eecdfd717e6a320cf44b4afac2b0732d9fcbe2b7fa0cf6601f840160051c810191602085106104d1575b90601f859493920160051c01905b8181106104c35750610199565b5f81558493506001016104b6565b90915081906104a8565b91607f1691610185565b5f80fd5b6040519190601f01601f191682016001600160401b038111838210176103e857604052565b81601f820112156104e5578051906001600160401b0382116103e85761053d601f8301601f19166020016104e9565b92828452602083830101116104e557815f9260208093018386015e8301015290565b51906001600160a01b03821682036104e55756fe6080806040526004361015610012575f80fd5b5f905f3560e01c9081630208d811146123435750806302d05d3f1461231b57806307ea56db146122e857806309e69ede146122905780630d15fd77146122735780630e94a0ee1461224b57806311eac8551461222357806324600fc314611fff5780632c2e8faf14611c8e5780632d336a9714611c5f5780632e1a961814611c36578063362f04c014611c18578063565974d314611b8857806363a3914114611a9d5780636f95b3f314611a775780638a2fd02914611946578063aec2ccae14611904578063b3f98adc1461144e578063b401faf1146110cf578063b4fb3ee31461108d578063b5545a3c14610ef0578063b5b47f4214610ed2578063c415b95c14610ea9578063ccc8279514610e8b578063cfe7b77014610de1578063d4249dce14610da4578063d6d2023814610c7f578063d72edbf214610aa9578063d8bff5a514610a64578063dc7831fd14610a3b578063dcb3b30e14610619578063e41356f314610250578063ef8a923514610210578063fb04521b146101f2578063fb286c65146101d45763fbf06338146101aa575f80fd5b346101d157806003193601126101d157602060ff601454166101cf60405180926125da565bf35b80fd5b50346101d157806003193601126101d1576020601554604051908152f35b50346101d157806003193601126101d1576020601254604051908152f35b50346101d157806003193601126101d15760ff601e541660405190600581101561023c57602092508152f35b634e487b7160e01b83526021600452602483fd5b50346101d157806003193601126101d157610269612781565b60ff601e541660058110156106055780600361028e92149081156105fa575b506125e7565b338152601d60205260ff604082205416156105c657338152601b60205260408120541561058d57808190338352601b6020526040832054338452601b60205283604081205560ff601e541660058110156105795760030361057257338452601c60205260ff6040852054169060ff6014541691600383101561055e57600381101561055e57821461048b575b50505b806103fd575b81610361575b60405191825260208201527ffbc3a599b784fe88772fc5abcc07223f64ca0b13acc341f4fb1e46bef0510eb460403392a26001815580f35b600b5483906001600160a01b0316803b156103f95781809160c460405180948193634d8a45d560e11b835230600484015233602484015289604484015260806064840152600c60848401526b159bdd195c881c995dd85c9960a21b60a48401525af180156103ee576103d5575b5050610329565b816103df916123c6565b6103ea57825f6103ce565b8280fd5b6040513d84823e3d90fd5b5080fd5b600b5483906001600160a01b0316803b156103f95781809160c4604051809481936314f8d2c360e01b83523060048401523360248401528860448401526080606484015260116084840152702b37ba329039ba30b5b2903932ba3ab93760791b60a48401525af180156103ee57610476575b5050610323565b81610480916123c6565b6103ea57825f61046f565b9091509061049e601054601154906126d4565b600b546040516317fbd0fd60e11b815290602090829060049082906001600160a01b03165afa80156105535760019260ff6104e5926064948a91610524575b501690612743565b04910361051b57601554905b80151580610512575b1561031a5761050a929350612756565b905f8061031a565b508115156104fa565b601654906104f1565b610546915060203d60201161054c575b61053e81836123c6565b810190612663565b5f6104dd565b503d610534565b6040513d88823e3d90fd5b634e487b7160e01b86526021600452602486fd5b905061031d565b634e487b7160e01b85526021600452602485fd5b60405162461bcd60e51b81526020600482015260116024820152704e6f207374616b6520746f20636c61696d60781b6044820152606490fd5b60405162461bcd60e51b815260206004820152600c60248201526b446964206e6f7420766f746560a01b6044820152606490fd5b60049150145f610288565b634e487b7160e01b82526021600452602482fd5b50346101d15760403660031901126101d15760043560038110156103f957602435610642612781565b60ff601e54166005811015610a275761065b9015612626565b6003544210156109ed5782600183148080156109e0575b156109a85760065483106109705760ff6008541680610900575b50600b5460408051631bf8924760e01b81523360048201526001600160a01b03909216919081602481855afa80156108f557859188916108c5575b5010610875578086913b156103f95781809160c460405180948193634d8a45d560e11b83523360048401523060248401528a604484015260806064840152600d60848401526c10995d081c1b1858d95b595b9d609a1b60a48401525af180156103ee5761085c575b5050338552601960205260ff60408620541615610832575b338552601a6020526040852091610579571561080e576107688282546126d4565b9055610776816010546126d4565b6010555b600b5483906001600160a01b0316803b156103f9578180916024604051809481936301ddde7960e21b83523360048401525af180156103ee576107f9575b50506107c760405180936125da565b60208201527f9f6b4cced64244a64465098f682029975b1614400b96bc6bd12c66808371916660403392a26001815580f35b81610803916123c6565b6103ea57825f6107b8565b60010161081c8282546126d4565b905561082a816011546126d4565b60115561077a565b338552601960205260408520600160ff198254161790556108546017546126f5565b601755610747565b81610866916123c6565b61087157845f61072f565b8480fd5b60405162461bcd60e51b815260206004820152602260248201527f496e73756666696369656e7420696e7465726e616c20555344432062616c616e604482015261636560f01b6064820152608490fd5b6108e7915060403d6040116108ee575b6108df81836123c6565b8101906126be565b505f6106c7565b503d6108d5565b6040513d89823e3d90fd5b600c54604051630d47875d60e41b81523360048201529190602090839060249082906001600160a01b03165afa9182156108f55761094b9260ff918991610951575b5016101561267c565b5f61068c565b61096a915060203d60201161054c5761053e81836123c6565b5f610942565b60405162461bcd60e51b815260206004820152601060248201526f5374616b6520697320746f6f206c6f7760801b6044820152606490fd5b60405162461bcd60e51b815260206004820152601060248201526f24b73b30b634b2103837b9b4ba34b7b760811b6044820152606490fd5b5084915060028414610672565b60405162461bcd60e51b815260206004820152601260248201527110995d1d1a5b99c81a185cc818db1bdcd95960721b6044820152606490fd5b634e487b7160e01b84526021600452602484fd5b50346101d157806003193601126101d157600c546040516001600160a01b039091168152602090f35b50346101d15760203660031901126101d1576004356001600160a01b038116908190036103f95760408260ff9260209452601c84522054166101cf60405180926125da565b50346101d157806003193601126101d15760ff601e541660058110156106055760021480610c73575b610ad95780f35b6018546009541115610b9c57610af7600460ff19601e541617601e55565b5f5160206127a05f395f51905f52606060405160208152601960208201527f496e73756666696369656e74207075626c696320766f746573000000000000006040820152a15b600b54600a5482916001600160a01b039081169116813b15610b9857829160248392604051948593849263c19b52d960e01b845260048401525af180156103ee57610b8757505080f35b81610b91916123c6565b6101d15780f35b5050fd5b60155460165480821115610c07575050600160ff196014541617601455610bcb600360ff19601e541617601e55565b7fd6bcd4b6873d691163f1aff2d5585378623aef08e17513a5253eabe39c65dc50602060ff60145416610c0160405180926125da565ba1610b3d565b1115610c2c57600260ff196014541617601455610bcb600360ff19601e541617601e55565b610c3e600460ff19601e541617601e55565b5f5160206127a05f395f51905f526060604051602081526008602082015267566f74652074696560c01b6040820152a1610b3d565b50600554421015610ad2565b50346101d157806003193601126101d15760ff601e54166005811015610605571580610d98575b610cad5780f35b601054600754809110159081610d8b575b5015610cd457600160ff19601e541617601e5580f35b610ce6600460ff19601e541617601e55565b600b54600a5482916001600160a01b039081169116813b15610b9857829160248392604051948593849263c19b52d960e01b845260048401525af180156103ee57610d76575b50505f5160206127a05f395f51905f52606060405160208152601a60208201527f4d696e696d756d2073696465207374616b65206e6f74206d65740000000000006040820152a180f35b81610d80916123c6565b6101d157805f610d2c565b905060115410155f610cbe565b50600354421015610ca6565b50346101d15760203660031901126101d1576004356001600160a01b038116908190036103f9578160409160209352601b83522054604051908152f35b50346101d157806003193601126101d15760105461014060115460035492610e7a60045491600554936017549460185494610e1a61248c565b98610e23612521565b93610e53610e2f6123e8565b95610e456040519d8d8f9e8f90815201906125b6565b8c810360208e0152906125b6565b9560408b015260608a0152608089015260a088015260c087015285820360e08701526125b6565b916101008401526101208301520390f35b50346101d157806003193601126101d1576020601154604051908152f35b50346101d157806003193601126101d157600f546040516001600160a01b039091168152602090f35b50346101d157806003193601126101d1576020601654604051908152f35b50346101d157806003193601126101d157610f09612781565b60ff601e541660058110156106055760040361105457338152601a6020526040812060028101610f4f815492610f4260ff851615612703565b60018154910154906126d4565b91821561101a5760ff19166001179055600b5482906001600160a01b0316803b156103f95781809160c460405180948193634d8a45d560e11b835230600484015233602484015288604484015260806064840152600a60848401526910995d081c99599d5b9960b21b60a48401525af180156103ee57611005575b50506040519081528160208201527ffbc3a599b784fe88772fc5abcc07223f64ca0b13acc341f4fb1e46bef0510eb460403392a26001815580f35b8161100f916123c6565b6103f957815f610fca565b60405162461bcd60e51b8152602060048201526012602482015271139bc81cdd185ad9481d1bc81c99599d5b9960721b6044820152606490fd5b60405162461bcd60e51b815260206004820152601160248201527010995d081b9bdd0818d85b98d95b1b1959607a1b6044820152606490fd5b50346101d15760203660031901126101d1576004356001600160a01b038116908190036103f95760408260ff9260209452601984522054166040519015158152f35b50346101d157806003193601126101d1576110e8612781565b60ff601e54166005811015610605576003036114155760145460ff8160081c16156113d057338252601a6020526040822090600282019081549061112f60ff831615612703565b60ff85911693600385101594856113bc576001811492831561139c57505054905b811561135757601054906011549061116882846126d4565b600b546040516317fbd0fd60e11b815291908a906001600160a01b0316602084600481845afa80156103ee5760646111b060ff602093600498879161133a575b501686612743565b049160405195868092634367413160e01b82525afa80156103ee576111e960ff6064926111f5976111f0969161131b575b501685612743565b0492612774565b612774565b9661130757156112ff5750905b8594826112de575b50505060ff1916600117905580611255575b6040519081528160208201527ffbc3a599b784fe88772fc5abcc07223f64ca0b13acc341f4fb1e46bef0510eb460403392a26001815580f35b600b5482906001600160a01b0316803b156103f95781809160c460405180948193634d8a45d560e11b835230600484015233602484015288604484015260806064840152600c60848401526b4265742077696e6e696e677360a01b60a48401525af180156103ee576112c9575b505061121c565b816112d3916123c6565b6103f957815f6112c2565b60019395506112f692916112f191612743565b612756565b92905f8061120a565b905090611202565b634e487b7160e01b88526021600452602488fd5b611334915060203d60201161054c5761053e81836123c6565b5f6111e1565b6113519150853d871161054c5761053e81836123c6565b5f6111a8565b60405162461bcd60e51b815260206004820152601860248201527f4e6f7420612077696e6e6572206f72206e6f207374616b6500000000000000006044820152606490fd5b8796509291906002146113b0575b50611150565b6001015491505f6113aa565b634e487b7160e01b87526021600452602487fd5b60405162461bcd60e51b815260206004820152601c60248201527f57696e6e696e6773206e6f7420796574206469737472696275746564000000006044820152606490fd5b60405162461bcd60e51b815260206004820152601160248201527010995d081b9bdd0818dbdb5c1b195d1959607a1b6044820152606490fd5b50346101d15760203660031901126101d1576004356003811080156103ea57611475612781565b60ff601e54166005811015610a275760026114909114612626565b6005544210156118cb5760018214838180156118bf575b1561188b57338552601a60205260408520541580611874575b1561183957338552601d60205260ff60408620541661180457600c54604051630d47875d60e41b815233600482015290602090829060249082906001600160a01b03165afa8015610553576115279187916117e5575b5060ff80600854169116101561267c565b600b5460405163fb707f1f60e01b815293906001600160a01b0316602085600481845afa9485156108f55787956117ad575b5060408051631bf8924760e01b81523360048201529081602481855afa80156117a25786918991611781575b5010611730578087913b156103f95781809160c4604051809481936314f8d2c360e01b83523360048401523060248401528b604484015260806064840152600a608484015269566f7465207374616b6560b01b60a48401525af180156103ee57611717575b5050338652601d60205260408620600160ff19825416179055338652601c60205260408620901561055e5760ff1981541660ff8616179055338552601b602052604085206116398482546126d4565b9055611647836012546126d4565b6012556116556018546126f5565b601855610a2757156117045761166c6015546126f5565b6015555b600b5483906001600160a01b0316803b156103f9578180916024604051809481936306aac6d960e01b83523360048401525af180156103ee576116ef575b50506116bd60405180936125da565b60208201527fd9d9fd0caa964abf9540e87552b03d0f6f1427c14e4d23c647cc9f24efc0848860403392a26001815580f35b816116f9916123c6565b6103ea57825f6116ae565b61170f6016546126f5565b601655611670565b81611721916123c6565b61172c57855f6115ea565b8580fd5b60405162461bcd60e51b815260206004820152602360248201527f496e73756666696369656e7420696e7465726e616c2050524f4f462062616c616044820152626e636560e81b6064820152608490fd5b61179a915060403d6040116108ee576108df81836123c6565b90505f611585565b6040513d8a823e3d90fd5b9094506020813d6020116117dd575b816117c9602093836123c6565b810103126117d95751935f611559565b8680fd5b3d91506117bc565b6117fe915060203d60201161054c5761053e81836123c6565b5f611516565b60405162461bcd60e51b815260206004820152600d60248201526c105b1c9958591e481d9bdd1959609a1b6044820152606490fd5b60405162461bcd60e51b8152602060048201526013602482015272426574746f72732063616e6e6f7420766f746560681b6044820152606490fd5b50338552601a6020526001604086200154156114c0565b60405162461bcd60e51b815260206004820152600c60248201526b496e76616c696420766f746560a01b6044820152606490fd5b505083600284146114a7565b60405162461bcd60e51b8152602060048201526011602482015270159bdd1a5b99c81a185cc818db1bdcd959607a1b6044820152606490fd5b50346101d15760203660031901126101d1576004356001600160a01b038116908190036103f95760408260ff9260209452601d84522054166040519015158152f35b50346101d157806003193601126101d15761010060405161196681612395565b60608152606060208201528260408201528260608201528260808201528260a08201528260c08201528260e0820152015261012060206040516119a881612395565b6119b061248c565b81526119ba612521565b9082810191825260ff600354926040830193845260045460608401908152600554608085019081526006549060a086019182526007549260c08701938452611a4586600854169560e08901968752611a326009549961010081019a8b526040519d8d8f9e928f938452519201526101408d01906125b6565b90518b8203601f190160408d01526125b6565b975160608a01525160808901525160a08801525160c08701525160e08601525116610100840152516101208301520390f35b50346101d157806003193601126101d157602060ff60145460081c166040519015158152f35b50346101d157806003193601126101d15760ff601e541660058110156106055760011480611b7c575b611acd5780f35b611adf600460ff19601e541617601e55565b600b54600a5482916001600160a01b039081169116813b15610b9857829160248392604051948593849263c19b52d960e01b845260048401525af180156103ee57611b67575b50505f5160206127a05f395f51905f526060604051602081526015602082015274141c9bdbd988191958591b1a5b99481b5a5cdcd959605a1b6040820152a180f35b81611b71916123c6565b6101d157805f611b25565b50600454421015611ac6565b50346101d157806003193601126101d157611be1611ba461248c565b611bac612521565b600354906004546005546006546007549160ff6008541693611bef600954966040519a8b9a6101208c526101208c01906125b6565b908a820360208c01526125b6565b9660408901526060880152608087015260a086015260c085015260e08401526101008301520390f35b50346101d157806003193601126101d1576020601754604051908152f35b50346101d157806003193601126101d157600b546040516001600160a01b039091168152602090f35b50346101d157806003193601126101d15760606015546016546012549060405192835260208301526040820152f35b50346101d15760203660031901126101d1576004359067ffffffffffffffff82116101d157366023830112156101d157816004013567ffffffffffffffff8111611edb5760405192611cea601f8301601f1916602001856123c6565b81845236602483830101116103ea578183926024602093018387013784010152600a546001600160a01b03163303611fcc5760ff601e54166005811015610605576001611d379114612626565b6003544210611f7857600454421015611f3457815115611eef5781519167ffffffffffffffff8311611edb57611d6e60135461235d565b601f8111611e73575b50602092601f8111600114611e0757829381929391611dfc575b508160011b915f199060031b1c1916176013555b600260ff19601e541617601e557f227d17811e582357665ee6ee281ef8528946951eab558c87afaf102464d6cc56611df660018060a01b03600a5416926040519182916020835260208301906125b6565b0390a280f35b90508201515f611d91565b60138352601f198116935f5160206127c05f395f51905f5290845b868110611e5b575082600194959610611e43575b5050811b01601355611da5565b8401515f1960f88460031b161c191690555f80611e36565b90916020600181928588015181550193019101611e22565b60138352601f840160051c5f5160206127c05f395f51905f52019060208510611ec6575b601f0160051c5f5160206127c05f395f51905f5201905b818110611ebb5750611d77565b838155600101611eae565b5f5160206127c05f395f51905f529150611e97565b634e487b7160e01b82526041600452602482fd5b60405162461bcd60e51b815260206004820152601960248201527f50726f6f662055524c2063616e6e6f7420626520656d707479000000000000006044820152606490fd5b606460405162461bcd60e51b815260206004820152602060248201527f50726f6f66207375626d697373696f6e20646561646c696e65207061737365646044820152fd5b60405162461bcd60e51b815260206004820152602660248201527f42657474696e67206d75737420626520636c6f73656420746f207375626d697460448201526510383937b7b360d11b6064820152608490fd5b60405162461bcd60e51b815260206004820152600b60248201526a2737ba1031b932b0ba37b960a91b6044820152606490fd5b5034612160575f36600319011261216057612018612781565b60ff601e5416600581101590816121ba576003811480918115612213575b50612040906125e7565b6014549160ff8360081c166121ce576121ba57156121a9575061010061ff00196014541617601455612077601054601154906126d4565b801561216457600b54604051634367413160e01b81526001600160a01b0390911691602082600481865afa9081156121555760ff6120c0926064945f9161052457501690612743565b04806120d1575b50505b6001815580f35b600f546001600160a01b031690823b156121605760c45f92836040519586948593634d8a45d560e11b85523060048601526024850152604484015260806064840152600c60848401526b506c6174666f726d2066656560a01b60a48401525af1801561215557612142575b806120c7565b61214e91505f906123c6565b5f5f61213c565b6040513d5f823e3d90fd5b5f80fd5b60405162461bcd60e51b815260206004820152601760248201527f4e6f207374616b657320746f20646973747269627574650000000000000000006044820152606490fd5b61ff001916610100176014556120ca565b634e487b7160e01b5f52602160045260245ffd5b60405162461bcd60e51b815260206004820152601f60248201527f46756e647320616c7265616479206265696e67206469737472696275746564006044820152606490fd5b5f93506004149050612040612036565b34612160575f36600319011261216057600d546040516001600160a01b039091168152602090f35b34612160575f36600319011261216057600e546040516001600160a01b039091168152602090f35b34612160575f366003190112612160576020601854604051908152f35b34612160576020366003190112612160576004356001600160a01b03811690819003612160575f52601a602052606060405f2080549060ff600260018301549201541690604051928352602083015215156040820152f35b34612160575f366003190112612160576123176123036123e8565b6040519182916020835260208301906125b6565b0390f35b34612160575f36600319011261216057600a546040516001600160a01b039091168152602090f35b34612160575f366003190112612160576020906010548152f35b90600182811c9216801561238b575b602083101461237757565b634e487b7160e01b5f52602260045260245ffd5b91607f169161236c565b610120810190811067ffffffffffffffff8211176123b257604052565b634e487b7160e01b5f52604160045260245ffd5b90601f8019910116810190811067ffffffffffffffff8211176123b257604052565b604051905f82601354916123fb8361235d565b808352926001811690811561246d5750600114612421575b61241f925003836123c6565b565b5060135f90815290915f5160206127c05f395f51905f525b81831061245157505090602061241f92820101612413565b6020919350806001915483858901015201910190918492612439565b6020925061241f94915060ff191682840152151560051b820101612413565b604051905f826001549161249f8361235d565b808352926001811690811561246d57506001146124c25761241f925003836123c6565b5060015f90815290917fb10e2d527612073b26eecdfd717e6a320cf44b4afac2b0732d9fcbe2b7fa0cf65b81831061250557505090602061241f92820101612413565b60209193508060019154838589010152019101909184926124ed565b604051905f82600254916125348361235d565b808352926001811690811561246d57506001146125575761241f925003836123c6565b5060025f90815290917f405787fa12a823e0f2b7631cc41b3ba8828b3321ca811111fa75cd3aa3bb5ace5b81831061259a57505090602061241f92820101612413565b6020919350806001915483858901015201910190918492612582565b805180835260209291819084018484015e5f828201840152601f01601f1916010190565b9060038210156121ba5752565b156125ee57565b60405162461bcd60e51b815260206004820152601060248201526f10995d081b9bdd08199a5b9a5cda195960821b6044820152606490fd5b1561262d57565b60405162461bcd60e51b815260206004820152600e60248201526d496e76616c69642073746174757360901b6044820152606490fd5b90816020910312612160575160ff811681036121605790565b1561268357565b60405162461bcd60e51b815260206004820152601360248201527254727573742073636f726520746f6f206c6f7760681b6044820152606490fd5b9190826040910312612160576020825192015190565b919082018092116126e157565b634e487b7160e01b5f52601160045260245ffd5b5f1981146126e15760010190565b1561270a57565b60405162461bcd60e51b815260206004820152601160248201527020b63932b0b23c903bb4ba34323930bbb760791b6044820152606490fd5b818102929181159184041417156126e157565b8115612760570490565b634e487b7160e01b5f52601260045260245ffd5b919082039182116126e157565b60025f54146127905760025f55565b633ee5aeb560e01b5f5260045ffdfe3ddcc849954303c379ec7b5fc775e4075525c655f439ae3564d02ae1c1feda6c66de8ffda797e3de9c05e8fc57b3bf0ec28a930d40b0d285d93c06501cf6a090a264697066735822122037f21ef10b433b20ab7f44f006b74d3d9f29b89f93cec074b9382d945ca25e3664736f6c634300081c0033a2646970667358221220076d129beb5e1da8de9a764289464f5b5038882f2239ce7e750c808e1c0e605864736f6c634300081c0033",
  "linkReferences": {},
  "deployedLinkReferences": {},
  "immutableReferences": {},
  "inputSourceName": "project/contracts/BetFactory.sol",
  "buildInfoId": "solc-0_8_28-ef9f50073626981baf185d40ac8e1c5a451a0405"
}