{
  "_format": "hh3-artifact-1",
  "contractName": "ProofToken",
  "sourceName": "contracts/ProofToken.sol",
  "abi": [
    {
      "inputs": [],
      "stateMutability": "nonpayable",
      "type": "constructor"
    },
    {
      "inputs": [
        {
          "internalType": "address",
          "name": "spender",
          "type": "address"
        },
        {
          "internalType": "uint256",
          "name": "allowance",
          "type": "uint256"
        },
        {
          "internalType": "uint256",
          "name": "needed",
          "type": "uint256"
        }
      ],
      "name": "ERC20InsufficientAllowance",
      "type": "error"
    },
    {
      "inputs": [
        {
          "internalType": "address",
          "name": "sender",
          "type": "address"
        },
        {
          "internalType": "uint256",
          "name": "balance",
          "type": "uint256"
        },
        {
          "internalType": "uint256",
          "name": "needed",
          "type": "uint256"
        }
      ],
      "name": "ERC20InsufficientBalance",
      "type": "error"
    },
    {
      "inputs": [
        {
          "internalType": "address",
          "name": "approver",
          "type": "address"
        }
      ],
      "name": "ERC20InvalidApprover",
      "type": "error"
    },
    {
      "inputs": [
        {
          "internalType": "address",
          "name": "receiver",
          "type": "address"
        }
      ],
      "name": "ERC20InvalidReceiver",
      "type": "error"
    },
    {
      "inputs": [
        {
          "internalType": "address",
          "name": "sender",
          "type": "address"
        }
      ],
      "name": "ERC20InvalidSender",
      "type": "error"
    },
    {
      "inputs": [
        {
          "internalType": "address",
          "name": "spender",
          "type": "address"
        }
      ],
      "name": "ERC20InvalidSpender",
      "type": "error"
    },
    {
      "inputs": [
        {
          "internalType": "address",
          "name": "owner",
          "type": "address"
        }
      ],
      "name": "OwnableInvalidOwner",
      "type": "error"
    },
    {
      "inputs": [
        {
          "internalType": "address",
          "name": "account",
          "type": "address"
        }
      ],
      "name": "OwnableUnauthorizedAccount",
      "type": "error"
    },
    {
      "anonymous": false,
      "inputs": [
        {
          "indexed": true,
          "internalType": "address",
          "name": "owner",
          "type": "address"
        },
        {
          "indexed": true,
          "internalType": "address",
          "name": "spender",
          "type": "address"
        },
        {
          "indexed": false,
          "internalType": "uint256",
          "name": "value",
          "type": "uint256"
        }
      ],
      "name": "Approval",
      "type": "event"
    },
    {
      "anonymous": false,
      "inputs": [
        {
          "indexed": false,
          "internalType": "uint256",
          "name": "oldRate",
          "type": "uint256"
        },
        {
          "indexed": false,
          "internalType": "uint256",
          "name": "newRate",
          "type": "uint256"
        }
      ],
      "name": "BurnRateChanged",
      "type": "event"
    },
    {
      "anonymous": false,
      "inputs": [
        {
          "indexed": true,
          "internalType": "address",
          "name": "burner",
          "type": "address"
        },
        {
          "indexed": false,
          "internalType": "bool",
          "name": "authorized",
          "type": "bool"
        }
      ],
      "name": "BurnerAuthorized",
      "type": "event"
    },
    {
      "anonymous": false,
      "inputs": [
        {
          "indexed": true,
          "internalType": "address",
          "name": "to",
          "type": "address"
        },
        {
          "indexed": false,
          "internalType": "uint256",
          "name": "amount",
          "type": "uint256"
        },
        {
          "indexed": false,
          "internalType": "uint256",
          "name": "year",
          "type": "uint256"
        }
      ],
      "name": "InflationMinted",
      "type": "event"
    },
    {
      "anonymous": false,
      "inputs": [
        {
          "indexed": false,
          "internalType": "uint256",
          "name": "oldRate",
          "type": "uint256"
        },
        {
          "indexed": false,
          "internalType": "uint256",
          "name": "newRate",
          "type": "uint256"
        }
      ],
      "name": "InflationRateChanged",
      "type": "event"
    },
    {
      "anonymous": false,
      "inputs": [
        {
          "indexed": true,
          "internalType": "address",
          "name": "previousOwner",
          "type": "address"
        },
        {
          "indexed": true,
          "internalType": "address",
          "name": "newOwner",
          "type": "address"
        }
      ],
      "name": "OwnershipTransferred",
      "type": "event"
    },
    {
      "anonymous": false,
      "inputs": [
        {
          "indexed": true,
          "internalType": "address",
          "name": "from",
          "type": "address"
        },
        {
          "indexed": false,
          "internalType": "uint256",
          "name": "amount",
          "type": "uint256"
        },
        {
          "indexed": false,
          "internalType": "string",
          "name": "reason",
          "type": "string"
        }
      ],
      "name": "TokensBurned",
      "type": "event"
    },
    {
      "anonymous": false,
      "inputs": [
        {
          "indexed": true,
          "internalType": "address",
          "name": "from",
          "type": "address"
        },
        {
          "indexed": true,
          "internalType": "address",
          "name": "to",
          "type": "address"
        },
        {
          "indexed": false,
          "internalType": "uint256",
          "name": "value",
          "type": "uint256"
        }
      ],
      "name": "Transfer",
      "type": "event"
    },
    {
      "inputs": [],
      "name": "MAX_SUPPLY",
      "outputs": [
        {
          "internalType": "uint256",
          "name": "",
          "type": "uint256"
        }
      ],
      "stateMutability": "view",
      "type": "function"
    },
    {
      "inputs": [
        {
          "internalType": "address",
          "name": "owner",
          "type": "address"
        },
        {
          "internalType": "address",
          "name": "spender",
          "type": "address"
        }
      ],
      "name": "allowance",
      "outputs": [
        {
          "internalType": "uint256",
          "name": "",
          "type": "uint256"
        }
      ],
      "stateMutability": "view",
      "type": "function"
    },
    {
      "inputs": [],
      "name": "annualInflationRate",
      "outputs": [
        {
          "internalType": "uint256",
          "name": "",
          "type": "uint256"
        }
      ],
      "stateMutability": "view",
      "type": "function"
    },
    {
      "inputs": [
        {
          "internalType": "address",
          "name": "spender",
          "type": "address"
        },
        {
          "internalType": "uint256",
          "name": "value",
          "type": "uint256"
        }
      ],
      "name": "approve",
      "outputs": [
        {
          "internalType": "bool",
          "name": "",
          "type": "bool"
        }
      ],
      "stateMutability": "nonpayable",
      "type": "function"
    },
    {
      "inputs": [
        {
          "internalType": "address",
          "name": "burner",
          "type": "address"
        },
        {
          "internalType": "bool",
          "name": "authorized",
          "type": "bool"
        }
      ],
      "name": "authorizeBurner",
      "outputs": [],
      "stateMutability": "nonpayable",
      "type": "function"
    },
    {
      "inputs": [
        {
          "internalType": "address",
          "name": "",
          "type": "address"
        }
      ],
      "name": "authorizedBurners",
      "outputs": [
        {
          "internalType": "bool",
          "name": "",
          "type": "bool"
        }
      ],
      "stateMutability": "view",
      "type": "function"
    },
    {
      "inputs": [
        {
          "internalType": "address",
          "name": "account",
          "type": "address"
        }
      ],
      "name": "balanceOf",
      "outputs": [
        {
          "internalType": "uint256",
          "name": "",
          "type": "uint256"
        }
      ],
      "stateMutability": "view",
      "type": "function"
    },
    {
      "inputs": [
        {
          "internalType": "uint256",
          "name": "amount",
          "type": "uint256"
        }
      ],
      "name": "burn",
      "outputs": [],
      "stateMutability": "nonpayable",
      "type": "function"
    },
    {
      "inputs": [
        {
          "internalType": "address",
          "name": "sender",
          "type": "address"
        },
        {
          "internalType": "uint256",
          "name": "totalFeeAmount",
          "type": "uint256"
        }
      ],
      "name": "burnFromFees",
      "outputs": [
        {
          "internalType": "uint256",
          "name": "burnAmount",
          "type": "uint256"
        },
        {
          "internalType": "uint256",
          "name": "keepAmount",
          "type": "uint256"
        }
      ],
      "stateMutability": "nonpayable",
      "type": "function"
    },
    {
      "inputs": [],
      "name": "canMintInflation",
      "outputs": [
        {
          "internalType": "bool",
          "name": "",
          "type": "bool"
        }
      ],
      "stateMutability": "view",
      "type": "function"
    },
    {
      "inputs": [],
      "name": "decimals",
      "outputs": [
        {
          "internalType": "uint8",
          "name": "",
          "type": "uint8"
        }
      ],
      "stateMutability": "view",
      "type": "function"
    },
    {
      "inputs": [],
      "name": "feeBurnPercentage",
      "outputs": [
        {
          "internalType": "uint256",
          "name": "",
          "type": "uint256"
        }
      ],
      "stateMutability": "view",
      "type": "function"
    },
    {
      "inputs": [],
      "name": "getCurrentYear",
      "outputs": [
        {
          "internalType": "uint256",
          "name": "",
          "type": "uint256"
        }
      ],
      "stateMutability": "view",
      "type": "function"
    },
    {
      "inputs": [],
      "name": "getTokenomics",
      "outputs": [
        {
          "internalType": "uint256",
          "name": "currentSupply",
          "type": "uint256"
        },
        {
          "internalType": "uint256",
          "name": "maxSupply",
          "type": "uint256"
        },
        {
          "internalType": "uint256",
          "name": "burned",
          "type": "uint256"
        },
        {
          "internalType": "uint256",
          "name": "mintedFromInflation",
          "type": "uint256"
        },
        {
          "internalType": "uint256",
          "name": "inflationRate",
          "type": "uint256"
        },
        {
          "internalType": "uint256",
          "name": "burnRate",
          "type": "uint256"
        }
      ],
      "stateMutability": "view",
      "type": "function"
    },
    {
      "inputs": [],
      "name": "lastInflationMint",
      "outputs": [
        {
          "internalType": "uint256",
          "name": "",
          "type": "uint256"
        }
      ],
      "stateMutability": "view",
      "type": "function"
    },
    {
      "inputs": [
        {
          "internalType": "address",
          "name": "recipient",
          "type": "address"
        }
      ],
      "name": "mintInflation",
      "outputs": [
        {
          "internalType": "uint256",
          "name": "",
          "type": "uint256"
        }
      ],
      "stateMutability": "nonpayable",
      "type": "function"
    },
    {
      "inputs": [],
      "name": "name",
      "outputs": [
        {
          "internalType": "string",
          "name": "",
          "type": "string"
        }
      ],
      "stateMutability": "view",
      "type": "function"
    },
    {
      "inputs": [],
      "name": "owner",
      "outputs": [
        {
          "internalType": "address",
          "name": "",
          "type": "address"
        }
      ],
      "stateMutability": "view",
      "type": "function"
    },
    {
      "inputs": [],
      "name": "renounceOwnership",
      "outputs": [],
      "stateMutability": "nonpayable",
      "type": "function"
    },
    {
      "inputs": [
        {
          "internalType": "uint256",
          "name": "_rate",
          "type": "uint256"
        }
      ],
      "name": "setBurnRate",
      "outputs": [],
      "stateMutability": "nonpayable",
      "type": "function"
    },
    {
      "inputs": [
        {
          "internalType": "uint256",
          "name": "_rate",
          "type": "uint256"
        }
      ],
      "name": "setInflationRate",
      "outputs": [],
      "stateMutability": "nonpayable",
      "type": "function"
    },
    {
      "inputs": [],
      "name": "symbol",
      "outputs": [
        {
          "internalType": "string",
          "name": "",
          "type": "string"
        }
      ],
      "stateMutability": "view",
      "type": "function"
    },
    {
      "inputs": [],
      "name": "totalBurned",
      "outputs": [
        {
          "internalType": "uint256",
          "name": "",
          "type": "uint256"
        }
      ],
      "stateMutability": "view",
      "type": "function"
    },
    {
      "inputs": [],
      "name": "totalMintedFromInflation",
      "outputs": [
        {
          "internalType": "uint256",
          "name": "",
          "type": "uint256"
        }
      ],
      "stateMutability": "view",
      "type": "function"
    },
    {
      "inputs": [],
      "name": "totalSupply",
      "outputs": [
        {
          "internalType": "uint256",
          "name": "",
          "type": "uint256"
        }
      ],
      "stateMutability": "view",
      "type": "function"
    },
    {
      "inputs": [
        {
          "internalType": "address",
          "name": "to",
          "type": "address"
        },
        {
          "internalType": "uint256",
          "name": "value",
          "type": "uint256"
        }
      ],
      "name": "transfer",
      "outputs": [
        {
          "internalType": "bool",
          "name": "",
          "type": "bool"
        }
      ],
      "stateMutability": "nonpayable",
      "type": "function"
    },
    {
      "inputs": [
        {
          "internalType": "address",
          "name": "from",
          "type": "address"
        },
        {
          "internalType": "address",
          "name": "to",
          "type": "address"
        },
        {
          "internalType": "uint256",
          "name": "value",
          "type": "uint256"
        }
      ],
      "name": "transferFrom",
      "outputs": [
        {
          "internalType": "bool",
          "name": "",
          "type": "bool"
        }
      ],
      "stateMutability": "nonpayable",
      "type": "function"
    },
    {
      "inputs": [
        {
          "internalType": "address",
          "name": "newOwner",
          "type": "address"
        }
      ],
      "name": "transferOwnership",
      "outputs": [],
      "stateMutability": "nonpayable",
      "type": "function"
    }
  ],
  "bytecode": "0x60806040523461040557604080519081016001600160401b03811182821017610318576040908152600e82526d283937b7b32132ba102a37b5b2b760911b602083015280519081016001600160401b03811182821017610318576040526005815264282927a7a360d91b602082015281516001600160401b03811161031857600354600181811c911680156103fb575b60208210146102fa57601f8111610398575b50602092601f821160011461033757928192935f9261032c575b50508160011b915f199060031b1c1916176003555b80516001600160401b03811161031857600454600181811c9116801561030e575b60208210146102fa57601f8111610297575b50602091601f8211600114610237579181925f9261022c575b50508160011b915f199060031b1c1916176004555b33156102195760058054336001600160a01b0319821681179092556001600160a01b03167f8be0079c531659141344cd1fd0a4f28419497f9722a3daafe3b4186f6b6457e05f80a3600560065560326007556002546a52b7d2dcc80cd2e4000000810180911161020557600255335f525f60205260405f206a52b7d2dcc80cd2e400000081540190556040516a52b7d2dcc80cd2e400000081525f7fddf252ad1be2c89b69c2b068fc378daa952ba7f163c4a11628f55a4df523b3ef60203393a34260085560405161100b908161040a8239f35b634e487b7160e01b5f52601160045260245ffd5b631e4fbdf760e01b5f525f60045260245ffd5b015190505f8061011c565b601f1982169260045f52805f20915f5b85811061027f57508360019510610267575b505050811b01600455610131565b01515f1960f88460031b161c191690555f8080610259565b91926020600181928685015181550194019201610247565b60045f527f8a35acfbc15ff81a39ae7d344fd709f28e8600b4aa8c65c6b64bfe7fe36bd19b601f830160051c810191602084106102f0575b601f0160051c01905b8181106102e55750610103565b5f81556001016102d8565b90915081906102cf565b634e487b7160e01b5f52602260045260245ffd5b90607f16906100f1565b634e487b7160e01b5f52604160045260245ffd5b015190505f806100bb565b601f1982169360035f52805f20915f5b8681106103805750836001959610610368575b505050811b016003556100d0565b01515f1960f88460031b161c191690555f808061035a565b91926020600181928685015181550194019201610347565b60035f527fc2575a0e9e593c00f959f8c92f12db2869c3395a3b0502d05e2516446f71f85b601f830160051c810191602084106103f1575b601f0160051c01905b8181106103e657506100a1565b5f81556001016103d9565b90915081906103d0565b90607f169061008f565b5f80fdfe6080806040526004361015610012575f80fd5b5f3560e01c90816306fdde0314610d2457508063076f019e14610cf5578063095ea7b314610c7357806318160ddd14610c56578063189d165e14610bbf57806323b872dd14610ae05780632b852f2514610ac35780633117681a14610aa6578063313ce56714610a8b57806332cb6b0c14610a6557806338b544bd14610a4857806342966c68146109cb5780635ee0420a1461080a578063691ca86e1461078d57806370a0823114610756578063715018a6146106fb5780637efdcd7b1461052a5780638da5cb5b1461050257806395d89b41146103e7578063a9059cbb146103b6578063b1551b9514610314578063ce41607a146102f2578063d89135cd146102d5578063dd62ed3e14610285578063ec0cdf6214610248578063ee2923d9146101f7578063f2fde38b146101715763ffe5bd6514610150575f80fd5b3461016d575f36600319011261016d576020600854604051908152f35b5f80fd5b3461016d57602036600319011261016d5761018a610e1d565b610192610e80565b6001600160a01b031680156101e457600580546001600160a01b0319811683179091556001600160a01b03167f8be0079c531659141344cd1fd0a4f28419497f9722a3daafe3b4186f6b6457e05f80a3005b631e4fbdf760e01b5f525f60045260245ffd5b3461016d575f36600319011261016d5760c0600254600954600a5460065490600754926040519485526b033b2e3c9fd0803ce8000000602086015260408501526060840152608083015260a0820152f35b3461016d57602036600319011261016d576001600160a01b03610269610e1d565b165f52600b602052602060ff60405f2054166040519015158152f35b3461016d57604036600319011261016d5761029e610e1d565b6102a6610e33565b6001600160a01b039182165f908152600160209081526040808320949093168252928352819020549051908152f35b3461016d575f36600319011261016d576020600954604051908152f35b3461016d575f36600319011261016d57602061030c610e69565b604051908152f35b3461016d57602036600319011261016d57600435610330610e80565b601481116103715760407fc129fc0a5e776ab2d744d8fb32d6464c21437654017d98f1cdb503bb2f70783191600654908060065582519182526020820152a1005b60405162461bcd60e51b815260206004820152601760248201527f496e666c6174696f6e207261746520746f6f20686967680000000000000000006044820152606490fd5b3461016d57604036600319011261016d576103dc6103d2610e1d565b6024359033610ea7565b602060405160018152f35b3461016d575f36600319011261016d576040515f6004548060011c906001811680156104f8575b6020831081146104e4578285529081156104c85750600114610473575b50819003601f01601f191681019067ffffffffffffffff82118183101761045f5761045b82918260405282610df3565b0390f35b634e487b7160e01b5f52604160045260245ffd5b905060045f527f8a35acfbc15ff81a39ae7d344fd709f28e8600b4aa8c65c6b64bfe7fe36bd19b5f905b8282106104b25750602091508201018261042b565b600181602092548385880101520191019061049d565b90506020925060ff191682840152151560051b8201018261042b565b634e487b7160e01b5f52602260045260245ffd5b91607f169161040e565b3461016d575f36600319011261016d576005546040516001600160a01b039091168152602090f35b3461016d57602036600319011261016d57610543610e1d565b61054b610e80565b6008546301e1338081018091116106e757421061069757600254906b033b2e3c9fd0803ce800000061058c606461058460065486610e56565b048094610e49565b11610652576001600160a01b031690811561063f576020916105b082600254610e49565b600255805f525f835260405f20828154019055805f7fddf252ad1be2c89b69c2b068fc378daa952ba7f163c4a11628f55a4df523b3ef85604051868152a36105fa82600a54610e49565b600a55426008557f48fefcd4bb655820162ad58fe05ebc9c851c2c562092d7cf4a5ca1a2482fb5a3604061062c610e69565b81519085825286820152a2604051908152f35b63ec442f0560e01b5f525f60045260245ffd5b60405162461bcd60e51b815260206004820152601760248201527f576f756c6420657863656564206d617820737570706c790000000000000000006044820152606490fd5b60405162461bcd60e51b815260206004820152602260248201527f496e666c6174696f6e20616c7265616479206d696e746564207468697320796560448201526130b960f11b6064820152608490fd5b634e487b7160e01b5f52601160045260245ffd5b3461016d575f36600319011261016d57610713610e80565b600580546001600160a01b031981169091555f906001600160a01b03167f8be0079c531659141344cd1fd0a4f28419497f9722a3daafe3b4186f6b6457e08280a3005b3461016d57602036600319011261016d576001600160a01b03610777610e1d565b165f525f602052602060405f2054604051908152f35b3461016d57604036600319011261016d576107a6610e1d565b6024359081151580920361016d5760207f820feb1c986b7f5bafd6bfc94f2a065587da0b565ed6fd3a4bcc0a2e71d7a524916107e0610e80565b60018060a01b031692835f52600b825260405f2060ff1981541660ff8316179055604051908152a2005b3461016d57604036600319011261016d57610823610e1d565b60243590335f52600b60205260ff60405f2054161561098d57606461084a60075484610e56565b0490818303908382116106e75760018060a01b03811693845f525f6020528060405f20541061091857838391604096826108b3575b5003610894575b505082519182526020820152f35b6005546108ac926001600160a01b0390911690610ea7565b8381610886565b6108bd8386610f51565b6108c983600954610e49565b6009557ffad31924d655455395c87544c8aa1ffdb5a7505a22a3c2e03f28003b6556a75f608089518581528a602082015260088b820152672332b290313ab93760c11b6060820152a28761087f565b60405162461bcd60e51b815260206004820152604160248201527f50726f6f66546f6b656e3a2053656e64657220646f6573206e6f7420686f6c6460448201527f20656e6f75676820746f6b656e7320666f72206665652070726f63657373696e6064820152606760f81b608482015260a490fd5b60405162461bcd60e51b81526020600482015260166024820152752737ba1030baba3437b934bd32b2103a3790313ab93760511b6044820152606490fd5b3461016d57602036600319011261016d576004356109e98133610f51565b6109f581600954610e49565b60095560405190815260406020820152600b60408201526a26b0b73ab0b610313ab93760a91b60608201527ffad31924d655455395c87544c8aa1ffdb5a7505a22a3c2e03f28003b6556a75f60803392a2005b3461016d575f36600319011261016d576020600654604051908152f35b3461016d575f36600319011261016d5760206040516b033b2e3c9fd0803ce80000008152f35b3461016d575f36600319011261016d57602060405160128152f35b3461016d575f36600319011261016d576020600a54604051908152f35b3461016d575f36600319011261016d576020600754604051908152f35b3461016d57606036600319011261016d57610af9610e1d565b610b01610e33565b6001600160a01b0382165f818152600160209081526040808320338452909152902054909260443592915f198110610b3f575b506103dc9350610ea7565b838110610ba4578415610b91573315610b7e576103dc945f52600160205260405f2060018060a01b0333165f526020528360405f209103905584610b34565b634a1406b160e11b5f525f60045260245ffd5b63e602df0560e01b5f525f60045260245ffd5b8390637dc7a0d960e11b5f523360045260245260445260645ffd5b3461016d57602036600319011261016d57600435610bdb610e80565b60648111610c1c5760407f229952885149023c7b324c7187b4b260b1a8e44dfee2bf619ef6f1296d52706d91600754908060075582519182526020820152a1005b60405162461bcd60e51b8152602060048201526012602482015271084eae4dc40e4c2e8ca40e8dede40d0d2ced60731b6044820152606490fd5b3461016d575f36600319011261016d576020600254604051908152f35b3461016d57604036600319011261016d57610c8c610e1d565b602435903315610b91576001600160a01b0316908115610b7e57335f52600160205260405f20825f526020528060405f20556040519081527f8c5be1e5ebec7d5bd14f71427d1e84f3dd0314c0f7b2291e5b200ac8c7c3b92560203392a3602060405160018152f35b3461016d575f36600319011261016d576008546301e1338081018091116106e757602090604051904210158152f35b3461016d575f36600319011261016d575f6003548060011c90600181168015610de9575b6020831081146104e4578285529081156104c85750600114610d945750819003601f01601f191681019067ffffffffffffffff82118183101761045f5761045b82918260405282610df3565b905060035f527fc2575a0e9e593c00f959f8c92f12db2869c3395a3b0502d05e2516446f71f85b5f905b828210610dd35750602091508201018261042b565b6001816020925483858801015201910190610dbe565b91607f1691610d48565b602060409281835280519182918282860152018484015e5f828201840152601f01601f1916010190565b600435906001600160a01b038216820361016d57565b602435906001600160a01b038216820361016d57565b919082018092116106e757565b818102929181159184041417156106e757565b6301e1338042046107b201806107b2116106e75790565b6005546001600160a01b03163303610e9457565b63118cdaa760e01b5f523360045260245ffd5b6001600160a01b0316908115610f3e576001600160a01b031691821561063f57815f525f60205260405f2054818110610f2557817fddf252ad1be2c89b69c2b068fc378daa952ba7f163c4a11628f55a4df523b3ef92602092855f525f84520360405f2055845f525f825260405f20818154019055604051908152a3565b8263391434e360e21b5f5260045260245260445260645ffd5b634b637e8f60e11b5f525f60045260245ffd5b9091906001600160a01b03168015610f3e57805f525f60205260405f2054838110610fbb576020845f94957fddf252ad1be2c89b69c2b068fc378daa952ba7f163c4a11628f55a4df523b3ef938587528684520360408620558060025403600255604051908152a3565b915063391434e360e21b5f5260045260245260445260645ffdfea2646970667358221220a22b1e1a9224d0529e698c71ce54bf41f0d71243e4bc225fe563a95404b713b664736f6c634300081c0033",
  "linkReferences": {},
  "deployedLinkReferences": {},
  "immutableReferences": {},
  "inputSourceName": "project/contracts/ProofToken.sol",
  "buildInfoId": "solc-0_8_28-9978a2d468524fb9898060ece1d320de19f0e243"
}