{
  "_format": "hh3-artifact-1",
  "contractName": "BetFactory",
  "sourceName": "contracts/BetFactory.sol",
  "abi": [
    {
      "inputs": [
        {
          "internalType": "address",
          "name": "_trustScore",
          "type": "address"
        },
        {
          "internalType": "address",
          "name": "_usdcToken",
          "type": "address"
        },
        {
          "internalType": "address",
          "name": "_proofToken",
          "type": "address"
        },
        {
          "internalType": "address",
          "name": "_feeCollector",
          "type": "address"
        },
        {
          "internalType": "uint256",
          "name": "_creationFeeProof",
          "type": "uint256"
        },
        {
          "internalType": "uint256",
          "name": "_initialVoteStakeAmountProof",
          "type": "uint256"
        }
      ],
      "stateMutability": "nonpayable",
      "type": "constructor"
    },
    {
      "inputs": [
        {
          "internalType": "address",
          "name": "owner",
          "type": "address"
        }
      ],
      "name": "OwnableInvalidOwner",
      "type": "error"
    },
    {
      "inputs": [
        {
          "internalType": "address",
          "name": "account",
          "type": "address"
        }
      ],
      "name": "OwnableUnauthorizedAccount",
      "type": "error"
    },
    {
      "anonymous": false,
      "inputs": [
        {
          "indexed": true,
          "internalType": "address",
          "name": "betAddress",
          "type": "address"
        },
        {
          "indexed": true,
          "internalType": "address",
          "name": "creator",
          "type": "address"
        },
        {
          "indexed": false,
          "internalType": "string",
          "name": "title",
          "type": "string"
        }
      ],
      "name": "BetCreated",
      "type": "event"
    },
    {
      "anonymous": false,
      "inputs": [
        {
          "indexed": true,
          "internalType": "address",
          "name": "user",
          "type": "address"
        },
        {
          "indexed": false,
          "internalType": "uint256",
          "name": "totalFee",
          "type": "uint256"
        },
        {
          "indexed": false,
          "internalType": "uint256",
          "name": "burned",
          "type": "uint256"
        },
        {
          "indexed": false,
          "internalType": "uint256",
          "name": "kept",
          "type": "uint256"
        }
      ],
      "name": "FeeProcessed",
      "type": "event"
    },
    {
      "anonymous": false,
      "inputs": [
        {
          "indexed": true,
          "internalType": "address",
          "name": "previousOwner",
          "type": "address"
        },
        {
          "indexed": true,
          "internalType": "address",
          "name": "newOwner",
          "type": "address"
        }
      ],
      "name": "OwnershipTransferred",
      "type": "event"
    },
    {
      "anonymous": false,
      "inputs": [
        {
          "indexed": false,
          "internalType": "uint256",
          "name": "oldAmount",
          "type": "uint256"
        },
        {
          "indexed": false,
          "internalType": "uint256",
          "name": "newAmount",
          "type": "uint256"
        }
      ],
      "name": "VoteStakeAmountChanged",
      "type": "event"
    },
    {
      "inputs": [
        {
          "internalType": "uint256",
          "name": "",
          "type": "uint256"
        }
      ],
      "name": "allBets",
      "outputs": [
        {
          "internalType": "address",
          "name": "",
          "type": "address"
        }
      ],
      "stateMutability": "view",
      "type": "function"
    },
    {
      "inputs": [
        {
          "components": [
            {
              "internalType": "address",
              "name": "creator",
              "type": "address"
            },
            {
              "internalType": "string",
              "name": "title",
              "type": "string"
            },
            {
              "internalType": "string",
              "name": "description",
              "type": "string"
            },
            {
              "internalType": "uint256",
              "name": "bettingDeadline",
              "type": "uint256"
            },
            {
              "internalType": "uint256",
              "name": "proofDeadline",
              "type": "uint256"
            },
            {
              "internalType": "uint256",
              "name": "votingDeadline",
              "type": "uint256"
            },
            {
              "internalType": "uint256",
              "name": "minimumBetAmount",
              "type": "uint256"
            },
            {
              "internalType": "uint256",
              "name": "minimumSideStake",
              "type": "uint256"
            },
            {
              "internalType": "uint8",
              "name": "minimumTrustScore",
              "type": "uint8"
            },
            {
              "internalType": "uint8",
              "name": "voterRewardPercentage",
              "type": "uint8"
            },
            {
              "internalType": "uint8",
              "name": "platformFeePercentage",
              "type": "uint8"
            }
          ],
          "internalType": "struct Bet.BetDetails",
          "name": "_details",
          "type": "tuple"
        }
      ],
      "name": "createBet",
      "outputs": [
        {
          "internalType": "address",
          "name": "",
          "type": "address"
        }
      ],
      "stateMutability": "nonpayable",
      "type": "function"
    },
    {
      "inputs": [],
      "name": "creationFeeProof",
      "outputs": [
        {
          "internalType": "uint256",
          "name": "",
          "type": "uint256"
        }
      ],
      "stateMutability": "view",
      "type": "function"
    },
    {
      "inputs": [],
      "name": "feeCollector",
      "outputs": [
        {
          "internalType": "address",
          "name": "",
          "type": "address"
        }
      ],
      "stateMutability": "view",
      "type": "function"
    },
    {
      "inputs": [],
      "name": "getBets",
      "outputs": [
        {
          "internalType": "address[]",
          "name": "",
          "type": "address[]"
        }
      ],
      "stateMutability": "view",
      "type": "function"
    },
    {
      "inputs": [],
      "name": "owner",
      "outputs": [
        {
          "internalType": "address",
          "name": "",
          "type": "address"
        }
      ],
      "stateMutability": "view",
      "type": "function"
    },
    {
      "inputs": [],
      "name": "proofToken",
      "outputs": [
        {
          "internalType": "contract ProofToken",
          "name": "",
          "type": "address"
        }
      ],
      "stateMutability": "view",
      "type": "function"
    },
    {
      "inputs": [],
      "name": "renounceOwnership",
      "outputs": [],
      "stateMutability": "nonpayable",
      "type": "function"
    },
    {
      "inputs": [
        {
          "internalType": "uint256",
          "name": "_newFee",
          "type": "uint256"
        }
      ],
      "name": "setCreationFee",
      "outputs": [],
      "stateMutability": "nonpayable",
      "type": "function"
    },
    {
      "inputs": [
        {
          "internalType": "address",
          "name": "_newCollector",
          "type": "address"
        }
      ],
      "name": "setFeeCollector",
      "outputs": [],
      "stateMutability": "nonpayable",
      "type": "function"
    },
    {
      "inputs": [
        {
          "internalType": "uint256",
          "name": "_amount",
          "type": "uint256"
        }
      ],
      "name": "setVoteStakeAmount",
      "outputs": [],
      "stateMutability": "nonpayable",
      "type": "function"
    },
    {
      "inputs": [
        {
          "internalType": "address",
          "name": "newOwner",
          "type": "address"
        }
      ],
      "name": "transferOwnership",
      "outputs": [],
      "stateMutability": "nonpayable",
      "type": "function"
    },
    {
      "inputs": [],
      "name": "trustScoreContract",
      "outputs": [
        {
          "internalType": "contract TrustScore",
          "name": "",
          "type": "address"
        }
      ],
      "stateMutability": "view",
      "type": "function"
    },
    {
      "inputs": [],
      "name": "usdcToken",
      "outputs": [
        {
          "internalType": "contract IERC20",
          "name": "",
          "type": "address"
        }
      ],
      "stateMutability": "view",
      "type": "function"
    },
    {
      "inputs": [],
      "name": "voteStakeAmountProof",
      "outputs": [
        {
          "internalType": "uint256",
          "name": "",
          "type": "uint256"
        }
      ],
      "stateMutability": "view",
      "type": "function"
    }
  ],
  "bytecode": "0x60803461019857601f61333838819003918201601f19168301916001600160401b0383118484101761019c5780849260c09460405283398101031261019857610047816101b0565b90610054602082016101b0565b610060604083016101b0565b61006c606084016101b0565b9160a06080850151940151943315610185575f8054336001600160a01b03198216811783556040519290916001600160a01b0316907f8be0079c531659141344cd1fd0a4f28419497f9722a3daafe3b4186f6b6457e09080a386156101315750600280546001600160a01b03199081166001600160a01b03938416179091556003805482169383169390931790925560048054831693821693909317909255600580549091169290911691909117905560065560075560405161317390816101c58239f35b62461bcd60e51b815260206004820152602960248201527f496e697469616c20766f7465207374616b65206d75737420626520677265617460448201526806572207468616e20360bc1b6064820152608490fd5b631e4fbdf760e01b5f525f60045260245ffd5b5f80fd5b634e487b7160e01b5f52604160045260245ffd5b51906001600160a01b03821682036101985756fe6080806040526004361015610012575f80fd5b5f905f3560e01c9081630e94a0ee14610aa75750806311eac85514610a7f5780631c46a5d114610a62578063715018a614610a0b5780638da5cb5b146109e4578063a42dce80146109a1578063a6afd5fd146108d9578063b7d86225146108b8578063c38fd76e146102ab578063c415b95c14610282578063c961dbae146101d6578063dc7831fd146101ad578063e0ced0e114610169578063f2fde38b146100e35763fb707f1f146100c3575f80fd5b346100e057806003193601126100e0576020600754604051908152f35b80fd5b50346100e05760203660031901126100e0576100fd610aca565b610105610bb6565b6001600160a01b031680156101555781546001600160a01b03198116821783556001600160a01b03167f8be0079c531659141344cd1fd0a4f28419497f9722a3daafe3b4186f6b6457e08380a380f35b631e4fbdf760e01b82526004829052602482fd5b50346100e05760203660031901126100e057600435906001548210156100e057602061019483610b66565b905460405160039290921b1c6001600160a01b03168152f35b50346100e057806003193601126100e0576002546040516001600160a01b039091168152602090f35b50346100e05760203660031901126100e0576004356101f3610bb6565b80156102335760407f7038fd5f31cb6799163d0ca95acbbb2b209576b1833f1915e5be0a9f6eb49b4491600754908060075582519182526020820152a180f35b60405162461bcd60e51b815260206004820152602160248201527f566f7465207374616b65206d7573742062652067726561746572207468616e206044820152600360fc1b6064820152608490fd5b50346100e057806003193601126100e0576005546040516001600160a01b039091168152602090f35b3461074a57602036600319011261074a5760043567ffffffffffffffff811161074a57610160600319823603011261074a5760405190610160820182811067ffffffffffffffff82111761074e5760405260048101356001600160a01b038116810361074a578252602481013567ffffffffffffffff811161074a576103379060043691840101610b02565b6020830152604481013567ffffffffffffffff811161074a576103ca916103676101449260043691840101610b02565b6040850152606481013560608501526084810135608085015260a481013560a085015260c481013560c085015260e481013560e08501526103ab6101048201610b58565b6101008501526103be6101248201610b58565b61012085015201610b58565b610140820152600480546040516370a0823160e01b815233928101929092526001600160a01b031690602081602481855afa90811561073f575f91610886575b5060065480911061084c57604051636eb1769f60e11b8152336004820152306024820152602081604481865afa801561073f5782915f91610817575b50106107d2575f91606460209260405194859384926323b872dd60e01b845233600485015230602485015260448401525af1801561073f5761079b575b505f604060018060a01b0360045416604460065483519485938492632f70210560e11b845230600485015260248401525af1801561073f575f915f91610762575b5060065491604051928352602083015260408201527f2445fb79a5a4a2bac1a965d4d13b4e827f051f2d6fc972fad3b399041e5a8b4560603392a2338152600254600354600454600554600754604051946001600160a01b03948516949081169391928116911667ffffffffffffffff61256187019081119087111761074e578594612561610bdd873960c0612561870181815289516001600160a01b031691810191909152602089015161016060e08301526105a89161058b9161022090910190610b92565b60408a0151612561890180830360bf190161010090910152610b92565b9460608901516101206125618901015260808901516101406125618901015260a08901516101606125618901015260c08901516101806125618901015260e08901516101a06125618901015260ff6101008a0151166101c06125618901015260ff6101208a0151166101e06125618901015260ff6101408a0151166102006125618901015260206125618801015260406125618701015260606125618601015260806125618501015260a06125618401015203905ff0801561073f5760018060a01b03166001546801000000000000000081101561074e578060016106909201600155610b66565b81546001600160a01b0360039290921b82811b199091169084901b179091556002541691823b1561074a575f809360246040518096819363393f530f60e01b83523360048401525af190811561073f57602093849261072f575b500151817f9fad859b21dc8b04ac5bbdd3cfd18a2215799015dc9f0488bc0acd8817d76d6360405185815280610724339588830190610b92565b0390a3604051908152f35b5f61073991610ae0565b5f6106ea565b6040513d5f823e3d90fd5b5f80fd5b634e487b7160e01b5f52604160045260245ffd5b9150506040813d604011610793575b8161077e60409383610ae0565b8101031261074a5760208151910151836104c4565b3d9150610771565b6020813d6020116107ca575b816107b460209383610ae0565b8101031261074a57518015158114610483575f80fd5b3d91506107a7565b60405162461bcd60e51b815260206004820152601760248201527f50524f4f4620616c6c6f77616e636520746f6f206c6f770000000000000000006044820152606490fd5b9150506020813d602011610844575b8161083360209383610ae0565b8101031261074a5781905185610446565b3d9150610826565b60405162461bcd60e51b815260206004820152601260248201527124b739bab33334b1b4b2b73a10282927a7a360711b6044820152606490fd5b90506020813d6020116108b0575b816108a160209383610ae0565b8101031261074a57518361040a565b3d9150610894565b3461074a57602036600319011261074a576108d1610bb6565b600435600655005b3461074a575f36600319011261074a576040518060206001549283815201809260015f527fb10e2d527612073b26eecdfd717e6a320cf44b4afac2b0732d9fcbe2b7fa0cf6905f5b8181106109825750505081610937910382610ae0565b604051918291602083019060208452518091526040830191905f5b818110610960575050500390f35b82516001600160a01b0316845285945060209384019390920191600101610952565b82546001600160a01b0316845260209093019260019283019201610921565b3461074a57602036600319011261074a576109ba610aca565b6109c2610bb6565b600580546001600160a01b0319166001600160a01b0392909216919091179055005b3461074a575f36600319011261074a575f546040516001600160a01b039091168152602090f35b3461074a575f36600319011261074a57610a23610bb6565b5f80546001600160a01b0319811682556001600160a01b03167f8be0079c531659141344cd1fd0a4f28419497f9722a3daafe3b4186f6b6457e08280a3005b3461074a575f36600319011261074a576020600654604051908152f35b3461074a575f36600319011261074a576003546040516001600160a01b039091168152602090f35b3461074a575f36600319011261074a576004546001600160a01b03168152602090f35b600435906001600160a01b038216820361074a57565b90601f8019910116810190811067ffffffffffffffff82111761074e57604052565b81601f8201121561074a5780359067ffffffffffffffff821161074e5760405192610b37601f8401601f191660200185610ae0565b8284526020838301011161074a57815f926020809301838601378301015290565b359060ff8216820361074a57565b600154811015610b7e5760015f5260205f2001905f90565b634e487b7160e01b5f52603260045260245ffd5b805180835260209291819084018484015e5f828201840152601f01601f1916010190565b5f546001600160a01b03163303610bc957565b63118cdaa760e01b5f523360045260245ffdfe608060405234610515576125618038038061001981610519565b92833981019060c0818303126105155780516001600160401b0381116105155781019061016082840312610515576040519061016082016001600160401b038111838210176104185760405261006e8361053e565b825260208301516001600160401b038111610515578461008f918501610552565b6020830190815260408401519094906001600160401b038111610515578401906100b891610552565b93604083019485526060840151936060840194855260808101516080850190815260a082015160a0860190815260c083015160c0870190815260e08401519060e08801918252610100850161010c906105a3565b61010089019081529261012261012087016105a3565b956101208a0196875261014001610138906105a3565b6101408a019081529461014d60208a0161053e565b9a61015a60408b0161053e565b9c61016760608c0161053e565b9961017460808d0161053e565b60a0909c015160015f8190559d518e546001600160a01b0319166001600160a01b039190911617909d55518051906001600160401b0382116104185760025490600182811c9216801561050b575b60208310146103fa5781601f84931161049d575b50602090601f8311600114610437575f9261042c575b50508160011b915f199060031b1c1916176002555b518051906001600160401b03821161041857600354600181811c9116801561040e575b60208210146103fa57601f8111610397575b50602090601f831160011461032a5760ff98979695949392915f918361031f575b50508160011b915f199060031b1c1916176003555b5160045551600555516006555160075551600855511662ff000061ff00600954945160081b16925160101b169262ffffff1916171717600955600a549460018060a01b031660018060a01b0319600b541617600b5560018060a01b031660018060a01b0319600c541617600c5560018060a01b031660018060a01b0319600d541617600d55601155610100600160a81b039060081b169060018060a81b03191617600a55604051611faf90816105b28239f35b015190505f80610257565b90601f1983169160035f52815f20925f5b81811061037f575091600193918560ff9c9b9a999897969410610367575b505050811b0160035561026c565b01515f1960f88460031b161c191690555f8080610359565b9293602060018192878601518155019501930161033b565b60035f527fc2575a0e9e593c00f959f8c92f12db2869c3395a3b0502d05e2516446f71f85b601f840160051c810191602085106103f0575b601f0160051c01905b8181106103e55750610236565b5f81556001016103d8565b90915081906103cf565b634e487b7160e01b5f52602260045260245ffd5b90607f1690610224565b634e487b7160e01b5f52604160045260245ffd5b015190505f806101ec565b60025f9081528281209350601f198516905b818110610485575090846001959493921061046d575b505050811b01600255610201565b01515f1960f88460031b161c191690555f808061045f565b92936020600181928786015181550195019301610449565b60025f529091507f405787fa12a823e0f2b7631cc41b3ba8828b3321ca811111fa75cd3aa3bb5ace601f840160051c81019160208510610501575b90601f859493920160051c01905b8181106104f357506101d6565b5f81558493506001016104e6565b90915081906104d8565b91607f16916101c2565b5f80fd5b6040519190601f01601f191682016001600160401b0381118382101761041857604052565b51906001600160a01b038216820361051557565b81601f82011215610515578051906001600160401b03821161041857610581601f8301601f1916602001610519565b928284526020838301011161051557815f9260208093018386015e8301015290565b519060ff821682036105155756fe6080806040526004361015610012575f80fd5b5f905f3560e01c9081630208d81114611cfa5750806307ea56db14611c2b57806309e69ede14611bd35780630e94a0ee14611bab57806311eac85514611b8357806324600fc3146119d35780632c2e8faf14611667578063565974d31461145e57806363a39141146113ec5780636f95b3f3146113c7578063aec2ccae14611386578063b3f98adc14610e84578063b401faf114610c41578063b5545a3c14610aba578063b5b47f4214610a9c578063c415b95c14610a73578063ccc8279514610a55578063d4249dce14610a18578063d6d20238146109aa578063d72edbf2146108a7578063d8bff5a514610862578063dc7831fd14610835578063dcb3b30e14610527578063e41356f314610221578063ef8a9235146101e1578063fb04521b146101c3578063fb286c65146101a5578063fb707f1f146101875763fbf063381461015d575f80fd5b34610184578060031936011261018457602060ff601354166101826040518092611d92565bf35b80fd5b50346101845780600319360112610184576020601154604051908152f35b50346101845780600319360112610184576020601454604051908152f35b50346101845780600319360112610184576020601054604051908152f35b503461018457806003193601126101845760ff600a541660405190600581101561020d57602092508152f35b634e487b7160e01b83526021600452602483fd5b503461018457806003193601126101845761023a611f3b565b60ff600a541660058110156105135780600361025f9214908115610508575b50611d9f565b338152601960205260ff604082205416156104d457338152601760205260408120541561049b5733815260176020526040812054818291338452601760205283604081205560ff600a541660058110156104875760030361048057338452601860205260ff60408520541660ff6013541690600382101561046c57600381101561046c5714610414575b505b806103af575b8161032f575b60405191825260208201527ffbc3a599b784fe88772fc5abcc07223f64ca0b13acc341f4fb1e46bef0510eb460403392a26001815580f35b600b5460405163a9059cbb60e01b815233600482015260248101849052906020908290604490829088906001600160a01b03165af180156103a457610375575b506102f7565b6103969060203d60201161039d575b61038e8183611d4c565b810190611e76565b505f61036f565b503d610384565b6040513d86823e3d90fd5b600c5460405163a9059cbb60e01b815233600482015260248101839052906020908290604490829088906001600160a01b03165af180156103a4576103f5575b506102f1565b61040d9060203d60201161039d5761038e8183611d4c565b505f6103ef565b80915090606461043b61042c600e54600f5490611e8e565b60ff60095460081c1690611efd565b0490601054918261044e575b50506102e9565b6104639394509061045e91611efd565b611f10565b905f8080610447565b634e487b7160e01b86526021600452602486fd5b90506102eb565b634e487b7160e01b85526021600452602485fd5b60405162461bcd60e51b81526020600482015260116024820152704e6f207374616b6520746f20636c61696d60781b6044820152606490fd5b60405162461bcd60e51b815260206004820152600c60248201526b446964206e6f7420766f746560a01b6044820152606490fd5b60049150145f610259565b634e487b7160e01b82526021600452602482fd5b50346101845760403660031901126101845760043560038110156106ff57602435610550611f3b565b600a5460ff811660058110156104875761056a9015611dde565b6004544210156107fb57839060018414908180156107ee575b156107b657600754841061077e57604051630d47875d60e41b8152336004820152906020908290602490829060081c6001600160a01b03165afa8015610744576105df91879161074f575b5060ff806009541691161015611e34565b600b546040516323b872dd60e01b81523360048201523060248201526044810185905290602090829060649082908a906001600160a01b03165af1801561074457610727575b5033855260166020526040852091610487571561070357610647828254611e8e565b905561065581600e54611e8e565b600e555b600a54839060081c6001600160a01b0316803b156106ff57818091602460405180948193633e852f6560e01b83523360048401525af180156106f4576106db575b50506106a96040518093611d92565b60208201527f9f6b4cced64244a64465098f682029975b1614400b96bc6bd12c66808371916660403392a26001815580f35b816106e591611d4c565b6106f057825f61069a565b8280fd5b6040513d84823e3d90fd5b5080fd5b600101610711828254611e8e565b905561071f81600f54611e8e565b600f55610659565b61073f9060203d60201161039d5761038e8183611d4c565b610625565b6040513d88823e3d90fd5b610771915060203d602011610777575b6107698183611d4c565b810190611e1b565b5f6105ce565b503d61075f565b60405162461bcd60e51b815260206004820152601060248201526f5374616b6520697320746f6f206c6f7760801b6044820152606490fd5b60405162461bcd60e51b815260206004820152601060248201526f24b73b30b634b2103837b9b4ba34b7b760811b6044820152606490fd5b5085925060028514610583565b60405162461bcd60e51b815260206004820152601260248201527110995d1d1a5b99c81a185cc818db1bdcd95960721b6044820152606490fd5b5034610184578060031936011261018457600a5460405160089190911c6001600160a01b03168152602090f35b5034610184576020366003190112610184576004356001600160a01b038116908190036106ff5760408260ff9260209452601884522054166101826040518092611d92565b503461018457806003193601126101845760ff600a54166005811015610513576002148061099e575b6108d75780f35b60145460155480821115610940575050600160ff196013541617601355610906600360ff19600a541617600a55565b7fd6bcd4b6873d691163f1aff2d5585378623aef08e17513a5253eabe39c65dc50602060ff6013541661093c6040518092611d92565ba180f35b111561096557600260ff196013541617601355610906600360ff19600a541617600a55565b610977600460ff19600a541617600a55565b7fa9c660d43fdb14d4f7f7226623a556967689f58ee0e7c1a3397257bb909454c98180a180f35b506006544210156108d0565b503461018457806003193601126101845760ff600a54166005811015610513571580610a0c575b6109d85780f35b600e546008548091101590816109ff575b501561096557600160ff19600a541617600a5580f35b9050600f5410155f6109e9565b506004544210156109d1565b5034610184576020366003190112610184576004356001600160a01b038116908190036106ff578160409160209352601783522054604051908152f35b50346101845780600319360112610184576020600f54604051908152f35b5034610184578060031936011261018457600d546040516001600160a01b039091168152602090f35b50346101845780600319360112610184576020601554604051908152f35b5034610184578060031936011261018457610ad3611f3b565b60ff600a5416600581101561051357600403610c085733815260166020526040812060028101610b19815492610b0c60ff851615611ebd565b6001815491015490611e8e565b918215610bce5760ff19166001179055600b5460405163a9059cbb60e01b8152336004820152602481018390529060209082906001600160a01b0316818681604481015b03925af18015610bc357610ba6575b506040519081528160208201527ffbc3a599b784fe88772fc5abcc07223f64ca0b13acc341f4fb1e46bef0510eb460403392a26001815580f35b610bbe9060203d60201161039d5761038e8183611d4c565b610b6c565b6040513d85823e3d90fd5b60405162461bcd60e51b8152602060048201526012602482015271139bc81cdd185ad9481d1bc81c99599d5b9960721b6044820152606490fd5b60405162461bcd60e51b815260206004820152601160248201527010995d081b9bdd0818d85b98d95b1b1959607a1b6044820152606490fd5b5034610184578060031936011261018457610c5a611f3b565b60ff600a5416600581101561051357600303610e4b5760135460ff8160081c1615610e06573382526016602052604082206002810190815492610ca060ff851615611ebd565b60ff8591169160038310159283610df25760018114928315610dd257505054905b8115610d8d57600e5490600f5490610d11610cdc8385611e8e565b610d0c6009546064610d0560ff82610cf9828660081c1688611efd565b049360101c1685611efd565b0492611f2e565b611f2e565b94610d7957926001949261045e92610d30955f14610d71575092611efd565b60ff19909316179055600b5460405163a9059cbb60e01b8152336004820152602481018390529060209082906001600160a01b031681868160448101610b5d565b905092611efd565b634e487b7160e01b88526021600452602488fd5b60405162461bcd60e51b815260206004820152601860248201527f4e6f7420612077696e6e6572206f72206e6f207374616b6500000000000000006044820152606490fd5b879450929190600214610de6575b50610cc1565b6001015491505f610de0565b634e487b7160e01b87526021600452602487fd5b60405162461bcd60e51b815260206004820152601c60248201527f57696e6e696e6773206e6f7420796574206469737472696275746564000000006044820152606490fd5b60405162461bcd60e51b815260206004820152601160248201527010995d081b9bdd0818dbdb5c1b195d1959607a1b6044820152606490fd5b50346111315760203660031901126111315760043560038110801561113157610eab611f3b565b600a549060ff82166005811015611148576002610ec89114611dde565b60065442101561134d575f906001841492838015611340575b1561130c57335f52601660205260405f205415806112f5575b156112ba57335f52601960205260ff60405f20541661128557604051630d47875d60e41b8152336004820152906020908290602490829060081c6001600160a01b03165afa801561112657610f60915f9161074f575060ff806009541691161015611e34565b600c546040516370a0823160e01b8152336004820152906001600160a01b0316602082602481845afa918215611126575f92611251575b5060115480921061120257604051636eb1769f60e11b8152336004820152306024820152602081604481855afa80156111265783915f916111cd575b5010611179576040516323b872dd60e01b81523360048201523060248201526044810192909252602090829060649082905f905af180156111265761115c575b50335f52601960205260405f20600160ff19825416179055335f52601860205260405f2090156111485760ff1981541660ff8516179055601154335f52601760205261106460405f20918254611e8e565b9055611074601154601054611e8e565b60105561114857156111355761108b601454611eaf565b6014555b600a5460081c6001600160a01b0316803b15611131575f809160246040518094819363a971fb2360e01b83523360048401525af1801561112657611111575b506011546110df6040518093611d92565b60208201527fd9d9fd0caa964abf9540e87552b03d0f6f1427c14e4d23c647cc9f24efc0848860403392a26001815580f35b61111e9192505f90611d4c565b5f905f6110ce565b6040513d5f823e3d90fd5b5f80fd5b611140601554611eaf565b60155561108f565b634e487b7160e01b5f52602160045260245ffd5b6111749060203d60201161039d5761038e8183611d4c565b611013565b60405162461bcd60e51b815260206004820152602660248201527f50524f4f4620616c6c6f77616e636520746f6f206c6f7720666f7220766f7465604482015265207374616b6560d01b6064820152608490fd5b9150506020813d6020116111fa575b816111e960209383611d4c565b81010312611131578290515f610fd3565b3d91506111dc565b60405162461bcd60e51b815260206004820152602160248201527f496e73756666696369656e742050524f4f4620666f7220766f7465207374616b6044820152606560f81b6064820152608490fd5b9091506020813d60201161127d575b8161126d60209383611d4c565b810103126111315751905f610f97565b3d9150611260565b60405162461bcd60e51b815260206004820152600d60248201526c105b1c9958591e481d9bdd1959609a1b6044820152606490fd5b60405162461bcd60e51b8152602060048201526013602482015272426574746f72732063616e6e6f7420766f746560681b6044820152606490fd5b50335f526016602052600160405f20015415610efa565b60405162461bcd60e51b815260206004820152600c60248201526b496e76616c696420766f746560a01b6044820152606490fd5b505f925060028514610ee1565b60405162461bcd60e51b8152602060048201526011602482015270159bdd1a5b99c81a185cc818db1bdcd959607a1b6044820152606490fd5b34611131576020366003190112611131576004356001600160a01b03811690819003611131575f526019602052602060ff60405f2054166040519015158152f35b34611131575f36600319011261113157602060ff60135460081c166040519015158152f35b34611131575f3660031901126111315760ff600a541660058110156111485760011480611452575b61141a57005b61142c600460ff19600a541617600a55565b7fa9c660d43fdb14d4f7f7226623a556967689f58ee0e7c1a3397257bb909454c95f80a1005b50600554421015611414565b34611131575f3660031901126111315760015460405160025490916001600160a01b031690825f61148e83611d14565b808352926001811690811561164857506001146115e9575b6114b292500383611d4c565b604051600354815f6114c383611d14565b80835292600181169081156115ca575060011461156b575b6114e792500382611d4c565b60ff60045491600554600654600754906008549261152e600954956115206040519b8c9b8c5261016060208d01526101608c0190611d6e565b908a820360408c0152611d6e565b966060890152608088015260a087015260c086015260e0850152818116610100850152818160081c1661012085015260101c166101408301520390f35b5060035f90815290917fc2575a0e9e593c00f959f8c92f12db2869c3395a3b0502d05e2516446f71f85b5b8183106115ae5750509060206114e7928201016114db565b6020919350806001915483858801015201910190918392611596565b602092506114e794915060ff191682840152151560051b8201016114db565b5060025f90815290917f405787fa12a823e0f2b7631cc41b3ba8828b3321ca811111fa75cd3aa3bb5ace5b81831061162c5750509060206114b2928201016114a6565b6020919350806001915483858901015201910190918492611614565b602092506114b294915060ff191682840152151560051b8201016114a6565b346111315760203660031901126111315760043567ffffffffffffffff8111611131573660238201121561113157806004013567ffffffffffffffff81116118af57604051916116c1601f8301601f191660200184611d4c565b818352366024838301011161113157815f9260246020930183860137830101526001546001600160a01b031633036119a05760ff600a5416600581101561114857600161170e9114611dde565b600454421061194c57600554421015611908578051156118c357805167ffffffffffffffff81116118af57611744601254611d14565b601f8111611847575b50806020601f82116001146117d8575f916117cd575b508160011b915f199060031b1c1916176012555b600260ff19600a541617600a557f227d17811e582357665ee6ee281ef8528946951eab558c87afaf102464d6cc566117c860018060a01b036001541692604051918291602083526020830190611d6e565b0390a2005b905082015183611763565b60125f9081525f516020611f5a5f395f51905f529250601f198416905b81811061182f57509083600194939210611817575b5050811b01601255611777565b8401515f1960f88460031b161c19169055838061180a565b919260206001819286890151815501940192016117f5565b60125f52601f820160051c5f516020611f5a5f395f51905f5201906020831061189a575b601f0160051c5f516020611f5a5f395f51905f5201905b81811061188f575061174d565b5f8155600101611882565b5f516020611f5a5f395f51905f52915061186b565b634e487b7160e01b5f52604160045260245ffd5b60405162461bcd60e51b815260206004820152601960248201527f50726f6f662055524c2063616e6e6f7420626520656d707479000000000000006044820152606490fd5b606460405162461bcd60e51b815260206004820152602060248201527f50726f6f66207375626d697373696f6e20646561646c696e65207061737365646044820152fd5b60405162461bcd60e51b815260206004820152602660248201527f42657474696e67206d75737420626520636c6f73656420746f207375626d697460448201526510383937b7b360d11b6064820152608490fd5b60405162461bcd60e51b815260206004820152600b60248201526a2737ba1031b932b0ba37b960a91b6044820152606490fd5b34611131575f366003190112611131576119eb611f3b565b60ff600a541660058110159081611148576003811480918115611b73575b50611a1390611d9f565b6013549160ff8360081c16611b2e576111485715611b1d575061010061ff00196013541617601355611a4a600e54600f5490611e8e565b8015611ad857611a6560649160ff60095460101c1690611efd565b0480611a74575b505b60015f55005b600b54600d5460405163a9059cbb60e01b81526001600160a01b0391821660048201526024810193909352602091839160449183915f91165af180156111265715611a6c57611ad19060203d60201161039d5761038e8183611d4c565b5080611a6c565b60405162461bcd60e51b815260206004820152601760248201527f4e6f207374616b657320746f20646973747269627574650000000000000000006044820152606490fd5b61ff00191661010017601355611a6e565b60405162461bcd60e51b815260206004820152601f60248201527f46756e647320616c7265616479206265696e67206469737472696275746564006044820152606490fd5b5f93506004149050611a13611a09565b34611131575f36600319011261113157600b546040516001600160a01b039091168152602090f35b34611131575f36600319011261113157600c546040516001600160a01b039091168152602090f35b34611131576020366003190112611131576004356001600160a01b03811690819003611131575f526016602052606060405f2080549060ff600260018301549201541690604051928352602083015215156040820152f35b34611131575f366003190112611131576040515f601254611c4b81611d14565b8084529060018116908115611cd65750600114611c8b575b611c8783611c7381850382611d4c565b604051918291602083526020830190611d6e565b0390f35b60125f9081525f516020611f5a5f395f51905f52939250905b808210611cbc57509091508101602001611c73611c63565b919260018160209254838588010152019101909291611ca4565b60ff191660208086019190915291151560051b84019091019150611c739050611c63565b34611131575f36600319011261113157602090600e548152f35b90600182811c92168015611d42575b6020831014611d2e57565b634e487b7160e01b5f52602260045260245ffd5b91607f1691611d23565b90601f8019910116810190811067ffffffffffffffff8211176118af57604052565b805180835260209291819084018484015e5f828201840152601f01601f1916010190565b9060038210156111485752565b15611da657565b60405162461bcd60e51b815260206004820152601060248201526f10995d081b9bdd08199a5b9a5cda195960821b6044820152606490fd5b15611de557565b60405162461bcd60e51b815260206004820152600e60248201526d496e76616c69642073746174757360901b6044820152606490fd5b90816020910312611131575160ff811681036111315790565b15611e3b57565b60405162461bcd60e51b815260206004820152601360248201527254727573742073636f726520746f6f206c6f7760681b6044820152606490fd5b90816020910312611131575180151581036111315790565b91908201809211611e9b57565b634e487b7160e01b5f52601160045260245ffd5b5f198114611e9b5760010190565b15611ec457565b60405162461bcd60e51b815260206004820152601160248201527020b63932b0b23c903bb4ba34323930bbb760791b6044820152606490fd5b81810292918115918404141715611e9b57565b8115611f1a570490565b634e487b7160e01b5f52601260045260245ffd5b91908203918211611e9b57565b60025f5414611f4a5760025f55565b633ee5aeb560e01b5f5260045ffdfebb8a6a4669ba250d26cd7a459eca9d215f8307e33aebe50379bc5a3617ec3444a2646970667358221220d97074b77be2f9c3d39702fc0b975b6fd1d6c4c505d860ff7161c74fdb98aaa564736f6c634300081c0033a2646970667358221220d901d68c3f7d2a84c39dd1ab73aad19711728bd86c2f30d65af4d799356cac0c64736f6c634300081c0033",
  "linkReferences": {},
  "deployedLinkReferences": {},
  "immutableReferences": {},
  "inputSourceName": "project/contracts/BetFactory.sol",
  "buildInfoId": "solc-0_8_28-d4fd01dc0113ca4a4f379216d023817bd609d5da"
}