{
  "_format": "hh3-artifact-1",
  "contractName": "Bet",
  "sourceName": "contracts/Bet.sol",
  "abi": [
    {
      "inputs": [],
      "name": "ReentrancyGuardReentrantCall",
      "type": "error"
    },
    {
      "anonymous": false,
      "inputs": [
        {
          "indexed": false,
          "internalType": "string",
          "name": "reason",
          "type": "string"
        }
      ],
      "name": "BetCancelled",
      "type": "event"
    },
    {
      "anonymous": false,
      "inputs": [
        {
          "indexed": true,
          "internalType": "address",
          "name": "user",
          "type": "address"
        },
        {
          "indexed": false,
          "internalType": "enum Bet.Side",
          "name": "position",
          "type": "uint8"
        },
        {
          "indexed": false,
          "internalType": "uint256",
          "name": "amountUsdc",
          "type": "uint256"
        }
      ],
      "name": "BetPlaced",
      "type": "event"
    },
    {
      "anonymous": false,
      "inputs": [
        {
          "indexed": false,
          "internalType": "enum Bet.Side",
          "name": "winningSide",
          "type": "uint8"
        }
      ],
      "name": "BetResolved",
      "type": "event"
    },
    {
      "anonymous": false,
      "inputs": [
        {
          "indexed": false,
          "internalType": "enum Bet.Side",
          "name": "winningSide",
          "type": "uint8"
        },
        {
          "indexed": false,
          "internalType": "uint256",
          "name": "totalWinningStake",
          "type": "uint256"
        },
        {
          "indexed": false,
          "internalType": "uint256",
          "name": "totalLosingStake",
          "type": "uint256"
        },
        {
          "indexed": false,
          "internalType": "uint256",
          "name": "platformFeeAmount",
          "type": "uint256"
        },
        {
          "indexed": false,
          "internalType": "uint256",
          "name": "voterRewardPool",
          "type": "uint256"
        },
        {
          "indexed": false,
          "internalType": "uint256",
          "name": "winnersPool",
          "type": "uint256"
        },
        {
          "indexed": false,
          "internalType": "uint256",
          "name": "winningVoterCount",
          "type": "uint256"
        },
        {
          "indexed": false,
          "internalType": "uint256",
          "name": "rewardPerWinningVoter",
          "type": "uint256"
        }
      ],
      "name": "BetResolvedSnapshot",
      "type": "event"
    },
    {
      "anonymous": false,
      "inputs": [
        {
          "indexed": true,
          "internalType": "address",
          "name": "user",
          "type": "address"
        },
        {
          "indexed": false,
          "internalType": "uint256",
          "name": "amountUsdc",
          "type": "uint256"
        },
        {
          "indexed": false,
          "internalType": "uint256",
          "name": "amountProof",
          "type": "uint256"
        }
      ],
      "name": "FundsWithdrawn",
      "type": "event"
    },
    {
      "anonymous": false,
      "inputs": [
        {
          "indexed": true,
          "internalType": "address",
          "name": "creator",
          "type": "address"
        },
        {
          "indexed": false,
          "internalType": "string",
          "name": "proofUrl",
          "type": "string"
        }
      ],
      "name": "ProofSubmitted",
      "type": "event"
    },
    {
      "anonymous": false,
      "inputs": [
        {
          "indexed": true,
          "internalType": "address",
          "name": "voter",
          "type": "address"
        },
        {
          "indexed": false,
          "internalType": "enum Bet.Side",
          "name": "vote",
          "type": "uint8"
        },
        {
          "indexed": false,
          "internalType": "uint256",
          "name": "amountProof",
          "type": "uint256"
        }
      ],
      "name": "VoteCast",
      "type": "event"
    },
    {
      "inputs": [],
      "name": "betFactory",
      "outputs": [
        {
          "internalType": "contract BetFactory",
          "name": "",
          "type": "address"
        }
      ],
      "stateMutability": "view",
      "type": "function"
    },
    {
      "inputs": [
        {
          "internalType": "address",
          "name": "_participant",
          "type": "address"
        }
      ],
      "name": "calculateParticipantPayout",
      "outputs": [
        {
          "internalType": "uint256",
          "name": "payout",
          "type": "uint256"
        },
        {
          "internalType": "bool",
          "name": "isWinner",
          "type": "bool"
        }
      ],
      "stateMutability": "view",
      "type": "function"
    },
    {
      "inputs": [
        {
          "internalType": "address",
          "name": "_voter",
          "type": "address"
        }
      ],
      "name": "calculateVoterReward",
      "outputs": [
        {
          "internalType": "uint256",
          "name": "usdcReward",
          "type": "uint256"
        },
        {
          "internalType": "uint256",
          "name": "proofRefund",
          "type": "uint256"
        }
      ],
      "stateMutability": "view",
      "type": "function"
    },
    {
      "inputs": [],
      "name": "checkAndCancelForProof",
      "outputs": [],
      "stateMutability": "nonpayable",
      "type": "function"
    },
    {
      "inputs": [],
      "name": "checkAndCloseBetting",
      "outputs": [],
      "stateMutability": "nonpayable",
      "type": "function"
    },
    {
      "inputs": [],
      "name": "checkAndResolve",
      "outputs": [],
      "stateMutability": "nonpayable",
      "type": "function"
    },
    {
      "inputs": [],
      "name": "claimRefund",
      "outputs": [],
      "stateMutability": "nonpayable",
      "type": "function"
    },
    {
      "inputs": [],
      "name": "claimVoterRewards",
      "outputs": [],
      "stateMutability": "nonpayable",
      "type": "function"
    },
    {
      "inputs": [],
      "name": "claimWinnings",
      "outputs": [],
      "stateMutability": "nonpayable",
      "type": "function"
    },
    {
      "inputs": [],
      "name": "collateralLocked",
      "outputs": [
        {
          "internalType": "bool",
          "name": "",
          "type": "bool"
        }
      ],
      "stateMutability": "view",
      "type": "function"
    },
    {
      "inputs": [],
      "name": "creator",
      "outputs": [
        {
          "internalType": "address",
          "name": "",
          "type": "address"
        }
      ],
      "stateMutability": "view",
      "type": "function"
    },
    {
      "inputs": [],
      "name": "creatorCollateral",
      "outputs": [
        {
          "internalType": "uint256",
          "name": "",
          "type": "uint256"
        }
      ],
      "stateMutability": "view",
      "type": "function"
    },
    {
      "inputs": [],
      "name": "currentStatus",
      "outputs": [
        {
          "internalType": "enum Bet.Status",
          "name": "",
          "type": "uint8"
        }
      ],
      "stateMutability": "view",
      "type": "function"
    },
    {
      "inputs": [],
      "name": "details",
      "outputs": [
        {
          "internalType": "string",
          "name": "title",
          "type": "string"
        },
        {
          "internalType": "string",
          "name": "description",
          "type": "string"
        },
        {
          "internalType": "uint256",
          "name": "bettingDeadline",
          "type": "uint256"
        },
        {
          "internalType": "uint256",
          "name": "proofDeadline",
          "type": "uint256"
        },
        {
          "internalType": "uint256",
          "name": "votingDeadline",
          "type": "uint256"
        },
        {
          "internalType": "uint256",
          "name": "minimumBetAmount",
          "type": "uint256"
        },
        {
          "internalType": "uint256",
          "name": "minimumSideStake",
          "type": "uint256"
        },
        {
          "internalType": "uint8",
          "name": "minimumTrustScore",
          "type": "uint8"
        },
        {
          "internalType": "uint256",
          "name": "minimumVotes",
          "type": "uint256"
        }
      ],
      "stateMutability": "view",
      "type": "function"
    },
    {
      "inputs": [],
      "name": "feeCollector",
      "outputs": [
        {
          "internalType": "address",
          "name": "",
          "type": "address"
        }
      ],
      "stateMutability": "view",
      "type": "function"
    },
    {
      "inputs": [],
      "name": "fundsDistributed",
      "outputs": [
        {
          "internalType": "bool",
          "name": "",
          "type": "bool"
        }
      ],
      "stateMutability": "view",
      "type": "function"
    },
    {
      "inputs": [],
      "name": "getBetDetails",
      "outputs": [
        {
          "components": [
            {
              "internalType": "string",
              "name": "title",
              "type": "string"
            },
            {
              "internalType": "string",
              "name": "description",
              "type": "string"
            },
            {
              "internalType": "uint256",
              "name": "bettingDeadline",
              "type": "uint256"
            },
            {
              "internalType": "uint256",
              "name": "proofDeadline",
              "type": "uint256"
            },
            {
              "internalType": "uint256",
              "name": "votingDeadline",
              "type": "uint256"
            },
            {
              "internalType": "uint256",
              "name": "minimumBetAmount",
              "type": "uint256"
            },
            {
              "internalType": "uint256",
              "name": "minimumSideStake",
              "type": "uint256"
            },
            {
              "internalType": "uint8",
              "name": "minimumTrustScore",
              "type": "uint8"
            },
            {
              "internalType": "uint256",
              "name": "minimumVotes",
              "type": "uint256"
            }
          ],
          "internalType": "struct Bet.BetDetails",
          "name": "",
          "type": "tuple"
        }
      ],
      "stateMutability": "view",
      "type": "function"
    },
    {
      "inputs": [],
      "name": "getBetInfo",
      "outputs": [
        {
          "internalType": "string",
          "name": "title",
          "type": "string"
        },
        {
          "internalType": "string",
          "name": "description",
          "type": "string"
        },
        {
          "internalType": "uint256",
          "name": "totalYes",
          "type": "uint256"
        },
        {
          "internalType": "uint256",
          "name": "totalNo",
          "type": "uint256"
        },
        {
          "internalType": "uint256",
          "name": "bettingDeadline",
          "type": "uint256"
        },
        {
          "internalType": "uint256",
          "name": "proofDeadline",
          "type": "uint256"
        },
        {
          "internalType": "uint256",
          "name": "votingDeadline",
          "type": "uint256"
        },
        {
          "internalType": "string",
          "name": "proof",
          "type": "string"
        },
        {
          "internalType": "uint256",
          "name": "participantsCount",
          "type": "uint256"
        },
        {
          "internalType": "uint256",
          "name": "voters",
          "type": "uint256"
        }
      ],
      "stateMutability": "view",
      "type": "function"
    },
    {
      "inputs": [],
      "name": "getResolutionInfo",
      "outputs": [
        {
          "internalType": "enum Bet.Status",
          "name": "status",
          "type": "uint8"
        },
        {
          "internalType": "enum Bet.Side",
          "name": "winningSide_",
          "type": "uint8"
        },
        {
          "internalType": "uint256",
          "name": "totalWinningStake",
          "type": "uint256"
        },
        {
          "internalType": "uint256",
          "name": "totalLosingStake",
          "type": "uint256"
        },
        {
          "internalType": "uint256",
          "name": "platformFeePct",
          "type": "uint256"
        },
        {
          "internalType": "uint256",
          "name": "voterRewardPct",
          "type": "uint256"
        },
        {
          "internalType": "uint256",
          "name": "platformFeeAmount",
          "type": "uint256"
        },
        {
          "internalType": "uint256",
          "name": "voterRewardPool",
          "type": "uint256"
        },
        {
          "internalType": "uint256",
          "name": "winnersPool",
          "type": "uint256"
        },
        {
          "internalType": "uint256",
          "name": "winningVoterCount",
          "type": "uint256"
        },
        {
          "internalType": "uint256",
          "name": "rewardPerWinningVoter",
          "type": "uint256"
        }
      ],
      "stateMutability": "view",
      "type": "function"
    },
    {
      "inputs": [],
      "name": "getVoteStats",
      "outputs": [
        {
          "internalType": "uint256",
          "name": "totalYesVotes",
          "type": "uint256"
        },
        {
          "internalType": "uint256",
          "name": "totalNoVotes",
          "type": "uint256"
        },
        {
          "internalType": "uint256",
          "name": "totalVoteStake",
          "type": "uint256"
        }
      ],
      "stateMutability": "view",
      "type": "function"
    },
    {
      "inputs": [
        {
          "internalType": "address",
          "name": "",
          "type": "address"
        }
      ],
      "name": "hasParticipated",
      "outputs": [
        {
          "internalType": "bool",
          "name": "",
          "type": "bool"
        }
      ],
      "stateMutability": "view",
      "type": "function"
    },
    {
      "inputs": [
        {
          "components": [
            {
              "internalType": "string",
              "name": "title",
              "type": "string"
            },
            {
              "internalType": "string",
              "name": "description",
              "type": "string"
            },
            {
              "internalType": "uint256",
              "name": "bettingDeadline",
              "type": "uint256"
            },
            {
              "internalType": "uint256",
              "name": "proofDeadline",
              "type": "uint256"
            },
            {
              "internalType": "uint256",
              "name": "votingDeadline",
              "type": "uint256"
            },
            {
              "internalType": "uint256",
              "name": "minimumBetAmount",
              "type": "uint256"
            },
            {
              "internalType": "uint256",
              "name": "minimumSideStake",
              "type": "uint256"
            },
            {
              "internalType": "uint8",
              "name": "minimumTrustScore",
              "type": "uint8"
            },
            {
              "internalType": "uint256",
              "name": "minimumVotes",
              "type": "uint256"
            }
          ],
          "internalType": "struct Bet.BetDetails",
          "name": "_details",
          "type": "tuple"
        },
        {
          "internalType": "address",
          "name": "_creator",
          "type": "address"
        },
        {
          "internalType": "address",
          "name": "_betFactory",
          "type": "address"
        },
        {
          "internalType": "address",
          "name": "_trustScore",
          "type": "address"
        },
        {
          "internalType": "address",
          "name": "_usdcToken",
          "type": "address"
        },
        {
          "internalType": "address",
          "name": "_proofToken",
          "type": "address"
        },
        {
          "internalType": "address",
          "name": "_feeCollector",
          "type": "address"
        }
      ],
      "name": "initialize",
      "outputs": [],
      "stateMutability": "nonpayable",
      "type": "function"
    },
    {
      "inputs": [],
      "name": "noVotes",
      "outputs": [
        {
          "internalType": "uint256",
          "name": "",
          "type": "uint256"
        }
      ],
      "stateMutability": "view",
      "type": "function"
    },
    {
      "inputs": [],
      "name": "participantCount",
      "outputs": [
        {
          "internalType": "uint256",
          "name": "",
          "type": "uint256"
        }
      ],
      "stateMutability": "view",
      "type": "function"
    },
    {
      "inputs": [
        {
          "internalType": "uint256",
          "name": "",
          "type": "uint256"
        }
      ],
      "name": "participantList",
      "outputs": [
        {
          "internalType": "address",
          "name": "",
          "type": "address"
        }
      ],
      "stateMutability": "view",
      "type": "function"
    },
    {
      "inputs": [
        {
          "internalType": "address",
          "name": "",
          "type": "address"
        }
      ],
      "name": "participants",
      "outputs": [
        {
          "internalType": "uint256",
          "name": "yesStake",
          "type": "uint256"
        },
        {
          "internalType": "uint256",
          "name": "noStake",
          "type": "uint256"
        },
        {
          "internalType": "bool",
          "name": "hasWithdrawn",
          "type": "bool"
        }
      ],
      "stateMutability": "view",
      "type": "function"
    },
    {
      "inputs": [
        {
          "internalType": "enum Bet.Side",
          "name": "_position",
          "type": "uint8"
        },
        {
          "internalType": "uint256",
          "name": "_amountUsdc",
          "type": "uint256"
        }
      ],
      "name": "placeBet",
      "outputs": [],
      "stateMutability": "nonpayable",
      "type": "function"
    },
    {
      "inputs": [],
      "name": "proofToken",
      "outputs": [
        {
          "internalType": "contract IERC20",
          "name": "",
          "type": "address"
        }
      ],
      "stateMutability": "view",
      "type": "function"
    },
    {
      "inputs": [],
      "name": "proofUrl",
      "outputs": [
        {
          "internalType": "string",
          "name": "",
          "type": "string"
        }
      ],
      "stateMutability": "view",
      "type": "function"
    },
    {
      "inputs": [
        {
          "internalType": "string",
          "name": "_proofUrl",
          "type": "string"
        }
      ],
      "name": "submitProof",
      "outputs": [],
      "stateMutability": "nonpayable",
      "type": "function"
    },
    {
      "inputs": [],
      "name": "totalNoProofStake",
      "outputs": [
        {
          "internalType": "uint256",
          "name": "",
          "type": "uint256"
        }
      ],
      "stateMutability": "view",
      "type": "function"
    },
    {
      "inputs": [],
      "name": "totalNoStake",
      "outputs": [
        {
          "internalType": "uint256",
          "name": "",
          "type": "uint256"
        }
      ],
      "stateMutability": "view",
      "type": "function"
    },
    {
      "inputs": [],
      "name": "totalVoteStakeProof",
      "outputs": [
        {
          "internalType": "uint256",
          "name": "",
          "type": "uint256"
        }
      ],
      "stateMutability": "view",
      "type": "function"
    },
    {
      "inputs": [],
      "name": "totalVotes",
      "outputs": [
        {
          "internalType": "uint256",
          "name": "",
          "type": "uint256"
        }
      ],
      "stateMutability": "view",
      "type": "function"
    },
    {
      "inputs": [],
      "name": "totalYesProofStake",
      "outputs": [
        {
          "internalType": "uint256",
          "name": "",
          "type": "uint256"
        }
      ],
      "stateMutability": "view",
      "type": "function"
    },
    {
      "inputs": [],
      "name": "totalYesStake",
      "outputs": [
        {
          "internalType": "uint256",
          "name": "",
          "type": "uint256"
        }
      ],
      "stateMutability": "view",
      "type": "function"
    },
    {
      "inputs": [],
      "name": "trustScoreContract",
      "outputs": [
        {
          "internalType": "contract TrustScore",
          "name": "",
          "type": "address"
        }
      ],
      "stateMutability": "view",
      "type": "function"
    },
    {
      "inputs": [],
      "name": "usdcToken",
      "outputs": [
        {
          "internalType": "contract IERC20",
          "name": "",
          "type": "address"
        }
      ],
      "stateMutability": "view",
      "type": "function"
    },
    {
      "inputs": [
        {
          "internalType": "enum Bet.Side",
          "name": "_vote",
          "type": "uint8"
        }
      ],
      "name": "vote",
      "outputs": [],
      "stateMutability": "nonpayable",
      "type": "function"
    },
    {
      "inputs": [
        {
          "internalType": "address",
          "name": "",
          "type": "address"
        }
      ],
      "name": "voted",
      "outputs": [
        {
          "internalType": "bool",
          "name": "",
          "type": "bool"
        }
      ],
      "stateMutability": "view",
      "type": "function"
    },
    {
      "inputs": [
        {
          "internalType": "address",
          "name": "",
          "type": "address"
        }
      ],
      "name": "voterStakesProof",
      "outputs": [
        {
          "internalType": "uint256",
          "name": "",
          "type": "uint256"
        }
      ],
      "stateMutability": "view",
      "type": "function"
    },
    {
      "inputs": [
        {
          "internalType": "address",
          "name": "",
          "type": "address"
        }
      ],
      "name": "votes",
      "outputs": [
        {
          "internalType": "enum Bet.Side",
          "name": "",
          "type": "uint8"
        }
      ],
      "stateMutability": "view",
      "type": "function"
    },
    {
      "inputs": [],
      "name": "winningSide",
      "outputs": [
        {
          "internalType": "enum Bet.Side",
          "name": "",
          "type": "uint8"
        }
      ],
      "stateMutability": "view",
      "type": "function"
    },
    {
      "inputs": [],
      "name": "yesVotes",
      "outputs": [
        {
          "internalType": "uint256",
          "name": "",
          "type": "uint256"
        }
      ],
      "stateMutability": "view",
      "type": "function"
    }
  ],
  "bytecode": "0x6080806040523460195760015f55613b08908161001e8239f35b5f80fdfe6080806040526004361015610012575f80fd5b5f905f3560e01c9081630208d8111461302c5750806302d05d3f1461300457806307ea56db14612fd157806309e69ede14612f7d5780630d15fd7714612f605780630e6fdaa114612f1e5780630e94a0ee14612ef657806311eac85514612ece5780631646824114612eb15780632bcd0f0214612e3d5780632c2e8faf14612a675780632d336a9714612a385780632e1a961814612a0f578063362f04c0146129f15780633a1fecb8146129c157806354dcd96a146129a3578063565974d31461291357806363a391411461254f5780636a3541c51461252c5780636f95b3f3146125065780638a2fd029146123d55780639ad2d00414611d05578063aa23979214611cd3578063aec2ccae14611c94578063b3f98adc146117d6578063b401faf114611472578063b4fb3ee314611433578063b5545a3c146112a3578063b5b47f4214611285578063c415b95c1461125c578063ccc827951461123e578063cfe7b77014611194578063d4249dce1461115c578063d6d2023814611037578063d72edbf214610b5a578063d8bff5a514610b18578063d9cbee0414610afa578063dc7831fd14610ad1578063dcb3b30e1461067c578063e41356f31461028e578063ef8a923514610268578063fb04521b1461024a578063fb286c651461022c5763fbf0633814610202575f80fd5b34610229578060031936011261022957602060ff6018541661022760405180926132eb565bf35b80fd5b50346102295780600319360112610229576020601954604051908152f35b50346102295780600319360112610229576020601454604051908152f35b5034610229578060031936011261022957602060ff6023541661022760405180926132de565b50346102295780600319360112610229576102a7613a54565b60ff602354166005811015610668576003811490811561065d575b501561062957338152602260205260ff604082205416156105f857338152602080526040812054156105c8578081903383526020805260408320543384526020805283604081205560ff6023541660058110156105b4576003036105ad57338452602160205260ff6040852054169060ff601854169160038310156105995760038110156105995782146104c2575b50505b80610434575b81610398575b60405191825260208201527ffbc3a599b784fe88772fc5abcc07223f64ca0b13acc341f4fb1e46bef0510eb460403392a26001815580f35b600b5483906001600160a01b0316803b156104305781809160c460405180948193634d8a45d560e11b835230600484015233602484015289604484015260806064840152600c60848401526b159bdd195c881c995dd85c9960a21b60a48401525af180156104255761040c575b5050610360565b816104169161309b565b61042157825f610405565b8280fd5b6040513d84823e3d90fd5b5080fd5b600b5483906001600160a01b0316803b156104305781809160c4604051809481936314f8d2c360e01b83523060048401523360248401528860448401526080606484015260116084840152702b37ba329039ba30b5b2903932ba3ab93760791b60a48401525af18015610425576104ad575b505061035a565b816104b79161309b565b61042157825f6104a6565b9150600114801561058f5760046013545b600b546040516317fbd0fd60e11b81529260209184919082906001600160a01b03165afa9081156105845760ff610516926064948991610555575b501690613367565b04901561054c57601954905b80151580610543575b156103515761053b92935061338e565b905f80610351565b5081151561052b565b601a5490610522565b610577915060203d60201161057d575b61056f818361309b565b81019061334e565b5f61050e565b503d610565565b6040513d88823e3d90fd5b60046012546104d3565b634e487b7160e01b86526021600452602486fd5b9050610354565b634e487b7160e01b85526021600452602485fd5b60405162461bcd60e51b81526020600482015260086024820152674e6f207374616b6560c01b6044820152606490fd5b60405162461bcd60e51b8152602060048201526009602482015268139bdd081d9bdd195960ba1b6044820152606490fd5b60405162461bcd60e51b815260206004820152600c60248201526b139bdd08199a5b9a5cda195960a21b6044820152606490fd5b60049150145f6102c2565b634e487b7160e01b82526021600452602482fd5b5034610229576040366003190112610229576004356003811015610430576024356106a5613a54565b60ff602354166005811015610abd576106be90156135c5565b600354421015610a87578260018314808015610a7a575b15610a46576006548310610a115760ff60085416806109a1575b50600b5460408051631bf8924760e01b81523360048201526001600160a01b03909216919081602481855afa80156109965785918891610966575b501061092d578086913b156104305781809160c460405180948193634d8a45d560e11b83523360048401523060248401528a604484015260806064840152600d60848401526c10995d081c1b1858d95b595b9d609a1b60a48401525af1801561042557610914575b5050338552601d60205260ff60408620541615610895575b338552601f60205260408520916105b45715610871576107cb82825461378e565b90556107d98160125461378e565b6012555b600b5483906001600160a01b0316803b15610430578180916024604051809481936301ddde7960e21b83523360048401525af180156104255761085c575b505061082a60405180936132eb565b60208201527f9f6b4cced64244a64465098f682029975b1614400b96bc6bd12c66808371916660403392a26001815580f35b816108669161309b565b61042157825f61081b565b60010161087f82825461378e565b905561088d8160135461378e565b6013556107dd565b338552601d60205260408520805460ff19166001179055601e5468010000000000000000811015610900578060016108d09201601e556132b2565b81546001600160a01b0360039290921b91821b19163390911b179055601b546108f890613a06565b601b556107aa565b634e487b7160e01b86526041600452602486fd5b8161091e9161309b565b61092957845f610792565b8480fd5b60405162461bcd60e51b8152602060048201526011602482015270496e73756666696369656e74205553444360781b6044820152606490fd5b610988915060403d60401161098f575b610980818361309b565b8101906139f0565b505f61072a565b503d610976565b6040513d89823e3d90fd5b600c54604051630d47875d60e41b81523360048201529190602090839060249082906001600160a01b03165afa918215610996576109ec9260ff9189916109f2575b501610156139b4565b5f6106ef565b610a0b915060203d60201161057d5761056f818361309b565b5f6109e3565b60405162461bcd60e51b815260206004820152600d60248201526c5374616b6520746f6f206c6f7760981b6044820152606490fd5b60405162461bcd60e51b815260206004820152600c60248201526b496e76616c6964207369646560a01b6044820152606490fd5b50849150600284146106d5565b60405162461bcd60e51b815260206004820152600e60248201526d10995d1d1a5b99c818db1bdcd95960921b6044820152606490fd5b634e487b7160e01b84526021600452602484fd5b5034610229578060031936011261022957600c546040516001600160a01b039091168152602090f35b50346102295780600319360112610229576020601654604051908152f35b50346102295760203660031901126102295760209060ff906040906001600160a01b03610b4361329c565b1681526021845220541661022760405180926132eb565b5034610229578060031936011261022957610b73613a54565b60ff602354166005811015610668576002148061102b575b610b97575b6001815580f35b601c546009541115610f5457610bb5600460ff196023541617602355565b5f516020613a735f395f51905f52606060405160208152601960208201527f496e73756666696369656e74207075626c696320766f746573000000000000006040820152a15b600b54600a5482916001600160a01b039081169116813b15610dc357829160248392604051948593849263c19b52d960e01b845260048401525af1801561042557610f3f575b505060ff6023541660058110159081610eaa576003811480918115610f31575b5015610ef9576018549160ff8360081c16610ebe57610eaa5715610e99575060ff60185461010061ff0019821617601855166003811015610668576001148015610e9057601254905b15610e8757601354905b15610e4257600b54604051634367413160e01b815283926001600160a01b0390921691602082600481865afa908115610e375760ff610cfe92606494879161055557501690613367565b0480610dd0575b50505060ff60185416600381101561066857600103610dc757806016545b80610d30575b5050610b90565b600b546001600160a01b031690813b15610dc357829160c4839260405194859384926314f8d2c360e01b8452306004850152816024850152604484015260806064840152601b60848401527f436f6c6c656374206c6f73696e672070726f6f66207374616b6573000000000060a48401525af180156104255715610d295781610db89161309b565b61022957805f610d29565b5050fd5b80601554610d23565b600f546001600160a01b031690823b15610e3257610e0892849283604051809681958294634d8a45d560e11b84523060048501613748565b03925af1801561042557610e1d575b80610d05565b81610e279161309b565b61022957805f610e17565b505050fd5b6040513d86823e3d90fd5b60405162461bcd60e51b815260206004820152601760248201527f4e6f207374616b657320746f20646973747269627574650000000000000000006044820152606490fd5b60125490610cb4565b60135490610caa565b61ff00191661010017601855610b90565b634e487b7160e01b83526021600452602483fd5b60405162461bcd60e51b8152602060048201526013602482015272105b1c9958591e48191a5cdd1c9a589d5d1959606a1b6044820152606490fd5b60405162461bcd60e51b815260206004820152601060248201526f10995d081b9bdd08199a5b9a5cda195960821b6044820152606490fd5b92505060048392145f610c61565b81610f499161309b565b61022957805f610c41565b601954601a5480821115610fbf575050600160ff196018541617601855610f83600360ff196023541617602355565b7fd6bcd4b6873d691163f1aff2d5585378623aef08e17513a5253eabe39c65dc50602060ff60185416610fb960405180926132eb565ba1610bfb565b1115610fe457600260ff196018541617601855610f83600360ff196023541617602355565b610ff6600460ff196023541617602355565b5f516020613a735f395f51905f526060604051602081526008602082015267566f74652074696560c01b6040820152a1610bfb565b50600554421015610b8b565b503461022957806003193601126102295760ff602354166005811015610668571580611150575b6110655780f35b601254600754809110159081611143575b501561108c57600160ff19602354161760235580f35b61109e600460ff196023541617602355565b600b54600a5482916001600160a01b039081169116813b15610dc357829160248392604051948593849263c19b52d960e01b845260048401525af180156104255761112e575b50505f516020613a735f395f51905f52606060405160208152601a60208201527f4d696e696d756d2073696465207374616b65206e6f74206d65740000000000006040820152a180f35b816111389161309b565b61022957805f6110e4565b905060135410155f611076565b5060035442101561105e565b5034610229576020366003190112610229576020906040906001600160a01b0361118461329c565b1681528280522054604051908152f35b50346102295780600319360112610229576012546101406013546003549261122d6004549160055493601b5494601c54946111cd613161565b986111d66131e3565b936112066111e26130bd565b956111f86040519d8d8f9e8f9081520190613278565b8c810360208e015290613278565b9560408b015260608a0152608089015260a088015260c087015285820360e0870152613278565b916101008401526101208301520390f35b50346102295780600319360112610229576020601354604051908152f35b5034610229578060031936011261022957600f546040516001600160a01b039091168152602090f35b50346102295780600319360112610229576020601a54604051908152f35b50346102295780600319360112610229576112bc613a54565b60ff602354166005811015610668576004036113fe57338152601f60205260408120600281016113028154926112f560ff851615613a14565b600181549101549061378e565b9182156113cd5760ff19166001179055600b5482906001600160a01b0316803b156104305781809160c460405180948193634d8a45d560e11b835230600484015233602484015288604484015260806064840152600a60848401526910995d081c99599d5b9960b21b60a48401525af18015610425576113b8575b50506040519081528160208201527ffbc3a599b784fe88772fc5abcc07223f64ca0b13acc341f4fb1e46bef0510eb460403392a26001815580f35b816113c29161309b565b61043057815f61137d565b60405162461bcd60e51b8152602060048201526009602482015268139bc81c99599d5b9960ba1b6044820152606490fd5b60405162461bcd60e51b815260206004820152600d60248201526c139bdd0818d85b98d95b1b1959609a1b6044820152606490fd5b50346102295760203660031901126102295760209060ff906040906001600160a01b0361145e61329c565b168152601d84522054166040519015158152f35b503461022957806003193601126102295761148b613a54565b60ff602354166005811015610668576003036117a15760185460ff8160081c161561176a57338252601f60205260408220805490811580159061175d575b1561172557600281019160ff8354946114e482871615613a14565b1660038110156105995760011491821561171a57505b80156116e85781156116df57601254915b156116d657601354905b600b546040516317fbd0fd60e11b81529387916001600160a01b0316602086600481845afa80156116ae57606461155c60ff60209360049a88916116b9575b501688613367565b049160405197888092634367413160e01b82525afa80156116ae576115af6115bf966115aa6115b49460646115a360ff8b9760019e6115b99c9161168f575b501685613367565b04926133ac565b6133ac565b613367565b61338e565b9061378e565b9260ff191617905580611606575b6040519081528160208201527ffbc3a599b784fe88772fc5abcc07223f64ca0b13acc341f4fb1e46bef0510eb460403392a26001815580f35b600b5482906001600160a01b0316803b156104305781809160c460405180948193634d8a45d560e11b835230600484015233602484015288604484015260806064840152600c60848401526b4265742077696e6e696e677360a01b60a48401525af180156104255761167a575b50506115cd565b816116849161309b565b61043057815f611673565b6116a8915060203d60201161057d5761056f818361309b565b5f61159b565b6040513d85823e3d90fd5b6116d09150853d871161057d5761056f818361309b565b5f611554565b60125490611515565b6013549161150b565b60405162461bcd60e51b815260206004820152600a6024820152692737ba103bb4b73732b960b11b6044820152606490fd5b6001915001546114fa565b60405162461bcd60e51b815260206004820152601060248201526f2737903830b93a34b1b4b830ba34b7b760811b6044820152606490fd5b50600181015415156114c9565b60405162461bcd60e51b815260206004820152600f60248201526e139bdd08191a5cdd1c9a589d5d1959608a1b6044820152606490fd5b60405162461bcd60e51b815260206004820152600d60248201526c139bdd0818dbdb5c1b195d1959609a1b6044820152606490fd5b503461022957602036600319011261022957600435600381108015610421576117fd613a54565b60ff602354166005811015610abd57600261181891146135c5565b600554421015611c5f576001821483818015611c53575b15611c1f57338552601f60205260408520541580611c08575b15611bcd57338552602260205260ff604086205416611b9857600c54604051630d47875d60e41b815233600482015290602090829060249082906001600160a01b03165afa8015610584576118af918791611b79575b5060ff8060085416911610156139b4565b600b54604051633415d2ff60e21b815233600482015293906001600160a01b0316602085602481845afa948515610996578795611b41575b5060408051631bf8924760e01b81523360048201529081602481855afa8015611b365786918991611b15575b5010611adb578087913b156104305781809160c4604051809481936314f8d2c360e01b83523360048401523060248401528b604484015260806064840152600a608484015269566f7465207374616b6560b01b60a48401525af1801561042557611ac2575b5050338652602260205260408620600160ff1982541617905533865260216020526040862090156105995760ff1981541660ff861617905533855260208052604085206119c684825461378e565b90556119d48360145461378e565b6014556119e2601c54613a06565b601c55610abd5715611aa0576119f9601954613a06565b601955611a088160155461378e565b6015555b600b5483906001600160a01b0316803b15610430578180916024604051809481936306aac6d960e01b83523360048401525af1801561042557611a8b575b5050611a5960405180936132eb565b60208201527fd9d9fd0caa964abf9540e87552b03d0f6f1427c14e4d23c647cc9f24efc0848860403392a26001815580f35b81611a959161309b565b61042157825f611a4a565b611aab601a54613a06565b601a55611aba8160165461378e565b601655611a0c565b81611acc9161309b565b611ad757855f611978565b8580fd5b60405162461bcd60e51b815260206004820152601260248201527124b739bab33334b1b4b2b73a10282927a7a360711b6044820152606490fd5b611b2e915060403d60401161098f57610980818361309b565b90505f611913565b6040513d8a823e3d90fd5b9094506020813d602011611b71575b81611b5d6020938361309b565b81010312611b6d5751935f6118e7565b5f80fd5b3d9150611b50565b611b92915060203d60201161057d5761056f818361309b565b5f61189e565b60405162461bcd60e51b815260206004820152600d60248201526c105b1c9958591e481d9bdd1959609a1b6044820152606490fd5b60405162461bcd60e51b8152602060048201526013602482015272426574746f72732063616e6e6f7420766f746560681b6044820152606490fd5b50338552601f602052600160408620015415611848565b60405162461bcd60e51b815260206004820152600c60248201526b496e76616c696420766f746560a01b6044820152606490fd5b5050836002841461182f565b60405162461bcd60e51b815260206004820152600d60248201526c159bdd1a5b99c818db1bdcd959609a1b6044820152606490fd5b50346102295760203660031901126102295760209060ff906040906001600160a01b03611cbf61329c565b168152602284522054166040519015158152f35b5034610229576020366003190112610229576040611cf7611cf261329c565b61379b565b825191825215156020820152f35b50346102295760e03660031901126102295760043567ffffffffffffffff81116104305761012060031982360301126104305760405190611d458261307e565b806004013567ffffffffffffffff81116123d157611d6990600436918401016132f8565b8252602481013567ffffffffffffffff81116123d157611d8f90600436918401016132f8565b602083015260448101356040830152606481013560608301526084810135608083015260a481013560a083015260c481013560c083015260e48101359060ff821682036123d15760e08301919091526101040135610100820152602435906001600160a01b038216820361042157604435916001600160a01b03831683036123d1576064356001600160a01b038116810361092957608435906001600160a01b0382168203611ad75760a435926001600160a01b03841684036123cd5760c435946001600160a01b03861686036123c95760235460ff8160081c1661238e5761ff001916610100176023556001600160a01b03821615158061237c575b8061236a575b80612358575b80612346575b80612334575b15612300576040810151606082015180911090816122f2575b50156122bd57805180519067ffffffffffffffff82116121c0578190611ee4600154613046565b601f811161224e575b50602090601f83116001146121df578b926121d4575b50508160011b915f199060031b1c1916176001555b602081015180519067ffffffffffffffff82116121c057611f3a600254613046565b601f8111612160575b506020908a601f84116001146120eb5792806101009360049c9a98969360209c9a9896926120e0575b50508160011b915f199060031b1c1916176002555b604081015160035560608101518a55608081015160055560a081015160065560c081015160075560ff60e08201511660ff196008541617600855015160095560018060a01b03166001600160601b0360a01b600a541617600a5560018060a01b0385166001600160601b0360a01b600b541617600b5560018060a01b03166001600160601b0360a01b600c541617600c5560018060a01b03166001600160601b0360a01b600d541617600d5560018060a01b03166001600160601b0360a01b600e541617600e5560018060a01b03166001600160601b0360a01b600f541617600f5560ff196023541660235560405192838092634a55342d60e11b825260018060a01b03165afa9081156104255782916120ae575b508060105560ff801960115416911515161760115580f35b90506020813d6020116120d8575b816120c96020938361309b565b81010312611b6d57515f612096565b3d91506120bc565b015190505f80611f6c565b60029052818b2091908b5b601f19851681106121485750836101009360049c9a98969360019360209d9b9997601f19811610612130575b505050811b01600255611f81565b01515f1960f88460031b161c191690555f8080612122565b919260206001819286850151815501940192016120f6565b60028b527f405787fa12a823e0f2b7631cc41b3ba8828b3321ca811111fa75cd3aa3bb5ace601f840160051c8101602085106121b9575b8c601f840160051c830182106121af57505050611f43565b8155600101612197565b5080612197565b634e487b7160e01b8a52604160045260248afd5b015190505f80611f03565b60018c525f516020613a935f395f51905f529250601f1984168c5b818110612236575090846001959493921061221e575b505050811b01600155611f18565b01515f1960f88460031b161c191690555f8080612210565b929360206001819287860151815501950193016121fa565b90915060018b52601f830160051c5f516020613a935f395f51905f5201602084106122a9575b908392915b601f820160051c5f516020613a935f395f51905f5201811061229b5750611eed565b8c8155849350600101612279565b505f516020613a935f395f51905f52612274565b60405162461bcd60e51b815260206004820152600d60248201526c42616420646561646c696e657360981b6044820152606490fd5b90506080820151115f611ebd565b60405162461bcd60e51b815260206004820152600c60248201526b5a65726f206164647265737360a01b6044820152606490fd5b506001600160a01b0386161515611ea4565b506001600160a01b0385161515611e9e565b506001600160a01b0384161515611e98565b506001600160a01b0383161515611e92565b506001600160a01b0387161515611e8c565b60405162461bcd60e51b8152602060048201526013602482015272105b1c9958591e481a5b9a5d1a585b1a5e9959606a1b6044820152606490fd5b8780fd5b8680fd5b8380fd5b50346102295780600319360112610229576101006040516123f58161307e565b60608152606060208201528260408201528260608201528260808201528260a08201528260c08201528260e0820152015261012060206040516124378161307e565b61243f613161565b81526124496131e3565b9082810191825260ff600354926040830193845260045460608401908152600554608085019081526006549060a086019182526007549260c087019384526124d486600854169560e089019687526124c16009549961010081019a8b526040519d8d8f9e928f938452519201526101408d0190613278565b90518b8203601f190160408d0152613278565b975160608a01525160808901525160a08801525160c08701525160e08601525116610100840152516101208301520390f35b5034610229578060031936011261022957602060ff60185460081c166040519015158152f35b5034610229578060031936011261022957602060ff601154166040519015158152f35b503461022957806003193601126102295760ff6023541660058110156106685760011480612907575b61257f5780f35b612591600460ff196023541617602355565b600b54600a5482916001600160a01b039081169116813b15610dc357829160248392604051948593849263c19b52d960e01b845260048401525af18015610425576128f2575b50505f516020613a735f395f51905f526060604051602081526015602082015274141c9bdbd988191958591b1a5b99481b5a5cdcd959605a1b6040820152a160ff60115416806128e7575b6126295780f35b601054600b54604051634367413160e01b815283916001600160a01b031690602081600481855afa9081156116ae5761267360ff61267b9360649387916128c8575b501686613367565b0480946133ac565b6040516331056e5760e21b81529093602082600481865afa918215610e37578492612884575b50823b156123d1576126cd92849283604051809681958294634d8a45d560e11b84523060048501613748565b03925af180156104255761286f575b50506126ed6012546013549061378e565b9081612760575b5050600b54600a5482916001600160a01b039081169116813b15610dc3578291602483926040519485938492633a87bca160e21b845260048401525af180156104255761274b575b505060ff196011541660115580f35b816127559161309b565b61022957805f61273c565b825b601e548110156128655783612776826132b2565b60018060a01b0391549060031b1c16808252601f602052846127ac6040842054838552601f60205260016040862001549061378e565b806127be575b50505050600101612762565b906115b46127cc9287613367565b600b546001600160a01b03169190823b156123d15760c48492836040519586948593634d8a45d560e11b85523060048601526024850152604484015260806064840152601960848401527f436f6c6c61746572616c207265646973747269627574696f6e0000000000000060a48401525af1801561042557612850575b84816127b2565b8161285a9161309b565b6123d157835f612849565b5050505f806126f4565b816128799161309b565b61043057815f6126dc565b9091506020813d6020116128c0575b816128a06020938361309b565b810103126123d157516001600160a01b03811681036123d157905f6126a1565b3d9150612893565b6128e1915060203d60201161057d5761056f818361309b565b5f61266b565b506010541515612622565b816128fc9161309b565b61022957805f6125d7565b50600454421015612578565b503461022957806003193601126102295761296c61292f613161565b6129376131e3565b600354906004546005546006546007549160ff600854169361297a600954966040519a8b9a6101208c526101208c0190613278565b908a820360208c0152613278565b9660408901526060880152608087015260a086015260c085015260e08401526101008301520390f35b50346102295780600319360112610229576020601054604051908152f35b50346102295760203660031901126102295760406129e56129e061329c565b613602565b82519182526020820152f35b50346102295780600319360112610229576020601b54604051908152f35b5034610229578060031936011261022957600b546040516001600160a01b039091168152602090f35b50346102295780600319360112610229576060601954601a546014549060405192835260208301526040820152f35b5034611b6d576020366003190112611b6d5760043567ffffffffffffffff8111611b6d57612a999036906004016132f8565b600a549091906001600160a01b03163303612e0a5760ff602354166005811015612df6576001612ac991146135c5565b6003544210612dbc57600454421015612d7f57815115612d4c5781519167ffffffffffffffff8311612d3857612b00601754613046565b601f8111612cd0575b50602092601f8111600114612c605780612b8993945f91612c55575b508160011b915f199060031b1c1916176017555b600260ff1960235416176023557f227d17811e582357665ee6ee281ef8528946951eab558c87afaf102464d6cc5660018060a01b03600a5416928392604051918291602083526020830190613278565b0390a260ff6011541680612c4a575b612ba0575080f35b60018060a01b03600b541690601054823b15611b6d5760c45f92836040519586948593634d8a45d560e11b85523060048601526024850152604484015260806064840152601960848401527f52657475726e2063726561746f7220636f6c6c61746572616c0000000000000060a48401525af18015612c3f57612c2c575b5060ff196011541660115580f35b612c3891505f9061309b565b5f5f612c1e565b6040513d5f823e3d90fd5b506010541515612b98565b90508201515f612b25565b601f19811660175f525f516020613ab35f395f51905f52905f5b818110612cb8575090612b899495836001949310612ca0575b5050811b01601755612b39565b8401515f1960f88460031b161c191690555f80612c93565b84870151835560209687019660019093019201612c7a565b60175f52601f840160051c5f516020613ab35f395f51905f52019060208510612d23575b601f0160051c5f516020613ab35f395f51905f5201905b818110612d185750612b09565b5f8155600101612d0b565b5f516020613ab35f395f51905f529150612cf4565b634e487b7160e01b5f52604160045260245ffd5b60405162461bcd60e51b815260206004820152600b60248201526a22b6b83a3c90383937b7b360a91b6044820152606490fd5b60405162461bcd60e51b8152602060048201526015602482015274141c9bdbd988191958591b1a5b99481c185cdcd959605a1b6044820152606490fd5b60405162461bcd60e51b81526020600482015260126024820152712132ba3a34b7339039ba34b6361037b832b760711b6044820152606490fd5b634e487b7160e01b5f52602160045260245ffd5b60405162461bcd60e51b815260206004820152600b60248201526a2737ba1031b932b0ba37b960a91b6044820152606490fd5b34611b6d575f366003190112611b6d57610160612e7f612e5b6133b9565b999a9098612e75604099939998949897959751809d6132de565b60208c01906132eb565b60408a01526060890152608088015260a087015260c086015260e0850152610100840152610120830152610140820152f35b34611b6d575f366003190112611b6d576020601554604051908152f35b34611b6d575f366003190112611b6d57600d546040516001600160a01b039091168152602090f35b34611b6d575f366003190112611b6d57600e546040516001600160a01b039091168152602090f35b34611b6d576020366003190112611b6d57600435601e54811015611b6d57612f476020916132b2565b905460405160039290921b1c6001600160a01b03168152f35b34611b6d575f366003190112611b6d576020601c54604051908152f35b34611b6d576020366003190112611b6d576001600160a01b03612f9e61329c565b165f52601f602052606060405f2080549060ff600260018301549201541690604051928352602083015215156040820152f35b34611b6d575f366003190112611b6d57613000612fec6130bd565b604051918291602083526020830190613278565b0390f35b34611b6d575f366003190112611b6d57600a546040516001600160a01b039091168152602090f35b34611b6d575f366003190112611b6d576020906012548152f35b90600182811c92168015613074575b602083101461306057565b634e487b7160e01b5f52602260045260245ffd5b91607f1691613055565b610120810190811067ffffffffffffffff821117612d3857604052565b90601f8019910116810190811067ffffffffffffffff821117612d3857604052565b604051905f82601754916130d083613046565b808352926001811690811561314257506001146130f6575b6130f49250038361309b565b565b5060175f90815290915f516020613ab35f395f51905f525b8183106131265750509060206130f4928201016130e8565b602091935080600191548385890101520191019091849261310e565b602092506130f494915060ff191682840152151560051b8201016130e8565b604051905f826001549161317483613046565b80835292600181169081156131425750600114613197576130f49250038361309b565b5060015f90815290915f516020613a935f395f51905f525b8183106131c75750509060206130f4928201016130e8565b60209193508060019154838589010152019101909184926131af565b604051905f82600254916131f683613046565b80835292600181169081156131425750600114613219576130f49250038361309b565b5060025f90815290917f405787fa12a823e0f2b7631cc41b3ba8828b3321ca811111fa75cd3aa3bb5ace5b81831061325c5750509060206130f4928201016130e8565b6020919350806001915483858901015201910190918492613244565b805180835260209291819084018484015e5f828201840152601f01601f1916010190565b600435906001600160a01b0382168203611b6d57565b601e548110156132ca57601e5f5260205f2001905f90565b634e487b7160e01b5f52603260045260245ffd5b906005821015612df65752565b906003821015612df65752565b81601f82011215611b6d5780359067ffffffffffffffff8211612d38576040519261332d601f8401601f19166020018561309b565b82845260208383010111611b6d57815f926020809301838601378301015290565b90816020910312611b6d575160ff81168103611b6d5790565b8181029291811591840414171561337a57565b634e487b7160e01b5f52601160045260245ffd5b8115613398570490565b634e487b7160e01b5f52601260045260245ffd5b9190820391821161337a57565b60ff602354169060ff6018541690816005841015612df6576003840361350a576003811015612df6576001148015613502576012545b9181156134f957601354905b600b54604051634367413160e01b815292936001600160a01b0390911692908490602083600481885afa8015612c3f5760ff6020916004955f916134dc575b501695604051948580926317fbd0fd60e11b82525afa928315612c3f576134909360ff915f916134bd575b50169360646134748785613367565b0493836115aa6064613487898998613367565b049586926133ac565b91156134b457601954905b8180156134af576134ac908561338e565b90565b505f90565b601a549061349b565b6134d6915060203d60201161057d5761056f818361309b565b5f613465565b6134f39150833d851161057d5761056f818361309b565b5f61343a565b601254906133fb565b6013546133ef565b50600b54604051634367413160e01b815292936001600160a01b0390911690602084600481855afa918215612c3f576004945f936135a3575b50602090604051958680926317fbd0fd60e11b82525afa938415612c3f575f94613582575b5093925f9260ff805f94169216905f905f905f905f905f90565b61359c91945060203d60201161057d5761056f818361309b565b925f613568565b60209193506135be90823d841161057d5761056f818361309b565b9290613543565b156135cc57565b60405162461bcd60e51b815260206004820152600e60248201526d496e76616c69642073746174757360901b6044820152606490fd5b6001600160a01b03165f8181526022602052604081205490929060ff16158015613735575b61372d57815f526020805260405f20549160ff602354166005811015612df65760048114613726576002190161371d575f52602160205260ff60405f20541660ff60185416906003821015612df6576003811015612df657810361371d5760011480156137135760046013545b600b546040516317fbd0fd60e11b81529260209184919082906001600160a01b03165afa908115612c3f5760ff6136d6926064945f9161055557501690613367565b04901561370a57601954905b81151580613701575b6136f3575050565b6136fe92945061338e565b91565b508015156136eb565b601a54906136e2565b6004601254613694565b505f9250829150565b505f935050565b5f9250829150565b50815f526020805260405f205415613627565b6001600160a01b039182168152911660208201526040810191909152608060608201819052600c908201526b506c6174666f726d2066656560a01b60a082015260c00190565b9190820180921161337a57565b60ff602354166005811015612df6576003036139ad5760018060a01b03165f52601f60205260405f206040516060810181811067ffffffffffffffff821117612d38576040528154808252600183015460ff600260208501958387520154161591821580604086015292613993575b505061398b5760ff601854169060038210159283612df65760018314928380613981575b1561395457506001935b612df657821561394c5750515b811561394357601254915b1561393b576013545b600b546040516317fbd0fd60e11b815293906001600160a01b0316602085600481845afa948515612c3f575f95613916575b50602060049160405192838092634367413160e01b82525afa8015612c3f576115af6115b9946115aa87936136fe996115b4965f926138e3575b506115a360ff60646138da8282951688613367565b04931685613367565b606491925060ff826138da8261390a6115a39560203d60201161057d5761056f818361309b565b969550505050506138c5565b6004919550613933602091823d841161057d5761056f818361309b565b95915061388b565b601254613859565b60135491613850565b905051613845565b5f945060021480613977575b1561396d57600193613838565b505050505f905f90565b5080511515613960565b508251151561382e565b50505f905f90565b159150816139a4575b505f8061380a565b9050155f61399c565b505f905f90565b156139bb57565b60405162461bcd60e51b815260206004820152600d60248201526c547275737420746f6f206c6f7760981b6044820152606490fd5b9190826040910312611b6d576020825192015190565b5f19811461337a5760010190565b15613a1b57565b60405162461bcd60e51b815260206004820152601160248201527020b63932b0b23c903bb4ba34323930bbb760791b6044820152606490fd5b60025f5414613a635760025f55565b633ee5aeb560e01b5f5260045ffdfe3ddcc849954303c379ec7b5fc775e4075525c655f439ae3564d02ae1c1feda6cb10e2d527612073b26eecdfd717e6a320cf44b4afac2b0732d9fcbe2b7fa0cf6c624b66cc0138b8fabc209247f72d758e1cf3343756d543badbf24212bed8c15a26469706673582212200273f4be422cf918a2e1bea171130b8baad86cda47ac34ce44e7896cde9188a664736f6c634300081c0033",
  "linkReferences": {},
  "deployedLinkReferences": {},
  "immutableReferences": {},
  "inputSourceName": "project/contracts/Bet.sol",
  "buildInfoId": "solc-0_8_28-9de6fce91a735c6f323fe33e4615b73ca1b57c94"
}