{
  "_format": "hh3-artifact-1",
  "contractName": "BetFactory",
  "sourceName": "contracts/BetFactory.sol",
  "abi": [
    {
      "inputs": [
        {
          "internalType": "address",
          "name": "_trustScore",
          "type": "address"
        },
        {
          "internalType": "address",
          "name": "_usdcToken",
          "type": "address"
        },
        {
          "internalType": "address",
          "name": "_proofToken",
          "type": "address"
        },
        {
          "internalType": "address",
          "name": "_feeCollector",
          "type": "address"
        },
        {
          "internalType": "uint256",
          "name": "_creationFeeProof",
          "type": "uint256"
        },
        {
          "internalType": "uint256",
          "name": "_proofCollateralUsdc",
          "type": "uint256"
        },
        {
          "internalType": "uint256",
          "name": "_initialVoteStakeAmountProof",
          "type": "uint256"
        },
        {
          "internalType": "uint256",
          "name": "_maxActiveBets",
          "type": "uint256"
        },
        {
          "internalType": "address",
          "name": "_betImplementation",
          "type": "address"
        }
      ],
      "stateMutability": "nonpayable",
      "type": "constructor"
    },
    {
      "inputs": [],
      "name": "FailedDeployment",
      "type": "error"
    },
    {
      "inputs": [
        {
          "internalType": "uint256",
          "name": "balance",
          "type": "uint256"
        },
        {
          "internalType": "uint256",
          "name": "needed",
          "type": "uint256"
        }
      ],
      "name": "InsufficientBalance",
      "type": "error"
    },
    {
      "inputs": [
        {
          "internalType": "address",
          "name": "owner",
          "type": "address"
        }
      ],
      "name": "OwnableInvalidOwner",
      "type": "error"
    },
    {
      "inputs": [
        {
          "internalType": "address",
          "name": "account",
          "type": "address"
        }
      ],
      "name": "OwnableUnauthorizedAccount",
      "type": "error"
    },
    {
      "inputs": [],
      "name": "ReentrancyGuardReentrantCall",
      "type": "error"
    },
    {
      "anonymous": false,
      "inputs": [
        {
          "indexed": true,
          "internalType": "address",
          "name": "betAddress",
          "type": "address"
        },
        {
          "indexed": true,
          "internalType": "address",
          "name": "creator",
          "type": "address"
        },
        {
          "indexed": false,
          "internalType": "string",
          "name": "title",
          "type": "string"
        }
      ],
      "name": "BetCreated",
      "type": "event"
    },
    {
      "anonymous": false,
      "inputs": [
        {
          "indexed": false,
          "internalType": "uint8",
          "name": "oldPercentage",
          "type": "uint8"
        },
        {
          "indexed": false,
          "internalType": "uint8",
          "name": "newPercentage",
          "type": "uint8"
        }
      ],
      "name": "DefaultPlatformFeeChanged",
      "type": "event"
    },
    {
      "anonymous": false,
      "inputs": [
        {
          "indexed": false,
          "internalType": "uint8",
          "name": "oldPercentage",
          "type": "uint8"
        },
        {
          "indexed": false,
          "internalType": "uint8",
          "name": "newPercentage",
          "type": "uint8"
        }
      ],
      "name": "DefaultVoterRewardChanged",
      "type": "event"
    },
    {
      "anonymous": false,
      "inputs": [
        {
          "indexed": true,
          "internalType": "address",
          "name": "payer",
          "type": "address"
        },
        {
          "indexed": false,
          "internalType": "uint256",
          "name": "totalFee",
          "type": "uint256"
        },
        {
          "indexed": false,
          "internalType": "uint256",
          "name": "burnAmount",
          "type": "uint256"
        },
        {
          "indexed": false,
          "internalType": "uint256",
          "name": "keepAmount",
          "type": "uint256"
        }
      ],
      "name": "FeeProcessed",
      "type": "event"
    },
    {
      "anonymous": false,
      "inputs": [
        {
          "indexed": true,
          "internalType": "address",
          "name": "from",
          "type": "address"
        },
        {
          "indexed": true,
          "internalType": "address",
          "name": "to",
          "type": "address"
        },
        {
          "indexed": false,
          "internalType": "uint256",
          "name": "usdcAmount",
          "type": "uint256"
        },
        {
          "indexed": false,
          "internalType": "uint256",
          "name": "proofAmount",
          "type": "uint256"
        },
        {
          "indexed": false,
          "internalType": "string",
          "name": "reason",
          "type": "string"
        }
      ],
      "name": "InternalTransfer",
      "type": "event"
    },
    {
      "anonymous": false,
      "inputs": [
        {
          "indexed": false,
          "internalType": "uint256",
          "name": "oldLimit",
          "type": "uint256"
        },
        {
          "indexed": false,
          "internalType": "uint256",
          "name": "newLimit",
          "type": "uint256"
        }
      ],
      "name": "MaxActiveBetsChanged",
      "type": "event"
    },
    {
      "anonymous": false,
      "inputs": [
        {
          "indexed": true,
          "internalType": "address",
          "name": "previousOwner",
          "type": "address"
        },
        {
          "indexed": true,
          "internalType": "address",
          "name": "newOwner",
          "type": "address"
        }
      ],
      "name": "OwnershipTransferred",
      "type": "event"
    },
    {
      "anonymous": false,
      "inputs": [
        {
          "indexed": true,
          "internalType": "address",
          "name": "user",
          "type": "address"
        },
        {
          "indexed": false,
          "internalType": "uint256",
          "name": "amount",
          "type": "uint256"
        }
      ],
      "name": "ProofDeposited",
      "type": "event"
    },
    {
      "anonymous": false,
      "inputs": [
        {
          "indexed": true,
          "internalType": "address",
          "name": "user",
          "type": "address"
        },
        {
          "indexed": false,
          "internalType": "uint256",
          "name": "amount",
          "type": "uint256"
        }
      ],
      "name": "ProofWithdrawn",
      "type": "event"
    },
    {
      "anonymous": false,
      "inputs": [
        {
          "indexed": true,
          "internalType": "address",
          "name": "user",
          "type": "address"
        },
        {
          "indexed": false,
          "internalType": "uint256",
          "name": "amount",
          "type": "uint256"
        }
      ],
      "name": "UsdcDeposited",
      "type": "event"
    },
    {
      "anonymous": false,
      "inputs": [
        {
          "indexed": true,
          "internalType": "address",
          "name": "user",
          "type": "address"
        },
        {
          "indexed": false,
          "internalType": "uint256",
          "name": "amount",
          "type": "uint256"
        }
      ],
      "name": "UsdcWithdrawn",
      "type": "event"
    },
    {
      "anonymous": false,
      "inputs": [
        {
          "indexed": false,
          "internalType": "uint256",
          "name": "oldAmount",
          "type": "uint256"
        },
        {
          "indexed": false,
          "internalType": "uint256",
          "name": "newAmount",
          "type": "uint256"
        }
      ],
      "name": "VoteStakeAmountChanged",
      "type": "event"
    },
    {
      "inputs": [
        {
          "internalType": "address",
          "name": "",
          "type": "address"
        }
      ],
      "name": "activeBetsCount",
      "outputs": [
        {
          "internalType": "uint256",
          "name": "",
          "type": "uint256"
        }
      ],
      "stateMutability": "view",
      "type": "function"
    },
    {
      "inputs": [
        {
          "internalType": "uint256",
          "name": "",
          "type": "uint256"
        }
      ],
      "name": "allBets",
      "outputs": [
        {
          "internalType": "address",
          "name": "",
          "type": "address"
        }
      ],
      "stateMutability": "view",
      "type": "function"
    },
    {
      "inputs": [
        {
          "internalType": "address",
          "name": "_creator",
          "type": "address"
        }
      ],
      "name": "banCreator",
      "outputs": [],
      "stateMutability": "nonpayable",
      "type": "function"
    },
    {
      "inputs": [
        {
          "internalType": "address",
          "name": "",
          "type": "address"
        }
      ],
      "name": "bannedCreators",
      "outputs": [
        {
          "internalType": "bool",
          "name": "",
          "type": "bool"
        }
      ],
      "stateMutability": "view",
      "type": "function"
    },
    {
      "inputs": [],
      "name": "baseDurationDays",
      "outputs": [
        {
          "internalType": "uint256",
          "name": "",
          "type": "uint256"
        }
      ],
      "stateMutability": "view",
      "type": "function"
    },
    {
      "inputs": [],
      "name": "betImplementation",
      "outputs": [
        {
          "internalType": "address",
          "name": "",
          "type": "address"
        }
      ],
      "stateMutability": "view",
      "type": "function"
    },
    {
      "inputs": [
        {
          "components": [
            {
              "internalType": "string",
              "name": "title",
              "type": "string"
            },
            {
              "internalType": "string",
              "name": "description",
              "type": "string"
            },
            {
              "internalType": "uint256",
              "name": "bettingDeadline",
              "type": "uint256"
            },
            {
              "internalType": "uint256",
              "name": "proofDeadline",
              "type": "uint256"
            },
            {
              "internalType": "uint256",
              "name": "votingDeadline",
              "type": "uint256"
            },
            {
              "internalType": "uint256",
              "name": "minimumBetAmount",
              "type": "uint256"
            },
            {
              "internalType": "uint256",
              "name": "minimumSideStake",
              "type": "uint256"
            },
            {
              "internalType": "uint8",
              "name": "minimumTrustScore",
              "type": "uint8"
            },
            {
              "internalType": "uint256",
              "name": "minimumVotes",
              "type": "uint256"
            }
          ],
          "internalType": "struct Bet.BetDetails",
          "name": "_details",
          "type": "tuple"
        }
      ],
      "name": "calculateDynamicCreationFee",
      "outputs": [
        {
          "internalType": "uint256",
          "name": "",
          "type": "uint256"
        }
      ],
      "stateMutability": "view",
      "type": "function"
    },
    {
      "inputs": [
        {
          "internalType": "address",
          "name": "voter",
          "type": "address"
        }
      ],
      "name": "calculateRequiredStake",
      "outputs": [
        {
          "internalType": "uint256",
          "name": "",
          "type": "uint256"
        }
      ],
      "stateMutability": "view",
      "type": "function"
    },
    {
      "inputs": [
        {
          "components": [
            {
              "internalType": "string",
              "name": "title",
              "type": "string"
            },
            {
              "internalType": "string",
              "name": "description",
              "type": "string"
            },
            {
              "internalType": "uint256",
              "name": "bettingDeadline",
              "type": "uint256"
            },
            {
              "internalType": "uint256",
              "name": "proofDeadline",
              "type": "uint256"
            },
            {
              "internalType": "uint256",
              "name": "votingDeadline",
              "type": "uint256"
            },
            {
              "internalType": "uint256",
              "name": "minimumBetAmount",
              "type": "uint256"
            },
            {
              "internalType": "uint256",
              "name": "minimumSideStake",
              "type": "uint256"
            },
            {
              "internalType": "uint8",
              "name": "minimumTrustScore",
              "type": "uint8"
            },
            {
              "internalType": "uint256",
              "name": "minimumVotes",
              "type": "uint256"
            }
          ],
          "internalType": "struct Bet.BetDetails",
          "name": "_details",
          "type": "tuple"
        }
      ],
      "name": "createBet",
      "outputs": [
        {
          "internalType": "address",
          "name": "",
          "type": "address"
        }
      ],
      "stateMutability": "nonpayable",
      "type": "function"
    },
    {
      "inputs": [],
      "name": "creationFeeProof",
      "outputs": [
        {
          "internalType": "uint256",
          "name": "",
          "type": "uint256"
        }
      ],
      "stateMutability": "view",
      "type": "function"
    },
    {
      "inputs": [],
      "name": "defaultPlatformFeePercentage",
      "outputs": [
        {
          "internalType": "uint8",
          "name": "",
          "type": "uint8"
        }
      ],
      "stateMutability": "view",
      "type": "function"
    },
    {
      "inputs": [],
      "name": "defaultVoterRewardPercentage",
      "outputs": [
        {
          "internalType": "uint8",
          "name": "",
          "type": "uint8"
        }
      ],
      "stateMutability": "view",
      "type": "function"
    },
    {
      "inputs": [
        {
          "internalType": "uint256",
          "name": "_amount",
          "type": "uint256"
        }
      ],
      "name": "depositProof",
      "outputs": [],
      "stateMutability": "nonpayable",
      "type": "function"
    },
    {
      "inputs": [
        {
          "internalType": "uint256",
          "name": "_amount",
          "type": "uint256"
        }
      ],
      "name": "depositUsdc",
      "outputs": [],
      "stateMutability": "nonpayable",
      "type": "function"
    },
    {
      "inputs": [
        {
          "internalType": "address",
          "name": "creator",
          "type": "address"
        }
      ],
      "name": "factoryLogBetCompletion",
      "outputs": [],
      "stateMutability": "nonpayable",
      "type": "function"
    },
    {
      "inputs": [
        {
          "internalType": "address",
          "name": "participant",
          "type": "address"
        }
      ],
      "name": "factoryLogBetParticipation",
      "outputs": [],
      "stateMutability": "nonpayable",
      "type": "function"
    },
    {
      "inputs": [
        {
          "internalType": "address",
          "name": "voter",
          "type": "address"
        }
      ],
      "name": "factoryLogVote",
      "outputs": [],
      "stateMutability": "nonpayable",
      "type": "function"
    },
    {
      "inputs": [],
      "name": "feeCollector",
      "outputs": [
        {
          "internalType": "address",
          "name": "",
          "type": "address"
        }
      ],
      "stateMutability": "view",
      "type": "function"
    },
    {
      "inputs": [
        {
          "internalType": "address",
          "name": "",
          "type": "address"
        }
      ],
      "name": "firstInteraction",
      "outputs": [
        {
          "internalType": "uint256",
          "name": "",
          "type": "uint256"
        }
      ],
      "stateMutability": "view",
      "type": "function"
    },
    {
      "inputs": [
        {
          "internalType": "address",
          "name": "user",
          "type": "address"
        }
      ],
      "name": "getActiveBetCount",
      "outputs": [
        {
          "internalType": "uint256",
          "name": "",
          "type": "uint256"
        }
      ],
      "stateMutability": "view",
      "type": "function"
    },
    {
      "inputs": [],
      "name": "getBets",
      "outputs": [
        {
          "internalType": "address[]",
          "name": "",
          "type": "address[]"
        }
      ],
      "stateMutability": "view",
      "type": "function"
    },
    {
      "inputs": [],
      "name": "getFactoryConfig",
      "outputs": [
        {
          "internalType": "uint256",
          "name": "creationFee",
          "type": "uint256"
        },
        {
          "internalType": "uint256",
          "name": "voteStakeAmount",
          "type": "uint256"
        },
        {
          "internalType": "uint8",
          "name": "voterRewardPct",
          "type": "uint8"
        },
        {
          "internalType": "uint8",
          "name": "platformFeePct",
          "type": "uint8"
        },
        {
          "internalType": "uint256",
          "name": "maxActive",
          "type": "uint256"
        }
      ],
      "stateMutability": "view",
      "type": "function"
    },
    {
      "inputs": [
        {
          "internalType": "address",
          "name": "_user",
          "type": "address"
        }
      ],
      "name": "getInternalBalances",
      "outputs": [
        {
          "internalType": "uint256",
          "name": "usdcBalance",
          "type": "uint256"
        },
        {
          "internalType": "uint256",
          "name": "proofBalance",
          "type": "uint256"
        }
      ],
      "stateMutability": "view",
      "type": "function"
    },
    {
      "inputs": [
        {
          "internalType": "address",
          "name": "",
          "type": "address"
        }
      ],
      "name": "internalProofBalance",
      "outputs": [
        {
          "internalType": "uint256",
          "name": "",
          "type": "uint256"
        }
      ],
      "stateMutability": "view",
      "type": "function"
    },
    {
      "inputs": [
        {
          "internalType": "address",
          "name": "",
          "type": "address"
        }
      ],
      "name": "internalUsdcBalance",
      "outputs": [
        {
          "internalType": "uint256",
          "name": "",
          "type": "uint256"
        }
      ],
      "stateMutability": "view",
      "type": "function"
    },
    {
      "inputs": [
        {
          "internalType": "address",
          "name": "",
          "type": "address"
        }
      ],
      "name": "isBetFromFactory",
      "outputs": [
        {
          "internalType": "bool",
          "name": "",
          "type": "bool"
        }
      ],
      "stateMutability": "view",
      "type": "function"
    },
    {
      "inputs": [],
      "name": "maxActiveBetsPerUser",
      "outputs": [
        {
          "internalType": "uint256",
          "name": "",
          "type": "uint256"
        }
      ],
      "stateMutability": "view",
      "type": "function"
    },
    {
      "inputs": [],
      "name": "owner",
      "outputs": [
        {
          "internalType": "address",
          "name": "",
          "type": "address"
        }
      ],
      "stateMutability": "view",
      "type": "function"
    },
    {
      "inputs": [],
      "name": "proofCollateralUsdc",
      "outputs": [
        {
          "internalType": "uint256",
          "name": "",
          "type": "uint256"
        }
      ],
      "stateMutability": "view",
      "type": "function"
    },
    {
      "inputs": [],
      "name": "proofToken",
      "outputs": [
        {
          "internalType": "contract ProofToken",
          "name": "",
          "type": "address"
        }
      ],
      "stateMutability": "view",
      "type": "function"
    },
    {
      "inputs": [],
      "name": "renounceOwnership",
      "outputs": [],
      "stateMutability": "nonpayable",
      "type": "function"
    },
    {
      "inputs": [
        {
          "internalType": "uint256",
          "name": "_days",
          "type": "uint256"
        }
      ],
      "name": "setBaseDurationDays",
      "outputs": [],
      "stateMutability": "nonpayable",
      "type": "function"
    },
    {
      "inputs": [
        {
          "internalType": "address",
          "name": "_implementation",
          "type": "address"
        }
      ],
      "name": "setBetImplementation",
      "outputs": [],
      "stateMutability": "nonpayable",
      "type": "function"
    },
    {
      "inputs": [
        {
          "internalType": "uint256",
          "name": "_newFee",
          "type": "uint256"
        }
      ],
      "name": "setCreationFee",
      "outputs": [],
      "stateMutability": "nonpayable",
      "type": "function"
    },
    {
      "inputs": [
        {
          "internalType": "uint8",
          "name": "_percentage",
          "type": "uint8"
        }
      ],
      "name": "setDefaultPlatformFeePercentage",
      "outputs": [],
      "stateMutability": "nonpayable",
      "type": "function"
    },
    {
      "inputs": [
        {
          "internalType": "uint8",
          "name": "_percentage",
          "type": "uint8"
        }
      ],
      "name": "setDefaultVoterRewardPercentage",
      "outputs": [],
      "stateMutability": "nonpayable",
      "type": "function"
    },
    {
      "inputs": [
        {
          "internalType": "address",
          "name": "_newCollector",
          "type": "address"
        }
      ],
      "name": "setFeeCollector",
      "outputs": [],
      "stateMutability": "nonpayable",
      "type": "function"
    },
    {
      "inputs": [
        {
          "internalType": "uint256",
          "name": "_limit",
          "type": "uint256"
        }
      ],
      "name": "setMaxActiveBetsPerUser",
      "outputs": [],
      "stateMutability": "nonpayable",
      "type": "function"
    },
    {
      "inputs": [
        {
          "internalType": "uint256",
          "name": "_amount",
          "type": "uint256"
        }
      ],
      "name": "setProofCollateralUsdc",
      "outputs": [],
      "stateMutability": "nonpayable",
      "type": "function"
    },
    {
      "inputs": [
        {
          "internalType": "uint256",
          "name": "_amount",
          "type": "uint256"
        }
      ],
      "name": "setVoteStakeAmount",
      "outputs": [],
      "stateMutability": "nonpayable",
      "type": "function"
    },
    {
      "inputs": [
        {
          "internalType": "address",
          "name": "_from",
          "type": "address"
        },
        {
          "internalType": "address",
          "name": "_to",
          "type": "address"
        },
        {
          "internalType": "uint256",
          "name": "_amount",
          "type": "uint256"
        },
        {
          "internalType": "string",
          "name": "_reason",
          "type": "string"
        }
      ],
      "name": "transferInternalProof",
      "outputs": [],
      "stateMutability": "nonpayable",
      "type": "function"
    },
    {
      "inputs": [
        {
          "internalType": "address",
          "name": "_from",
          "type": "address"
        },
        {
          "internalType": "address",
          "name": "_to",
          "type": "address"
        },
        {
          "internalType": "uint256",
          "name": "_amount",
          "type": "uint256"
        },
        {
          "internalType": "string",
          "name": "_reason",
          "type": "string"
        }
      ],
      "name": "transferInternalUsdc",
      "outputs": [],
      "stateMutability": "nonpayable",
      "type": "function"
    },
    {
      "inputs": [
        {
          "internalType": "address",
          "name": "newOwner",
          "type": "address"
        }
      ],
      "name": "transferOwnership",
      "outputs": [],
      "stateMutability": "nonpayable",
      "type": "function"
    },
    {
      "inputs": [],
      "name": "trustScoreContract",
      "outputs": [
        {
          "internalType": "contract TrustScore",
          "name": "",
          "type": "address"
        }
      ],
      "stateMutability": "view",
      "type": "function"
    },
    {
      "inputs": [
        {
          "internalType": "address",
          "name": "_creator",
          "type": "address"
        }
      ],
      "name": "unbanCreator",
      "outputs": [],
      "stateMutability": "nonpayable",
      "type": "function"
    },
    {
      "inputs": [],
      "name": "usdcToken",
      "outputs": [
        {
          "internalType": "contract IERC20",
          "name": "",
          "type": "address"
        }
      ],
      "stateMutability": "view",
      "type": "function"
    },
    {
      "inputs": [],
      "name": "voteStakeAmountProof",
      "outputs": [
        {
          "internalType": "uint256",
          "name": "",
          "type": "uint256"
        }
      ],
      "stateMutability": "view",
      "type": "function"
    },
    {
      "inputs": [
        {
          "internalType": "uint256",
          "name": "_amount",
          "type": "uint256"
        }
      ],
      "name": "withdrawProof",
      "outputs": [],
      "stateMutability": "nonpayable",
      "type": "function"
    },
    {
      "inputs": [
        {
          "internalType": "uint256",
          "name": "_amount",
          "type": "uint256"
        }
      ],
      "name": "withdrawUsdc",
      "outputs": [],
      "stateMutability": "nonpayable",
      "type": "function"
    }
  ],
  "bytecode": "0x60803461037357601f61257638819003918201601f19168301916001600160401b038311848410176103775780849261012094604052833981010312610373576100488161038b565b6100546020830161038b565b916100616040820161038b565b61006d6060830161038b565b9360808301519060a08401519560c08501519361009261010060e0880151970161038b565b923315610360575f8054336001600160a01b03198216811783556040519a9290916001600160a01b0316907f8be0079c531659141344cd1fd0a4f28419497f9722a3daafe3b4186f6b6457e09080a36001805560076011556001600160a01b031697881561032c57506001600160a01b03169081156102fb576001600160a01b03169182156102c9576001600160a01b031692831561029057851561024b578815610206576001600160a01b03169687156101c15760018060a01b0319600254161760025560018060a01b0319600354161760035560018060a01b0319600454161760045560018060a01b03196005541617600555600b55600c55600e5560018060a01b0319600654161760065561030561ffff19600d541617600d556012556040516121d690816103a08239f35b60405162461bcd60e51b815260206004820152601660248201527f5a65726f20626574496d706c656d656e746174696f6e000000000000000000006044820152606490fd5b60405162461bcd60e51b815260206004820152601a60248201527f43726561746f72207374616b65206d61737420626520203e20300000000000006044820152606490fd5b60405162461bcd60e51b815260206004820152601660248201527f566f7465207374616b65206d757374206265203e2030000000000000000000006044820152606490fd5b60405162461bcd60e51b81526020600482015260116024820152702d32b937903332b2a1b7b63632b1ba37b960791b6044820152606490fd5b60405162461bcd60e51b815260206004820152600a6024820152692d32b93790282927a7a360b11b6044820152606490fd5b60405162461bcd60e51b81526020600482015260096024820152685a65726f205553444360b81b6044820152606490fd5b62461bcd60e51b815260206004820152600f60248201526e5a65726f20747275737453636f726560881b6044820152606490fd5b631e4fbdf760e01b5f525f60045260245ffd5b5f80fd5b634e487b7160e01b5f52604160045260245ffd5b51906001600160a01b03821682036103735756fe6080806040526004361015610012575f80fd5b5f905f3560e01c9081630133ea5c14611c2b5750806306aac6d914611b8f578063077779e414611afb5780630e94a0ee14611ad257806311eac85514611aa957806314f8d2c3146119e557806315903763146119a057806315ac74f2146119275780631bf89247146118dd5780631c46a5d1146118bf5780631ee86ed5146117f95780631fa488201461170c5780632357928e1461162157806325bfd7d9146115e8578063282430bc146115ca5780632cc34bb9146115a75780632e9cbc37146115115780632ff7a1fa146114f05780633ff9e8e0146114c757806343674131146114a357806349b202f2146114645780634f927dfd146113ac57806351deef9314611373578063528e81ef1461133a5780635b06dece14611248578063715018a6146111ee5780637ce17553146110fc5780638341c829146110de5780638a26c4de146103335780638ca2c71a146110bd5780638da5cb5b1461109657806394aa685a1461107857806397bcebb4146109b957806399da0b9f1461092f5780639b148baa14610861578063a42dce80146107dc578063a6afd5fd14610714578063b7d86225146106f1578063c19b52d91461068c578063c415b95c14610663578063c961dbae146105c8578063d0574bfc1461041a578063dc7831fd146103f1578063e0ced0e1146103ad578063e2a247db1461036c578063e632f73814610333578063ea1ef284146102df578063f2fde38b146102595763fb707f1f14610239575f80fd5b346102565780600319360112610256576020600c54604051908152f35b80fd5b503461025657602036600319011261025657610273611c64565b61027b61217a565b6001600160a01b031680156102cb5781546001600160a01b03198116821783556001600160a01b03167f8be0079c531659141344cd1fd0a4f28419497f9722a3daafe3b4186f6b6457e08380a380f35b631e4fbdf760e01b82526004829052602482fd5b5034610256576020366003190112610256576102f9611c64565b338252600860205261031160ff604084205416611e8c565b6001600160a01b03168152601360205260408120805460ff1916600117905580f35b5034610256576020366003190112610256576020906040906001600160a01b0361035b611c64565b168152600f83522054604051908152f35b503461025657602036600319011261025657610386611c64565b61038e61217a565b6001600160a01b03168152601360205260408120805460ff1916905580f35b503461025657602036600319011261025657600435906007548210156102565760206103d883611e60565b905460405160039290921b1c6001600160a01b03168152f35b50346102565780600319360112610256576002546040516001600160a01b039091168152602090f35b5034610256576020366003190112610256576024610436611c64565b600254604051630d47875d60e41b81526001600160a01b0392831660048201819052909390926020928592918391165afa9182156105bd57839261057b575b5080835260106020526040832054610563575062015180610497425b426120c1565b0491600c54916101fe60ff82169160011b16908082046002149015171561054f578061012c039082811261012c831281169061012c84139015161761053b5760038502948086046003149015171561053b57840161012c0393821380158286131691851216176105275760206064610516858583821261051f576120ce565b04604051908152f35b8391506120ce565b634e487b7160e01b81526011600452602490fd5b634e487b7160e01b83526011600452602483fd5b634e487b7160e01b82526011600452602482fd5b82526010602052620151806104976040842054610491565b9091506020813d6020116105b5575b8161059760209383611c7a565b810103126105b1575160ff811681036105b157905f610475565b8280fd5b3d915061058a565b6040513d85823e3d90fd5b5034610256576020366003190112610256576004356105e561217a565b80156106255760407f7038fd5f31cb6799163d0ca95acbbb2b209576b1833f1915e5be0a9f6eb49b4491600c549080600c5582519182526020820152a180f35b60405162461bcd60e51b81526020600482015260166024820152750566f7465207374616b65206d757374206265203e20360541b6044820152606490fd5b50346102565780600319360112610256576005546040516001600160a01b039091168152602090f35b5034610256576020366003190112610256576106a6611c64565b33825260086020526106be60ff604084205416611e8c565b6001600160a01b0316808252600f60205260408220546106dc575080f35b8152600f6020526040812080545f1901905580f35b50346102565760203660031901126102565761070b61217a565b600435600b5580f35b503461025657806003193601126102565760405180602060075491828152018091600785527fa66cc928b5edb82af9bd49922954155ab7b0942694bea4ce44661d9a8736c68890855b8181106107bd5750505082610773910383611c7a565b604051928392602084019060208552518091526040840192915b81811061079b575050500390f35b82516001600160a01b031684528594506020938401939092019160010161078d565b82546001600160a01b031684526020909301926001928301920161075d565b5034610256576020366003190112610256576107f6611c64565b6107fe61217a565b6001600160a01b03168015610828576bffffffffffffffffffffffff60a01b600554161760055580f35b60405162461bcd60e51b815260206004820152601160248201527024b73b30b634b21031b7b63632b1ba37b960791b6044820152606490fd5b5034610256577fd65318ec9967b019cd6c9e0b2f5866a86edea54d64ac9a1c5cb52db0c51c273b61089136611d06565b9093919261089d61215a565b33865260086020526108b560ff604088205416611ec4565b60018060a01b03169283865260096020526108d68560408820541015612075565b83865260096020526040862085815403905560018060a01b0316938486526009602052604086208181540190556109256040519283928352876020840152606060408401526060830190611f50565b0390a36001805580f35b503461025657602036600319011261025657610949611c64565b61095161217a565b6001600160a01b0316801561097b576bffffffffffffffffffffffff60a01b600654161760065580f35b60405162461bcd60e51b815260206004820152601660248201527524b73b30b634b21034b6b83632b6b2b73a30ba34b7b760511b6044820152606490fd5b5034610256576109c836611d71565b6109d061215a565b6109d9816120e1565b338352600a6020528060408420541061103e57338352600f6020526040832054600e54111561100257338352601360205260ff604084205416610fc9573383526009602052604083205460125411610f8457338352600a6020526040832081815403905560018060a01b0360045416604051632b852f2560e01b8152602081600481855afa908115610f79578591610f45575b50610a79606491846120ce565b0484610a8582856120c1565b9282610f00575b505081610e32575b604051928352602083015260408201527f2445fb79a5a4a2bac1a965d4d13b4e827f051f2d6fc972fad3b399041e5a8b4560603392a260125480610db0575b50600654608881901c62ffffff16763d602d80600a3d3981f3363d3d373d3d3d363d7300000017835260781b6effffffffffffffffffffffffffffff19166e5af43d82803e903d91602b57fd5bf3176020526001600160a01b036037600984f016908115610da15760025460035460045460055486936001600160a01b03918216939082169282169116863b15610d9d57849260405194859384936326b4b40160e21b855260e06004860152610bb1610b9a8b5161012060e4890152610204880190611f50565b60208c015187820360e31901610104890152611f50565b9360408b015161012487015260608b015161014487015260808b015161016487015260a08b015161018487015260c08b01516101a487015260ff60e08c0151166101c48701526101008b01516101e48701523360248701523060448701526064860152608485015260a484015260c4830152038183885af18015610d9257610d7d575b505060075468010000000000000000811015610d6957806001610c5a9201600755611e60565b81546001600160a01b0360039290921b91821b19169084901b179055818352600860209081526040808520805460ff19166001179055338552600f909152832080545f198114610d5557600101905560025483906001600160a01b0316803b15610d5157819060246040518094819363393f530f60e01b83523360048401525af18015610d4657610d31575b6020838351817f9fad859b21dc8b04ac5bbdd3cfd18a2215799015dc9f0488bc0acd8817d76d6360405185815280610d22339588830190611f50565b0390a360018055604051908152f35b610d3c848092611c7a565b6105b15782610ce6565b6040513d86823e3d90fd5b5080fd5b634e487b7160e01b85526011600452602485fd5b634e487b7160e01b84526041600452602484fd5b81610d8791611c7a565b6105b157825f610c34565b6040513d84823e3d90fd5b8480fd5b63b06ebf3d60e01b8352600483fd5b3383526009602052604083209081540390558160125460405190815281602082015260606040820152601760608201527f426574206372656174696f6e20636f6c6c61746572616c00000000000000000060808201527fd65318ec9967b019cd6c9e0b2f5866a86edea54d64ac9a1c5cb52db0c51c273b60a03392a35f610ad3565b6004805460055460405163a9059cbb60e01b81526001600160a01b039182169381019390935260248301859052602091839160449183918b91165af1908115610ef5578691610ec6575b50610a945760405162461bcd60e51b815260206004820152601960248201527f50524f4f4620666565207472616e73666572206661696c6564000000000000006044820152606490fd5b610ee8915060203d602011610eee575b610ee08183611c7a565b810190611fb5565b5f610e7c565b503d610ed6565b6040513d88823e3d90fd5b803b15610d5157818091602460405180948193630852cd8d60e31b83528860048401525af18015610d925715610a8c5781610f3a91611c7a565b610d9d57845f610a8c565b90506020813d602011610f71575b81610f6060209383611c7a565b81010312610d9d5751610a79610a6c565b3d9150610f53565b6040513d87823e3d90fd5b60405162461bcd60e51b815260206004820152601760248201527f496e73756666696369656e7420636f6c6c61746572616c0000000000000000006044820152606490fd5b60405162461bcd60e51b815260206004820152601160248201527010dc99585d1bdc881a5cc818985b9b9959607a1b6044820152606490fd5b60405162461bcd60e51b8152602060048201526014602482015273546f6f206d616e7920616374697665206265747360601b6044820152606490fd5b60405162461bcd60e51b815260206004820152601260248201527124b739bab33334b1b4b2b73a10282927a7a360711b6044820152606490fd5b50346102565780600319360112610256576020601254604051908152f35b5034610256578060031936011261025657546040516001600160a01b039091168152602090f35b50346102565760206110d66110d136611d71565b6120e1565b604051908152f35b50346102565780600319360112610256576020600e54604051908152f35b50346102565760203660031901126102565760043561111961215a565b611124811515611f74565b338252600a60205261113c8160408420541015611f04565b33808352600a602090815260408085208054859003905560048054915163a9059cbb60e01b815290810193909352602483018490528290604490829087906001600160a01b03165af180156105bd5761119c9184916111cf575b50611fcd565b6040519081527f4bf38f9736a5ce4bdb7feae20f2d2b06453cb6546f6b135b6b17acc4eb40166760203392a26001805580f35b6111e8915060203d602011610eee57610ee08183611c7a565b5f611196565b503461025657806003193601126102565761120761217a565b80546001600160a01b03198116825581906001600160a01b03167f8be0079c531659141344cd1fd0a4f28419497f9722a3daafe3b4186f6b6457e08280a380f35b50346102565760203660031901126102565760043561126561215a565b611270811515611f74565b33825260096020526112888160408420541015612075565b3380835260096020908152604080852080548590039055600354905163a9059cbb60e01b81526004810193909352602483018490528290604490829087906001600160a01b03165af180156105bd576112e891849161131b575b50612032565b6040519081527f0d1589f631deb2542273b007140b132a18d48a4303d103fe64d353db07e01b5760203392a26001805580f35b611334915060203d602011610eee57610ee08183611c7a565b5f6112e2565b5034610256576020366003190112610256576020906040906001600160a01b03611362611c64565b168152600a83522054604051908152f35b5034610256576020366003190112610256576020906040906001600160a01b0361139b611c64565b168152601083522054604051908152f35b5034610256576020366003190112610256576113c6611d61565b6113ce61217a565b60ff8116906032821161142a57600d805460ff19811690931790556040805160ff93841681529190921660208201527f23544ae90129bcc75de3e8f5f3300261a16bd084afbf41bd26cac1f2365b305591819081015b0390a180f35b60405162461bcd60e51b8152602060048201526012602482015271566f74657220726577617264203e2035302560701b6044820152606490fd5b50346102565760203660031901126102565760209060ff906040906001600160a01b0361148f611c64565b168152600884522054166040519015158152f35b5034610256578060031936011261025657602060ff600d5460081c16604051908152f35b50346102565780600319360112610256576006546040516001600160a01b039091168152602090f35b5034610256578060031936011261025657602060ff600d5416604051908152f35b50346102565760203660031901126102565760043561152e61217a565b801561156e5760407f25c1c85e83cba392025ae48f325ef9bd15b683a7ad29251a107354cb1068ae6391600e549080600e5582519182526020820152a180f35b60405162461bcd60e51b815260206004820152601160248201527004c696d6974206d757374206265203e203607c1b6044820152606490fd5b5034610256576020366003190112610256576115c161217a565b60043560125580f35b50346102565780600319360112610256576020601154604051908152f35b5034610256576020366003190112610256576020906040906001600160a01b03611610611c64565b168152600983522054604051908152f35b50346102565760203660031901126102565760043561163e61215a565b611649811515611f74565b6003546040516323b872dd60e01b815233600482015230602482015260448101839052906020908290606490829087906001600160a01b03165af180156105bd5761169a91849161131b5750612032565b33825260106020526040822054156116f9575b3382526009602052604082206116c4828254612011565b90556040519081527f36e229bdaedfa85d503535ae31c3ac9e40d88f1ab4fa53870ef2da82df48e99060203392a26001805580f35b33825260106020524260408320556116ad565b50346102565760203660031901126102565760043561172961215a565b611734811515611f74565b600480546040516323b872dd60e01b81523392810192909252306024830152604482018390526020908290606490829087906001600160a01b03165af180156105bd576117879184916111cf5750611fcd565b33825260106020526040822054156117e6575b338252600a602052604082206117b1828254612011565b90556040519081527fa4ddd265c8016cfa57813894be0f8a41c7dfa594c82404375abadf2ffc33607c60203392a26001805580f35b338252601060205242604083205561179a565b503461025657602036600319011261025657611813611d61565b61181b61217a565b603260ff8216116118855760ff7f285d424463e6f2d8b27eb851e42ce326e42daff7d6c17735b05f02baf329aaa591611424600d549161ff008160081b1661ff0019841617600d5560405193849360081c168390929160ff60209181604085019616845216910152565b60405162461bcd60e51b8152602060048201526012602482015271506c6174666f726d20666565203e2035302560701b6044820152606490fd5b50346102565780600319360112610256576020600b54604051908152f35b503461025657602036600319011261025657604090816001600160a01b03611903611c64565b1691828152600960205281812054928152600a602052205482519182526020820152f35b50346102565760203660031901126102565760043561194461217a565b80151580611995575b156119585760115580f35b60405162461bcd60e51b815260206004820152601560248201527424b73b30b634b2103130b9b290323ab930ba34b7b760591b6044820152606490fd5b50601e81111561194d565b503461025657806003193601126102565760a0600b54600c5460ff600d54600e54926040519485526020850152818116604085015260081c1660608301526080820152f35b5034610256577fd65318ec9967b019cd6c9e0b2f5866a86edea54d64ac9a1c5cb52db0c51c273b611a1536611d06565b90939192611a2161215a565b3386526008602052611a3960ff604088205416611ec4565b60018060a01b031692838652600a602052611a5a8560408820541015611f04565b838652600a6020526040862085815403905560018060a01b031693848652600a602052604086208181540190556109256040519283928884526020840152606060408401526060830190611f50565b50346102565780600319360112610256576003546040516001600160a01b039091168152602090f35b50346102565780600319360112610256576004546040516001600160a01b039091168152602090f35b50346102565760203660031901126102565780611b16611c64565b3382526008602052611b2e60ff604084205416611e8c565b6002546001600160a01b031690813b15611b8b57604051633e852f6560e01b81526001600160a01b0390911660048201529082908290602490829084905af18015610d9257611b7a5750f35b81611b8491611c7a565b6102565780f35b5050fd5b5034611c27576020366003190112611c2757611ba9611c64565b335f526008602052611bc160ff60405f205416611e8c565b6002546001600160a01b031690813b15611c275760405163a971fb2360e01b81526001600160a01b039091166004820152905f908290602490829084905af18015611c1c57611c0e575080f35b611c1a91505f90611c7a565b005b6040513d5f823e3d90fd5b5f80fd5b34611c27576020366003190112611c27576020906001600160a01b03611c4f611c64565b165f526013825260ff60405f20541615158152f35b600435906001600160a01b0382168203611c2757565b90601f8019910116810190811067ffffffffffffffff821117611c9c57604052565b634e487b7160e01b5f52604160045260245ffd5b81601f82011215611c275780359067ffffffffffffffff8211611c9c5760405192611ce5601f8401601f191660200185611c7a565b82845260208383010111611c2757815f926020809301838601378301015290565b906080600319830112611c27576004356001600160a01b0381168103611c2757916024356001600160a01b0381168103611c275791604435916064359067ffffffffffffffff8211611c2757611d5e91600401611cb0565b90565b6004359060ff82168203611c2757565b6020600319820112611c275760043567ffffffffffffffff8111611c27576101208183036003190112611c275760405191610120830183811067ffffffffffffffff821117611c9c57604052816004013567ffffffffffffffff8111611c2757816004611de092850101611cb0565b835260248201359067ffffffffffffffff8211611c27576004611e0592840101611cb0565b602083015260448101356040830152606481013560608301526084810135608083015260a481013560a083015260c481013560c083015260e48101359060ff82168203611c27576101049160e0840152013561010082015290565b600754811015611e785760075f5260205f2001905f90565b634e487b7160e01b5f52603260045260245ffd5b15611e9357565b60405162461bcd60e51b8152602060048201526009602482015268139bdd08184810995d60ba1b6044820152606490fd5b15611ecb57565b60405162461bcd60e51b81526020600482015260116024820152704f6e6c7920666163746f7279206265747360781b6044820152606490fd5b15611f0b57565b60405162461bcd60e51b815260206004820152601b60248201527f496e73756666696369656e7420696e7465726e616c2050524f4f4600000000006044820152606490fd5b805180835260209291819084018484015e5f828201840152601f01601f1916010190565b15611f7b57565b60405162461bcd60e51b81526020600482015260126024820152710416d6f756e74206d757374206265203e20360741b6044820152606490fd5b90816020910312611c2757518015158103611c275790565b15611fd457565b60405162461bcd60e51b8152602060048201526015602482015274141493d3d1881d1c985b9cd9995c8819985a5b1959605a1b6044820152606490fd5b9190820180921161201e57565b634e487b7160e01b5f52601160045260245ffd5b1561203957565b60405162461bcd60e51b81526020600482015260146024820152731554d110c81d1c985b9cd9995c8819985a5b195960621b6044820152606490fd5b1561207c57565b60405162461bcd60e51b815260206004820152601a60248201527f496e73756666696369656e7420696e7465726e616c20555344430000000000006044820152606490fd5b9190820391821161201e57565b8181029291811591840414171561201e57565b608001514281111561214f576120fc620151809142906120c1565b046011548082105f1461211e575050606461211a815b600b546120ce565b0490565b6001600160ff1b038116810361201e5760011b111561214357606461211a6096612112565b606461211a60c8612112565b50620151805f6120fc565b60026001541461216b576002600155565b633ee5aeb560e01b5f5260045ffd5b5f546001600160a01b0316330361218d57565b63118cdaa760e01b5f523360045260245ffdfea2646970667358221220b91aec9949c0f36b1afe1c6ecbc71e48f8875ac1a585594b5b6c741d01e874d164736f6c634300081c0033",
  "linkReferences": {},
  "deployedLinkReferences": {},
  "immutableReferences": {},
  "inputSourceName": "project/contracts/BetFactory.sol",
  "buildInfoId": "solc-0_8_28-9de6fce91a735c6f323fe33e4615b73ca1b57c94"
}