{
  "_format": "hh3-artifact-1",
  "contractName": "BetFactory",
  "sourceName": "contracts/BetFactory.sol",
  "abi": [
    {
      "inputs": [
        {
          "internalType": "address",
          "name": "_trustScore",
          "type": "address"
        },
        {
          "internalType": "address",
          "name": "_usdcToken",
          "type": "address"
        },
        {
          "internalType": "address",
          "name": "_proofToken",
          "type": "address"
        },
        {
          "internalType": "address",
          "name": "_feeCollector",
          "type": "address"
        },
        {
          "internalType": "uint256",
          "name": "_creationFeeProof",
          "type": "uint256"
        },
        {
          "internalType": "uint256",
          "name": "_initialVoteStakeAmountProof",
          "type": "uint256"
        },
        {
          "internalType": "uint256",
          "name": "_maxActiveBets",
          "type": "uint256"
        }
      ],
      "stateMutability": "nonpayable",
      "type": "constructor"
    },
    {
      "inputs": [
        {
          "internalType": "address",
          "name": "owner",
          "type": "address"
        }
      ],
      "name": "OwnableInvalidOwner",
      "type": "error"
    },
    {
      "inputs": [
        {
          "internalType": "address",
          "name": "account",
          "type": "address"
        }
      ],
      "name": "OwnableUnauthorizedAccount",
      "type": "error"
    },
    {
      "inputs": [],
      "name": "ReentrancyGuardReentrantCall",
      "type": "error"
    },
    {
      "anonymous": false,
      "inputs": [
        {
          "indexed": true,
          "internalType": "address",
          "name": "betAddress",
          "type": "address"
        },
        {
          "indexed": true,
          "internalType": "address",
          "name": "creator",
          "type": "address"
        },
        {
          "indexed": false,
          "internalType": "string",
          "name": "title",
          "type": "string"
        }
      ],
      "name": "BetCreated",
      "type": "event"
    },
    {
      "anonymous": false,
      "inputs": [
        {
          "indexed": false,
          "internalType": "uint8",
          "name": "oldPercentage",
          "type": "uint8"
        },
        {
          "indexed": false,
          "internalType": "uint8",
          "name": "newPercentage",
          "type": "uint8"
        }
      ],
      "name": "DefaultPlatformFeeChanged",
      "type": "event"
    },
    {
      "anonymous": false,
      "inputs": [
        {
          "indexed": false,
          "internalType": "uint8",
          "name": "oldPercentage",
          "type": "uint8"
        },
        {
          "indexed": false,
          "internalType": "uint8",
          "name": "newPercentage",
          "type": "uint8"
        }
      ],
      "name": "DefaultVoterRewardChanged",
      "type": "event"
    },
    {
      "anonymous": false,
      "inputs": [
        {
          "indexed": true,
          "internalType": "address",
          "name": "payer",
          "type": "address"
        },
        {
          "indexed": false,
          "internalType": "uint256",
          "name": "totalFee",
          "type": "uint256"
        },
        {
          "indexed": false,
          "internalType": "uint256",
          "name": "burnAmount",
          "type": "uint256"
        },
        {
          "indexed": false,
          "internalType": "uint256",
          "name": "keepAmount",
          "type": "uint256"
        }
      ],
      "name": "FeeProcessed",
      "type": "event"
    },
    {
      "anonymous": false,
      "inputs": [
        {
          "indexed": true,
          "internalType": "address",
          "name": "from",
          "type": "address"
        },
        {
          "indexed": true,
          "internalType": "address",
          "name": "to",
          "type": "address"
        },
        {
          "indexed": false,
          "internalType": "uint256",
          "name": "usdcAmount",
          "type": "uint256"
        },
        {
          "indexed": false,
          "internalType": "uint256",
          "name": "proofAmount",
          "type": "uint256"
        },
        {
          "indexed": false,
          "internalType": "string",
          "name": "reason",
          "type": "string"
        }
      ],
      "name": "InternalTransfer",
      "type": "event"
    },
    {
      "anonymous": false,
      "inputs": [
        {
          "indexed": false,
          "internalType": "uint256",
          "name": "oldLimit",
          "type": "uint256"
        },
        {
          "indexed": false,
          "internalType": "uint256",
          "name": "newLimit",
          "type": "uint256"
        }
      ],
      "name": "MaxActiveBetsChanged",
      "type": "event"
    },
    {
      "anonymous": false,
      "inputs": [
        {
          "indexed": true,
          "internalType": "address",
          "name": "previousOwner",
          "type": "address"
        },
        {
          "indexed": true,
          "internalType": "address",
          "name": "newOwner",
          "type": "address"
        }
      ],
      "name": "OwnershipTransferred",
      "type": "event"
    },
    {
      "anonymous": false,
      "inputs": [
        {
          "indexed": true,
          "internalType": "address",
          "name": "user",
          "type": "address"
        },
        {
          "indexed": false,
          "internalType": "uint256",
          "name": "amount",
          "type": "uint256"
        }
      ],
      "name": "ProofDeposited",
      "type": "event"
    },
    {
      "anonymous": false,
      "inputs": [
        {
          "indexed": true,
          "internalType": "address",
          "name": "user",
          "type": "address"
        },
        {
          "indexed": false,
          "internalType": "uint256",
          "name": "amount",
          "type": "uint256"
        }
      ],
      "name": "ProofWithdrawn",
      "type": "event"
    },
    {
      "anonymous": false,
      "inputs": [
        {
          "indexed": true,
          "internalType": "address",
          "name": "user",
          "type": "address"
        },
        {
          "indexed": false,
          "internalType": "uint256",
          "name": "amount",
          "type": "uint256"
        }
      ],
      "name": "UsdcDeposited",
      "type": "event"
    },
    {
      "anonymous": false,
      "inputs": [
        {
          "indexed": true,
          "internalType": "address",
          "name": "user",
          "type": "address"
        },
        {
          "indexed": false,
          "internalType": "uint256",
          "name": "amount",
          "type": "uint256"
        }
      ],
      "name": "UsdcWithdrawn",
      "type": "event"
    },
    {
      "anonymous": false,
      "inputs": [
        {
          "indexed": false,
          "internalType": "uint256",
          "name": "oldAmount",
          "type": "uint256"
        },
        {
          "indexed": false,
          "internalType": "uint256",
          "name": "newAmount",
          "type": "uint256"
        }
      ],
      "name": "VoteStakeAmountChanged",
      "type": "event"
    },
    {
      "inputs": [
        {
          "internalType": "address",
          "name": "",
          "type": "address"
        }
      ],
      "name": "activeBetsCount",
      "outputs": [
        {
          "internalType": "uint256",
          "name": "",
          "type": "uint256"
        }
      ],
      "stateMutability": "view",
      "type": "function"
    },
    {
      "inputs": [
        {
          "internalType": "uint256",
          "name": "",
          "type": "uint256"
        }
      ],
      "name": "allBets",
      "outputs": [
        {
          "internalType": "address",
          "name": "",
          "type": "address"
        }
      ],
      "stateMutability": "view",
      "type": "function"
    },
    {
      "inputs": [
        {
          "components": [
            {
              "internalType": "address",
              "name": "creator",
              "type": "address"
            },
            {
              "internalType": "string",
              "name": "title",
              "type": "string"
            },
            {
              "internalType": "string",
              "name": "description",
              "type": "string"
            },
            {
              "internalType": "uint256",
              "name": "bettingDeadline",
              "type": "uint256"
            },
            {
              "internalType": "uint256",
              "name": "proofDeadline",
              "type": "uint256"
            },
            {
              "internalType": "uint256",
              "name": "votingDeadline",
              "type": "uint256"
            },
            {
              "internalType": "uint256",
              "name": "minimumBetAmount",
              "type": "uint256"
            },
            {
              "internalType": "uint256",
              "name": "minimumSideStake",
              "type": "uint256"
            },
            {
              "internalType": "uint8",
              "name": "minimumTrustScore",
              "type": "uint8"
            },
            {
              "internalType": "uint8",
              "name": "voterRewardPercentage",
              "type": "uint8"
            },
            {
              "internalType": "uint8",
              "name": "platformFeePercentage",
              "type": "uint8"
            },
            {
              "internalType": "uint256",
              "name": "minimumVotes",
              "type": "uint256"
            }
          ],
          "internalType": "struct Bet.BetDetails",
          "name": "_details",
          "type": "tuple"
        }
      ],
      "name": "createBet",
      "outputs": [
        {
          "internalType": "address",
          "name": "",
          "type": "address"
        }
      ],
      "stateMutability": "nonpayable",
      "type": "function"
    },
    {
      "inputs": [],
      "name": "creationFeeProof",
      "outputs": [
        {
          "internalType": "uint256",
          "name": "",
          "type": "uint256"
        }
      ],
      "stateMutability": "view",
      "type": "function"
    },
    {
      "inputs": [],
      "name": "defaultPlatformFeePercentage",
      "outputs": [
        {
          "internalType": "uint8",
          "name": "",
          "type": "uint8"
        }
      ],
      "stateMutability": "view",
      "type": "function"
    },
    {
      "inputs": [],
      "name": "defaultVoterRewardPercentage",
      "outputs": [
        {
          "internalType": "uint8",
          "name": "",
          "type": "uint8"
        }
      ],
      "stateMutability": "view",
      "type": "function"
    },
    {
      "inputs": [
        {
          "internalType": "uint256",
          "name": "_amount",
          "type": "uint256"
        }
      ],
      "name": "depositProof",
      "outputs": [],
      "stateMutability": "nonpayable",
      "type": "function"
    },
    {
      "inputs": [
        {
          "internalType": "uint256",
          "name": "_amount",
          "type": "uint256"
        }
      ],
      "name": "depositUsdc",
      "outputs": [],
      "stateMutability": "nonpayable",
      "type": "function"
    },
    {
      "inputs": [
        {
          "internalType": "address",
          "name": "creator",
          "type": "address"
        }
      ],
      "name": "factoryLogBetCompletion",
      "outputs": [],
      "stateMutability": "nonpayable",
      "type": "function"
    },
    {
      "inputs": [
        {
          "internalType": "address",
          "name": "participant",
          "type": "address"
        }
      ],
      "name": "factoryLogBetParticipation",
      "outputs": [],
      "stateMutability": "nonpayable",
      "type": "function"
    },
    {
      "inputs": [
        {
          "internalType": "address",
          "name": "voter",
          "type": "address"
        }
      ],
      "name": "factoryLogVote",
      "outputs": [],
      "stateMutability": "nonpayable",
      "type": "function"
    },
    {
      "inputs": [],
      "name": "feeCollector",
      "outputs": [
        {
          "internalType": "address",
          "name": "",
          "type": "address"
        }
      ],
      "stateMutability": "view",
      "type": "function"
    },
    {
      "inputs": [],
      "name": "getBets",
      "outputs": [
        {
          "internalType": "address[]",
          "name": "",
          "type": "address[]"
        }
      ],
      "stateMutability": "view",
      "type": "function"
    },
    {
      "inputs": [
        {
          "internalType": "address",
          "name": "_user",
          "type": "address"
        }
      ],
      "name": "getInternalBalances",
      "outputs": [
        {
          "internalType": "uint256",
          "name": "usdcBalance",
          "type": "uint256"
        },
        {
          "internalType": "uint256",
          "name": "proofBalance",
          "type": "uint256"
        }
      ],
      "stateMutability": "view",
      "type": "function"
    },
    {
      "inputs": [
        {
          "internalType": "address",
          "name": "",
          "type": "address"
        }
      ],
      "name": "internalProofBalance",
      "outputs": [
        {
          "internalType": "uint256",
          "name": "",
          "type": "uint256"
        }
      ],
      "stateMutability": "view",
      "type": "function"
    },
    {
      "inputs": [
        {
          "internalType": "address",
          "name": "",
          "type": "address"
        }
      ],
      "name": "internalUsdcBalance",
      "outputs": [
        {
          "internalType": "uint256",
          "name": "",
          "type": "uint256"
        }
      ],
      "stateMutability": "view",
      "type": "function"
    },
    {
      "inputs": [
        {
          "internalType": "address",
          "name": "",
          "type": "address"
        }
      ],
      "name": "isBetFromFactory",
      "outputs": [
        {
          "internalType": "bool",
          "name": "",
          "type": "bool"
        }
      ],
      "stateMutability": "view",
      "type": "function"
    },
    {
      "inputs": [],
      "name": "maxActiveBetsPerUser",
      "outputs": [
        {
          "internalType": "uint256",
          "name": "",
          "type": "uint256"
        }
      ],
      "stateMutability": "view",
      "type": "function"
    },
    {
      "inputs": [],
      "name": "owner",
      "outputs": [
        {
          "internalType": "address",
          "name": "",
          "type": "address"
        }
      ],
      "stateMutability": "view",
      "type": "function"
    },
    {
      "inputs": [],
      "name": "proofToken",
      "outputs": [
        {
          "internalType": "contract ProofToken",
          "name": "",
          "type": "address"
        }
      ],
      "stateMutability": "view",
      "type": "function"
    },
    {
      "inputs": [],
      "name": "renounceOwnership",
      "outputs": [],
      "stateMutability": "nonpayable",
      "type": "function"
    },
    {
      "inputs": [
        {
          "internalType": "uint256",
          "name": "_newFee",
          "type": "uint256"
        }
      ],
      "name": "setCreationFee",
      "outputs": [],
      "stateMutability": "nonpayable",
      "type": "function"
    },
    {
      "inputs": [
        {
          "internalType": "uint8",
          "name": "_percentage",
          "type": "uint8"
        }
      ],
      "name": "setDefaultPlatformFeePercentage",
      "outputs": [],
      "stateMutability": "nonpayable",
      "type": "function"
    },
    {
      "inputs": [
        {
          "internalType": "uint8",
          "name": "_percentage",
          "type": "uint8"
        }
      ],
      "name": "setDefaultVoterRewardPercentage",
      "outputs": [],
      "stateMutability": "nonpayable",
      "type": "function"
    },
    {
      "inputs": [
        {
          "internalType": "address",
          "name": "_newCollector",
          "type": "address"
        }
      ],
      "name": "setFeeCollector",
      "outputs": [],
      "stateMutability": "nonpayable",
      "type": "function"
    },
    {
      "inputs": [
        {
          "internalType": "uint256",
          "name": "_limit",
          "type": "uint256"
        }
      ],
      "name": "setMaxActiveBetsPerUser",
      "outputs": [],
      "stateMutability": "nonpayable",
      "type": "function"
    },
    {
      "inputs": [
        {
          "internalType": "uint256",
          "name": "_amount",
          "type": "uint256"
        }
      ],
      "name": "setVoteStakeAmount",
      "outputs": [],
      "stateMutability": "nonpayable",
      "type": "function"
    },
    {
      "inputs": [
        {
          "internalType": "address",
          "name": "_from",
          "type": "address"
        },
        {
          "internalType": "address",
          "name": "_to",
          "type": "address"
        },
        {
          "internalType": "uint256",
          "name": "_amount",
          "type": "uint256"
        },
        {
          "internalType": "string",
          "name": "_reason",
          "type": "string"
        }
      ],
      "name": "transferInternalProof",
      "outputs": [],
      "stateMutability": "nonpayable",
      "type": "function"
    },
    {
      "inputs": [
        {
          "internalType": "address",
          "name": "_from",
          "type": "address"
        },
        {
          "internalType": "address",
          "name": "_to",
          "type": "address"
        },
        {
          "internalType": "uint256",
          "name": "_amount",
          "type": "uint256"
        },
        {
          "internalType": "string",
          "name": "_reason",
          "type": "string"
        }
      ],
      "name": "transferInternalUsdc",
      "outputs": [],
      "stateMutability": "nonpayable",
      "type": "function"
    },
    {
      "inputs": [
        {
          "internalType": "address",
          "name": "newOwner",
          "type": "address"
        }
      ],
      "name": "transferOwnership",
      "outputs": [],
      "stateMutability": "nonpayable",
      "type": "function"
    },
    {
      "inputs": [],
      "name": "trustScoreContract",
      "outputs": [
        {
          "internalType": "contract TrustScore",
          "name": "",
          "type": "address"
        }
      ],
      "stateMutability": "view",
      "type": "function"
    },
    {
      "inputs": [],
      "name": "usdcToken",
      "outputs": [
        {
          "internalType": "contract IERC20",
          "name": "",
          "type": "address"
        }
      ],
      "stateMutability": "view",
      "type": "function"
    },
    {
      "inputs": [],
      "name": "voteStakeAmountProof",
      "outputs": [
        {
          "internalType": "uint256",
          "name": "",
          "type": "uint256"
        }
      ],
      "stateMutability": "view",
      "type": "function"
    },
    {
      "inputs": [
        {
          "internalType": "uint256",
          "name": "_amount",
          "type": "uint256"
        }
      ],
      "name": "withdrawProof",
      "outputs": [],
      "stateMutability": "nonpayable",
      "type": "function"
    },
    {
      "inputs": [
        {
          "internalType": "uint256",
          "name": "_amount",
          "type": "uint256"
        }
      ],
      "name": "withdrawUsdc",
      "outputs": [],
      "stateMutability": "nonpayable",
      "type": "function"
    }
  ],
  "bytecode": "0x6080346101b457601f6148d238819003918201601f19168301916001600160401b038311848410176101b85780849260e0946040528339810103126101b457610047816101cc565b90610054602082016101cc565b610060604083016101cc565b61006c606084016101cc565b9060808401519260c060a08601519501519533156101a1575f8054336001600160a01b03198216811783556040519290916001600160a01b0316907f8be0079c531659141344cd1fd0a4f28419497f9722a3daafe3b4186f6b6457e09080a360018055861561014d5750600280546001600160a01b03199081166001600160a01b039384161790915560038054821693831693909317909255600480548316938216939093179092556005805490911692909116919091179055600a55600b55600d55600c805461ffff19166103051790556040516146f190816101e18239f35b62461bcd60e51b815260206004820152602960248201527f496e697469616c20766f7465207374616b65206d75737420626520677265617460448201526806572207468616e20360bc1b6064820152608490fd5b631e4fbdf760e01b5f525f60045260245ffd5b5f80fd5b634e487b7160e01b5f52604160045260245ffd5b51906001600160a01b03821682036101b45756fe60806040526004361015610011575f80fd5b5f5f3560e01c806306aac6d914611630578063077779e41461159c5780630e94a0ee1461157357806311eac8551461154a57806314f8d2c31461147e5780631bf89247146114345780631c46a5d1146114165780631ee86ed5146113455780631fa488201461127e5780632357928e146111b957806325bfd7d9146111805780632e9cbc37146110de5780632ff7a1fa146110bd578063436741311461109957806349b202f21461105a5780634f927dfd14610f97578063528e81ef14610f5e5780635b06dece14610e67578063715018a614610e0d5780637ce1755314610d095780638341c82914610ceb5780638a26c4de14610cb25780638da5cb5b14610c8b5780639b148baa14610bb9578063a42dce8014610b74578063a6afd5fd14610aac578063b4d96cbc14610425578063b7d8622514610402578063c19b52d914610383578063c415b95c1461035a578063c961dbae146102ae578063dc7831fd14610285578063e0ced0e114610241578063f2fde38b146101bb5763fb707f1f1461019b575f80fd5b346101b857806003193601126101b8576020600b54604051908152f35b80fd5b50346101b85760203660031901126101b8576101d56116c8565b6101dd611adf565b6001600160a01b0316801561022d5781546001600160a01b03198116821783556001600160a01b03167f8be0079c531659141344cd1fd0a4f28419497f9722a3daafe3b4186f6b6457e08380a380f35b631e4fbdf760e01b82526004829052602482fd5b50346101b85760203660031901126101b857600435906006548210156101b857602061026c83611804565b905460405160039290921b1c6001600160a01b03168152f35b50346101b857806003193601126101b8576002546040516001600160a01b039091168152602090f35b50346101b85760203660031901126101b8576004356102cb611adf565b801561030b5760407f7038fd5f31cb6799163d0ca95acbbb2b209576b1833f1915e5be0a9f6eb49b4491600b549080600b5582519182526020820152a180f35b60405162461bcd60e51b815260206004820152602160248201527f566f7465207374616b65206d7573742062652067726561746572207468616e206044820152600360fc1b6064820152608490fd5b50346101b857806003193601126101b8576005546040516001600160a01b039091168152602090f35b50346101b85760203660031901126101b85761039d6116c8565b33825260076020526103b560ff604084205416611830565b6001600160a01b0316808252600e60205260408220546103d3575080f35b8152600e60205260408120805480156103ee575f1901905580f35b634e487b7160e01b83526011600452602483fd5b50346101b85760203660031901126101b85761041c611adf565b600435600a5580f35b50346101b85760203660031901126101b85760043567ffffffffffffffff81116108fd5761018060031982360301126108fd5760405190610180820182811067ffffffffffffffff821117610a985760405260048101356001600160a01b0381168103610a94578252602481013567ffffffffffffffff8111610a02576104b290600436918401016117ae565b602083015260448101359067ffffffffffffffff8211610a02576104df61016492600436918401016117ae565b6040840152606481013560608401526084810135608084015260a481013560a084015260c481013560c084015260e481013560e0840152610523610104820161176a565b610100840152610536610124820161176a565b610120840152610549610144820161176a565b610140840152013561016082015233825260096020526040822054610573600a54809210156118d3565b338352600e6020526040832054600d541115610a505733835260096020526105a06040842091825461192b565b9055600a5460018060a01b0360045416604051632b852f2560e01b8152602081600481855afa9081156109b2578591610a1a575b50808302908382041483151715610a06576105f46064869204809461192b565b91836109bd575b505080610936575b600a5491604051928352602083015260408201527f2445fb79a5a4a2bac1a965d4d13b4e827f051f2d6fc972fad3b399041e5a8b4560603392a2338152600c5460ff81811661012084015260089190911c16610140820152600254600354600454600554600b546040516001600160a01b03948516979590949081169391928116911667ffffffffffffffff612b968601908111908611176109225784959697612b96611b26873960e0612b9687018181528a516001600160a01b03169181019190915260208a0151610180610100830152610706916106e99161026090910190611abb565b60408b0151612b96890180830360df190161012090910152611abb565b9460608a0151610140612b968901015260808a0151610160612b968901015260a08a0151610180612b968901015260c08a01516101a0612b968901015260e08a01516101c0612b968901015260ff6101008b0151166101e0612b968901015260ff6101208b015116610200612b968901015260ff6101408b015116610220612b96890101526101608a0151610240612b9689010152306020612b96890101526040612b96880101526060612b96870101526080612b968601015260a0612b968501015260c0612b9684010152039082f080156109155760018060a01b03169060065468010000000000000000811015610901578060016108099201600655611804565b81546001600160a01b0360039290921b91821b19169084901b179055818152600760209081526040808320805460ff19166001179055338352600e909152812080545f1981146103ee5760010190556002546001600160a01b0316803b156108fd5781809160246040518094819363393f530f60e01b83523360048401525af180156108f2576108dd575b60208381860151817f9fad859b21dc8b04ac5bbdd3cfd18a2215799015dc9f0488bc0acd8817d76d63604051858152806108d2339588830190611abb565b0390a3604051908152f35b6108e8828092611778565b6101b85780610894565b6040513d84823e3d90fd5b5080fd5b634e487b7160e01b82526041600452602482fd5b50604051903d90823e3d90fd5b634e487b7160e01b86526041600452602486fd5b6004805460055460405163a9059cbb60e01b81526001600160a01b039182169381019390935260248301849052602091839160449183918a91165af180156109b257610983575b50610603565b6109a49060203d6020116109ab575b61099c8183611778565b8101906119c5565b505f61097d565b503d610992565b6040513d87823e3d90fd5b803b156108fd57818091602460405180948193630852cd8d60e31b83528960048401525af180156108f257156105fb57816109f791611778565b610a0257835f6105fb565b8380fd5b634e487b7160e01b85526011600452602485fd5b90506020813d602011610a48575b81610a3560209383611778565b81010312610a4457515f6105d4565b8480fd5b3d9150610a28565b606460405162461bcd60e51b815260206004820152602060248201527f43726561746f722068617320746f6f206d616e792061637469766520626574736044820152fd5b5f80fd5b634e487b7160e01b84526041600452602484fd5b50346101b857806003193601126101b85760405180602060065491828152018091600685527ff652222313e28459528d920b65115c16c04f3efc82aaedc97be59f3f377c0d3f90855b818110610b555750505082610b0b910383611778565b604051928392602084019060208552518091526040840192915b818110610b33575050500390f35b82516001600160a01b0316845285945060209384019390920191600101610b25565b82546001600160a01b0316845260209093019260019283019201610af5565b50346101b85760203660031901126101b857610b8e6116c8565b610b96611adf565b60018060a01b03166bffffffffffffffffffffffff60a01b600554161760055580f35b50346101b857610c857fd65318ec9967b019cd6c9e0b2f5866a86edea54d64ac9a1c5cb52db0c51c273b610bec366116de565b9294939590953388526007602052610c0a60ff60408a205416611887565b60018060a01b0316948588526008602052610c2b8360408a20541015611a64565b858852600860205260408820610c4284825461192b565b905560018060a01b031695868852600860205260408820610c6484825461194c565b90556040519384938452886020850152606060408501526060840191611959565b0390a380f35b50346101b857806003193601126101b857546040516001600160a01b039091168152602090f35b50346101b85760203660031901126101b8576020906040906001600160a01b03610cda6116c8565b168152600e83522054604051908152f35b50346101b857806003193601126101b8576020600d54604051908152f35b50346101b85760203660031901126101b857600435610d26611b05565b610d31811515611979565b3382526009602052610d4981604084205410156118d3565b338252600960205260408220610d6082825461192b565b90556004805460405163a9059cbb60e01b81523392810192909252602482018390526020908290604490829087906001600160a01b03165af18015610e0257610db0918491610de3575b506119dd565b6040519081527f4bf38f9736a5ce4bdb7feae20f2d2b06453cb6546f6b135b6b17acc4eb40166760203392a26001805580f35b610dfc915060203d6020116109ab5761099c8183611778565b5f610daa565b6040513d85823e3d90fd5b50346101b857806003193601126101b857610e26611adf565b80546001600160a01b03198116825581906001600160a01b03167f8be0079c531659141344cd1fd0a4f28419497f9722a3daafe3b4186f6b6457e08280a380f35b50346101b85760203660031901126101b857600435610e84611b05565b610e8f811515611979565b3382526008602052610ea78160408420541015611a64565b338252600860205260408220610ebe82825461192b565b905560035460405163a9059cbb60e01b815233600482015260248101839052906020908290604490829087906001600160a01b03165af18015610e0257610f0c918491610f3f575b50611a21565b6040519081527f0d1589f631deb2542273b007140b132a18d48a4303d103fe64d353db07e01b5760203392a26001805580f35b610f58915060203d6020116109ab5761099c8183611778565b5f610f06565b50346101b85760203660031901126101b8576020906040906001600160a01b03610f866116c8565b168152600983522054604051908152f35b50346101b85760203660031901126101b857610fb161175a565b610fb9611adf565b60ff8116906032821161101557600c805460ff19811690931790556040805160ff93841681529190921660208201527f23544ae90129bcc75de3e8f5f3300261a16bd084afbf41bd26cac1f2365b305591819081015b0390a180f35b60405162461bcd60e51b815260206004820152601e60248201527f566f746572207265776172642063616e6e6f74206578636565642035302500006044820152606490fd5b50346101b85760203660031901126101b85760209060ff906040906001600160a01b036110856116c8565b168152600784522054166040519015158152f35b50346101b857806003193601126101b857602060ff600c5460081c16604051908152f35b50346101b857806003193601126101b857602060ff600c5416604051908152f35b50346101b85760203660031901126101b8576004356110fb611adf565b801561113b5760407f25c1c85e83cba392025ae48f325ef9bd15b683a7ad29251a107354cb1068ae6391600d549080600d5582519182526020820152a180f35b60405162461bcd60e51b815260206004820152601c60248201527f4c696d6974206d7573742062652067726561746572207468616e2030000000006044820152606490fd5b50346101b85760203660031901126101b8576020906040906001600160a01b036111a86116c8565b168152600883522054604051908152f35b50346101b85760203660031901126101b8576004356111d6611b05565b6111e1811515611979565b6003546040516323b872dd60e01b815233600482015230602482015260448101839052906020908290606490829087906001600160a01b03165af18015610e0257611232918491610f3f5750611a21565b33825260086020526040822061124982825461194c565b90556040519081527f36e229bdaedfa85d503535ae31c3ac9e40d88f1ab4fa53870ef2da82df48e99060203392a26001805580f35b50346101b85760203660031901126101b85760043561129b611b05565b6112a6811515611979565b600480546040516323b872dd60e01b81523392810192909252306024830152604482018390526020908290606490829087906001600160a01b03165af18015610e02576112f9918491610de357506119dd565b33825260096020526040822061131082825461194c565b90556040519081527fa4ddd265c8016cfa57813894be0f8a41c7dfa594c82404375abadf2ffc33607c60203392a26001805580f35b50346101b85760203660031901126101b85761135f61175a565b611367611adf565b603260ff8216116113d15760ff7f285d424463e6f2d8b27eb851e42ce326e42daff7d6c17735b05f02baf329aaa59161100f600c549161ff008160081b1661ff0019841617600c5560405193849360081c168390929160ff60209181604085019616845216910152565b60405162461bcd60e51b815260206004820152601e60248201527f506c6174666f726d206665652063616e6e6f74206578636565642035302500006044820152606490fd5b50346101b857806003193601126101b8576020600a54604051908152f35b50346101b85760203660031901126101b857604090816001600160a01b0361145a6116c8565b16918281526008602052818120549281526009602052205482519182526020820152f35b50346101b857610c857fd65318ec9967b019cd6c9e0b2f5866a86edea54d64ac9a1c5cb52db0c51c273b6114b1366116de565b92949395909533885260076020526114cf60ff60408a205416611887565b60018060a01b03169485885260096020526114f08360408a205410156118d3565b85885260096020526040882061150784825461192b565b905560018060a01b03169586885260096020526040882061152984825461194c565b90556040519384938985526020850152606060408501526060840191611959565b50346101b857806003193601126101b8576003546040516001600160a01b039091168152602090f35b50346101b857806003193601126101b8576004546040516001600160a01b039091168152602090f35b50346101b85760203660031901126101b857806115b76116c8565b33825260076020526115cf60ff604084205416611830565b6002546001600160a01b031690813b1561162c57604051633e852f6560e01b81526001600160a01b0390911660048201529082908290602490829084905af180156108f25761161b5750f35b8161162591611778565b6101b85780f35b5050fd5b5034610a94576020366003190112610a945761164a6116c8565b335f52600760205261166260ff60405f205416611830565b6002546001600160a01b031690813b15610a945760405163a971fb2360e01b81526001600160a01b039091166004820152905f908290602490829084905af180156116bd576116af575080f35b6116bb91505f90611778565b005b6040513d5f823e3d90fd5b600435906001600160a01b0382168203610a9457565b6080600319820112610a94576004356001600160a01b0381168103610a9457916024356001600160a01b0381168103610a9457916044359160643567ffffffffffffffff8111610a945782602382011215610a945780600401359267ffffffffffffffff8411610a945760248483010111610a94576024019190565b6004359060ff82168203610a9457565b359060ff82168203610a9457565b90601f8019910116810190811067ffffffffffffffff82111761179a57604052565b634e487b7160e01b5f52604160045260245ffd5b81601f82011215610a945780359067ffffffffffffffff821161179a57604051926117e3601f8401601f191660200185611778565b82845260208383010111610a9457815f926020809301838601378301015290565b60065481101561181c5760065f5260205f2001905f90565b634e487b7160e01b5f52603260045260245ffd5b1561183757565b60405162461bcd60e51b815260206004820152602260248201527f43616c6c6572206973206e6f7420612076616c69642042657420636f6e74726160448201526118dd60f21b6064820152608490fd5b1561188e57565b60405162461bcd60e51b815260206004820152601f60248201527f4f6e6c7920666163746f727920626574732063616e2063616c6c2074686973006044820152606490fd5b156118da57565b60405162461bcd60e51b815260206004820152602360248201527f496e73756666696369656e7420696e7465726e616c2050524f4f462062616c616044820152626e636560e81b6064820152608490fd5b9190820391821161193857565b634e487b7160e01b5f52601160045260245ffd5b9190820180921161193857565b908060209392818452848401375f828201840152601f01601f1916010190565b1561198057565b60405162461bcd60e51b815260206004820152601d60248201527f416d6f756e74206d7573742062652067726561746572207468616e20300000006044820152606490fd5b90816020910312610a9457518015158103610a945790565b156119e457565b60405162461bcd60e51b8152602060048201526015602482015274141493d3d1881d1c985b9cd9995c8819985a5b1959605a1b6044820152606490fd5b15611a2857565b60405162461bcd60e51b81526020600482015260146024820152731554d110c81d1c985b9cd9995c8819985a5b195960621b6044820152606490fd5b15611a6b57565b60405162461bcd60e51b815260206004820152602260248201527f496e73756666696369656e7420696e7465726e616c20555344432062616c616e604482015261636560f01b6064820152608490fd5b805180835260209291819084018484015e5f828201840152601f01601f1916010190565b5f546001600160a01b03163303611af257565b63118cdaa760e01b5f523360045260245ffd5b600260015414611b16576002600155565b633ee5aeb560e01b5f5260045ffdfe60806040523461056757612b96803803806100198161056b565b92833981019060e0818303126105675780516001600160401b03811161056757810161018081840312610567576040519061018082016001600160401b0381118382101761046a5760405261006d81610590565b825260208101516001600160401b038111610567578461008e9183016105a4565b60208301908152604082015190946001600160401b038211610567576100b59183016105a4565b9160408101928352606082015191606082019283526080810151916080810192835260a08201519160a0820192835261016060c08201519160c0840192835260e081015160e085015261010b61010082016105f5565b61010085015261011e61012082016105f5565b61012085015261013161014082016105f5565b610140850152015161016083015261014b60208801610590565b9261015860408901610590565b9461016560608a01610590565b9661017260808b01610590565b9860c061018160a08d01610590565b9b015160015f819055875181546001600160a01b0319166001600160a01b03919091161790559b518051906001600160401b03821161046a5760025490600182811c9216801561055d575b602083101461044c5781601f8493116104ef575b50602090601f8311600114610489575f9261047e575b50508160011b915f199060031b1c1916176002555b518051906001600160401b03821161046a57600354600181811c91168015610460575b602082101461044c57601f81116103e9575b50602090601f831160011461037c57610160979695949392915f9183610371575b50508160011b915f199060031b1c1916176003555b5160045551600555516006555160075560e081015160085560ff610100820151166009549061ff0061012084015160081b169062ff000061014085015160101b169262ffffff19161717176009550151600a5560018060a01b031660018060a01b0319600b541617600b5560018060a01b031660018060a01b0319600c541617600c5560018060a01b031660018060a01b0319600d541617600d5560018060a01b031660018060a01b0319600e541617600e5560018060a01b031660018060a01b0319600f541617600f5560135560ff19601f5416601f5562ff000019601554166015555f6018555f60195560405161259290816106048239f35b015190505f80610261565b90601f1983169160035f52815f20925f5b8181106103d157509160019391856101609b9a9998979694106103b9575b505050811b01600355610276565b01515f1960f88460031b161c191690555f80806103ab565b9293602060018192878601518155019501930161038d565b60035f527fc2575a0e9e593c00f959f8c92f12db2869c3395a3b0502d05e2516446f71f85b601f840160051c81019160208510610442575b601f0160051c01905b8181106104375750610240565b5f815560010161042a565b9091508190610421565b634e487b7160e01b5f52602260045260245ffd5b90607f169061022e565b634e487b7160e01b5f52604160045260245ffd5b015190505f806101f6565b60025f9081528281209350601f198516905b8181106104d757509084600195949392106104bf575b505050811b0160025561020b565b01515f1960f88460031b161c191690555f80806104b1565b9293602060018192878601518155019501930161049b565b60025f529091507f405787fa12a823e0f2b7631cc41b3ba8828b3321ca811111fa75cd3aa3bb5ace601f840160051c81019160208510610553575b90601f859493920160051c01905b81811061054557506101e0565b5f8155849350600101610538565b909150819061052a565b91607f16916101cc565b5f80fd5b6040519190601f01601f191682016001600160401b0381118382101761046a57604052565b51906001600160a01b038216820361056757565b81601f82011215610567578051906001600160401b03821161046a576105d3601f8301601f191660200161056b565b928284526020838301011161056757815f9260208093018386015e8301015290565b519060ff821682036105675756fe6080806040526004361015610012575f80fd5b5f905f3560e01c9081630208d81114611fdb5750806307ea56db14611f0c57806309e69ede14611eb45780630d15fd7714611e975780630e94a0ee14611e6f57806311eac85514611e4757806324600fc314611c515780632c2e8faf146118e05780632d336a97146118b15780632e1a961814611888578063362f04c01461186a578063565974d3146117ac57806363a39141146117705780636f95b3f31461174a5780638a2fd029146115a7578063aec2ccae14611565578063b3f98adc146110f3578063b401faf114610e2b578063b4fb3ee314610de9578063b5545a3c14610c4c578063b5b47f4214610c2e578063c415b95c14610c05578063ccc8279514610be7578063cfe7b77014610b47578063d4249dce14610b0a578063d6d2023814610a5b578063d72edbf214610a3f578063d8bff5a5146109fa578063dc7831fd146109d1578063dcb3b30e1461059f578063e41356f314610254578063ef8a92351461022e578063fb04521b14610210578063fb286c65146101f2578063fb707f1f146101d45763fbf06338146101aa575f80fd5b346101d157806003193601126101d157602060ff601554166101cf60405180926121fd565bf35b80fd5b50346101d157806003193601126101d1576020601354604051908152f35b50346101d157806003193601126101d1576020601654604051908152f35b50346101d157806003193601126101d1576020601254604051908152f35b50346101d157806003193601126101d157602060ff601f54166101cf60405180926121f0565b50346101d157806003193601126101d15761026d6124ae565b60ff601f5416600581101561058b578060036102929214908115610580575b5061220a565b338152601e60205260ff6040822054161561054c57338152601c60205260408120541561051357338152601c6020526040812054818291338452601c60205283604081205560ff601f541660058110156104ff576003036104f857338452601d60205260ff60408520541660ff601554169060038210156104e45760038110156104e4571461048c575b505b806103fe575b81610362575b60405191825260208201527ffbc3a599b784fe88772fc5abcc07223f64ca0b13acc341f4fb1e46bef0510eb460403392a26001815580f35b600b5483906001600160a01b0316803b156103fa5781809160c460405180948193634d8a45d560e11b835230600484015233602484015289604484015260806064840152600c60848401526b159bdd195c881c995dd85c9960a21b60a48401525af180156103ef576103d6575b505061032a565b816103e09161205e565b6103eb57825f6103cf565b8280fd5b6040513d84823e3d90fd5b5080fd5b600b5483906001600160a01b0316803b156103fa5781809160c4604051809481936314f8d2c360e01b83523060048401523360248401528860448401526080606484015260116084840152702b37ba329039ba30b5b2903932ba3ab93760791b60a48401525af180156103ef57610477575b5050610324565b816104819161205e565b6103eb57825f610470565b8091509060646104b36104a4601054601154906122f7565b60ff60095460081c1690612366565b049060125491826104c6575b505061031c565b6104db939450906104d691612366565b612379565b905f80806104bf565b634e487b7160e01b86526021600452602486fd5b905061031e565b634e487b7160e01b85526021600452602485fd5b60405162461bcd60e51b81526020600482015260116024820152704e6f207374616b6520746f20636c61696d60781b6044820152606490fd5b60405162461bcd60e51b815260206004820152600c60248201526b446964206e6f7420766f746560a01b6044820152606490fd5b60049150145f61028c565b634e487b7160e01b82526021600452602482fd5b50346101d15760403660031901126101d15760043560038110156103fa576024356105c86124ae565b60ff601f541660058110156109bd576105e19015612249565b600454421015610983578260018314808015610976575b1561093e5760075483106109065760ff6009541680610886575b50600b5460408051631bf8924760e01b81523360048201526001600160a01b03909216919081602481855afa801561087b578591889161084b575b50106107fb578086913b156103fa5781809160c460405180948193634d8a45d560e11b83523360048401523060248401528a604484015260806064840152600d60848401526c10995d081c1b1858d95b595b9d609a1b60a48401525af180156103ef576107e2575b5050338552601a60205260ff604086205416156107b8575b338552601b60205260408520916104ff5715610794576106ee8282546122f7565b90556106fc816010546122f7565b6010555b600b5483906001600160a01b0316803b156103fa578180916024604051809481936301ddde7960e21b83523360048401525af180156103ef5761077f575b505061074d60405180936121fd565b60208201527f9f6b4cced64244a64465098f682029975b1614400b96bc6bd12c66808371916660403392a26001815580f35b816107899161205e565b6103eb57825f61073e565b6001016107a28282546122f7565b90556107b0816011546122f7565b601155610700565b338552601a60205260408520600160ff198254161790556107da601854612318565b6018556106cd565b816107ec9161205e565b6107f757845f6106b5565b8480fd5b60405162461bcd60e51b815260206004820152602260248201527f496e73756666696369656e7420696e7465726e616c20555344432062616c616e604482015261636560f01b6064820152608490fd5b61086d915060403d604011610874575b610865818361205e565b8101906122e1565b505f61064d565b503d61085b565b6040513d89823e3d90fd5b600c54604051630d47875d60e41b81523360048201529190602090839060249082906001600160a01b03165afa91821561087b576108d19260ff9189916108d7575b5016101561229f565b5f610612565b6108f9915060203d6020116108ff575b6108f1818361205e565b810190612286565b5f6108c8565b503d6108e7565b60405162461bcd60e51b815260206004820152601060248201526f5374616b6520697320746f6f206c6f7760801b6044820152606490fd5b60405162461bcd60e51b815260206004820152601060248201526f24b73b30b634b2103837b9b4ba34b7b760811b6044820152606490fd5b50849150600284146105f8565b60405162461bcd60e51b815260206004820152601260248201527110995d1d1a5b99c81a185cc818db1bdcd95960721b6044820152606490fd5b634e487b7160e01b84526021600452602484fd5b50346101d157806003193601126101d157600c546040516001600160a01b039091168152602090f35b50346101d15760203660031901126101d1576004356001600160a01b038116908190036103fa5760408260ff9260209452601d84522054166101cf60405180926121fd565b50346101d157806003193601126101d157610a586123a4565b80f35b50346101d157806003193601126101d15760ff601f5416600581101561058b571580610afe575b610a895780f35b601054600854809110159081610af1575b5015610ab057600160ff19601f541617601f5580f35b610ac2600460ff19601f541617601f55565b610aca6124cc565b7fa9c660d43fdb14d4f7f7226623a556967689f58ee0e7c1a3397257bb909454c98180a180f35b905060115410155f610a9a565b50600454421015610a82565b50346101d15760203660031901126101d1576004356001600160a01b038116908190036103fa578160409160209352601c83522054604051908152f35b50346101d157806003193601126101d157610bab60018060a01b036001541660ff601f5416906010546011546004546018549160195493610bc9610b89612080565b97610bb9610b95612137565b6040519b8c9b6101208d526101208d01906121cc565b908b820360208d01526121cc565b9760408a015260608901906121f0565b608087015260a086015260c085015260e08401526101008301520390f35b50346101d157806003193601126101d1576020601154604051908152f35b50346101d157806003193601126101d157600f546040516001600160a01b039091168152602090f35b50346101d157806003193601126101d1576020601754604051908152f35b50346101d157806003193601126101d157610c656124ae565b60ff601f5416600581101561058b57600403610db057338152601b6020526040812060028101610cab815492610c9e60ff851615612326565b60018154910154906122f7565b918215610d765760ff19166001179055600b5482906001600160a01b0316803b156103fa5781809160c460405180948193634d8a45d560e11b835230600484015233602484015288604484015260806064840152600a60848401526910995d081c99599d5b9960b21b60a48401525af180156103ef57610d61575b50506040519081528160208201527ffbc3a599b784fe88772fc5abcc07223f64ca0b13acc341f4fb1e46bef0510eb460403392a26001815580f35b81610d6b9161205e565b6103fa57815f610d26565b60405162461bcd60e51b8152602060048201526012602482015271139bc81cdd185ad9481d1bc81c99599d5b9960721b6044820152606490fd5b60405162461bcd60e51b815260206004820152601160248201527010995d081b9bdd0818d85b98d95b1b1959607a1b6044820152606490fd5b50346101d15760203660031901126101d1576004356001600160a01b038116908190036103fa5760408260ff9260209452601a84522054166040519015158152f35b50346101d157806003193601126101d157610e446124ae565b60ff601f5416600581101561058b576003036110ba5760155460ff8160081c161561107557338252601b60205260408220906002820190815490610e8b60ff831615612326565b60ff8591169360038510159485611061576001811492831561104157505054905b8115610ffc576010549060115490610efc610ec783856122f7565b610ef76009546064610ef060ff82610ee4828660081c1688612366565b049360101c1685612366565b0492612397565b612397565b96610fe85715610fe05750905b859482610fc4575b50505060ff19166001179055600b5482906001600160a01b0316803b156103fa5781809160c460405180948193634d8a45d560e11b835230600484015233602484015288604484015260806064840152600c60848401526b4265742077696e6e696e677360a01b60a48401525af180156103ef57610d615750506040519081528160208201527ffbc3a599b784fe88772fc5abcc07223f64ca0b13acc341f4fb1e46bef0510eb460403392a26001815580f35b6001939550610fd792916104d691612366565b92905f80610f11565b905090610f09565b634e487b7160e01b88526021600452602488fd5b60405162461bcd60e51b815260206004820152601860248201527f4e6f7420612077696e6e6572206f72206e6f207374616b6500000000000000006044820152606490fd5b879650929190600214611055575b50610eac565b6001015491505f61104f565b634e487b7160e01b87526021600452602487fd5b60405162461bcd60e51b815260206004820152601c60248201527f57696e6e696e6773206e6f7420796574206469737472696275746564000000006044820152606490fd5b60405162461bcd60e51b815260206004820152601160248201527010995d081b9bdd0818dbdb5c1b195d1959607a1b6044820152606490fd5b50346101d15760203660031901126101d1576004356003811080156103eb5761111a6124ae565b60ff601f541660058110156109bd5760026111359114612249565b60065442101561152c5782600183149182801561151f575b156114eb57338552601b602052604085205415806114d4575b1561149957338552601e60205260ff60408620541661146457600c54604051630d47875d60e41b815233600482015290602090829060249082906001600160a01b03165afa8015611459576111cd91879161143a575b5060ff80600954169116101561229f565b600b5460408051631bf8924760e01b8152336004820152916001600160a01b03169082602481845afa91821561087b578792611417575b506013548092106113c6578691813b156103eb57829160c4839260405194859384926314f8d2c360e01b8452336004850152306024850152604484015260806064840152600a608484015269566f7465207374616b6560b01b60a48401525af180156103ef576113b1575b5050338552601e60205260408520600160ff19825416179055338552601d6020526040852090156104ff5760ff1981541660ff8516179055601354338552601c6020526112c1604086209182546122f7565b90556112d16013546012546122f7565b6012556112df601954612318565b60195561139d571561138a576112f6601654612318565b6016555b600b5482906001600160a01b0316803b156103fa578180916024604051809481936306aac6d960e01b83523360048401525af180156103ef57611375575b505060135460405191825260208201527fb4cfecf70861b7b150d8337780d34fb4cbc2114b5fb1fe51a5c5fca1849f727460403392a26001815580f35b8161137f9161205e565b6103fa57815f611338565b611395601754612318565b6017556112fa565b634e487b7160e01b83526021600452602483fd5b816113bb9161205e565b6107f757845f61126f565b60405162461bcd60e51b815260206004820152602360248201527f496e73756666696369656e7420696e7465726e616c2050524f4f462062616c616044820152626e636560e81b6064820152608490fd5b61143191925060403d60401161087457610865818361205e565b9050905f611204565b611453915060203d6020116108ff576108f1818361205e565b5f6111bc565b6040513d88823e3d90fd5b60405162461bcd60e51b815260206004820152600d60248201526c105b1c9958591e481d9bdd1959609a1b6044820152606490fd5b60405162461bcd60e51b8152602060048201526013602482015272426574746f72732063616e6e6f7420766f746560681b6044820152606490fd5b50338552601b602052600160408620015415611166565b60405162461bcd60e51b815260206004820152600c60248201526b496e76616c696420766f746560a01b6044820152606490fd5b508491506002841461114d565b60405162461bcd60e51b8152602060048201526011602482015270159bdd1a5b99c81a185cc818db1bdcd959607a1b6044820152606490fd5b50346101d15760203660031901126101d1576004356001600160a01b038116908190036103fa5760408260ff9260209452601e84522054166040519015158152f35b50346101d157806003193601126101d1576040516115c48161202d565b818152602081016060905260408101606090528160608201528160808201528160a08201528160c08201528160e0820152816101008201528161012082015281610140820152610160015260405161161b8161202d565b6001546001600160a01b03168152611631612080565b9060208101918252611641612137565b604082019081526004549060608301918252600554608084019081526006549060a085019182526007549160c0860192835260085460e087019081526009549361010088019260ff861684526101208901948660081c60ff1686526101408a019660101c60ff168752600a54976101608b019889526040519b8c9b60208d52600160a01b6001900390511660208d01525160408c0161018090526101a08c016116e9916121cc565b90518b8203601f190160608d015261170191906121cc565b985160808b01525160a08a01525160c08901525160e0880152516101008701525160ff166101208601525160ff166101408501525160ff16610160840152516101808301520390f35b50346101d157806003193601126101d157602060ff60155460081c166040519015158152f35b50346101d157806003193601126101d15760ff601f5416600581101561058b57600114806117a0575b610ab05780f35b50600554421015611799565b50346101d157806003193601126101d1576001546020906001600160a01b03166117d4612080565b6117dc612137565b9060ff60045492600554600654600754906008549261182760095495611819600a54996101806040519e8f9e8f90815201526101808d01906121cc565b908b820360408d01526121cc565b9760608a0152608089015260a088015260c087015260e0860152818116610100860152818160081c1661012086015260101c166101408401526101608301520390f35b50346101d157806003193601126101d1576020601854604051908152f35b50346101d157806003193601126101d157600b546040516001600160a01b039091168152602090f35b50346101d157806003193601126101d15760606016546017546012549060405192835260208301526040820152f35b50346101d15760203660031901126101d1576004359067ffffffffffffffff82116101d157366023830112156101d157816004013567ffffffffffffffff8111611b2d576040519261193c601f8301601f19166020018561205e565b81845236602483830101116103eb5781839260246020930183870137840101526001546001600160a01b03163303611c1e5760ff601f5416600581101561058b5760016119899114612249565b6004544210611bca57600554421015611b8657815115611b415781519167ffffffffffffffff8311611b2d576119c0601454611ff5565b601f8111611ac5575b50602092601f8111600114611a5957829381929391611a4e575b508160011b915f199060031b1c1916176014555b600260ff19601f541617601f557f227d17811e582357665ee6ee281ef8528946951eab558c87afaf102464d6cc56611a4860018060a01b0360015416926040519182916020835260208301906121cc565b0390a280f35b90508201515f6119e3565b60148352601f198116935f51602061253d5f395f51905f5290845b868110611aad575082600194959610611a95575b5050811b016014556119f7565b8401515f1960f88460031b161c191690555f80611a88565b90916020600181928588015181550193019101611a74565b60148352601f840160051c5f51602061253d5f395f51905f52019060208510611b18575b601f0160051c5f51602061253d5f395f51905f5201905b818110611b0d57506119c9565b838155600101611b00565b5f51602061253d5f395f51905f529150611ae9565b634e487b7160e01b82526041600452602482fd5b60405162461bcd60e51b815260206004820152601960248201527f50726f6f662055524c2063616e6e6f7420626520656d707479000000000000006044820152606490fd5b606460405162461bcd60e51b815260206004820152602060248201527f50726f6f66207375626d697373696f6e20646561646c696e65207061737365646044820152fd5b60405162461bcd60e51b815260206004820152602660248201527f42657474696e67206d75737420626520636c6f73656420746f207375626d697460448201526510383937b7b360d11b6064820152608490fd5b60405162461bcd60e51b815260206004820152600b60248201526a2737ba1031b932b0ba37b960a91b6044820152606490fd5b5034611d85575f366003190112611d8557611c6a6124ae565b60ff601f541660058110159081611ddf576003811480918115611e37575b50611c929061220a565b6015549160ff8360081c16611df357611ddf5715611dce575061010061ff00196015541617601555611cc9601054601154906122f7565b8015611d8957611ce460649160ff60095460101c1690612366565b0480611cf4575b505b6001815580f35b600b54600f546001600160a01b0391821692911690823b15611d855760c45f92836040519586948593634d8a45d560e11b85523060048601526024850152604484015260806064840152600c60848401526b506c6174666f726d2066656560a01b60a48401525af18015611d7a5715611ceb57611d7391505f9061205e565b5f5f611ceb565b6040513d5f823e3d90fd5b5f80fd5b60405162461bcd60e51b815260206004820152601760248201527f4e6f207374616b657320746f20646973747269627574650000000000000000006044820152606490fd5b61ff00191661010017601555611ced565b634e487b7160e01b5f52602160045260245ffd5b606460405162461bcd60e51b815260206004820152602060248201527f46756e647320616c7265616479206265696e6720646973747269627574696f6e6044820152fd5b5f93506004149050611c92611c88565b34611d85575f366003190112611d8557600d546040516001600160a01b039091168152602090f35b34611d85575f366003190112611d8557600e546040516001600160a01b039091168152602090f35b34611d85575f366003190112611d85576020601954604051908152f35b34611d85576020366003190112611d85576004356001600160a01b03811690819003611d85575f52601b602052606060405f2080549060ff600260018301549201541690604051928352602083015215156040820152f35b34611d85575f366003190112611d85576040515f601454611f2c81611ff5565b8084529060018116908115611fb75750600114611f6c575b611f6883611f548185038261205e565b6040519182916020835260208301906121cc565b0390f35b60145f9081525f51602061253d5f395f51905f52939250905b808210611f9d57509091508101602001611f54611f44565b919260018160209254838588010152019101909291611f85565b60ff191660208086019190915291151560051b84019091019150611f549050611f44565b34611d85575f366003190112611d85576020906010548152f35b90600182811c92168015612023575b602083101461200f57565b634e487b7160e01b5f52602260045260245ffd5b91607f1691612004565b610180810190811067ffffffffffffffff82111761204a57604052565b634e487b7160e01b5f52604160045260245ffd5b90601f8019910116810190811067ffffffffffffffff82111761204a57604052565b604051905f826002549161209383611ff5565b808352926001811690811561211857506001146120b9575b6120b79250038361205e565b565b5060025f90815290917f405787fa12a823e0f2b7631cc41b3ba8828b3321ca811111fa75cd3aa3bb5ace5b8183106120fc5750509060206120b7928201016120ab565b60209193508060019154838589010152019101909184926120e4565b602092506120b794915060ff191682840152151560051b8201016120ab565b604051905f826003549161214a83611ff5565b8083529260018116908115612118575060011461216d576120b79250038361205e565b5060035f90815290917fc2575a0e9e593c00f959f8c92f12db2869c3395a3b0502d05e2516446f71f85b5b8183106121b05750509060206120b7928201016120ab565b6020919350806001915483858901015201910190918492612198565b805180835260209291819084018484015e5f828201840152601f01601f1916010190565b906005821015611ddf5752565b906003821015611ddf5752565b1561221157565b60405162461bcd60e51b815260206004820152601060248201526f10995d081b9bdd08199a5b9a5cda195960821b6044820152606490fd5b1561225057565b60405162461bcd60e51b815260206004820152600e60248201526d496e76616c69642073746174757360901b6044820152606490fd5b90816020910312611d85575160ff81168103611d855790565b156122a657565b60405162461bcd60e51b815260206004820152601360248201527254727573742073636f726520746f6f206c6f7760681b6044820152606490fd5b9190826040910312611d85576020825192015190565b9190820180921161230457565b634e487b7160e01b5f52601160045260245ffd5b5f1981146123045760010190565b1561232d57565b60405162461bcd60e51b815260206004820152601160248201527020b63932b0b23c903bb4ba34323930bbb760791b6044820152606490fd5b8181029291811591840414171561230457565b8115612383570490565b634e487b7160e01b5f52601260045260245ffd5b9190820391821161230457565b60ff601f54166005811015611ddf57600214806124a2575b6123c257565b601954600a5411612462576016546017548082111561243d575050600160ff1960155416176015556123fc600360ff19601f541617601f55565b6124046124cc565b7fd6bcd4b6873d691163f1aff2d5585378623aef08e17513a5253eabe39c65dc50602060ff6015541661243a60405180926121fd565ba1565b111561246257600260ff1960155416176015556123fc600360ff19601f541617601f55565b612474600460ff19601f541617601f55565b61247c6124cc565b7fa9c660d43fdb14d4f7f7226623a556967689f58ee0e7c1a3397257bb909454c95f80a1565b506006544210156123bc565b60025f54146124bd5760025f55565b633ee5aeb560e01b5f5260045ffd5b60155460ff8160101c16156124de5750565b62ff000019166201000017601555600b546001546001600160a01b039182169116813b15611d85575f9160248392604051948593849263c19b52d960e01b845260048401525af18015611d7a576125325750565b5f6120b79161205e56fece6d7b5282bd9a3661ae061feed1dbda4e52ab073b1f9285be6e155d9c38d4eca26469706673582212201abce0976ba96cfaf80b6f2a51a9ed0c33ee5d703e5be9eef3f515007a01f67764736f6c634300081c0033a2646970667358221220c4ebeab9ffccfd2c6604b36992d7e00971ca4ca6d1eb032b81adfee1b1b427ac64736f6c634300081c0033",
  "linkReferences": {},
  "deployedLinkReferences": {},
  "immutableReferences": {},
  "inputSourceName": "project/contracts/BetFactory.sol",
  "buildInfoId": "solc-0_8_28-038e7466860e4069572d973bcaf8b81d6f9afe3a"
}